{
  "transactions": [
    {
      "hash": "0x46263cbe6e9b49d354b0cf4f59f365dd140020302e73c18af80581cebd5ca942",
      "transactionType": "CREATE",
      "contractName": "ERC1967Proxy",
      "contractAddress": "0x29b5d20fe7005ab81b3b919385003399e6397622",
      "function": null,
      "arguments": [
        "0x934f7639e5Cb320e4394736f5663b53E9C6b5c7b",
        "0x636c6acd00000000000000000000000000000000000000000000000000000000000000200000000000000000000000000000000000000000000000000000000000000140000000000000000000000000e8cf8a5711f08d5211d46a2835ecc9c9af1b91cd0000000000000000000000003a0f5b9436eca0c8c0eced659dcc41e86e65e33d0000000000000000000000003698f60a6761bfdd1511b4c68d000d55ff8fff8100000000000000000000000055782e7019f4619a06a25bf66d2998c8fe2cc436000000000000000000000000ecf5e30f091d1db7c7b0ef26634a71d46dc9bb25000000000000000000000000f3e4452fe17edbfa6833022b9c186aa14b98955d000000000000000000000000566e1f1b5bd7109f2c86805e2c092502d1b2f9f4000000000000000000000000345cd375ec42476eb95c5903fb3abb27f9400f9d000000000000000000000000ecf5e30f091d1db7c7b0ef26634a71d46dc9bb252a9aa442064b635baec37a7a259282faa5563a653a8325378d5676c6f04bc9dd00000000000000000000000000000000000000000000000000000000000000e0000000000000000000000000000000000000000000000000000000e8d4a5100000000000000000000000000000000000000000000000000000000000000005dc000000000000000000000000ecf5e30f091d1db7c7b0ef26634a71d46dc9bb25000000000000000000000000000000000000000000000000000000012a05f200edf166aae0afa6fe72f98aa49c579617293e68d5de0a77a4eeaad0b716a8203c0000000000000000000000000000000000000000000000000000000000000004000000000000000000000000e8cf8a5711f08d5211d46a2835ecc9c9af1b91cd0000000000000000000000003f81a60c5d5c6bfcb415080b846da22903ff37a0000000000000000000000000789ff10eb109626b01816161be72c9df32be4a00000000000000000000000000cf1276516a625723e40ae13d598de837079ad532"
      ],
      "transaction": {
        "from": "0xecf5e30f091d1db7c7b0ef26634a71d46dc9bb25",
        "gas": "0xe01d8",
        "value": "0x0",
        "input": "0x608060405261026c803803806100148161016e565b9283398101604082820312610156578151916001600160a01b03831690818403610156576020810151906001600160401b038211610156570182601f82011215610156578051906001600160401b03821161015a5761007c601f8301601f191660200161016e565b938285526020838301011161015657815f9260208093018387015e8401015281511561014757823b15610135577f360894a13ba1a3210667c828492db98dca3e2076cc3735a920a3ca505d382bbc80546001600160a01b031916821790557fbc7cd75a20ee27fd9adebab32041f755214dbc6bffa90cc0225b39da2e5c2d3b5f80a280511561011e5761010e91610193565b505b604051604c90816102208239f35b505034156101105763b398979f60e01b5f5260045ffd5b634c9c8ce360e01b5f5260045260245ffd5b6330a289cf60e21b5f5260045ffd5b5f80fd5b634e487b7160e01b5f52604160045260245ffd5b6040519190601f01601f191682016001600160401b0381118382101761015a57604052565b905f8091602081519101845af4808061020c575b156101c75750506040513d81523d5f602083013e60203d82010160405290565b156101ec57639996b31560e01b5f9081526001600160a01b0391909116600452602490fd5b3d156101fd576040513d5f823e3d90fd5b63d6bda27560e01b5f5260045ffd5b503d1515806101a75750813b15156101a756fe60806040527f360894a13ba1a3210667c828492db98dca3e2076cc3735a920a3ca505d382bbc545f9081906001600160a01b0316368280378136915af43d5f803e156048573d5ff35b3d5ffd000000000000000000000000934f7639e5cb320e4394736f5663b53e9c6b5c7b000000000000000000000000000000000000000000000000000000000000004000000000000000000000000000000000000000000000000000000000000002e4636c6acd00000000000000000000000000000000000000000000000000000000000000200000000000000000000000000000000000000000000000000000000000000140000000000000000000000000e8cf8a5711f08d5211d46a2835ecc9c9af1b91cd0000000000000000000000003a0f5b9436eca0c8c0eced659dcc41e86e65e33d0000000000000000000000003698f60a6761bfdd1511b4c68d000d55ff8fff8100000000000000000000000055782e7019f4619a06a25bf66d2998c8fe2cc436000000000000000000000000ecf5e30f091d1db7c7b0ef26634a71d46dc9bb25000000000000000000000000f3e4452fe17edbfa6833022b9c186aa14b98955d000000000000000000000000566e1f1b5bd7109f2c86805e2c092502d1b2f9f4000000000000000000000000345cd375ec42476eb95c5903fb3abb27f9400f9d000000000000000000000000ecf5e30f091d1db7c7b0ef26634a71d46dc9bb252a9aa442064b635baec37a7a259282faa5563a653a8325378d5676c6f04bc9dd00000000000000000000000000000000000000000000000000000000000000e0000000000000000000000000000000000000000000000000000000e8d4a5100000000000000000000000000000000000000000000000000000000000000005dc000000000000000000000000ecf5e30f091d1db7c7b0ef26634a71d46dc9bb25000000000000000000000000000000000000000000000000000000012a05f200edf166aae0afa6fe72f98aa49c579617293e68d5de0a77a4eeaad0b716a8203c0000000000000000000000000000000000000000000000000000000000000004000000000000000000000000e8cf8a5711f08d5211d46a2835ecc9c9af1b91cd0000000000000000000000003f81a60c5d5c6bfcb415080b846da22903ff37a0000000000000000000000000789ff10eb109626b01816161be72c9df32be4a00000000000000000000000000cf1276516a625723e40ae13d598de837079ad53200000000000000000000000000000000000000000000000000000000",
        "nonce": "0x2d4",
        "chainId": "0x940"
      },
      "additionalContracts": [],
      "isFixedGasLimit": false
    },
    {
      "hash": "0x3cf360ee3286cdec073bd22e4be7d6a16ec06184d148a52901d42f26c77a4115",
      "transactionType": "CREATE",
      "contractName": "ERC1967Proxy",
      "contractAddress": "0xdcb2d64f6f2500ca899d89f885fa6738df4d4a3e",
      "function": null,
      "arguments": [
        "0x934f7639e5Cb320e4394736f5663b53E9C6b5c7b",
        "0x636c6acd00000000000000000000000000000000000000000000000000000000000000200000000000000000000000000000000000000000000000000000000000000140000000000000000000000000e8cf8a5711f08d5211d46a2835ecc9c9af1b91cd0000000000000000000000003a0f5b9436eca0c8c0eced659dcc41e86e65e33d0000000000000000000000003698f60a6761bfdd1511b4c68d000d55ff8fff8100000000000000000000000055782e7019f4619a06a25bf66d2998c8fe2cc436000000000000000000000000ecf5e30f091d1db7c7b0ef26634a71d46dc9bb25000000000000000000000000f3e4452fe17edbfa6833022b9c186aa14b98955d000000000000000000000000566e1f1b5bd7109f2c86805e2c092502d1b2f9f4000000000000000000000000345cd375ec42476eb95c5903fb3abb27f9400f9d000000000000000000000000ecf5e30f091d1db7c7b0ef26634a71d46dc9bb252a9aa442064b635baec37a7a259282faa5563a653a8325378d5676c6f04bc9dd00000000000000000000000000000000000000000000000000000000000000e0000000000000000000000000000000000000000000000000000000e8d4a5100000000000000000000000000000000000000000000000000000000000000005dc000000000000000000000000ecf5e30f091d1db7c7b0ef26634a71d46dc9bb25000000000000000000000000000000000000000000000000000000012a05f2007fe4dc326affabb67f5bec25a1ff67f87e85f1cbf19af92d76fd98a290c97a720000000000000000000000000000000000000000000000000000000000000004000000000000000000000000e8cf8a5711f08d5211d46a2835ecc9c9af1b91cd0000000000000000000000003f81a60c5d5c6bfcb415080b846da22903ff37a0000000000000000000000000789ff10eb109626b01816161be72c9df32be4a00000000000000000000000000cf1276516a625723e40ae13d598de837079ad532"
      ],
      "transaction": {
        "from": "0xecf5e30f091d1db7c7b0ef26634a71d46dc9bb25",
        "gas": "0xe01d8",
        "value": "0x0",
        "input": "0x608060405261026c803803806100148161016e565b9283398101604082820312610156578151916001600160a01b03831690818403610156576020810151906001600160401b038211610156570182601f82011215610156578051906001600160401b03821161015a5761007c601f8301601f191660200161016e565b938285526020838301011161015657815f9260208093018387015e8401015281511561014757823b15610135577f360894a13ba1a3210667c828492db98dca3e2076cc3735a920a3ca505d382bbc80546001600160a01b031916821790557fbc7cd75a20ee27fd9adebab32041f755214dbc6bffa90cc0225b39da2e5c2d3b5f80a280511561011e5761010e91610193565b505b604051604c90816102208239f35b505034156101105763b398979f60e01b5f5260045ffd5b634c9c8ce360e01b5f5260045260245ffd5b6330a289cf60e21b5f5260045ffd5b5f80fd5b634e487b7160e01b5f52604160045260245ffd5b6040519190601f01601f191682016001600160401b0381118382101761015a57604052565b905f8091602081519101845af4808061020c575b156101c75750506040513d81523d5f602083013e60203d82010160405290565b156101ec57639996b31560e01b5f9081526001600160a01b0391909116600452602490fd5b3d156101fd576040513d5f823e3d90fd5b63d6bda27560e01b5f5260045ffd5b503d1515806101a75750813b15156101a756fe60806040527f360894a13ba1a3210667c828492db98dca3e2076cc3735a920a3ca505d382bbc545f9081906001600160a01b0316368280378136915af43d5f803e156048573d5ff35b3d5ffd000000000000000000000000934f7639e5cb320e4394736f5663b53e9c6b5c7b000000000000000000000000000000000000000000000000000000000000004000000000000000000000000000000000000000000000000000000000000002e4636c6acd00000000000000000000000000000000000000000000000000000000000000200000000000000000000000000000000000000000000000000000000000000140000000000000000000000000e8cf8a5711f08d5211d46a2835ecc9c9af1b91cd0000000000000000000000003a0f5b9436eca0c8c0eced659dcc41e86e65e33d0000000000000000000000003698f60a6761bfdd1511b4c68d000d55ff8fff8100000000000000000000000055782e7019f4619a06a25bf66d2998c8fe2cc436000000000000000000000000ecf5e30f091d1db7c7b0ef26634a71d46dc9bb25000000000000000000000000f3e4452fe17edbfa6833022b9c186aa14b98955d000000000000000000000000566e1f1b5bd7109f2c86805e2c092502d1b2f9f4000000000000000000000000345cd375ec42476eb95c5903fb3abb27f9400f9d000000000000000000000000ecf5e30f091d1db7c7b0ef26634a71d46dc9bb252a9aa442064b635baec37a7a259282faa5563a653a8325378d5676c6f04bc9dd00000000000000000000000000000000000000000000000000000000000000e0000000000000000000000000000000000000000000000000000000e8d4a5100000000000000000000000000000000000000000000000000000000000000005dc000000000000000000000000ecf5e30f091d1db7c7b0ef26634a71d46dc9bb25000000000000000000000000000000000000000000000000000000012a05f2007fe4dc326affabb67f5bec25a1ff67f87e85f1cbf19af92d76fd98a290c97a720000000000000000000000000000000000000000000000000000000000000004000000000000000000000000e8cf8a5711f08d5211d46a2835ecc9c9af1b91cd0000000000000000000000003f81a60c5d5c6bfcb415080b846da22903ff37a0000000000000000000000000789ff10eb109626b01816161be72c9df32be4a00000000000000000000000000cf1276516a625723e40ae13d598de837079ad53200000000000000000000000000000000000000000000000000000000",
        "nonce": "0x2d5",
        "chainId": "0x940"
      },
      "additionalContracts": [],
      "isFixedGasLimit": false
    },
    {
      "hash": "0x2b6230cf20427b262f58a5fcaf4bdd8bc7eba370a5a0eaa103bf9994c2e9a1d5",
      "transactionType": "CREATE",
      "contractName": "ERC1967Proxy",
      "contractAddress": "0x24dc209dab31887f20ecf7eae626f4e8fa46d570",
      "function": null,
      "arguments": [
        "0x934f7639e5Cb320e4394736f5663b53E9C6b5c7b",
        "0x636c6acd00000000000000000000000000000000000000000000000000000000000000200000000000000000000000000000000000000000000000000000000000000140000000000000000000000000e8cf8a5711f08d5211d46a2835ecc9c9af1b91cd0000000000000000000000003a0f5b9436eca0c8c0eced659dcc41e86e65e33d0000000000000000000000003698f60a6761bfdd1511b4c68d000d55ff8fff8100000000000000000000000055782e7019f4619a06a25bf66d2998c8fe2cc436000000000000000000000000ecf5e30f091d1db7c7b0ef26634a71d46dc9bb25000000000000000000000000f3e4452fe17edbfa6833022b9c186aa14b98955d000000000000000000000000566e1f1b5bd7109f2c86805e2c092502d1b2f9f4000000000000000000000000345cd375ec42476eb95c5903fb3abb27f9400f9d000000000000000000000000ecf5e30f091d1db7c7b0ef26634a71d46dc9bb252a9aa442064b635baec37a7a259282faa5563a653a8325378d5676c6f04bc9dd00000000000000000000000000000000000000000000000000000000000000e0000000000000000000000000000000000000000000000000000000e8d4a5100000000000000000000000000000000000000000000000000000000000000005dc000000000000000000000000ecf5e30f091d1db7c7b0ef26634a71d46dc9bb25000000000000000000000000000000000000000000000000000000012a05f200b0a4daca315f3250d863b8fd4f1f9917a3afe97cf23dcc776782423037a1e5900000000000000000000000000000000000000000000000000000000000000004000000000000000000000000e8cf8a5711f08d5211d46a2835ecc9c9af1b91cd0000000000000000000000003f81a60c5d5c6bfcb415080b846da22903ff37a0000000000000000000000000789ff10eb109626b01816161be72c9df32be4a00000000000000000000000000cf1276516a625723e40ae13d598de837079ad532"
      ],
      "transaction": {
        "from": "0xecf5e30f091d1db7c7b0ef26634a71d46dc9bb25",
        "gas": "0xe01d8",
        "value": "0x0",
        "input": "0x608060405261026c803803806100148161016e565b9283398101604082820312610156578151916001600160a01b03831690818403610156576020810151906001600160401b038211610156570182601f82011215610156578051906001600160401b03821161015a5761007c601f8301601f191660200161016e565b938285526020838301011161015657815f9260208093018387015e8401015281511561014757823b15610135577f360894a13ba1a3210667c828492db98dca3e2076cc3735a920a3ca505d382bbc80546001600160a01b031916821790557fbc7cd75a20ee27fd9adebab32041f755214dbc6bffa90cc0225b39da2e5c2d3b5f80a280511561011e5761010e91610193565b505b604051604c90816102208239f35b505034156101105763b398979f60e01b5f5260045ffd5b634c9c8ce360e01b5f5260045260245ffd5b6330a289cf60e21b5f5260045ffd5b5f80fd5b634e487b7160e01b5f52604160045260245ffd5b6040519190601f01601f191682016001600160401b0381118382101761015a57604052565b905f8091602081519101845af4808061020c575b156101c75750506040513d81523d5f602083013e60203d82010160405290565b156101ec57639996b31560e01b5f9081526001600160a01b0391909116600452602490fd5b3d156101fd576040513d5f823e3d90fd5b63d6bda27560e01b5f5260045ffd5b503d1515806101a75750813b15156101a756fe60806040527f360894a13ba1a3210667c828492db98dca3e2076cc3735a920a3ca505d382bbc545f9081906001600160a01b0316368280378136915af43d5f803e156048573d5ff35b3d5ffd000000000000000000000000934f7639e5cb320e4394736f5663b53e9c6b5c7b000000000000000000000000000000000000000000000000000000000000004000000000000000000000000000000000000000000000000000000000000002e4636c6acd00000000000000000000000000000000000000000000000000000000000000200000000000000000000000000000000000000000000000000000000000000140000000000000000000000000e8cf8a5711f08d5211d46a2835ecc9c9af1b91cd0000000000000000000000003a0f5b9436eca0c8c0eced659dcc41e86e65e33d0000000000000000000000003698f60a6761bfdd1511b4c68d000d55ff8fff8100000000000000000000000055782e7019f4619a06a25bf66d2998c8fe2cc436000000000000000000000000ecf5e30f091d1db7c7b0ef26634a71d46dc9bb25000000000000000000000000f3e4452fe17edbfa6833022b9c186aa14b98955d000000000000000000000000566e1f1b5bd7109f2c86805e2c092502d1b2f9f4000000000000000000000000345cd375ec42476eb95c5903fb3abb27f9400f9d000000000000000000000000ecf5e30f091d1db7c7b0ef26634a71d46dc9bb252a9aa442064b635baec37a7a259282faa5563a653a8325378d5676c6f04bc9dd00000000000000000000000000000000000000000000000000000000000000e0000000000000000000000000000000000000000000000000000000e8d4a5100000000000000000000000000000000000000000000000000000000000000005dc000000000000000000000000ecf5e30f091d1db7c7b0ef26634a71d46dc9bb25000000000000000000000000000000000000000000000000000000012a05f200b0a4daca315f3250d863b8fd4f1f9917a3afe97cf23dcc776782423037a1e5900000000000000000000000000000000000000000000000000000000000000004000000000000000000000000e8cf8a5711f08d5211d46a2835ecc9c9af1b91cd0000000000000000000000003f81a60c5d5c6bfcb415080b846da22903ff37a0000000000000000000000000789ff10eb109626b01816161be72c9df32be4a00000000000000000000000000cf1276516a625723e40ae13d598de837079ad53200000000000000000000000000000000000000000000000000000000",
        "nonce": "0x2d6",
        "chainId": "0x940"
      },
      "additionalContracts": [],
      "isFixedGasLimit": false
    },
    {
      "hash": "0x138675f69f636dab37657ddfdeeeff557a964fbdc26d668c855a0875688d7ca5",
      "transactionType": "CREATE",
      "contractName": "ERC1967Proxy",
      "contractAddress": "0xf825727ea1d19066e6b06bcc928a658ee1e7516f",
      "function": null,
      "arguments": [
        "0x934f7639e5Cb320e4394736f5663b53E9C6b5c7b",
        "0x636c6acd00000000000000000000000000000000000000000000000000000000000000200000000000000000000000000000000000000000000000000000000000000140000000000000000000000000e8cf8a5711f08d5211d46a2835ecc9c9af1b91cd0000000000000000000000003a0f5b9436eca0c8c0eced659dcc41e86e65e33d0000000000000000000000003698f60a6761bfdd1511b4c68d000d55ff8fff8100000000000000000000000055782e7019f4619a06a25bf66d2998c8fe2cc436000000000000000000000000ecf5e30f091d1db7c7b0ef26634a71d46dc9bb25000000000000000000000000f3e4452fe17edbfa6833022b9c186aa14b98955d000000000000000000000000566e1f1b5bd7109f2c86805e2c092502d1b2f9f4000000000000000000000000345cd375ec42476eb95c5903fb3abb27f9400f9d000000000000000000000000ecf5e30f091d1db7c7b0ef26634a71d46dc9bb2518602f4f74172d545f5258541634e1a125c3a4e1227ee2a4cbee957d3490f1fb00000000000000000000000000000000000000000000000000000000000000e0000000000000000000000000000000000000000000000000000000e8d4a5100000000000000000000000000000000000000000000000000000000000000005dc000000000000000000000000ecf5e30f091d1db7c7b0ef26634a71d46dc9bb25000000000000000000000000000000000000000000000000000000012a05f20091fc940683cbf961b888c8daf4160fed358efc676d04a5cdcde4b25cff9f15a70000000000000000000000000000000000000000000000000000000000000004000000000000000000000000e8cf8a5711f08d5211d46a2835ecc9c9af1b91cd0000000000000000000000003f81a60c5d5c6bfcb415080b846da22903ff37a0000000000000000000000000789ff10eb109626b01816161be72c9df32be4a00000000000000000000000000cf1276516a625723e40ae13d598de837079ad532"
      ],
      "transaction": {
        "from": "0xecf5e30f091d1db7c7b0ef26634a71d46dc9bb25",
        "gas": "0xe01d8",
        "value": "0x0",
        "input": "0x608060405261026c803803806100148161016e565b9283398101604082820312610156578151916001600160a01b03831690818403610156576020810151906001600160401b038211610156570182601f82011215610156578051906001600160401b03821161015a5761007c601f8301601f191660200161016e565b938285526020838301011161015657815f9260208093018387015e8401015281511561014757823b15610135577f360894a13ba1a3210667c828492db98dca3e2076cc3735a920a3ca505d382bbc80546001600160a01b031916821790557fbc7cd75a20ee27fd9adebab32041f755214dbc6bffa90cc0225b39da2e5c2d3b5f80a280511561011e5761010e91610193565b505b604051604c90816102208239f35b505034156101105763b398979f60e01b5f5260045ffd5b634c9c8ce360e01b5f5260045260245ffd5b6330a289cf60e21b5f5260045ffd5b5f80fd5b634e487b7160e01b5f52604160045260245ffd5b6040519190601f01601f191682016001600160401b0381118382101761015a57604052565b905f8091602081519101845af4808061020c575b156101c75750506040513d81523d5f602083013e60203d82010160405290565b156101ec57639996b31560e01b5f9081526001600160a01b0391909116600452602490fd5b3d156101fd576040513d5f823e3d90fd5b63d6bda27560e01b5f5260045ffd5b503d1515806101a75750813b15156101a756fe60806040527f360894a13ba1a3210667c828492db98dca3e2076cc3735a920a3ca505d382bbc545f9081906001600160a01b0316368280378136915af43d5f803e156048573d5ff35b3d5ffd000000000000000000000000934f7639e5cb320e4394736f5663b53e9c6b5c7b000000000000000000000000000000000000000000000000000000000000004000000000000000000000000000000000000000000000000000000000000002e4636c6acd00000000000000000000000000000000000000000000000000000000000000200000000000000000000000000000000000000000000000000000000000000140000000000000000000000000e8cf8a5711f08d5211d46a2835ecc9c9af1b91cd0000000000000000000000003a0f5b9436eca0c8c0eced659dcc41e86e65e33d0000000000000000000000003698f60a6761bfdd1511b4c68d000d55ff8fff8100000000000000000000000055782e7019f4619a06a25bf66d2998c8fe2cc436000000000000000000000000ecf5e30f091d1db7c7b0ef26634a71d46dc9bb25000000000000000000000000f3e4452fe17edbfa6833022b9c186aa14b98955d000000000000000000000000566e1f1b5bd7109f2c86805e2c092502d1b2f9f4000000000000000000000000345cd375ec42476eb95c5903fb3abb27f9400f9d000000000000000000000000ecf5e30f091d1db7c7b0ef26634a71d46dc9bb2518602f4f74172d545f5258541634e1a125c3a4e1227ee2a4cbee957d3490f1fb00000000000000000000000000000000000000000000000000000000000000e0000000000000000000000000000000000000000000000000000000e8d4a5100000000000000000000000000000000000000000000000000000000000000005dc000000000000000000000000ecf5e30f091d1db7c7b0ef26634a71d46dc9bb25000000000000000000000000000000000000000000000000000000012a05f20091fc940683cbf961b888c8daf4160fed358efc676d04a5cdcde4b25cff9f15a70000000000000000000000000000000000000000000000000000000000000004000000000000000000000000e8cf8a5711f08d5211d46a2835ecc9c9af1b91cd0000000000000000000000003f81a60c5d5c6bfcb415080b846da22903ff37a0000000000000000000000000789ff10eb109626b01816161be72c9df32be4a00000000000000000000000000cf1276516a625723e40ae13d598de837079ad53200000000000000000000000000000000000000000000000000000000",
        "nonce": "0x2d7",
        "chainId": "0x940"
      },
      "additionalContracts": [],
      "isFixedGasLimit": false
    },
    {
      "hash": "0x7fad9902525906a4560ebddc2ab61ec50e44742e54066ff1a2f7f2bd42bafaa5",
      "transactionType": "CREATE",
      "contractName": "ERC1967Proxy",
      "contractAddress": "0xa863b0372f28f368119cbf4ae2b46730e5d009f5",
      "function": null,
      "arguments": [
        "0x934f7639e5Cb320e4394736f5663b53E9C6b5c7b",
        "0x636c6acd00000000000000000000000000000000000000000000000000000000000000200000000000000000000000000000000000000000000000000000000000000140000000000000000000000000e8cf8a5711f08d5211d46a2835ecc9c9af1b91cd0000000000000000000000003a0f5b9436eca0c8c0eced659dcc41e86e65e33d0000000000000000000000003698f60a6761bfdd1511b4c68d000d55ff8fff8100000000000000000000000055782e7019f4619a06a25bf66d2998c8fe2cc436000000000000000000000000ecf5e30f091d1db7c7b0ef26634a71d46dc9bb25000000000000000000000000f3e4452fe17edbfa6833022b9c186aa14b98955d000000000000000000000000566e1f1b5bd7109f2c86805e2c092502d1b2f9f4000000000000000000000000345cd375ec42476eb95c5903fb3abb27f9400f9d000000000000000000000000ecf5e30f091d1db7c7b0ef26634a71d46dc9bb2518602f4f74172d545f5258541634e1a125c3a4e1227ee2a4cbee957d3490f1fb00000000000000000000000000000000000000000000000000000000000000e0000000000000000000000000000000000000000000000000000000e8d4a5100000000000000000000000000000000000000000000000000000000000000005dc000000000000000000000000ecf5e30f091d1db7c7b0ef26634a71d46dc9bb25000000000000000000000000000000000000000000000000000000012a05f2006b4996e73ab551a4da46dabb2ccc5cbbf11897b8737952d067390890f2e90f9c0000000000000000000000000000000000000000000000000000000000000004000000000000000000000000e8cf8a5711f08d5211d46a2835ecc9c9af1b91cd0000000000000000000000003f81a60c5d5c6bfcb415080b846da22903ff37a0000000000000000000000000789ff10eb109626b01816161be72c9df32be4a00000000000000000000000000cf1276516a625723e40ae13d598de837079ad532"
      ],
      "transaction": {
        "from": "0xecf5e30f091d1db7c7b0ef26634a71d46dc9bb25",
        "gas": "0xe01d8",
        "value": "0x0",
        "input": "0x608060405261026c803803806100148161016e565b9283398101604082820312610156578151916001600160a01b03831690818403610156576020810151906001600160401b038211610156570182601f82011215610156578051906001600160401b03821161015a5761007c601f8301601f191660200161016e565b938285526020838301011161015657815f9260208093018387015e8401015281511561014757823b15610135577f360894a13ba1a3210667c828492db98dca3e2076cc3735a920a3ca505d382bbc80546001600160a01b031916821790557fbc7cd75a20ee27fd9adebab32041f755214dbc6bffa90cc0225b39da2e5c2d3b5f80a280511561011e5761010e91610193565b505b604051604c90816102208239f35b505034156101105763b398979f60e01b5f5260045ffd5b634c9c8ce360e01b5f5260045260245ffd5b6330a289cf60e21b5f5260045ffd5b5f80fd5b634e487b7160e01b5f52604160045260245ffd5b6040519190601f01601f191682016001600160401b0381118382101761015a57604052565b905f8091602081519101845af4808061020c575b156101c75750506040513d81523d5f602083013e60203d82010160405290565b156101ec57639996b31560e01b5f9081526001600160a01b0391909116600452602490fd5b3d156101fd576040513d5f823e3d90fd5b63d6bda27560e01b5f5260045ffd5b503d1515806101a75750813b15156101a756fe60806040527f360894a13ba1a3210667c828492db98dca3e2076cc3735a920a3ca505d382bbc545f9081906001600160a01b0316368280378136915af43d5f803e156048573d5ff35b3d5ffd000000000000000000000000934f7639e5cb320e4394736f5663b53e9c6b5c7b000000000000000000000000000000000000000000000000000000000000004000000000000000000000000000000000000000000000000000000000000002e4636c6acd00000000000000000000000000000000000000000000000000000000000000200000000000000000000000000000000000000000000000000000000000000140000000000000000000000000e8cf8a5711f08d5211d46a2835ecc9c9af1b91cd0000000000000000000000003a0f5b9436eca0c8c0eced659dcc41e86e65e33d0000000000000000000000003698f60a6761bfdd1511b4c68d000d55ff8fff8100000000000000000000000055782e7019f4619a06a25bf66d2998c8fe2cc436000000000000000000000000ecf5e30f091d1db7c7b0ef26634a71d46dc9bb25000000000000000000000000f3e4452fe17edbfa6833022b9c186aa14b98955d000000000000000000000000566e1f1b5bd7109f2c86805e2c092502d1b2f9f4000000000000000000000000345cd375ec42476eb95c5903fb3abb27f9400f9d000000000000000000000000ecf5e30f091d1db7c7b0ef26634a71d46dc9bb2518602f4f74172d545f5258541634e1a125c3a4e1227ee2a4cbee957d3490f1fb00000000000000000000000000000000000000000000000000000000000000e0000000000000000000000000000000000000000000000000000000e8d4a5100000000000000000000000000000000000000000000000000000000000000005dc000000000000000000000000ecf5e30f091d1db7c7b0ef26634a71d46dc9bb25000000000000000000000000000000000000000000000000000000012a05f2006b4996e73ab551a4da46dabb2ccc5cbbf11897b8737952d067390890f2e90f9c0000000000000000000000000000000000000000000000000000000000000004000000000000000000000000e8cf8a5711f08d5211d46a2835ecc9c9af1b91cd0000000000000000000000003f81a60c5d5c6bfcb415080b846da22903ff37a0000000000000000000000000789ff10eb109626b01816161be72c9df32be4a00000000000000000000000000cf1276516a625723e40ae13d598de837079ad53200000000000000000000000000000000000000000000000000000000",
        "nonce": "0x2d8",
        "chainId": "0x940"
      },
      "additionalContracts": [],
      "isFixedGasLimit": false
    },
    {
      "hash": "0x6dfd3d8e80d2c954487aebf483d35252f64cf973ea5f65c520d1edd0ec316f15",
      "transactionType": "CREATE",
      "contractName": "ERC1967Proxy",
      "contractAddress": "0xf44051d85f1a2f31a249d5f4136176c083f09dd3",
      "function": null,
      "arguments": [
        "0x934f7639e5Cb320e4394736f5663b53E9C6b5c7b",
        "0x636c6acd00000000000000000000000000000000000000000000000000000000000000200000000000000000000000000000000000000000000000000000000000000140000000000000000000000000e8cf8a5711f08d5211d46a2835ecc9c9af1b91cd0000000000000000000000003a0f5b9436eca0c8c0eced659dcc41e86e65e33d0000000000000000000000003698f60a6761bfdd1511b4c68d000d55ff8fff8100000000000000000000000055782e7019f4619a06a25bf66d2998c8fe2cc436000000000000000000000000ecf5e30f091d1db7c7b0ef26634a71d46dc9bb25000000000000000000000000f3e4452fe17edbfa6833022b9c186aa14b98955d000000000000000000000000566e1f1b5bd7109f2c86805e2c092502d1b2f9f4000000000000000000000000345cd375ec42476eb95c5903fb3abb27f9400f9d000000000000000000000000ecf5e30f091d1db7c7b0ef26634a71d46dc9bb2518602f4f74172d545f5258541634e1a125c3a4e1227ee2a4cbee957d3490f1fb00000000000000000000000000000000000000000000000000000000000000e0000000000000000000000000000000000000000000000000000000e8d4a5100000000000000000000000000000000000000000000000000000000000000005dc000000000000000000000000ecf5e30f091d1db7c7b0ef26634a71d46dc9bb25000000000000000000000000000000000000000000000000000000012a05f20034447740784d080270205d76d3400094e89c9ffae3954d79ed2fcf462dc51cb00000000000000000000000000000000000000000000000000000000000000004000000000000000000000000e8cf8a5711f08d5211d46a2835ecc9c9af1b91cd0000000000000000000000003f81a60c5d5c6bfcb415080b846da22903ff37a0000000000000000000000000789ff10eb109626b01816161be72c9df32be4a00000000000000000000000000cf1276516a625723e40ae13d598de837079ad532"
      ],
      "transaction": {
        "from": "0xecf5e30f091d1db7c7b0ef26634a71d46dc9bb25",
        "gas": "0xe01c9",
        "value": "0x0",
        "input": "0x608060405261026c803803806100148161016e565b9283398101604082820312610156578151916001600160a01b03831690818403610156576020810151906001600160401b038211610156570182601f82011215610156578051906001600160401b03821161015a5761007c601f8301601f191660200161016e565b938285526020838301011161015657815f9260208093018387015e8401015281511561014757823b15610135577f360894a13ba1a3210667c828492db98dca3e2076cc3735a920a3ca505d382bbc80546001600160a01b031916821790557fbc7cd75a20ee27fd9adebab32041f755214dbc6bffa90cc0225b39da2e5c2d3b5f80a280511561011e5761010e91610193565b505b604051604c90816102208239f35b505034156101105763b398979f60e01b5f5260045ffd5b634c9c8ce360e01b5f5260045260245ffd5b6330a289cf60e21b5f5260045ffd5b5f80fd5b634e487b7160e01b5f52604160045260245ffd5b6040519190601f01601f191682016001600160401b0381118382101761015a57604052565b905f8091602081519101845af4808061020c575b156101c75750506040513d81523d5f602083013e60203d82010160405290565b156101ec57639996b31560e01b5f9081526001600160a01b0391909116600452602490fd5b3d156101fd576040513d5f823e3d90fd5b63d6bda27560e01b5f5260045ffd5b503d1515806101a75750813b15156101a756fe60806040527f360894a13ba1a3210667c828492db98dca3e2076cc3735a920a3ca505d382bbc545f9081906001600160a01b0316368280378136915af43d5f803e156048573d5ff35b3d5ffd000000000000000000000000934f7639e5cb320e4394736f5663b53e9c6b5c7b000000000000000000000000000000000000000000000000000000000000004000000000000000000000000000000000000000000000000000000000000002e4636c6acd00000000000000000000000000000000000000000000000000000000000000200000000000000000000000000000000000000000000000000000000000000140000000000000000000000000e8cf8a5711f08d5211d46a2835ecc9c9af1b91cd0000000000000000000000003a0f5b9436eca0c8c0eced659dcc41e86e65e33d0000000000000000000000003698f60a6761bfdd1511b4c68d000d55ff8fff8100000000000000000000000055782e7019f4619a06a25bf66d2998c8fe2cc436000000000000000000000000ecf5e30f091d1db7c7b0ef26634a71d46dc9bb25000000000000000000000000f3e4452fe17edbfa6833022b9c186aa14b98955d000000000000000000000000566e1f1b5bd7109f2c86805e2c092502d1b2f9f4000000000000000000000000345cd375ec42476eb95c5903fb3abb27f9400f9d000000000000000000000000ecf5e30f091d1db7c7b0ef26634a71d46dc9bb2518602f4f74172d545f5258541634e1a125c3a4e1227ee2a4cbee957d3490f1fb00000000000000000000000000000000000000000000000000000000000000e0000000000000000000000000000000000000000000000000000000e8d4a5100000000000000000000000000000000000000000000000000000000000000005dc000000000000000000000000ecf5e30f091d1db7c7b0ef26634a71d46dc9bb25000000000000000000000000000000000000000000000000000000012a05f20034447740784d080270205d76d3400094e89c9ffae3954d79ed2fcf462dc51cb00000000000000000000000000000000000000000000000000000000000000004000000000000000000000000e8cf8a5711f08d5211d46a2835ecc9c9af1b91cd0000000000000000000000003f81a60c5d5c6bfcb415080b846da22903ff37a0000000000000000000000000789ff10eb109626b01816161be72c9df32be4a00000000000000000000000000cf1276516a625723e40ae13d598de837079ad53200000000000000000000000000000000000000000000000000000000",
        "nonce": "0x2d9",
        "chainId": "0x940"
      },
      "additionalContracts": [],
      "isFixedGasLimit": false
    },
    {
      "hash": "0xe0d041ef333feba2331174bae601e009e75bad4b8eee78b50fa7813489642252",
      "transactionType": "CREATE",
      "contractName": "ERC1967Proxy",
      "contractAddress": "0x2c765493f3899d2236d172b5c9c7c9473bd71765",
      "function": null,
      "arguments": [
        "0x934f7639e5Cb320e4394736f5663b53E9C6b5c7b",
        "0x636c6acd00000000000000000000000000000000000000000000000000000000000000200000000000000000000000000000000000000000000000000000000000000140000000000000000000000000e8cf8a5711f08d5211d46a2835ecc9c9af1b91cd0000000000000000000000003a0f5b9436eca0c8c0eced659dcc41e86e65e33d0000000000000000000000003698f60a6761bfdd1511b4c68d000d55ff8fff8100000000000000000000000055782e7019f4619a06a25bf66d2998c8fe2cc436000000000000000000000000ecf5e30f091d1db7c7b0ef26634a71d46dc9bb25000000000000000000000000f3e4452fe17edbfa6833022b9c186aa14b98955d000000000000000000000000566e1f1b5bd7109f2c86805e2c092502d1b2f9f4000000000000000000000000345cd375ec42476eb95c5903fb3abb27f9400f9d000000000000000000000000ecf5e30f091d1db7c7b0ef26634a71d46dc9bb252e882135c6afc3bda02a9c8a7c6a351198d97599c804a2575a3d616073a8725100000000000000000000000000000000000000000000000000000000000000e0000000000000000000000000000000000000000000000000000000e8d4a5100000000000000000000000000000000000000000000000000000000000000005dc000000000000000000000000ecf5e30f091d1db7c7b0ef26634a71d46dc9bb25000000000000000000000000000000000000000000000000000000012a05f2007dfdbdfec68b89dc37318583311b1f70f4131e595fb5e97cb33dc45f9ecff9b00000000000000000000000000000000000000000000000000000000000000001000000000000000000000000e8cf8a5711f08d5211d46a2835ecc9c9af1b91cd"
      ],
      "transaction": {
        "from": "0xecf5e30f091d1db7c7b0ef26634a71d46dc9bb25",
        "gas": "0xb4cb4",
        "value": "0x0",
        "input": "0x608060405261026c803803806100148161016e565b9283398101604082820312610156578151916001600160a01b03831690818403610156576020810151906001600160401b038211610156570182601f82011215610156578051906001600160401b03821161015a5761007c601f8301601f191660200161016e565b938285526020838301011161015657815f9260208093018387015e8401015281511561014757823b15610135577f360894a13ba1a3210667c828492db98dca3e2076cc3735a920a3ca505d382bbc80546001600160a01b031916821790557fbc7cd75a20ee27fd9adebab32041f755214dbc6bffa90cc0225b39da2e5c2d3b5f80a280511561011e5761010e91610193565b505b604051604c90816102208239f35b505034156101105763b398979f60e01b5f5260045ffd5b634c9c8ce360e01b5f5260045260245ffd5b6330a289cf60e21b5f5260045ffd5b5f80fd5b634e487b7160e01b5f52604160045260245ffd5b6040519190601f01601f191682016001600160401b0381118382101761015a57604052565b905f8091602081519101845af4808061020c575b156101c75750506040513d81523d5f602083013e60203d82010160405290565b156101ec57639996b31560e01b5f9081526001600160a01b0391909116600452602490fd5b3d156101fd576040513d5f823e3d90fd5b63d6bda27560e01b5f5260045ffd5b503d1515806101a75750813b15156101a756fe60806040527f360894a13ba1a3210667c828492db98dca3e2076cc3735a920a3ca505d382bbc545f9081906001600160a01b0316368280378136915af43d5f803e156048573d5ff35b3d5ffd000000000000000000000000934f7639e5cb320e4394736f5663b53e9c6b5c7b00000000000000000000000000000000000000000000000000000000000000400000000000000000000000000000000000000000000000000000000000000284636c6acd00000000000000000000000000000000000000000000000000000000000000200000000000000000000000000000000000000000000000000000000000000140000000000000000000000000e8cf8a5711f08d5211d46a2835ecc9c9af1b91cd0000000000000000000000003a0f5b9436eca0c8c0eced659dcc41e86e65e33d0000000000000000000000003698f60a6761bfdd1511b4c68d000d55ff8fff8100000000000000000000000055782e7019f4619a06a25bf66d2998c8fe2cc436000000000000000000000000ecf5e30f091d1db7c7b0ef26634a71d46dc9bb25000000000000000000000000f3e4452fe17edbfa6833022b9c186aa14b98955d000000000000000000000000566e1f1b5bd7109f2c86805e2c092502d1b2f9f4000000000000000000000000345cd375ec42476eb95c5903fb3abb27f9400f9d000000000000000000000000ecf5e30f091d1db7c7b0ef26634a71d46dc9bb252e882135c6afc3bda02a9c8a7c6a351198d97599c804a2575a3d616073a8725100000000000000000000000000000000000000000000000000000000000000e0000000000000000000000000000000000000000000000000000000e8d4a5100000000000000000000000000000000000000000000000000000000000000005dc000000000000000000000000ecf5e30f091d1db7c7b0ef26634a71d46dc9bb25000000000000000000000000000000000000000000000000000000012a05f2007dfdbdfec68b89dc37318583311b1f70f4131e595fb5e97cb33dc45f9ecff9b00000000000000000000000000000000000000000000000000000000000000001000000000000000000000000e8cf8a5711f08d5211d46a2835ecc9c9af1b91cd00000000000000000000000000000000000000000000000000000000",
        "nonce": "0x2da",
        "chainId": "0x940"
      },
      "additionalContracts": [],
      "isFixedGasLimit": false
    },
    {
      "hash": "0xecb30b1ddb76512d74560bd9bae7852e27db1eb93ec90ea409270cb86392ec7b",
      "transactionType": "CREATE",
      "contractName": "ERC1967Proxy",
      "contractAddress": "0x6734ce8189eeb801f595e5c0a7b4239221f08d93",
      "function": null,
      "arguments": [
        "0x934f7639e5Cb320e4394736f5663b53E9C6b5c7b",
        "0x636c6acd00000000000000000000000000000000000000000000000000000000000000200000000000000000000000000000000000000000000000000000000000000140000000000000000000000000e8cf8a5711f08d5211d46a2835ecc9c9af1b91cd0000000000000000000000003a0f5b9436eca0c8c0eced659dcc41e86e65e33d0000000000000000000000003698f60a6761bfdd1511b4c68d000d55ff8fff8100000000000000000000000055782e7019f4619a06a25bf66d2998c8fe2cc436000000000000000000000000ecf5e30f091d1db7c7b0ef26634a71d46dc9bb25000000000000000000000000f3e4452fe17edbfa6833022b9c186aa14b98955d000000000000000000000000566e1f1b5bd7109f2c86805e2c092502d1b2f9f4000000000000000000000000345cd375ec42476eb95c5903fb3abb27f9400f9d000000000000000000000000ecf5e30f091d1db7c7b0ef26634a71d46dc9bb252e882135c6afc3bda02a9c8a7c6a351198d97599c804a2575a3d616073a8725100000000000000000000000000000000000000000000000000000000000000e0000000000000000000000000000000000000000000000000000000e8d4a5100000000000000000000000000000000000000000000000000000000000000005dc000000000000000000000000ecf5e30f091d1db7c7b0ef26634a71d46dc9bb25000000000000000000000000000000000000000000000000000000012a05f200f5073a39ce1e21c4e052c34cc69c54afc2498fd751572aa54a62e68f34bd4d2e0000000000000000000000000000000000000000000000000000000000000001000000000000000000000000e8cf8a5711f08d5211d46a2835ecc9c9af1b91cd"
      ],
      "transaction": {
        "from": "0xecf5e30f091d1db7c7b0ef26634a71d46dc9bb25",
        "gas": "0xb4cb4",
        "value": "0x0",
        "input": "0x608060405261026c803803806100148161016e565b9283398101604082820312610156578151916001600160a01b03831690818403610156576020810151906001600160401b038211610156570182601f82011215610156578051906001600160401b03821161015a5761007c601f8301601f191660200161016e565b938285526020838301011161015657815f9260208093018387015e8401015281511561014757823b15610135577f360894a13ba1a3210667c828492db98dca3e2076cc3735a920a3ca505d382bbc80546001600160a01b031916821790557fbc7cd75a20ee27fd9adebab32041f755214dbc6bffa90cc0225b39da2e5c2d3b5f80a280511561011e5761010e91610193565b505b604051604c90816102208239f35b505034156101105763b398979f60e01b5f5260045ffd5b634c9c8ce360e01b5f5260045260245ffd5b6330a289cf60e21b5f5260045ffd5b5f80fd5b634e487b7160e01b5f52604160045260245ffd5b6040519190601f01601f191682016001600160401b0381118382101761015a57604052565b905f8091602081519101845af4808061020c575b156101c75750506040513d81523d5f602083013e60203d82010160405290565b156101ec57639996b31560e01b5f9081526001600160a01b0391909116600452602490fd5b3d156101fd576040513d5f823e3d90fd5b63d6bda27560e01b5f5260045ffd5b503d1515806101a75750813b15156101a756fe60806040527f360894a13ba1a3210667c828492db98dca3e2076cc3735a920a3ca505d382bbc545f9081906001600160a01b0316368280378136915af43d5f803e156048573d5ff35b3d5ffd000000000000000000000000934f7639e5cb320e4394736f5663b53e9c6b5c7b00000000000000000000000000000000000000000000000000000000000000400000000000000000000000000000000000000000000000000000000000000284636c6acd00000000000000000000000000000000000000000000000000000000000000200000000000000000000000000000000000000000000000000000000000000140000000000000000000000000e8cf8a5711f08d5211d46a2835ecc9c9af1b91cd0000000000000000000000003a0f5b9436eca0c8c0eced659dcc41e86e65e33d0000000000000000000000003698f60a6761bfdd1511b4c68d000d55ff8fff8100000000000000000000000055782e7019f4619a06a25bf66d2998c8fe2cc436000000000000000000000000ecf5e30f091d1db7c7b0ef26634a71d46dc9bb25000000000000000000000000f3e4452fe17edbfa6833022b9c186aa14b98955d000000000000000000000000566e1f1b5bd7109f2c86805e2c092502d1b2f9f4000000000000000000000000345cd375ec42476eb95c5903fb3abb27f9400f9d000000000000000000000000ecf5e30f091d1db7c7b0ef26634a71d46dc9bb252e882135c6afc3bda02a9c8a7c6a351198d97599c804a2575a3d616073a8725100000000000000000000000000000000000000000000000000000000000000e0000000000000000000000000000000000000000000000000000000e8d4a5100000000000000000000000000000000000000000000000000000000000000005dc000000000000000000000000ecf5e30f091d1db7c7b0ef26634a71d46dc9bb25000000000000000000000000000000000000000000000000000000012a05f200f5073a39ce1e21c4e052c34cc69c54afc2498fd751572aa54a62e68f34bd4d2e0000000000000000000000000000000000000000000000000000000000000001000000000000000000000000e8cf8a5711f08d5211d46a2835ecc9c9af1b91cd00000000000000000000000000000000000000000000000000000000",
        "nonce": "0x2db",
        "chainId": "0x940"
      },
      "additionalContracts": [],
      "isFixedGasLimit": false
    },
    {
      "hash": "0x2f55127a39163dfa6d357ad4c0864f6a35f44487edf0d94840ced33cae2ee19e",
      "transactionType": "CREATE",
      "contractName": "ERC1967Proxy",
      "contractAddress": "0x92c15c4f20641191dd9b464ec446cc7d7ac616c5",
      "function": null,
      "arguments": [
        "0x934f7639e5Cb320e4394736f5663b53E9C6b5c7b",
        "0x636c6acd00000000000000000000000000000000000000000000000000000000000000200000000000000000000000000000000000000000000000000000000000000140000000000000000000000000e8cf8a5711f08d5211d46a2835ecc9c9af1b91cd0000000000000000000000003a0f5b9436eca0c8c0eced659dcc41e86e65e33d0000000000000000000000003698f60a6761bfdd1511b4c68d000d55ff8fff8100000000000000000000000055782e7019f4619a06a25bf66d2998c8fe2cc436000000000000000000000000ecf5e30f091d1db7c7b0ef26634a71d46dc9bb25000000000000000000000000f3e4452fe17edbfa6833022b9c186aa14b98955d000000000000000000000000566e1f1b5bd7109f2c86805e2c092502d1b2f9f4000000000000000000000000345cd375ec42476eb95c5903fb3abb27f9400f9d000000000000000000000000ecf5e30f091d1db7c7b0ef26634a71d46dc9bb252e882135c6afc3bda02a9c8a7c6a351198d97599c804a2575a3d616073a8725100000000000000000000000000000000000000000000000000000000000000e0000000000000000000000000000000000000000000000000000000e8d4a5100000000000000000000000000000000000000000000000000000000000000005dc000000000000000000000000ecf5e30f091d1db7c7b0ef26634a71d46dc9bb25000000000000000000000000000000000000000000000000000000012a05f200be6b6172e5e6a8ddff4713d21a65a3ebccd353648e1f9d335c6964ecb6b574b00000000000000000000000000000000000000000000000000000000000000001000000000000000000000000e8cf8a5711f08d5211d46a2835ecc9c9af1b91cd"
      ],
      "transaction": {
        "from": "0xecf5e30f091d1db7c7b0ef26634a71d46dc9bb25",
        "gas": "0xb4cb4",
        "value": "0x0",
        "input": "0x608060405261026c803803806100148161016e565b9283398101604082820312610156578151916001600160a01b03831690818403610156576020810151906001600160401b038211610156570182601f82011215610156578051906001600160401b03821161015a5761007c601f8301601f191660200161016e565b938285526020838301011161015657815f9260208093018387015e8401015281511561014757823b15610135577f360894a13ba1a3210667c828492db98dca3e2076cc3735a920a3ca505d382bbc80546001600160a01b031916821790557fbc7cd75a20ee27fd9adebab32041f755214dbc6bffa90cc0225b39da2e5c2d3b5f80a280511561011e5761010e91610193565b505b604051604c90816102208239f35b505034156101105763b398979f60e01b5f5260045ffd5b634c9c8ce360e01b5f5260045260245ffd5b6330a289cf60e21b5f5260045ffd5b5f80fd5b634e487b7160e01b5f52604160045260245ffd5b6040519190601f01601f191682016001600160401b0381118382101761015a57604052565b905f8091602081519101845af4808061020c575b156101c75750506040513d81523d5f602083013e60203d82010160405290565b156101ec57639996b31560e01b5f9081526001600160a01b0391909116600452602490fd5b3d156101fd576040513d5f823e3d90fd5b63d6bda27560e01b5f5260045ffd5b503d1515806101a75750813b15156101a756fe60806040527f360894a13ba1a3210667c828492db98dca3e2076cc3735a920a3ca505d382bbc545f9081906001600160a01b0316368280378136915af43d5f803e156048573d5ff35b3d5ffd000000000000000000000000934f7639e5cb320e4394736f5663b53e9c6b5c7b00000000000000000000000000000000000000000000000000000000000000400000000000000000000000000000000000000000000000000000000000000284636c6acd00000000000000000000000000000000000000000000000000000000000000200000000000000000000000000000000000000000000000000000000000000140000000000000000000000000e8cf8a5711f08d5211d46a2835ecc9c9af1b91cd0000000000000000000000003a0f5b9436eca0c8c0eced659dcc41e86e65e33d0000000000000000000000003698f60a6761bfdd1511b4c68d000d55ff8fff8100000000000000000000000055782e7019f4619a06a25bf66d2998c8fe2cc436000000000000000000000000ecf5e30f091d1db7c7b0ef26634a71d46dc9bb25000000000000000000000000f3e4452fe17edbfa6833022b9c186aa14b98955d000000000000000000000000566e1f1b5bd7109f2c86805e2c092502d1b2f9f4000000000000000000000000345cd375ec42476eb95c5903fb3abb27f9400f9d000000000000000000000000ecf5e30f091d1db7c7b0ef26634a71d46dc9bb252e882135c6afc3bda02a9c8a7c6a351198d97599c804a2575a3d616073a8725100000000000000000000000000000000000000000000000000000000000000e0000000000000000000000000000000000000000000000000000000e8d4a5100000000000000000000000000000000000000000000000000000000000000005dc000000000000000000000000ecf5e30f091d1db7c7b0ef26634a71d46dc9bb25000000000000000000000000000000000000000000000000000000012a05f200be6b6172e5e6a8ddff4713d21a65a3ebccd353648e1f9d335c6964ecb6b574b00000000000000000000000000000000000000000000000000000000000000001000000000000000000000000e8cf8a5711f08d5211d46a2835ecc9c9af1b91cd00000000000000000000000000000000000000000000000000000000",
        "nonce": "0x2dc",
        "chainId": "0x940"
      },
      "additionalContracts": [],
      "isFixedGasLimit": false
    },
    {
      "hash": "0x195d179dc7c55ce78f0e705c52cf03ded594b8055e83d07e614be6cfea7f5faf",
      "transactionType": "CALL",
      "contractName": null,
      "contractAddress": "0xe8cf8a5711f08d5211d46a2835ecc9c9af1b91cd",
      "function": "approve(address,uint256)",
      "arguments": [
        "0x3A0f5B9436EcA0c8C0ECed659Dcc41E86E65E33D",
        "115792089237316195423570985008687907853269984665640564039457584007913129639935"
      ],
      "transaction": {
        "from": "0xecf5e30f091d1db7c7b0ef26634a71d46dc9bb25",
        "to": "0xe8cf8a5711f08d5211d46a2835ecc9c9af1b91cd",
        "gas": "0x96a4",
        "value": "0x0",
        "input": "0x095ea7b30000000000000000000000003a0f5b9436eca0c8c0eced659dcc41e86e65e33dffffffffffffffffffffffffffffffffffffffffffffffffffffffffffffffff",
        "nonce": "0x2dd",
        "chainId": "0x940"
      },
      "additionalContracts": [],
      "isFixedGasLimit": false
    },
    {
      "hash": "0xfde9e9047e4cfaeb7531f7d4165f0d6a6bd1917da039e7f33c99c7c58b701991",
      "transactionType": "CALL",
      "contractName": null,
      "contractAddress": "0x3a0f5b9436eca0c8c0eced659dcc41e86e65e33d",
      "function": "registerStrategy(address,bytes32,uint256)",
      "arguments": [
        "0x29b5d20FE7005AB81b3b919385003399E6397622",
        "0x2a9aa442064b635baec37a7a259282faa5563a653a8325378d5676c6f04bc9dd",
        "5000000000"
      ],
      "transaction": {
        "from": "0xecf5e30f091d1db7c7b0ef26634a71d46dc9bb25",
        "to": "0x3a0f5b9436eca0c8c0eced659dcc41e86e65e33d",
        "gas": "0x48007",
        "value": "0x0",
        "input": "0x8837569800000000000000000000000029b5d20fe7005ab81b3b919385003399e63976222a9aa442064b635baec37a7a259282faa5563a653a8325378d5676c6f04bc9dd000000000000000000000000000000000000000000000000000000012a05f200",
        "nonce": "0x2de",
        "chainId": "0x940"
      },
      "additionalContracts": [],
      "isFixedGasLimit": false
    },
    {
      "hash": "0xe195dce770e9ee9be6ebea9df5263348b06f002d1ed52f3537031bcdcebf4c7c",
      "transactionType": "CALL",
      "contractName": null,
      "contractAddress": "0x3a0f5b9436eca0c8c0eced659dcc41e86e65e33d",
      "function": "registerStrategy(address,bytes32,uint256)",
      "arguments": [
        "0xdcb2d64F6F2500ca899d89f885fA6738DF4d4a3E",
        "0x2a9aa442064b635baec37a7a259282faa5563a653a8325378d5676c6f04bc9dd",
        "5000000000"
      ],
      "transaction": {
        "from": "0xecf5e30f091d1db7c7b0ef26634a71d46dc9bb25",
        "to": "0x3a0f5b9436eca0c8c0eced659dcc41e86e65e33d",
        "gas": "0x4c3de",
        "value": "0x0",
        "input": "0x88375698000000000000000000000000dcb2d64f6f2500ca899d89f885fa6738df4d4a3e2a9aa442064b635baec37a7a259282faa5563a653a8325378d5676c6f04bc9dd000000000000000000000000000000000000000000000000000000012a05f200",
        "nonce": "0x2df",
        "chainId": "0x940"
      },
      "additionalContracts": [],
      "isFixedGasLimit": false
    },
    {
      "hash": "0x84c1f791588c3f65962938ec9ef60ebe6c73a03e50dbff47b8504f3c7f136ca6",
      "transactionType": "CALL",
      "contractName": null,
      "contractAddress": "0x3a0f5b9436eca0c8c0eced659dcc41e86e65e33d",
      "function": "registerStrategy(address,bytes32,uint256)",
      "arguments": [
        "0x24DC209dAB31887f20Ecf7eaE626F4E8fa46D570",
        "0x2a9aa442064b635baec37a7a259282faa5563a653a8325378d5676c6f04bc9dd",
        "5000000000"
      ],
      "transaction": {
        "from": "0xecf5e30f091d1db7c7b0ef26634a71d46dc9bb25",
        "to": "0x3a0f5b9436eca0c8c0eced659dcc41e86e65e33d",
        "gas": "0x48029",
        "value": "0x0",
        "input": "0x8837569800000000000000000000000024dc209dab31887f20ecf7eae626f4e8fa46d5702a9aa442064b635baec37a7a259282faa5563a653a8325378d5676c6f04bc9dd000000000000000000000000000000000000000000000000000000012a05f200",
        "nonce": "0x2e0",
        "chainId": "0x940"
      },
      "additionalContracts": [],
      "isFixedGasLimit": false
    },
    {
      "hash": "0x0dedf04405bd30f04ae45b51556d678dafe8ddec5c722838ba544b9150e154eb",
      "transactionType": "CALL",
      "contractName": null,
      "contractAddress": "0x3a0f5b9436eca0c8c0eced659dcc41e86e65e33d",
      "function": "registerStrategy(address,bytes32,uint256)",
      "arguments": [
        "0xf825727eA1D19066E6b06bCC928a658ee1E7516F",
        "0x18602f4f74172d545f5258541634e1a125c3a4e1227ee2a4cbee957d3490f1fb",
        "5000000000"
      ],
      "transaction": {
        "from": "0xecf5e30f091d1db7c7b0ef26634a71d46dc9bb25",
        "to": "0x3a0f5b9436eca0c8c0eced659dcc41e86e65e33d",
        "gas": "0x48029",
        "value": "0x0",
        "input": "0x88375698000000000000000000000000f825727ea1d19066e6b06bcc928a658ee1e7516f18602f4f74172d545f5258541634e1a125c3a4e1227ee2a4cbee957d3490f1fb000000000000000000000000000000000000000000000000000000012a05f200",
        "nonce": "0x2e1",
        "chainId": "0x940"
      },
      "additionalContracts": [],
      "isFixedGasLimit": false
    },
    {
      "hash": "0xc3c820458c8dfd29ff27fd758674ea7f19f08086ca18c5e0f94fbf5d75a912f5",
      "transactionType": "CALL",
      "contractName": null,
      "contractAddress": "0x3a0f5b9436eca0c8c0eced659dcc41e86e65e33d",
      "function": "registerStrategy(address,bytes32,uint256)",
      "arguments": [
        "0xa863B0372f28f368119Cbf4ae2b46730e5d009f5",
        "0x18602f4f74172d545f5258541634e1a125c3a4e1227ee2a4cbee957d3490f1fb",
        "5000000000"
      ],
      "transaction": {
        "from": "0xecf5e30f091d1db7c7b0ef26634a71d46dc9bb25",
        "to": "0x3a0f5b9436eca0c8c0eced659dcc41e86e65e33d",
        "gas": "0x48029",
        "value": "0x0",
        "input": "0x88375698000000000000000000000000a863b0372f28f368119cbf4ae2b46730e5d009f518602f4f74172d545f5258541634e1a125c3a4e1227ee2a4cbee957d3490f1fb000000000000000000000000000000000000000000000000000000012a05f200",
        "nonce": "0x2e2",
        "chainId": "0x940"
      },
      "additionalContracts": [],
      "isFixedGasLimit": false
    },
    {
      "hash": "0x654ea40e92d2a02577834d0fdcf6b98eeee41b2ef915326a93676a3e29c9f034",
      "transactionType": "CALL",
      "contractName": null,
      "contractAddress": "0x3a0f5b9436eca0c8c0eced659dcc41e86e65e33d",
      "function": "registerStrategy(address,bytes32,uint256)",
      "arguments": [
        "0xf44051d85f1a2F31a249d5F4136176c083F09dd3",
        "0x18602f4f74172d545f5258541634e1a125c3a4e1227ee2a4cbee957d3490f1fb",
        "5000000000"
      ],
      "transaction": {
        "from": "0xecf5e30f091d1db7c7b0ef26634a71d46dc9bb25",
        "to": "0x3a0f5b9436eca0c8c0eced659dcc41e86e65e33d",
        "gas": "0x48029",
        "value": "0x0",
        "input": "0x88375698000000000000000000000000f44051d85f1a2f31a249d5f4136176c083f09dd318602f4f74172d545f5258541634e1a125c3a4e1227ee2a4cbee957d3490f1fb000000000000000000000000000000000000000000000000000000012a05f200",
        "nonce": "0x2e3",
        "chainId": "0x940"
      },
      "additionalContracts": [],
      "isFixedGasLimit": false
    },
    {
      "hash": "0x656a7d44f71514ea460e2672d03f737cb8dfcbc939923828966764114c7193a4",
      "transactionType": "CALL",
      "contractName": null,
      "contractAddress": "0x3a0f5b9436eca0c8c0eced659dcc41e86e65e33d",
      "function": "registerStrategy(address,bytes32,uint256)",
      "arguments": [
        "0x2c765493f3899d2236D172B5c9c7c9473bd71765",
        "0x2e882135c6afc3bda02a9c8a7c6a351198d97599c804a2575a3d616073a87251",
        "5000000000"
      ],
      "transaction": {
        "from": "0xecf5e30f091d1db7c7b0ef26634a71d46dc9bb25",
        "to": "0x3a0f5b9436eca0c8c0eced659dcc41e86e65e33d",
        "gas": "0x48029",
        "value": "0x0",
        "input": "0x883756980000000000000000000000002c765493f3899d2236d172b5c9c7c9473bd717652e882135c6afc3bda02a9c8a7c6a351198d97599c804a2575a3d616073a87251000000000000000000000000000000000000000000000000000000012a05f200",
        "nonce": "0x2e4",
        "chainId": "0x940"
      },
      "additionalContracts": [],
      "isFixedGasLimit": false
    },
    {
      "hash": "0x02a9495bcd3e217d74523ac7101f63bc1ab83588d3aac637fe585cb3e3cc4301",
      "transactionType": "CALL",
      "contractName": null,
      "contractAddress": "0x3a0f5b9436eca0c8c0eced659dcc41e86e65e33d",
      "function": "registerStrategy(address,bytes32,uint256)",
      "arguments": [
        "0x6734CE8189eeb801F595e5c0a7b4239221F08d93",
        "0x2e882135c6afc3bda02a9c8a7c6a351198d97599c804a2575a3d616073a87251",
        "5000000000"
      ],
      "transaction": {
        "from": "0xecf5e30f091d1db7c7b0ef26634a71d46dc9bb25",
        "to": "0x3a0f5b9436eca0c8c0eced659dcc41e86e65e33d",
        "gas": "0x48029",
        "value": "0x0",
        "input": "0x883756980000000000000000000000006734ce8189eeb801f595e5c0a7b4239221f08d932e882135c6afc3bda02a9c8a7c6a351198d97599c804a2575a3d616073a87251000000000000000000000000000000000000000000000000000000012a05f200",
        "nonce": "0x2e5",
        "chainId": "0x940"
      },
      "additionalContracts": [],
      "isFixedGasLimit": false
    },
    {
      "hash": "0x99889728b4d84c53a95782744d7e92a781ec2d49c4b2c315abf8f019a81f8cf7",
      "transactionType": "CALL",
      "contractName": null,
      "contractAddress": "0x3a0f5b9436eca0c8c0eced659dcc41e86e65e33d",
      "function": "registerStrategy(address,bytes32,uint256)",
      "arguments": [
        "0x92c15C4f20641191dD9B464Ec446cc7D7AC616C5",
        "0x2e882135c6afc3bda02a9c8a7c6a351198d97599c804a2575a3d616073a87251",
        "5000000000"
      ],
      "transaction": {
        "from": "0xecf5e30f091d1db7c7b0ef26634a71d46dc9bb25",
        "to": "0x3a0f5b9436eca0c8c0eced659dcc41e86e65e33d",
        "gas": "0x48029",
        "value": "0x0",
        "input": "0x8837569800000000000000000000000092c15c4f20641191dd9b464ec446cc7d7ac616c52e882135c6afc3bda02a9c8a7c6a351198d97599c804a2575a3d616073a87251000000000000000000000000000000000000000000000000000000012a05f200",
        "nonce": "0x2e6",
        "chainId": "0x940"
      },
      "additionalContracts": [],
      "isFixedGasLimit": false
    }
  ],
  "receipts": [
    {
      "status": "0x1",
      "cumulativeGasUsed": "0xac658",
      "logs": [
        {
          "address": "0x29b5d20fe7005ab81b3b919385003399e6397622",
          "topics": [
            "0xbc7cd75a20ee27fd9adebab32041f755214dbc6bffa90cc0225b39da2e5c2d3b",
            "0x000000000000000000000000934f7639e5cb320e4394736f5663b53e9c6b5c7b"
          ],
          "data": "0x",
          "blockHash": "0xdb1df04234a1a966d5ca49e0e6ec72de8f4c9b0afe5109dbc6e4ccc7fa8543dc",
          "blockNumber": "0x1446fe3",
          "transactionHash": "0x46263cbe6e9b49d354b0cf4f59f365dd140020302e73c18af80581cebd5ca942",
          "transactionIndex": "0x0",
          "logIndex": "0x0",
          "removed": false
        },
        {
          "address": "0x29b5d20fe7005ab81b3b919385003399e6397622",
          "topics": [
            "0x8be0079c531659141344cd1fd0a4f28419497f9722a3daafe3b4186f6b6457e0",
            "0x0000000000000000000000000000000000000000000000000000000000000000",
            "0x000000000000000000000000ecf5e30f091d1db7c7b0ef26634a71d46dc9bb25"
          ],
          "data": "0x",
          "blockHash": "0xdb1df04234a1a966d5ca49e0e6ec72de8f4c9b0afe5109dbc6e4ccc7fa8543dc",
          "blockNumber": "0x1446fe3",
          "transactionHash": "0x46263cbe6e9b49d354b0cf4f59f365dd140020302e73c18af80581cebd5ca942",
          "transactionIndex": "0x0",
          "logIndex": "0x1",
          "removed": false
        },
        {
          "address": "0x29b5d20fe7005ab81b3b919385003399e6397622",
          "topics": [
            "0xc7f505b2f371ae2175ee4913f4499e1f2633a7b5936321eed1cdaeb6115181d2"
          ],
          "data": "0x0000000000000000000000000000000000000000000000000000000000000001",
          "blockHash": "0xdb1df04234a1a966d5ca49e0e6ec72de8f4c9b0afe5109dbc6e4ccc7fa8543dc",
          "blockNumber": "0x1446fe3",
          "transactionHash": "0x46263cbe6e9b49d354b0cf4f59f365dd140020302e73c18af80581cebd5ca942",
          "transactionIndex": "0x0",
          "logIndex": "0x2",
          "removed": false
        }
      ],
      "logsBloom": "0x00000000000000020000000000000000400000000000000000800000000020000000000000000000000000000000000000000000000000000000000000000000400000000000000000000000000002000001000000000000000000000000000000000000120000000000000000000800000000000000000000000000000000400000000000000000000800000000000000800000000080000000000000000000000000000000000000000000000000000000000000000000000000000000000000000020008000000200000000000000000000000004000000000000000020000000000000000000000000000000000000000000200000000000000000000000",
      "type": "0x2",
      "transactionHash": "0x46263cbe6e9b49d354b0cf4f59f365dd140020302e73c18af80581cebd5ca942",
      "transactionIndex": "0x0",
      "blockHash": "0xdb1df04234a1a966d5ca49e0e6ec72de8f4c9b0afe5109dbc6e4ccc7fa8543dc",
      "blockNumber": "0x1446fe3",
      "gasUsed": "0xac658",
      "effectiveGasPrice": "0xf4241",
      "from": "0xecf5e30f091d1db7c7b0ef26634a71d46dc9bb25",
      "to": null,
      "contractAddress": "0x29b5d20fe7005ab81b3b919385003399e6397622"
    },
    {
      "status": "0x1",
      "cumulativeGasUsed": "0xac658",
      "logs": [
        {
          "address": "0xdcb2d64f6f2500ca899d89f885fa6738df4d4a3e",
          "topics": [
            "0xbc7cd75a20ee27fd9adebab32041f755214dbc6bffa90cc0225b39da2e5c2d3b",
            "0x000000000000000000000000934f7639e5cb320e4394736f5663b53e9c6b5c7b"
          ],
          "data": "0x",
          "blockHash": "0x338a14b6ba92f598980a5064d41289faff061096ca4b09b9a99af1b7d7c11eaf",
          "blockNumber": "0x1446fe4",
          "transactionHash": "0x3cf360ee3286cdec073bd22e4be7d6a16ec06184d148a52901d42f26c77a4115",
          "transactionIndex": "0x0",
          "logIndex": "0x0",
          "removed": false
        },
        {
          "address": "0xdcb2d64f6f2500ca899d89f885fa6738df4d4a3e",
          "topics": [
            "0x8be0079c531659141344cd1fd0a4f28419497f9722a3daafe3b4186f6b6457e0",
            "0x0000000000000000000000000000000000000000000000000000000000000000",
            "0x000000000000000000000000ecf5e30f091d1db7c7b0ef26634a71d46dc9bb25"
          ],
          "data": "0x",
          "blockHash": "0x338a14b6ba92f598980a5064d41289faff061096ca4b09b9a99af1b7d7c11eaf",
          "blockNumber": "0x1446fe4",
          "transactionHash": "0x3cf360ee3286cdec073bd22e4be7d6a16ec06184d148a52901d42f26c77a4115",
          "transactionIndex": "0x0",
          "logIndex": "0x1",
          "removed": false
        },
        {
          "address": "0xdcb2d64f6f2500ca899d89f885fa6738df4d4a3e",
          "topics": [
            "0xc7f505b2f371ae2175ee4913f4499e1f2633a7b5936321eed1cdaeb6115181d2"
          ],
          "data": "0x0000000000000000000000000000000000000000000000000000000000000001",
          "blockHash": "0x338a14b6ba92f598980a5064d41289faff061096ca4b09b9a99af1b7d7c11eaf",
          "blockNumber": "0x1446fe4",
          "transactionHash": "0x3cf360ee3286cdec073bd22e4be7d6a16ec06184d148a52901d42f26c77a4115",
          "transactionIndex": "0x0",
          "logIndex": "0x2",
          "removed": false
        }
      ],
      "logsBloom": "0x00000000000000000000000000000000400000000000010000800000100020000000000000000000000000000000000000000000000000000000000000000000400000010000000000000000000002000001000000000000000000000000000000000000120000000000000000000800000000000000000000000000000000400000000000000000000800000000000000800000000080000000000000000000000000000000000000000000000000000000000000000000000000000000000000000020008000000200000000000000000000000004000000000000000020000000000000000000000000000000000000000000000000000000000000000000",
      "type": "0x2",
      "transactionHash": "0x3cf360ee3286cdec073bd22e4be7d6a16ec06184d148a52901d42f26c77a4115",
      "transactionIndex": "0x0",
      "blockHash": "0x338a14b6ba92f598980a5064d41289faff061096ca4b09b9a99af1b7d7c11eaf",
      "blockNumber": "0x1446fe4",
      "gasUsed": "0xac658",
      "effectiveGasPrice": "0xf4241",
      "from": "0xecf5e30f091d1db7c7b0ef26634a71d46dc9bb25",
      "to": null,
      "contractAddress": "0xdcb2d64f6f2500ca899d89f885fa6738df4d4a3e"
    },
    {
      "status": "0x1",
      "cumulativeGasUsed": "0xac658",
      "logs": [
        {
          "address": "0x24dc209dab31887f20ecf7eae626f4e8fa46d570",
          "topics": [
            "0xbc7cd75a20ee27fd9adebab32041f755214dbc6bffa90cc0225b39da2e5c2d3b",
            "0x000000000000000000000000934f7639e5cb320e4394736f5663b53e9c6b5c7b"
          ],
          "data": "0x",
          "blockHash": "0x5c6cc35d51e68ca9301dbef4b8a8ad15dc4428a8ba43bc8a74809356960942e4",
          "blockNumber": "0x1446fe6",
          "transactionHash": "0x2b6230cf20427b262f58a5fcaf4bdd8bc7eba370a5a0eaa103bf9994c2e9a1d5",
          "transactionIndex": "0x0",
          "logIndex": "0x0",
          "removed": false
        },
        {
          "address": "0x24dc209dab31887f20ecf7eae626f4e8fa46d570",
          "topics": [
            "0x8be0079c531659141344cd1fd0a4f28419497f9722a3daafe3b4186f6b6457e0",
            "0x0000000000000000000000000000000000000000000000000000000000000000",
            "0x000000000000000000000000ecf5e30f091d1db7c7b0ef26634a71d46dc9bb25"
          ],
          "data": "0x",
          "blockHash": "0x5c6cc35d51e68ca9301dbef4b8a8ad15dc4428a8ba43bc8a74809356960942e4",
          "blockNumber": "0x1446fe6",
          "transactionHash": "0x2b6230cf20427b262f58a5fcaf4bdd8bc7eba370a5a0eaa103bf9994c2e9a1d5",
          "transactionIndex": "0x0",
          "logIndex": "0x1",
          "removed": false
        },
        {
          "address": "0x24dc209dab31887f20ecf7eae626f4e8fa46d570",
          "topics": [
            "0xc7f505b2f371ae2175ee4913f4499e1f2633a7b5936321eed1cdaeb6115181d2"
          ],
          "data": "0x0000000000000000000000000000000000000000000000000000000000000001",
          "blockHash": "0x5c6cc35d51e68ca9301dbef4b8a8ad15dc4428a8ba43bc8a74809356960942e4",
          "blockNumber": "0x1446fe6",
          "transactionHash": "0x2b6230cf20427b262f58a5fcaf4bdd8bc7eba370a5a0eaa103bf9994c2e9a1d5",
          "transactionIndex": "0x0",
          "logIndex": "0x2",
          "removed": false
        }
      ],
      "logsBloom": "0x00000000000000000000000000000000400000000000000000800000000020000000000000000000100000000000000000000000000000000000000000000000400000000000000000000000000002000001000000000000000000000000000000000000120000000000000000000800000000000000000000000000000000400000000000000000000800000000000000800000000080000000000000000000000000000000000000000000000000000000000040000000000000000000000000000020008000000200000000000000000400000004000000000000000020000000000000000000000000000000000000000000000000000000000000000000",
      "type": "0x2",
      "transactionHash": "0x2b6230cf20427b262f58a5fcaf4bdd8bc7eba370a5a0eaa103bf9994c2e9a1d5",
      "transactionIndex": "0x0",
      "blockHash": "0x5c6cc35d51e68ca9301dbef4b8a8ad15dc4428a8ba43bc8a74809356960942e4",
      "blockNumber": "0x1446fe6",
      "gasUsed": "0xac658",
      "effectiveGasPrice": "0xf4241",
      "from": "0xecf5e30f091d1db7c7b0ef26634a71d46dc9bb25",
      "to": null,
      "contractAddress": "0x24dc209dab31887f20ecf7eae626f4e8fa46d570"
    },
    {
      "status": "0x1",
      "cumulativeGasUsed": "0x11e5a3",
      "logs": [
        {
          "address": "0xf825727ea1d19066e6b06bcc928a658ee1e7516f",
          "topics": [
            "0xbc7cd75a20ee27fd9adebab32041f755214dbc6bffa90cc0225b39da2e5c2d3b",
            "0x000000000000000000000000934f7639e5cb320e4394736f5663b53e9c6b5c7b"
          ],
          "data": "0x",
          "blockHash": "0xd6480f9fcd1aa739559f1330c2fa70c87dbd843bf0e61cc1454a453035153f70",
          "blockNumber": "0x1446fe7",
          "transactionHash": "0x138675f69f636dab37657ddfdeeeff557a964fbdc26d668c855a0875688d7ca5",
          "transactionIndex": "0x4",
          "logIndex": "0x1a",
          "removed": false
        },
        {
          "address": "0xf825727ea1d19066e6b06bcc928a658ee1e7516f",
          "topics": [
            "0x8be0079c531659141344cd1fd0a4f28419497f9722a3daafe3b4186f6b6457e0",
            "0x0000000000000000000000000000000000000000000000000000000000000000",
            "0x000000000000000000000000ecf5e30f091d1db7c7b0ef26634a71d46dc9bb25"
          ],
          "data": "0x",
          "blockHash": "0xd6480f9fcd1aa739559f1330c2fa70c87dbd843bf0e61cc1454a453035153f70",
          "blockNumber": "0x1446fe7",
          "transactionHash": "0x138675f69f636dab37657ddfdeeeff557a964fbdc26d668c855a0875688d7ca5",
          "transactionIndex": "0x4",
          "logIndex": "0x1b",
          "removed": false
        },
        {
          "address": "0xf825727ea1d19066e6b06bcc928a658ee1e7516f",
          "topics": [
            "0xc7f505b2f371ae2175ee4913f4499e1f2633a7b5936321eed1cdaeb6115181d2"
          ],
          "data": "0x0000000000000000000000000000000000000000000000000000000000000001",
          "blockHash": "0xd6480f9fcd1aa739559f1330c2fa70c87dbd843bf0e61cc1454a453035153f70",
          "blockNumber": "0x1446fe7",
          "transactionHash": "0x138675f69f636dab37657ddfdeeeff557a964fbdc26d668c855a0875688d7ca5",
          "transactionIndex": "0x4",
          "logIndex": "0x1c",
          "removed": false
        }
      ],
      "logsBloom": "0x00000001000000000000000000000000400000000000000000800000000020000000000000000000000000000000000000000000000000000000000000000000400000000000000000000000000002000001000000000000000000000000000000000000120000000000000000000800000000000000000000000000000000400000000000000000000800000000000000800000000080000000000000000000000000000000000000000000008000000000000000000000000000000000000000000020008000000200000000000000000000000004000000000000000020000000000000000000000000000000000000000000000000040000000000000000",
      "type": "0x2",
      "transactionHash": "0x138675f69f636dab37657ddfdeeeff557a964fbdc26d668c855a0875688d7ca5",
      "transactionIndex": "0x4",
      "blockHash": "0xd6480f9fcd1aa739559f1330c2fa70c87dbd843bf0e61cc1454a453035153f70",
      "blockNumber": "0x1446fe7",
      "gasUsed": "0xac658",
      "effectiveGasPrice": "0xf4241",
      "from": "0xecf5e30f091d1db7c7b0ef26634a71d46dc9bb25",
      "to": null,
      "contractAddress": "0xf825727ea1d19066e6b06bcc928a658ee1e7516f"
    },
    {
      "status": "0x1",
      "cumulativeGasUsed": "0xac658",
      "logs": [
        {
          "address": "0xa863b0372f28f368119cbf4ae2b46730e5d009f5",
          "topics": [
            "0xbc7cd75a20ee27fd9adebab32041f755214dbc6bffa90cc0225b39da2e5c2d3b",
            "0x000000000000000000000000934f7639e5cb320e4394736f5663b53e9c6b5c7b"
          ],
          "data": "0x",
          "blockHash": "0x6537ab38b1f212f96c62f09fefa3a3990d1611eb2c98a0a7fb10add161d2ec8f",
          "blockNumber": "0x1446fe8",
          "transactionHash": "0x7fad9902525906a4560ebddc2ab61ec50e44742e54066ff1a2f7f2bd42bafaa5",
          "transactionIndex": "0x0",
          "logIndex": "0x0",
          "removed": false
        },
        {
          "address": "0xa863b0372f28f368119cbf4ae2b46730e5d009f5",
          "topics": [
            "0x8be0079c531659141344cd1fd0a4f28419497f9722a3daafe3b4186f6b6457e0",
            "0x0000000000000000000000000000000000000000000000000000000000000000",
            "0x000000000000000000000000ecf5e30f091d1db7c7b0ef26634a71d46dc9bb25"
          ],
          "data": "0x",
          "blockHash": "0x6537ab38b1f212f96c62f09fefa3a3990d1611eb2c98a0a7fb10add161d2ec8f",
          "blockNumber": "0x1446fe8",
          "transactionHash": "0x7fad9902525906a4560ebddc2ab61ec50e44742e54066ff1a2f7f2bd42bafaa5",
          "transactionIndex": "0x0",
          "logIndex": "0x1",
          "removed": false
        },
        {
          "address": "0xa863b0372f28f368119cbf4ae2b46730e5d009f5",
          "topics": [
            "0xc7f505b2f371ae2175ee4913f4499e1f2633a7b5936321eed1cdaeb6115181d2"
          ],
          "data": "0x0000000000000000000000000000000000000000000000000000000000000001",
          "blockHash": "0x6537ab38b1f212f96c62f09fefa3a3990d1611eb2c98a0a7fb10add161d2ec8f",
          "blockNumber": "0x1446fe8",
          "transactionHash": "0x7fad9902525906a4560ebddc2ab61ec50e44742e54066ff1a2f7f2bd42bafaa5",
          "transactionIndex": "0x0",
          "logIndex": "0x2",
          "removed": false
        }
      ],
      "logsBloom": "0x00000000000000000000000000000000400000000000000000800000000020000000000000000000000000000000000000000000000000000000000000000000400000000000000000000000000002000001000000000000000000000000000000000000120000000000000000000800000000000000000000000000000000400000000000000000000800000000000000800080000080000000040000000000000000000000000000000000000000000000000000000020000000000000000000000020008000000200000000000000000000000004000000000000000020000000000000000000000000000000000000000000000000000000000000000000",
      "type": "0x2",
      "transactionHash": "0x7fad9902525906a4560ebddc2ab61ec50e44742e54066ff1a2f7f2bd42bafaa5",
      "transactionIndex": "0x0",
      "blockHash": "0x6537ab38b1f212f96c62f09fefa3a3990d1611eb2c98a0a7fb10add161d2ec8f",
      "blockNumber": "0x1446fe8",
      "gasUsed": "0xac658",
      "effectiveGasPrice": "0xf4241",
      "from": "0xecf5e30f091d1db7c7b0ef26634a71d46dc9bb25",
      "to": null,
      "contractAddress": "0xa863b0372f28f368119cbf4ae2b46730e5d009f5"
    },
    {
      "status": "0x1",
      "cumulativeGasUsed": "0xac64c",
      "logs": [
        {
          "address": "0xf44051d85f1a2f31a249d5f4136176c083f09dd3",
          "topics": [
            "0xbc7cd75a20ee27fd9adebab32041f755214dbc6bffa90cc0225b39da2e5c2d3b",
            "0x000000000000000000000000934f7639e5cb320e4394736f5663b53e9c6b5c7b"
          ],
          "data": "0x",
          "blockHash": "0x63d09cf9526401b40a25b28bfe2709d46eb8b18eef2120fe5776c15ff257b72c",
          "blockNumber": "0x1446fe9",
          "transactionHash": "0x6dfd3d8e80d2c954487aebf483d35252f64cf973ea5f65c520d1edd0ec316f15",
          "transactionIndex": "0x0",
          "logIndex": "0x0",
          "removed": false
        },
        {
          "address": "0xf44051d85f1a2f31a249d5f4136176c083f09dd3",
          "topics": [
            "0x8be0079c531659141344cd1fd0a4f28419497f9722a3daafe3b4186f6b6457e0",
            "0x0000000000000000000000000000000000000000000000000000000000000000",
            "0x000000000000000000000000ecf5e30f091d1db7c7b0ef26634a71d46dc9bb25"
          ],
          "data": "0x",
          "blockHash": "0x63d09cf9526401b40a25b28bfe2709d46eb8b18eef2120fe5776c15ff257b72c",
          "blockNumber": "0x1446fe9",
          "transactionHash": "0x6dfd3d8e80d2c954487aebf483d35252f64cf973ea5f65c520d1edd0ec316f15",
          "transactionIndex": "0x0",
          "logIndex": "0x1",
          "removed": false
        },
        {
          "address": "0xf44051d85f1a2f31a249d5f4136176c083f09dd3",
          "topics": [
            "0xc7f505b2f371ae2175ee4913f4499e1f2633a7b5936321eed1cdaeb6115181d2"
          ],
          "data": "0x0000000000000000000000000000000000000000000000000000000000000001",
          "blockHash": "0x63d09cf9526401b40a25b28bfe2709d46eb8b18eef2120fe5776c15ff257b72c",
          "blockNumber": "0x1446fe9",
          "transactionHash": "0x6dfd3d8e80d2c954487aebf483d35252f64cf973ea5f65c520d1edd0ec316f15",
          "transactionIndex": "0x0",
          "logIndex": "0x2",
          "removed": false
        }
      ],
      "logsBloom": "0x00000000000000000000000000000000400000000000000000800000000020000000000000000000000000000000000000000000000000000000000000000000400000000000000000000000000002000001000000000000000000000000000000000000120000000000000000000800000000000000000000000000000000400000000000000000000800000000000000800000000080000000000000000000000000000000000000000000000000000000000000000000000000000000002000000020008000000280000000000000000000000084000000000000000020000000000000000000000000000000000000000000000000000000000000000000",
      "type": "0x2",
      "transactionHash": "0x6dfd3d8e80d2c954487aebf483d35252f64cf973ea5f65c520d1edd0ec316f15",
      "transactionIndex": "0x0",
      "blockHash": "0x63d09cf9526401b40a25b28bfe2709d46eb8b18eef2120fe5776c15ff257b72c",
      "blockNumber": "0x1446fe9",
      "gasUsed": "0xac64c",
      "effectiveGasPrice": "0xf4241",
      "from": "0xecf5e30f091d1db7c7b0ef26634a71d46dc9bb25",
      "to": null,
      "contractAddress": "0xf44051d85f1a2f31a249d5f4136176c083f09dd3"
    },
    {
      "status": "0x1",
      "cumulativeGasUsed": "0x8b128",
      "logs": [
        {
          "address": "0x2c765493f3899d2236d172b5c9c7c9473bd71765",
          "topics": [
            "0xbc7cd75a20ee27fd9adebab32041f755214dbc6bffa90cc0225b39da2e5c2d3b",
            "0x000000000000000000000000934f7639e5cb320e4394736f5663b53e9c6b5c7b"
          ],
          "data": "0x",
          "blockHash": "0xb82ef1f5deddb08a7c8accef0298e99aea5977692bf4b5293971b9f782404000",
          "blockNumber": "0x1446feb",
          "transactionHash": "0xe0d041ef333feba2331174bae601e009e75bad4b8eee78b50fa7813489642252",
          "transactionIndex": "0x0",
          "logIndex": "0x0",
          "removed": false
        },
        {
          "address": "0x2c765493f3899d2236d172b5c9c7c9473bd71765",
          "topics": [
            "0x8be0079c531659141344cd1fd0a4f28419497f9722a3daafe3b4186f6b6457e0",
            "0x0000000000000000000000000000000000000000000000000000000000000000",
            "0x000000000000000000000000ecf5e30f091d1db7c7b0ef26634a71d46dc9bb25"
          ],
          "data": "0x",
          "blockHash": "0xb82ef1f5deddb08a7c8accef0298e99aea5977692bf4b5293971b9f782404000",
          "blockNumber": "0x1446feb",
          "transactionHash": "0xe0d041ef333feba2331174bae601e009e75bad4b8eee78b50fa7813489642252",
          "transactionIndex": "0x0",
          "logIndex": "0x1",
          "removed": false
        },
        {
          "address": "0x2c765493f3899d2236d172b5c9c7c9473bd71765",
          "topics": [
            "0xc7f505b2f371ae2175ee4913f4499e1f2633a7b5936321eed1cdaeb6115181d2"
          ],
          "data": "0x0000000000000000000000000000000000000000000000000000000000000001",
          "blockHash": "0xb82ef1f5deddb08a7c8accef0298e99aea5977692bf4b5293971b9f782404000",
          "blockNumber": "0x1446feb",
          "transactionHash": "0xe0d041ef333feba2331174bae601e009e75bad4b8eee78b50fa7813489642252",
          "transactionIndex": "0x0",
          "logIndex": "0x2",
          "removed": false
        }
      ],
      "logsBloom": "0x00000000000000000000000000000000400000000000000000800000000020000000000000000000000000000000000020000000000000000000000000000000400000000000000000000000000002000001000000000000000000000000000000000000120000000000000000000800010000000000000000000000000000400000000000000000000800000000000000800000000080000000000000000000000000000000000000000000000000000000000000000000000000000000000000000020008000000240000000000000000000000004000000000000000020000000000000000000000000000000000000000000000000000000000000000000",
      "type": "0x2",
      "transactionHash": "0xe0d041ef333feba2331174bae601e009e75bad4b8eee78b50fa7813489642252",
      "transactionIndex": "0x0",
      "blockHash": "0xb82ef1f5deddb08a7c8accef0298e99aea5977692bf4b5293971b9f782404000",
      "blockNumber": "0x1446feb",
      "gasUsed": "0x8b128",
      "effectiveGasPrice": "0xf4241",
      "from": "0xecf5e30f091d1db7c7b0ef26634a71d46dc9bb25",
      "to": null,
      "contractAddress": "0x2c765493f3899d2236d172b5c9c7c9473bd71765"
    },
    {
      "status": "0x1",
      "cumulativeGasUsed": "0x8b128",
      "logs": [
        {
          "address": "0x6734ce8189eeb801f595e5c0a7b4239221f08d93",
          "topics": [
            "0xbc7cd75a20ee27fd9adebab32041f755214dbc6bffa90cc0225b39da2e5c2d3b",
            "0x000000000000000000000000934f7639e5cb320e4394736f5663b53e9c6b5c7b"
          ],
          "data": "0x",
          "blockHash": "0x644feb2056efb10b1b9de3346eff227c5f8c334a793a7824253f929d5cf10bce",
          "blockNumber": "0x1446fed",
          "transactionHash": "0xecb30b1ddb76512d74560bd9bae7852e27db1eb93ec90ea409270cb86392ec7b",
          "transactionIndex": "0x0",
          "logIndex": "0x0",
          "removed": false
        },
        {
          "address": "0x6734ce8189eeb801f595e5c0a7b4239221f08d93",
          "topics": [
            "0x8be0079c531659141344cd1fd0a4f28419497f9722a3daafe3b4186f6b6457e0",
            "0x0000000000000000000000000000000000000000000000000000000000000000",
            "0x000000000000000000000000ecf5e30f091d1db7c7b0ef26634a71d46dc9bb25"
          ],
          "data": "0x",
          "blockHash": "0x644feb2056efb10b1b9de3346eff227c5f8c334a793a7824253f929d5cf10bce",
          "blockNumber": "0x1446fed",
          "transactionHash": "0xecb30b1ddb76512d74560bd9bae7852e27db1eb93ec90ea409270cb86392ec7b",
          "transactionIndex": "0x0",
          "logIndex": "0x1",
          "removed": false
        },
        {
          "address": "0x6734ce8189eeb801f595e5c0a7b4239221f08d93",
          "topics": [
            "0xc7f505b2f371ae2175ee4913f4499e1f2633a7b5936321eed1cdaeb6115181d2"
          ],
          "data": "0x0000000000000000000000000000000000000000000000000000000000000001",
          "blockHash": "0x644feb2056efb10b1b9de3346eff227c5f8c334a793a7824253f929d5cf10bce",
          "blockNumber": "0x1446fed",
          "transactionHash": "0xecb30b1ddb76512d74560bd9bae7852e27db1eb93ec90ea409270cb86392ec7b",
          "transactionIndex": "0x0",
          "logIndex": "0x2",
          "removed": false
        }
      ],
      "logsBloom": "0x00000000000000000000000008000000400000000008000000800000000020000000000000000000000000000000000000000000000000000000000000000000400000000000000000000000000002000001000000000000000000000000000000000000120000000000000000000800000000000000000000000000000000400000000000000000000800000000000000800000000080000000000000000000000000000000000000000000000000000001000000000000000000000000000000000020008000000200000000000000000000000004000000000000000020000000000000000000000000000000000000000000000000000000000000000000",
      "type": "0x2",
      "transactionHash": "0xecb30b1ddb76512d74560bd9bae7852e27db1eb93ec90ea409270cb86392ec7b",
      "transactionIndex": "0x0",
      "blockHash": "0x644feb2056efb10b1b9de3346eff227c5f8c334a793a7824253f929d5cf10bce",
      "blockNumber": "0x1446fed",
      "gasUsed": "0x8b128",
      "effectiveGasPrice": "0xf4241",
      "from": "0xecf5e30f091d1db7c7b0ef26634a71d46dc9bb25",
      "to": null,
      "contractAddress": "0x6734ce8189eeb801f595e5c0a7b4239221f08d93"
    },
    {
      "status": "0x1",
      "cumulativeGasUsed": "0x8b128",
      "logs": [
        {
          "address": "0x92c15c4f20641191dd9b464ec446cc7d7ac616c5",
          "topics": [
            "0xbc7cd75a20ee27fd9adebab32041f755214dbc6bffa90cc0225b39da2e5c2d3b",
            "0x000000000000000000000000934f7639e5cb320e4394736f5663b53e9c6b5c7b"
          ],
          "data": "0x",
          "blockHash": "0xb5662ca663106a4775f288b8990747e32f25329416ca75465783d8a2c6b0b0e4",
          "blockNumber": "0x1446fee",
          "transactionHash": "0x2f55127a39163dfa6d357ad4c0864f6a35f44487edf0d94840ced33cae2ee19e",
          "transactionIndex": "0x0",
          "logIndex": "0x0",
          "removed": false
        },
        {
          "address": "0x92c15c4f20641191dd9b464ec446cc7d7ac616c5",
          "topics": [
            "0x8be0079c531659141344cd1fd0a4f28419497f9722a3daafe3b4186f6b6457e0",
            "0x0000000000000000000000000000000000000000000000000000000000000000",
            "0x000000000000000000000000ecf5e30f091d1db7c7b0ef26634a71d46dc9bb25"
          ],
          "data": "0x",
          "blockHash": "0xb5662ca663106a4775f288b8990747e32f25329416ca75465783d8a2c6b0b0e4",
          "blockNumber": "0x1446fee",
          "transactionHash": "0x2f55127a39163dfa6d357ad4c0864f6a35f44487edf0d94840ced33cae2ee19e",
          "transactionIndex": "0x0",
          "logIndex": "0x1",
          "removed": false
        },
        {
          "address": "0x92c15c4f20641191dd9b464ec446cc7d7ac616c5",
          "topics": [
            "0xc7f505b2f371ae2175ee4913f4499e1f2633a7b5936321eed1cdaeb6115181d2"
          ],
          "data": "0x0000000000000000000000000000000000000000000000000000000000000001",
          "blockHash": "0xb5662ca663106a4775f288b8990747e32f25329416ca75465783d8a2c6b0b0e4",
          "blockNumber": "0x1446fee",
          "transactionHash": "0x2f55127a39163dfa6d357ad4c0864f6a35f44487edf0d94840ced33cae2ee19e",
          "transactionIndex": "0x0",
          "logIndex": "0x2",
          "removed": false
        }
      ],
      "logsBloom": "0x00000000000000000000000000000000400000000000000000800000000020000000010000000000000000000000000000000000000000000000000000000000400000000000000000000000000002000001000000000000000000000000000000000000120000000000000000000800000000000000000000000000000000400000000000000000000800400000000000800000000080000000000000000000000000000000000000000000000000000000000000000000000000000000000000000020008000000200000000000100000000000004000000000000000020000000000000000000000000000000000000000000000000000000000000000000",
      "type": "0x2",
      "transactionHash": "0x2f55127a39163dfa6d357ad4c0864f6a35f44487edf0d94840ced33cae2ee19e",
      "transactionIndex": "0x0",
      "blockHash": "0xb5662ca663106a4775f288b8990747e32f25329416ca75465783d8a2c6b0b0e4",
      "blockNumber": "0x1446fee",
      "gasUsed": "0x8b128",
      "effectiveGasPrice": "0xf4241",
      "from": "0xecf5e30f091d1db7c7b0ef26634a71d46dc9bb25",
      "to": null,
      "contractAddress": "0x92c15c4f20641191dd9b464ec446cc7d7ac616c5"
    },
    {
      "status": "0x1",
      "cumulativeGasUsed": "0x6701",
      "logs": [
        {
          "address": "0xe8cf8a5711f08d5211d46a2835ecc9c9af1b91cd",
          "topics": [
            "0x8c5be1e5ebec7d5bd14f71427d1e84f3dd0314c0f7b2291e5b200ac8c7c3b925",
            "0x000000000000000000000000ecf5e30f091d1db7c7b0ef26634a71d46dc9bb25",
            "0x0000000000000000000000003a0f5b9436eca0c8c0eced659dcc41e86e65e33d"
          ],
          "data": "0xffffffffffffffffffffffffffffffffffffffffffffffffffffffffffffffff",
          "blockHash": "0x7fa9335731643e448d7fee83fae1fabe9f765da9d78a4b305723516b399c20e8",
          "blockNumber": "0x1446ff0",
          "transactionHash": "0x195d179dc7c55ce78f0e705c52cf03ded594b8055e83d07e614be6cfea7f5faf",
          "transactionIndex": "0x0",
          "logIndex": "0x0",
          "removed": false
        }
      ],
      "logsBloom": "0x00000000000000000000000000000000000000000000000000000000000000000000000000000000000000000000000000000000000000000000040000200000400000000000000000100000000000000000000000000000000000000000000000000000000000000000000000000000000000000000000000000000000000000000000000000000000000000000000000801000000000000000000000000000020000000000000000000000000000000000000000000000000000000000000000000000000000000200000000000000000000000000000000000000000800000010000000000000000000100000000000010000000000000000000000000000",
      "type": "0x2",
      "transactionHash": "0x195d179dc7c55ce78f0e705c52cf03ded594b8055e83d07e614be6cfea7f5faf",
      "transactionIndex": "0x0",
      "blockHash": "0x7fa9335731643e448d7fee83fae1fabe9f765da9d78a4b305723516b399c20e8",
      "blockNumber": "0x1446ff0",
      "gasUsed": "0x6701",
      "effectiveGasPrice": "0xf4241",
      "from": "0xecf5e30f091d1db7c7b0ef26634a71d46dc9bb25",
      "to": "0xe8cf8a5711f08d5211d46a2835ecc9c9af1b91cd",
      "contractAddress": null
    },
    {
      "status": "0x1",
      "cumulativeGasUsed": "0x93592",
      "logs": [
        {
          "address": "0xe8cf8a5711f08d5211d46a2835ecc9c9af1b91cd",
          "topics": [
            "0xddf252ad1be2c89b69c2b068fc378daa952ba7f163c4a11628f55a4df523b3ef",
            "0x000000000000000000000000ecf5e30f091d1db7c7b0ef26634a71d46dc9bb25",
            "0x0000000000000000000000003a0f5b9436eca0c8c0eced659dcc41e86e65e33d"
          ],
          "data": "0x000000000000000000000000000000000000000000000000000000012a05f200",
          "blockHash": "0xaa947307917bcabafca3361e4ef2f69c9b98a4a4fd9036cd337ea9929b938a43",
          "blockNumber": "0x1446ff1",
          "transactionHash": "0xfde9e9047e4cfaeb7531f7d4165f0d6a6bd1917da039e7f33c99c7c58b701991",
          "transactionIndex": "0x4",
          "logIndex": "0x12",
          "removed": false
        },
        {
          "address": "0x3a0f5b9436eca0c8c0eced659dcc41e86e65e33d",
          "topics": [
            "0xfcbcc085af918c303c797ac8b02a2f04d41a4756ade38c4232d74e33a1e1a9a1",
            "0x00000000000000000000000029b5d20fe7005ab81b3b919385003399e6397622",
            "0x00000000000000000000000029b5d20fe7005ab81b3b919385003399e6397622",
            "0x000000000000000000000000ecf5e30f091d1db7c7b0ef26634a71d46dc9bb25"
          ],
          "data": "0x2a9aa442064b635baec37a7a259282faa5563a653a8325378d5676c6f04bc9dd000000000000000000000000000000000000000000000000000000012a05f200",
          "blockHash": "0xaa947307917bcabafca3361e4ef2f69c9b98a4a4fd9036cd337ea9929b938a43",
          "blockNumber": "0x1446ff1",
          "transactionHash": "0xfde9e9047e4cfaeb7531f7d4165f0d6a6bd1917da039e7f33c99c7c58b701991",
          "transactionIndex": "0x4",
          "logIndex": "0x13",
          "removed": false
        }
      ],
      "logsBloom": "0x00000000000000000000000000000004000000000000000000000000000000000000000000000000000000000000000000000000000000002000041000000000400000000000000000100008000000000000000000000000000000000000000000000000000000000000000000000200000000000000000080000010000000000000000000000000000400100000000000801000000000000000000002000000000000000000004000000000000000000000000000000000000000000000000000000002000000000200000000000000000000000000000000000000000800000000000000000000000000100000000000010000000000000000000000000000",
      "type": "0x2",
      "transactionHash": "0xfde9e9047e4cfaeb7531f7d4165f0d6a6bd1917da039e7f33c99c7c58b701991",
      "transactionIndex": "0x4",
      "blockHash": "0xaa947307917bcabafca3361e4ef2f69c9b98a4a4fd9036cd337ea9929b938a43",
      "blockNumber": "0x1446ff1",
      "gasUsed": "0x34cfd",
      "effectiveGasPrice": "0xf4241",
      "from": "0xecf5e30f091d1db7c7b0ef26634a71d46dc9bb25",
      "to": "0x3a0f5b9436eca0c8c0eced659dcc41e86e65e33d",
      "contractAddress": null
    },
    {
      "status": "0x1",
      "cumulativeGasUsed": "0x34d09",
      "logs": [
        {
          "address": "0xe8cf8a5711f08d5211d46a2835ecc9c9af1b91cd",
          "topics": [
            "0xddf252ad1be2c89b69c2b068fc378daa952ba7f163c4a11628f55a4df523b3ef",
            "0x000000000000000000000000ecf5e30f091d1db7c7b0ef26634a71d46dc9bb25",
            "0x0000000000000000000000003a0f5b9436eca0c8c0eced659dcc41e86e65e33d"
          ],
          "data": "0x000000000000000000000000000000000000000000000000000000012a05f200",
          "blockHash": "0x32dce0e6cd170323e03d908fc48041e006288409910acbe2e8abf30b911ae6be",
          "blockNumber": "0x1446ff2",
          "transactionHash": "0xe195dce770e9ee9be6ebea9df5263348b06f002d1ed52f3537031bcdcebf4c7c",
          "transactionIndex": "0x0",
          "logIndex": "0x0",
          "removed": false
        },
        {
          "address": "0x3a0f5b9436eca0c8c0eced659dcc41e86e65e33d",
          "topics": [
            "0xfcbcc085af918c303c797ac8b02a2f04d41a4756ade38c4232d74e33a1e1a9a1",
            "0x000000000000000000000000dcb2d64f6f2500ca899d89f885fa6738df4d4a3e",
            "0x000000000000000000000000dcb2d64f6f2500ca899d89f885fa6738df4d4a3e",
            "0x000000000000000000000000ecf5e30f091d1db7c7b0ef26634a71d46dc9bb25"
          ],
          "data": "0x2a9aa442064b635baec37a7a259282faa5563a653a8325378d5676c6f04bc9dd000000000000000000000000000000000000000000000000000000012a05f200",
          "blockHash": "0x32dce0e6cd170323e03d908fc48041e006288409910acbe2e8abf30b911ae6be",
          "blockNumber": "0x1446ff2",
          "transactionHash": "0xe195dce770e9ee9be6ebea9df5263348b06f002d1ed52f3537031bcdcebf4c7c",
          "transactionIndex": "0x0",
          "logIndex": "0x1",
          "removed": false
        }
      ],
      "logsBloom": "0x00000000000000000000000000000000000000000000000000000000000000000000000000000000000000000000000000000000000000002000040000000000400000000000000000100008000000000000000000000000000000000000000000000000000000000000000000000200000000000000000080000010000000000000000000000100000400100000000000801000001000000000000002000000000000000000000000000000000000000000000000000000000000000000000000000002000000000200000000000000000000000000000000000000000800000100000000000000000000100000000000010000000000000000000000000000",
      "type": "0x2",
      "transactionHash": "0xe195dce770e9ee9be6ebea9df5263348b06f002d1ed52f3537031bcdcebf4c7c",
      "transactionIndex": "0x0",
      "blockHash": "0x32dce0e6cd170323e03d908fc48041e006288409910acbe2e8abf30b911ae6be",
      "blockNumber": "0x1446ff2",
      "gasUsed": "0x34d09",
      "effectiveGasPrice": "0xf4241",
      "from": "0xecf5e30f091d1db7c7b0ef26634a71d46dc9bb25",
      "to": "0x3a0f5b9436eca0c8c0eced659dcc41e86e65e33d",
      "contractAddress": null
    },
    {
      "status": "0x1",
      "cumulativeGasUsed": "0x109253",
      "logs": [
        {
          "address": "0xe8cf8a5711f08d5211d46a2835ecc9c9af1b91cd",
          "topics": [
            "0xddf252ad1be2c89b69c2b068fc378daa952ba7f163c4a11628f55a4df523b3ef",
            "0x000000000000000000000000ecf5e30f091d1db7c7b0ef26634a71d46dc9bb25",
            "0x0000000000000000000000003a0f5b9436eca0c8c0eced659dcc41e86e65e33d"
          ],
          "data": "0x000000000000000000000000000000000000000000000000000000012a05f200",
          "blockHash": "0xa3c87341e9c4a7d618e6ba07db9c7fd6a28b6fdf19186c43daaead9c4d32b15f",
          "blockNumber": "0x1446ff3",
          "transactionHash": "0x84c1f791588c3f65962938ec9ef60ebe6c73a03e50dbff47b8504f3c7f136ca6",
          "transactionIndex": "0x7",
          "logIndex": "0x31",
          "removed": false
        },
        {
          "address": "0x3a0f5b9436eca0c8c0eced659dcc41e86e65e33d",
          "topics": [
            "0xfcbcc085af918c303c797ac8b02a2f04d41a4756ade38c4232d74e33a1e1a9a1",
            "0x00000000000000000000000024dc209dab31887f20ecf7eae626f4e8fa46d570",
            "0x00000000000000000000000024dc209dab31887f20ecf7eae626f4e8fa46d570",
            "0x000000000000000000000000ecf5e30f091d1db7c7b0ef26634a71d46dc9bb25"
          ],
          "data": "0x2a9aa442064b635baec37a7a259282faa5563a653a8325378d5676c6f04bc9dd000000000000000000000000000000000000000000000000000000012a05f200",
          "blockHash": "0xa3c87341e9c4a7d618e6ba07db9c7fd6a28b6fdf19186c43daaead9c4d32b15f",
          "blockNumber": "0x1446ff3",
          "transactionHash": "0x84c1f791588c3f65962938ec9ef60ebe6c73a03e50dbff47b8504f3c7f136ca6",
          "transactionIndex": "0x7",
          "logIndex": "0x32",
          "removed": false
        }
      ],
      "logsBloom": "0x00000000000000000000000000000000000000000000000000000000000000000000000000000000000000000000000000000000000000002000040000000000400000000000000000100008000000000000000000000000000000004000000000000000000200000000000000000200000000000000000080800010000000000000000000000000000400100000000000801000000000000000000002000000000000000000000000000000000000000000000000000000000000000000000000000002000000000200000000000000000000000000000000000000000800000000000000000000000000100000000000010000000000000000000000000000",
      "type": "0x2",
      "transactionHash": "0x84c1f791588c3f65962938ec9ef60ebe6c73a03e50dbff47b8504f3c7f136ca6",
      "transactionIndex": "0x7",
      "blockHash": "0xa3c87341e9c4a7d618e6ba07db9c7fd6a28b6fdf19186c43daaead9c4d32b15f",
      "blockNumber": "0x1446ff3",
      "gasUsed": "0x34d15",
      "effectiveGasPrice": "0xf4241",
      "from": "0xecf5e30f091d1db7c7b0ef26634a71d46dc9bb25",
      "to": "0x3a0f5b9436eca0c8c0eced659dcc41e86e65e33d",
      "contractAddress": null
    },
    {
      "status": "0x1",
      "cumulativeGasUsed": "0x10a7a4",
      "logs": [
        {
          "address": "0xe8cf8a5711f08d5211d46a2835ecc9c9af1b91cd",
          "topics": [
            "0xddf252ad1be2c89b69c2b068fc378daa952ba7f163c4a11628f55a4df523b3ef",
            "0x000000000000000000000000ecf5e30f091d1db7c7b0ef26634a71d46dc9bb25",
            "0x0000000000000000000000003a0f5b9436eca0c8c0eced659dcc41e86e65e33d"
          ],
          "data": "0x000000000000000000000000000000000000000000000000000000012a05f200",
          "blockHash": "0xacade81d16f7fa6a4a9928e28186d073c7e350465677a57b9faead668268d762",
          "blockNumber": "0x1446ff4",
          "transactionHash": "0x0dedf04405bd30f04ae45b51556d678dafe8ddec5c722838ba544b9150e154eb",
          "transactionIndex": "0x8",
          "logIndex": "0x2d",
          "removed": false
        },
        {
          "address": "0x3a0f5b9436eca0c8c0eced659dcc41e86e65e33d",
          "topics": [
            "0xfcbcc085af918c303c797ac8b02a2f04d41a4756ade38c4232d74e33a1e1a9a1",
            "0x000000000000000000000000f825727ea1d19066e6b06bcc928a658ee1e7516f",
            "0x000000000000000000000000f825727ea1d19066e6b06bcc928a658ee1e7516f",
            "0x000000000000000000000000ecf5e30f091d1db7c7b0ef26634a71d46dc9bb25"
          ],
          "data": "0x18602f4f74172d545f5258541634e1a125c3a4e1227ee2a4cbee957d3490f1fb000000000000000000000000000000000000000000000000000000012a05f200",
          "blockHash": "0xacade81d16f7fa6a4a9928e28186d073c7e350465677a57b9faead668268d762",
          "blockNumber": "0x1446ff4",
          "transactionHash": "0x0dedf04405bd30f04ae45b51556d678dafe8ddec5c722838ba544b9150e154eb",
          "transactionIndex": "0x8",
          "logIndex": "0x2e",
          "removed": false
        }
      ],
      "logsBloom": "0x00000000000000000000000000000000000000000000000000000000000000000000000000000000000000000000004000000000000000002000040000000000400000000000000000100008004000000000000000000000000000000000000000000000000000000000000000000200000000000000000080000010000000000000000000000000000400100000000000801000000000000000000002000000000000000000000000000000000000000000000000000000000000000000000000000002000000000200000000000000000000000000000000000800000800000000000000000000000000100000000000010000000000000000000000000000",
      "type": "0x2",
      "transactionHash": "0x0dedf04405bd30f04ae45b51556d678dafe8ddec5c722838ba544b9150e154eb",
      "transactionIndex": "0x8",
      "blockHash": "0xacade81d16f7fa6a4a9928e28186d073c7e350465677a57b9faead668268d762",
      "blockNumber": "0x1446ff4",
      "gasUsed": "0x34d15",
      "effectiveGasPrice": "0xf4241",
      "from": "0xecf5e30f091d1db7c7b0ef26634a71d46dc9bb25",
      "to": "0x3a0f5b9436eca0c8c0eced659dcc41e86e65e33d",
      "contractAddress": null
    },
    {
      "status": "0x1",
      "cumulativeGasUsed": "0x34d15",
      "logs": [
        {
          "address": "0xe8cf8a5711f08d5211d46a2835ecc9c9af1b91cd",
          "topics": [
            "0xddf252ad1be2c89b69c2b068fc378daa952ba7f163c4a11628f55a4df523b3ef",
            "0x000000000000000000000000ecf5e30f091d1db7c7b0ef26634a71d46dc9bb25",
            "0x0000000000000000000000003a0f5b9436eca0c8c0eced659dcc41e86e65e33d"
          ],
          "data": "0x000000000000000000000000000000000000000000000000000000012a05f200",
          "blockHash": "0xe85534a34f9a13c649b1a7810d102c76557cd45885a611250874e1e80702f9b6",
          "blockNumber": "0x1446ff5",
          "transactionHash": "0xc3c820458c8dfd29ff27fd758674ea7f19f08086ca18c5e0f94fbf5d75a912f5",
          "transactionIndex": "0x0",
          "logIndex": "0x0",
          "removed": false
        },
        {
          "address": "0x3a0f5b9436eca0c8c0eced659dcc41e86e65e33d",
          "topics": [
            "0xfcbcc085af918c303c797ac8b02a2f04d41a4756ade38c4232d74e33a1e1a9a1",
            "0x000000000000000000000000a863b0372f28f368119cbf4ae2b46730e5d009f5",
            "0x000000000000000000000000a863b0372f28f368119cbf4ae2b46730e5d009f5",
            "0x000000000000000000000000ecf5e30f091d1db7c7b0ef26634a71d46dc9bb25"
          ],
          "data": "0x18602f4f74172d545f5258541634e1a125c3a4e1227ee2a4cbee957d3490f1fb000000000000000000000000000000000000000000000000000000012a05f200",
          "blockHash": "0xe85534a34f9a13c649b1a7810d102c76557cd45885a611250874e1e80702f9b6",
          "blockNumber": "0x1446ff5",
          "transactionHash": "0xc3c820458c8dfd29ff27fd758674ea7f19f08086ca18c5e0f94fbf5d75a912f5",
          "transactionIndex": "0x0",
          "logIndex": "0x1",
          "removed": false
        }
      ],
      "logsBloom": "0x00000000000000000000000000000000000000000000000000000000000000000000000000000000000000000000000000000000000000002000044000000000400000000000000000100008000000000000000000000000000000000000000000000000000000000000000000000200000000000000000080000010000000000000000000000000000400100000000000801000000000000000000002000000000400000000000000000000000000000000000000000000000000000000000000000002000000000200000000000000000000000000000000000000000800000000000002000000000000100000000000010000000000000000000000000000",
      "type": "0x2",
      "transactionHash": "0xc3c820458c8dfd29ff27fd758674ea7f19f08086ca18c5e0f94fbf5d75a912f5",
      "transactionIndex": "0x0",
      "blockHash": "0xe85534a34f9a13c649b1a7810d102c76557cd45885a611250874e1e80702f9b6",
      "blockNumber": "0x1446ff5",
      "gasUsed": "0x34d15",
      "effectiveGasPrice": "0xf4241",
      "from": "0xecf5e30f091d1db7c7b0ef26634a71d46dc9bb25",
      "to": "0x3a0f5b9436eca0c8c0eced659dcc41e86e65e33d",
      "contractAddress": null
    },
    {
      "status": "0x1",
      "cumulativeGasUsed": "0x34d15",
      "logs": [
        {
          "address": "0xe8cf8a5711f08d5211d46a2835ecc9c9af1b91cd",
          "topics": [
            "0xddf252ad1be2c89b69c2b068fc378daa952ba7f163c4a11628f55a4df523b3ef",
            "0x000000000000000000000000ecf5e30f091d1db7c7b0ef26634a71d46dc9bb25",
            "0x0000000000000000000000003a0f5b9436eca0c8c0eced659dcc41e86e65e33d"
          ],
          "data": "0x000000000000000000000000000000000000000000000000000000012a05f200",
          "blockHash": "0x0c237b2259d2071882b345ceb505b1f8ff4e443eaa72bfaab3ea45d2994732c5",
          "blockNumber": "0x1446ff6",
          "transactionHash": "0x654ea40e92d2a02577834d0fdcf6b98eeee41b2ef915326a93676a3e29c9f034",
          "transactionIndex": "0x0",
          "logIndex": "0x0",
          "removed": false
        },
        {
          "address": "0x3a0f5b9436eca0c8c0eced659dcc41e86e65e33d",
          "topics": [
            "0xfcbcc085af918c303c797ac8b02a2f04d41a4756ade38c4232d74e33a1e1a9a1",
            "0x000000000000000000000000f44051d85f1a2f31a249d5f4136176c083f09dd3",
            "0x000000000000000000000000f44051d85f1a2f31a249d5f4136176c083f09dd3",
            "0x000000000000000000000000ecf5e30f091d1db7c7b0ef26634a71d46dc9bb25"
          ],
          "data": "0x18602f4f74172d545f5258541634e1a125c3a4e1227ee2a4cbee957d3490f1fb000000000000000000000000000000000000000000000000000000012a05f200",
          "blockHash": "0x0c237b2259d2071882b345ceb505b1f8ff4e443eaa72bfaab3ea45d2994732c5",
          "blockNumber": "0x1446ff6",
          "transactionHash": "0x654ea40e92d2a02577834d0fdcf6b98eeee41b2ef915326a93676a3e29c9f034",
          "transactionIndex": "0x0",
          "logIndex": "0x1",
          "removed": false
        }
      ],
      "logsBloom": "0x00000000000000000000000000000000000000000000000000000000000000000000000000000000000000000000000000000000000000002000040000000000400000000000000000100008000000000080000000000000000000000000000000000000000000000000000000000200000000000000000080000010000000000000000000000000000400100000000000801000000000020000000002000000000000000000000004000000000000000000000000000000000000000000000000000002000000000200000000000000000000000000000000000000000800000000000000000000000000100000000000010000000000000000000000000000",
      "type": "0x2",
      "transactionHash": "0x654ea40e92d2a02577834d0fdcf6b98eeee41b2ef915326a93676a3e29c9f034",
      "transactionIndex": "0x0",
      "blockHash": "0x0c237b2259d2071882b345ceb505b1f8ff4e443eaa72bfaab3ea45d2994732c5",
      "blockNumber": "0x1446ff6",
      "gasUsed": "0x34d15",
      "effectiveGasPrice": "0xf4241",
      "from": "0xecf5e30f091d1db7c7b0ef26634a71d46dc9bb25",
      "to": "0x3a0f5b9436eca0c8c0eced659dcc41e86e65e33d",
      "contractAddress": null
    },
    {
      "status": "0x1",
      "cumulativeGasUsed": "0x34d15",
      "logs": [
        {
          "address": "0xe8cf8a5711f08d5211d46a2835ecc9c9af1b91cd",
          "topics": [
            "0xddf252ad1be2c89b69c2b068fc378daa952ba7f163c4a11628f55a4df523b3ef",
            "0x000000000000000000000000ecf5e30f091d1db7c7b0ef26634a71d46dc9bb25",
            "0x0000000000000000000000003a0f5b9436eca0c8c0eced659dcc41e86e65e33d"
          ],
          "data": "0x000000000000000000000000000000000000000000000000000000012a05f200",
          "blockHash": "0x1513d87f86b088fd31bfc07d418b64d2650ddf9172f8d9ad274432fb8de46346",
          "blockNumber": "0x1446ff7",
          "transactionHash": "0x656a7d44f71514ea460e2672d03f737cb8dfcbc939923828966764114c7193a4",
          "transactionIndex": "0x0",
          "logIndex": "0x0",
          "removed": false
        },
        {
          "address": "0x3a0f5b9436eca0c8c0eced659dcc41e86e65e33d",
          "topics": [
            "0xfcbcc085af918c303c797ac8b02a2f04d41a4756ade38c4232d74e33a1e1a9a1",
            "0x0000000000000000000000002c765493f3899d2236d172b5c9c7c9473bd71765",
            "0x0000000000000000000000002c765493f3899d2236d172b5c9c7c9473bd71765",
            "0x000000000000000000000000ecf5e30f091d1db7c7b0ef26634a71d46dc9bb25"
          ],
          "data": "0x2e882135c6afc3bda02a9c8a7c6a351198d97599c804a2575a3d616073a87251000000000000000000000000000000000000000000000000000000012a05f200",
          "blockHash": "0x1513d87f86b088fd31bfc07d418b64d2650ddf9172f8d9ad274432fb8de46346",
          "blockNumber": "0x1446ff7",
          "transactionHash": "0x656a7d44f71514ea460e2672d03f737cb8dfcbc939923828966764114c7193a4",
          "transactionIndex": "0x0",
          "logIndex": "0x1",
          "removed": false
        }
      ],
      "logsBloom": "0x00000000000000000000000000000000000000000000000000000000000000000000000000000000000000000000000000000000000000002000040100080000400000000000000000100008000000000000000000000000000000000000000000000400000000000000000000000200000000000000000080000010000000000000000000000000000400100000000000801000000000000000000002000000000000000000000000000000000000000000000000000000000000000000000000000002000000000200000000000000000000000000000000000000000800000000000000000000000000100000000000010000000000000000000000000000",
      "type": "0x2",
      "transactionHash": "0x656a7d44f71514ea460e2672d03f737cb8dfcbc939923828966764114c7193a4",
      "transactionIndex": "0x0",
      "blockHash": "0x1513d87f86b088fd31bfc07d418b64d2650ddf9172f8d9ad274432fb8de46346",
      "blockNumber": "0x1446ff7",
      "gasUsed": "0x34d15",
      "effectiveGasPrice": "0xf4241",
      "from": "0xecf5e30f091d1db7c7b0ef26634a71d46dc9bb25",
      "to": "0x3a0f5b9436eca0c8c0eced659dcc41e86e65e33d",
      "contractAddress": null
    },
    {
      "status": "0x1",
      "cumulativeGasUsed": "0x199d2f",
      "logs": [
        {
          "address": "0xe8cf8a5711f08d5211d46a2835ecc9c9af1b91cd",
          "topics": [
            "0xddf252ad1be2c89b69c2b068fc378daa952ba7f163c4a11628f55a4df523b3ef",
            "0x000000000000000000000000ecf5e30f091d1db7c7b0ef26634a71d46dc9bb25",
            "0x0000000000000000000000003a0f5b9436eca0c8c0eced659dcc41e86e65e33d"
          ],
          "data": "0x000000000000000000000000000000000000000000000000000000012a05f200",
          "blockHash": "0x4c61a68153f74f590b8957d5e13f8e8f48bd728c3d57208bdc50919c4a7a7550",
          "blockNumber": "0x1446ff8",
          "transactionHash": "0x02a9495bcd3e217d74523ac7101f63bc1ab83588d3aac637fe585cb3e3cc4301",
          "transactionIndex": "0xc",
          "logIndex": "0x4f",
          "removed": false
        },
        {
          "address": "0x3a0f5b9436eca0c8c0eced659dcc41e86e65e33d",
          "topics": [
            "0xfcbcc085af918c303c797ac8b02a2f04d41a4756ade38c4232d74e33a1e1a9a1",
            "0x0000000000000000000000006734ce8189eeb801f595e5c0a7b4239221f08d93",
            "0x0000000000000000000000006734ce8189eeb801f595e5c0a7b4239221f08d93",
            "0x000000000000000000000000ecf5e30f091d1db7c7b0ef26634a71d46dc9bb25"
          ],
          "data": "0x2e882135c6afc3bda02a9c8a7c6a351198d97599c804a2575a3d616073a87251000000000000000000000000000000000000000000000000000000012a05f200",
          "blockHash": "0x4c61a68153f74f590b8957d5e13f8e8f48bd728c3d57208bdc50919c4a7a7550",
          "blockNumber": "0x1446ff8",
          "transactionHash": "0x02a9495bcd3e217d74523ac7101f63bc1ab83588d3aac637fe585cb3e3cc4301",
          "transactionIndex": "0xc",
          "logIndex": "0x50",
          "removed": false
        }
      ],
      "logsBloom": "0x00000000000000000000000000000000000000000000000000000000000000000000000000000000000000000000000000000000000000002000040000000000400000000000000000100008000000000000000000000000000000000000000000000000000000000000000000000200000000000000000080000010000000000000000000000000000400100000000000801000400000000000000002000000000000000000000000000000000000000000000000000000000000000000020000000002000000000200000000000000000000000000000000000000000800000000000000000000000000100000000000010000000000000000000000000000",
      "type": "0x2",
      "transactionHash": "0x02a9495bcd3e217d74523ac7101f63bc1ab83588d3aac637fe585cb3e3cc4301",
      "transactionIndex": "0xc",
      "blockHash": "0x4c61a68153f74f590b8957d5e13f8e8f48bd728c3d57208bdc50919c4a7a7550",
      "blockNumber": "0x1446ff8",
      "gasUsed": "0x34d15",
      "effectiveGasPrice": "0xf4241",
      "from": "0xecf5e30f091d1db7c7b0ef26634a71d46dc9bb25",
      "to": "0x3a0f5b9436eca0c8c0eced659dcc41e86e65e33d",
      "contractAddress": null
    },
    {
      "status": "0x1",
      "cumulativeGasUsed": "0x9df67",
      "logs": [
        {
          "address": "0xe8cf8a5711f08d5211d46a2835ecc9c9af1b91cd",
          "topics": [
            "0xddf252ad1be2c89b69c2b068fc378daa952ba7f163c4a11628f55a4df523b3ef",
            "0x000000000000000000000000ecf5e30f091d1db7c7b0ef26634a71d46dc9bb25",
            "0x0000000000000000000000003a0f5b9436eca0c8c0eced659dcc41e86e65e33d"
          ],
          "data": "0x000000000000000000000000000000000000000000000000000000012a05f200",
          "blockHash": "0xab34d59fba59f2c29d6585df886d278e0380fa07ad8ed3e567469780d547344e",
          "blockNumber": "0x1446ff9",
          "transactionHash": "0x99889728b4d84c53a95782744d7e92a781ec2d49c4b2c315abf8f019a81f8cf7",
          "transactionIndex": "0x4",
          "logIndex": "0x16",
          "removed": false
        },
        {
          "address": "0x3a0f5b9436eca0c8c0eced659dcc41e86e65e33d",
          "topics": [
            "0xfcbcc085af918c303c797ac8b02a2f04d41a4756ade38c4232d74e33a1e1a9a1",
            "0x00000000000000000000000092c15c4f20641191dd9b464ec446cc7d7ac616c5",
            "0x00000000000000000000000092c15c4f20641191dd9b464ec446cc7d7ac616c5",
            "0x000000000000000000000000ecf5e30f091d1db7c7b0ef26634a71d46dc9bb25"
          ],
          "data": "0x2e882135c6afc3bda02a9c8a7c6a351198d97599c804a2575a3d616073a87251000000000000000000000000000000000000000000000000000000012a05f200",
          "blockHash": "0xab34d59fba59f2c29d6585df886d278e0380fa07ad8ed3e567469780d547344e",
          "blockNumber": "0x1446ff9",
          "transactionHash": "0x99889728b4d84c53a95782744d7e92a781ec2d49c4b2c315abf8f019a81f8cf7",
          "transactionIndex": "0x4",
          "logIndex": "0x17",
          "removed": false
        }
      ],
      "logsBloom": "0x00000000000000000000000000000000000000000000000000000000000000000000000000000000000000000000000000000000000000002000040000000000400000000000000000100008000000000000000000000000000000000000000000000000000000000000000000000200000000000000000080000010000000000000000000000000000400100000000000801000000000000000000002000000000000000000000000000000000000000000000000000000000000000000000000000402000000010200000000000000000000000000000000000000000800000004000000000000000000100000000000010000000000000000000000000000",
      "type": "0x2",
      "transactionHash": "0x99889728b4d84c53a95782744d7e92a781ec2d49c4b2c315abf8f019a81f8cf7",
      "transactionIndex": "0x4",
      "blockHash": "0xab34d59fba59f2c29d6585df886d278e0380fa07ad8ed3e567469780d547344e",
      "blockNumber": "0x1446ff9",
      "gasUsed": "0x34d15",
      "effectiveGasPrice": "0xf4241",
      "from": "0xecf5e30f091d1db7c7b0ef26634a71d46dc9bb25",
      "to": "0x3a0f5b9436eca0c8c0eced659dcc41e86e65e33d",
      "contractAddress": null
    }
  ],
  "libraries": [],
  "pending": [],
  "returns": {
    "v": {
      "internal_type": "struct DeployPhase6MultiAssetVaults.Vaults",
      "value": "(0x29b5d20FE7005AB81b3b919385003399E6397622, 0xdcb2d64F6F2500ca899d89f885fA6738DF4d4a3E, 0x24DC209dAB31887f20Ecf7eaE626F4E8fa46D570, 0xf825727eA1D19066E6b06bCC928a658ee1E7516F, 0xa863B0372f28f368119Cbf4ae2b46730e5d009f5, 0xf44051d85f1a2F31a249d5F4136176c083F09dd3, 0x2c765493f3899d2236D172B5c9c7c9473bd71765, 0x6734CE8189eeb801F595e5c0a7b4239221F08d93, 0x92c15C4f20641191dD9B464Ec446cc7D7AC616C5)"
    }
  },
  "timestamp": 1778340401537,
  "chain": 2368,
  "commit": "e7f8094"
}