{
  "transactions": [
    {
      "hash": "0x352ae61e18686289db4b2e4b4704b3e2b19fade574114d1d656737f35ee5ca1c",
      "transactionType": "CALL",
      "contractName": null,
      "contractAddress": "0x55782e7019f4619a06a25bf66d2998c8fe2cc436",
      "function": "setStrategyVault(address,bool)",
      "arguments": [
        "0xECf5e30F091D1db7c7b0ef26634a71d46DC9Bb25",
        "true"
      ],
      "transaction": {
        "from": "0xecf5e30f091d1db7c7b0ef26634a71d46dc9bb25",
        "to": "0x55782e7019f4619a06a25bf66d2998c8fe2cc436",
        "gas": "0x94b9",
        "value": "0x0",
        "input": "0xf1e4503f000000000000000000000000ecf5e30f091d1db7c7b0ef26634a71d46dc9bb250000000000000000000000000000000000000000000000000000000000000001",
        "nonce": "0x1a",
        "chainId": "0x66eee"
      },
      "additionalContracts": [],
      "isFixedGasLimit": false
    },
    {
      "hash": "0x161a11d068a9225743de76af740de9705103b6662046a126bc691a3258fbca87",
      "transactionType": "CALL",
      "contractName": null,
      "contractAddress": "0x55782e7019f4619a06a25bf66d2998c8fe2cc436",
      "function": "sendReputationUpdate(uint32,address,uint8,(int256,uint256,uint256,uint256,uint256,uint256,uint8,bytes32),bytes)",
      "arguments": [
        "40415",
        "0xECf5e30F091D1db7c7b0ef26634a71d46DC9Bb25",
        "0",
        "(750, 1778528999, 1, 0, 100, 10000, 0, 0x000000000000000000000000000000000000000000000000000000000000dead)",
        "0x00030100110100000000000000000000000000030d40"
      ],
      "transaction": {
        "from": "0xecf5e30f091d1db7c7b0ef26634a71d46dc9bb25",
        "to": "0x55782e7019f4619a06a25bf66d2998c8fe2cc436",
        "gas": "0x4b0ee",
        "value": "0x6c0839bd8f74",
        "input": "0xb5e73f050000000000000000000000000000000000000000000000000000000000009ddf000000000000000000000000ecf5e30f091d1db7c7b0ef26634a71d46dc9bb25000000000000000000000000000000000000000000000000000000000000000000000000000000000000000000000000000000000000000000000000000002ee000000000000000000000000000000000000000000000000000000006a0232e700000000000000000000000000000000000000000000000000000000000000010000000000000000000000000000000000000000000000000000000000000000000000000000000000000000000000000000000000000000000000000000006400000000000000000000000000000000000000000000000000000000000027100000000000000000000000000000000000000000000000000000000000000000000000000000000000000000000000000000000000000000000000000000dead0000000000000000000000000000000000000000000000000000000000000180000000000000000000000000000000000000000000000000000000000000001600030100110100000000000000000000000000030d4000000000000000000000",
        "nonce": "0x1b",
        "chainId": "0x66eee"
      },
      "additionalContracts": [],
      "isFixedGasLimit": false
    }
  ],
  "receipts": [
    {
      "status": "0x1",
      "cumulativeGasUsed": "0x68f6",
      "logs": [],
      "logsBloom": "0x00000000000000000000000000000000000000000000000000000000000000000000000000000000000000000000000000000000000000000000000000000000000000000000000000000000000000000000000000000000000000000000000000000000000000000000000000000000000000000000000000000000000000000000000000000000000000000000000000000000000000000000000000000000000000000000000000000000000000000000000000000000000000000000000000000000000000000000000000000000000000000000000000000000000000000000000000000000000000000000000000000000000000000000000000000000",
      "type": "0x2",
      "transactionHash": "0x352ae61e18686289db4b2e4b4704b3e2b19fade574114d1d656737f35ee5ca1c",
      "transactionIndex": "0x1",
      "blockHash": "0x5acec1c367f5e266ddbe0282e5d8a551fb931b25af6c48adb03146971c6831c4",
      "blockNumber": "0xff10134",
      "gasUsed": "0x68f6",
      "effectiveGasPrice": "0x1312d00",
      "from": "0xecf5e30f091d1db7c7b0ef26634a71d46dc9bb25",
      "to": "0x55782e7019f4619a06a25bf66d2998c8fe2cc436",
      "contractAddress": null,
      "gasUsedForL1": "0x0",
      "l1BlockNumber": "0xa55309",
      "timeboosted": false
    },
    {
      "status": "0x1",
      "cumulativeGasUsed": "0x381ee",
      "logs": [
        {
          "address": "0x4f7cd4da19abb31b0ec98b9066b9e857b1bf9c0e",
          "topics": [
            "0x61ed099e74a97a1d7f8bb0952a88ca8b7b8ebd00c126ea04671f92a81213318a"
          ],
          "data": "0x0000000000000000000000005df3a1cebbd9c8ba7f8df51fd632a9aef8308897000000000000000000000000000000000000000000000000000055bd622c5570",
          "blockHash": "0xe2054d2f498013c1d1022a84be852509c9d71aad6e2972106e5998a51cb8a47b",
          "blockNumber": "0xff1013b",
          "blockTimestamp": "0x6a023302",
          "transactionHash": "0x161a11d068a9225743de76af740de9705103b6662046a126bc691a3258fbca87",
          "transactionIndex": "0x1",
          "logIndex": "0x0",
          "removed": false
        },
        {
          "address": "0x4f7cd4da19abb31b0ec98b9066b9e857b1bf9c0e",
          "topics": [
            "0x07ea52d82345d6e838192107d8fd7123d9c2ec8e916cd0aad13fd2b60db24644"
          ],
          "data": "0x000000000000000000000000000000000000000000000000000000000000006000000000000000000000000000000000000000000000000000000000000000a000000000000000000000000000000000000000000000000000000000000000c0000000000000000000000000000000000000000000000000000000000000000100000000000000000000000053f488e93b4f1b60e8e83aa374dbe1780a1ee8a80000000000000000000000000000000000000000000000000000000000000000000000000000000000000000000000000000000000000000000000000000000100000000000000000000000000000000000000000000000000000449789c4cc6",
          "blockHash": "0xe2054d2f498013c1d1022a84be852509c9d71aad6e2972106e5998a51cb8a47b",
          "blockNumber": "0xff1013b",
          "blockTimestamp": "0x6a023302",
          "transactionHash": "0x161a11d068a9225743de76af740de9705103b6662046a126bc691a3258fbca87",
          "transactionIndex": "0x1",
          "logIndex": "0x1",
          "removed": false
        },
        {
          "address": "0x6edce65403992e310a62460808c4b910d972f10f",
          "topics": [
            "0x1ab700d4ced0c005b164c0f789fd09fcbb0156d4c2041b8a3bfbcd961cd1567f"
          ],
          "data": "0x000000000000000000000000000000000000000000000000000000000000006000000000000000000000000000000000000000000000000000000000000002800000000000000000000000004f7cd4da19abb31b0ec98b9066b9e857b1bf9c0e00000000000000000000000000000000000000000000000000000000000001f101000000000000000200009d2700000000000000000000000055782e7019f4619a06a25bf66d2998c8fe2cc43600009ddf0000000000000000000000009845c0c697964464dcaf2602b4e516caea98e51efcbd2a5a772f60d75d4eeb5ca588acad81fc20cd447b2e4993bef87923e116a900000000000000000000000000000000000000000000000000000000000000010000000000000000000000000000000000000000000000000000000000000003000000000000000000000000ecf5e30f091d1db7c7b0ef26634a71d46dc9bb25000000000000000000000000000000000000000000000000000000000000000000000000000000000000000000000000000000000000000000000000000002ee000000000000000000000000000000000000000000000000000000006a0232e700000000000000000000000000000000000000000000000000000000000000010000000000000000000000000000000000000000000000000000000000000000000000000000000000000000000000000000000000000000000000000000006400000000000000000000000000000000000000000000000000000000000027100000000000000000000000000000000000000000000000000000000000000000000000000000000000000000000000000000000000000000000000000000dead000000000000000000000000000000000000000000000000000000000000000000000000000000000000000000001600030100110100000000000000000000000000030d4000000000000000000000",
          "blockHash": "0xe2054d2f498013c1d1022a84be852509c9d71aad6e2972106e5998a51cb8a47b",
          "blockNumber": "0xff1013b",
          "blockTimestamp": "0x6a023302",
          "transactionHash": "0x161a11d068a9225743de76af740de9705103b6662046a126bc691a3258fbca87",
          "transactionIndex": "0x1",
          "logIndex": "0x2",
          "removed": false
        },
        {
          "address": "0x55782e7019f4619a06a25bf66d2998c8fe2cc436",
          "topics": [
            "0x28911d7a9d23ead5420f338b51bef381abda00a10f602d2cd39d78a6f4cbca63",
            "0x0000000000000000000000000000000000000000000000000000000000009ddf",
            "0x000000000000000000000000ecf5e30f091d1db7c7b0ef26634a71d46dc9bb25"
          ],
          "data": "0x0000000000000000000000000000000000000000000000000000000000000000fcbd2a5a772f60d75d4eeb5ca588acad81fc20cd447b2e4993bef87923e116a9",
          "blockHash": "0xe2054d2f498013c1d1022a84be852509c9d71aad6e2972106e5998a51cb8a47b",
          "blockNumber": "0xff1013b",
          "blockTimestamp": "0x6a023302",
          "transactionHash": "0x161a11d068a9225743de76af740de9705103b6662046a126bc691a3258fbca87",
          "transactionIndex": "0x1",
          "logIndex": "0x3",
          "removed": false
        }
      ],
      "logsBloom": "0x00000000000000000000000000000000000000000000000000000000000000000000000000000100200000000000000000000000008000000000001000010000400000000000000000000000000000000000000000000000000000080000000000000000000000008200000000000000000000000000000800000000000000000000000000000020002000080000000000800000000000010800000000000000000000008000000000102000000000000000000000400000000440000000000000000000000000000200000000000000000000000000000000000000000000000000040000000000000000000000002000000000000040000000008000000000",
      "type": "0x2",
      "transactionHash": "0x161a11d068a9225743de76af740de9705103b6662046a126bc691a3258fbca87",
      "transactionIndex": "0x1",
      "blockHash": "0xe2054d2f498013c1d1022a84be852509c9d71aad6e2972106e5998a51cb8a47b",
      "blockNumber": "0xff1013b",
      "gasUsed": "0x381ee",
      "effectiveGasPrice": "0x1312d00",
      "from": "0xecf5e30f091d1db7c7b0ef26634a71d46dc9bb25",
      "to": "0x55782e7019f4619a06a25bf66d2998c8fe2cc436",
      "contractAddress": null,
      "gasUsedForL1": "0x0",
      "l1BlockNumber": "0xa55309",
      "timeboosted": false
    }
  ],
  "libraries": [],
  "pending": [],
  "returns": {},
  "timestamp": 1778529027035,
  "chain": 421614,
  "commit": "b58afcc"
}