{
  "transactions": [
    {
      "hash": "0x3c53a654625a14332e2bd54901739f4099faff3087d2748a271241a80f7574de",
      "transactionType": "CALL",
      "contractName": null,
      "contractAddress": "0x55782e7019f4619a06a25bf66d2998c8fe2cc436",
      "function": "setPeer(uint32,bytes32)",
      "arguments": [
        "40415",
        "0x0000000000000000000000009d93f3f2254d7d6f6f4208938b7ce7f9e33c43b3"
      ],
      "transaction": {
        "from": "0xecf5e30f091d1db7c7b0ef26634a71d46dc9bb25",
        "to": "0x55782e7019f4619a06a25bf66d2998c8fe2cc436",
        "gas": "0x10099",
        "value": "0x0",
        "input": "0x3400288b0000000000000000000000000000000000000000000000000000000000009ddf0000000000000000000000009d93f3f2254d7d6f6f4208938b7ce7f9e33c43b3",
        "nonce": "0x10",
        "chainId": "0x14a34"
      },
      "additionalContracts": [],
      "isFixedGasLimit": false
    },
    {
      "hash": "0x710770f51652c0a85f937d1337a60e4189d31e11e111d4889fa7e8a8d070861b",
      "transactionType": "CALL",
      "contractName": null,
      "contractAddress": "0x55782e7019f4619a06a25bf66d2998c8fe2cc436",
      "function": "setPeer(uint32,bytes32)",
      "arguments": [
        "40231",
        "0x00000000000000000000000055782e7019f4619a06a25bf66d2998c8fe2cc436"
      ],
      "transaction": {
        "from": "0xecf5e30f091d1db7c7b0ef26634a71d46dc9bb25",
        "to": "0x55782e7019f4619a06a25bf66d2998c8fe2cc436",
        "gas": "0x10099",
        "value": "0x0",
        "input": "0x3400288b0000000000000000000000000000000000000000000000000000000000009d2700000000000000000000000055782e7019f4619a06a25bf66d2998c8fe2cc436",
        "nonce": "0x11",
        "chainId": "0x14a34"
      },
      "additionalContracts": [],
      "isFixedGasLimit": false
    }
  ],
  "receipts": [
    {
      "status": "0x1",
      "cumulativeGasUsed": "0x1032d7",
      "logs": [
        {
          "address": "0x55782e7019f4619a06a25bf66d2998c8fe2cc436",
          "topics": [
            "0x238399d427b947898edb290f5ff0f9109849b1c3ba196a42e35f00c50a54b98b"
          ],
          "data": "0x0000000000000000000000000000000000000000000000000000000000009ddf0000000000000000000000009d93f3f2254d7d6f6f4208938b7ce7f9e33c43b3",
          "blockHash": "0x0000000000000000000000000000000000000000000000000000000000000000",
          "blockNumber": "0x27754ea",
          "blockTimestamp": "0x6a0208b4",
          "transactionHash": "0x3c53a654625a14332e2bd54901739f4099faff3087d2748a271241a80f7574de",
          "transactionIndex": "0x5",
          "logIndex": "0x3b",
          "removed": false
        }
      ],
      "logsBloom": "0x00000000000000000000000000000000000000000000000000000000000000000000000000000000000000000000000000000000000000000800000000010000000000000000000000000000000000000000000000000000000000000000000000000000000000000000000000000000000000000000000000000000000000000000000000000000000000000000000000000000000000000800000000000000000000000000000000000000000000000000000000000000000002000000000000000000000000000000000000000000000000000000000000040000000000000000000000000000000000000000000000000000000000000000008000000000",
      "type": "0x2",
      "transactionHash": "0x3c53a654625a14332e2bd54901739f4099faff3087d2748a271241a80f7574de",
      "transactionIndex": "0x5",
      "blockHash": "0x0000000000000000000000000000000000000000000000000000000000000000",
      "blockNumber": "0x27754ea",
      "gasUsed": "0xb9c6",
      "effectiveGasPrice": "0x5b8d80",
      "blobGasUsed": "0xae38",
      "from": "0xecf5e30f091d1db7c7b0ef26634a71d46dc9bb25",
      "to": "0x55782e7019f4619a06a25bf66d2998c8fe2cc436",
      "contractAddress": null,
      "daFootprintGasScalar": "0x1be",
      "l1BaseFeeScalar": "0x44d",
      "l1BlobBaseFee": "0x1",
      "l1BlobBaseFeeScalar": "0xa118b",
      "l1Fee": "0x1c1",
      "l1GasPrice": "0x21",
      "l1GasUsed": "0x640"
    },
    {
      "status": "0x1",
      "cumulativeGasUsed": "0x129793",
      "logs": [
        {
          "address": "0x55782e7019f4619a06a25bf66d2998c8fe2cc436",
          "topics": [
            "0x238399d427b947898edb290f5ff0f9109849b1c3ba196a42e35f00c50a54b98b"
          ],
          "data": "0x0000000000000000000000000000000000000000000000000000000000009d2700000000000000000000000055782e7019f4619a06a25bf66d2998c8fe2cc436",
          "blockHash": "0x0000000000000000000000000000000000000000000000000000000000000000",
          "blockNumber": "0x27754eb",
          "blockTimestamp": "0x6a0208b6",
          "transactionHash": "0x710770f51652c0a85f937d1337a60e4189d31e11e111d4889fa7e8a8d070861b",
          "transactionIndex": "0x7",
          "logIndex": "0x43",
          "removed": false
        }
      ],
      "logsBloom": "0x00000000000000000000000000000000000000000000000000000000000000000000000000000000000000000000000000000000000000000800000000010000000000000000000000000000000000000000000000000000000000000000000000000000000000000000000000000000000000000000000000000000000000000000000000000000000000000000000000000000000000000800000000000000000000000000000000000000000000000000000000000000000002000000000000000000000000000000000000000000000000000000000000040000000000000000000000000000000000000000000000000000000000000000008000000000",
      "type": "0x2",
      "transactionHash": "0x710770f51652c0a85f937d1337a60e4189d31e11e111d4889fa7e8a8d070861b",
      "transactionIndex": "0x7",
      "blockHash": "0x0000000000000000000000000000000000000000000000000000000000000000",
      "blockNumber": "0x27754eb",
      "gasUsed": "0xb9c6",
      "effectiveGasPrice": "0x5b8d80",
      "blobGasUsed": "0xae38",
      "from": "0xecf5e30f091d1db7c7b0ef26634a71d46dc9bb25",
      "to": "0x55782e7019f4619a06a25bf66d2998c8fe2cc436",
      "contractAddress": null,
      "daFootprintGasScalar": "0x1be",
      "l1BaseFeeScalar": "0x44d",
      "l1BlobBaseFee": "0x1",
      "l1BlobBaseFeeScalar": "0xa118b",
      "l1Fee": "0x7c",
      "l1GasPrice": "0x21",
      "l1GasUsed": "0x640"
    }
  ],
  "libraries": [],
  "pending": [],
  "returns": {},
  "timestamp": 1778518196936,
  "chain": 84532,
  "commit": "e202616"
}