{
  "transactions": [
    {
      "hash": "0x4051bb97b8cedfb1cce2e0a6c8afe613c4daa337ae6645a46ef340021ed5d165",
      "transactionType": "CALL",
      "contractName": null,
      "contractAddress": "0x78b3515f4e9186d9870dcef02da58e4c8c5c6e8f",
      "function": "setMetaStrategy((bytes32,bytes32[],address[],uint32[],uint256,uint16,uint8,uint16,uint16,uint256,uint64,uint16,uint16,uint32),bytes)",
      "arguments": [
        "(0x2d0ef4a5aa7a411daf2c089f258a6bbdc0023df6af47a1e51dea574f03c0cbc6, [0x2a9aa442064b635baec37a7a259282faa5563a653a8325378d5676c6f04bc9dd, 0x18602f4f74172d545f5258541634e1a125c3a4e1227ee2a4cbee957d3490f1fb, 0x2e882135c6afc3bda02a9c8a7c6a351198d97599c804a2575a3d616073a87251], [0xe8CF8A5711F08d5211D46a2835ECC9C9aF1b91cD], [2368, 84532, 421614], 50000000000000000000, 2500, 8, 2000, 5000, 300, 1781344022, 3, 50, 25)",
        "0x"
      ],
      "transaction": {
        "from": "0xecf5e30f091d1db7c7b0ef26634a71d46dc9bb25",
        "to": "0x78b3515f4e9186d9870dcef02da58e4c8c5c6e8f",
        "gas": "0x4f86d",
        "value": "0x0",
        "input": "0x0d70e661000000000000000000000000000000000000000000000000000000000000004000000000000000000000000000000000000000000000000000000000000003402d0ef4a5aa7a411daf2c089f258a6bbdc0023df6af47a1e51dea574f03c0cbc600000000000000000000000000000000000000000000000000000000000001c000000000000000000000000000000000000000000000000000000000000002400000000000000000000000000000000000000000000000000000000000000280000000000000000000000000000000000000000000000002b5e3af16b188000000000000000000000000000000000000000000000000000000000000000009c4000000000000000000000000000000000000000000000000000000000000000800000000000000000000000000000000000000000000000000000000000007d00000000000000000000000000000000000000000000000000000000000001388000000000000000000000000000000000000000000000000000000000000012c000000000000000000000000000000000000000000000000000000006a2d271600000000000000000000000000000000000000000000000000000000000000030000000000000000000000000000000000000000000000000000000000000032000000000000000000000000000000000000000000000000000000000000001900000000000000000000000000000000000000000000000000000000000000032a9aa442064b635baec37a7a259282faa5563a653a8325378d5676c6f04bc9dd18602f4f74172d545f5258541634e1a125c3a4e1227ee2a4cbee957d3490f1fb2e882135c6afc3bda02a9c8a7c6a351198d97599c804a2575a3d616073a872510000000000000000000000000000000000000000000000000000000000000001000000000000000000000000e8cf8a5711f08d5211d46a2835ecc9c9af1b91cd000000000000000000000000000000000000000000000000000000000000000300000000000000000000000000000000000000000000000000000000000009400000000000000000000000000000000000000000000000000000000000014a340000000000000000000000000000000000000000000000000000000000066eee0000000000000000000000000000000000000000000000000000000000000000",
        "nonce": "0x110b8",
        "chainId": "0x940"
      },
      "additionalContracts": [],
      "isFixedGasLimit": false
    }
  ],
  "receipts": [
    {
      "status": "0x1",
      "cumulativeGasUsed": "0x39937",
      "logs": [
        {
          "address": "0x78b3515f4e9186d9870dcef02da58e4c8c5c6e8f",
          "topics": [
            "0xca4be8a2a326774e90d2615db848a30b4ec9718ef5baac56f814758db8f12280",
            "0x000000000000000000000000ecf5e30f091d1db7c7b0ef26634a71d46dc9bb25",
            "0x2d0ef4a5aa7a411daf2c089f258a6bbdc0023df6af47a1e51dea574f03c0cbc6"
          ],
          "data": "0x",
          "blockHash": "0x792c5ec6dd052a1a82265227217772424b48a8db912f8d269ae8104f3e5d7106",
          "blockNumber": "0x146611b",
          "transactionHash": "0x4051bb97b8cedfb1cce2e0a6c8afe613c4daa337ae6645a46ef340021ed5d165",
          "transactionIndex": "0x0",
          "logIndex": "0x0",
          "removed": false
        }
      ],
      "logsBloom": "0x00000000000000000000000000000000000000000000000000000000000000000000000400000000000000000000000000000000000000000000000000000000400000000000000000000000000000000000000000000000000000000000000100000000000000000000000000000000000000010000040000000000000000000000000800000000000000000000000002800000000000000000200000000000000000000000000010000000000000000000000000000000000000000000000000000000000000000200080000000000000000000000000000000000000000000000000000000000000000000000000000000000000000000000000000000000",
      "type": "0x2",
      "transactionHash": "0x4051bb97b8cedfb1cce2e0a6c8afe613c4daa337ae6645a46ef340021ed5d165",
      "transactionIndex": "0x0",
      "blockHash": "0x792c5ec6dd052a1a82265227217772424b48a8db912f8d269ae8104f3e5d7106",
      "blockNumber": "0x146611b",
      "gasUsed": "0x39937",
      "effectiveGasPrice": "0xf4241",
      "from": "0xecf5e30f091d1db7c7b0ef26634a71d46dc9bb25",
      "to": "0x78b3515f4e9186d9870dcef02da58e4c8c5c6e8f",
      "contractAddress": null
    }
  ],
  "libraries": [],
  "pending": [],
  "returns": {},
  "timestamp": 1778752041236,
  "chain": 2368,
  "commit": "c33d9e3"
}