{
  "transactions": [
    {
      "hash": "0x31a2b7f41e0052fa5a9d7aff9dedbb875cbb828807213b07186f8ac928f67a38",
      "transactionType": "CALL",
      "contractName": null,
      "contractAddress": "0x55782e7019f4619a06a25bf66d2998c8fe2cc436",
      "function": "setStrategyVault(address,bool)",
      "arguments": [
        "0xECf5e30F091D1db7c7b0ef26634a71d46DC9Bb25",
        "true"
      ],
      "transaction": {
        "from": "0xecf5e30f091d1db7c7b0ef26634a71d46dc9bb25",
        "to": "0x55782e7019f4619a06a25bf66d2998c8fe2cc436",
        "gas": "0xef72",
        "value": "0x0",
        "input": "0xf1e4503f000000000000000000000000ecf5e30f091d1db7c7b0ef26634a71d46dc9bb250000000000000000000000000000000000000000000000000000000000000001",
        "nonce": "0x13",
        "chainId": "0x66eee"
      },
      "additionalContracts": [],
      "isFixedGasLimit": false
    },
    {
      "hash": "0x4a3ab7b6e55665364242314de7deeef980af5a81c6f0cad61929b13fcf3a1fe7",
      "transactionType": "CALL",
      "contractName": null,
      "contractAddress": "0x55782e7019f4619a06a25bf66d2998c8fe2cc436",
      "function": "queueAttestation(address,(int256,uint256,uint256,uint256,uint256,uint256,uint8,bytes32))",
      "arguments": [
        "0xECf5e30F091D1db7c7b0ef26634a71d46DC9Bb25",
        "(750, 10834175, 1, 0, 100, 10000, 0, 0x000000000000000000000000000000000000000000000000000000000000cafe)"
      ],
      "transaction": {
        "from": "0xecf5e30f091d1db7c7b0ef26634a71d46dc9bb25",
        "to": "0x55782e7019f4619a06a25bf66d2998c8fe2cc436",
        "gas": "0x4f0a9",
        "value": "0x0",
        "input": "0xbacdd573000000000000000000000000ecf5e30f091d1db7c7b0ef26634a71d46dc9bb2500000000000000000000000000000000000000000000000000000000000002ee0000000000000000000000000000000000000000000000000000000000a550ff00000000000000000000000000000000000000000000000000000000000000010000000000000000000000000000000000000000000000000000000000000000000000000000000000000000000000000000000000000000000000000000006400000000000000000000000000000000000000000000000000000000000027100000000000000000000000000000000000000000000000000000000000000000000000000000000000000000000000000000000000000000000000000000cafe",
        "nonce": "0x14",
        "chainId": "0x66eee"
      },
      "additionalContracts": [],
      "isFixedGasLimit": false
    },
    {
      "hash": "0xae29f8338305b398d17bfa5308e8766c1e522364b0637b47e130af214d8704b2",
      "transactionType": "CALL",
      "contractName": null,
      "contractAddress": "0x55782e7019f4619a06a25bf66d2998c8fe2cc436",
      "function": "flushAttestationsFor(address,uint32,bytes)",
      "arguments": [
        "0xECf5e30F091D1db7c7b0ef26634a71d46DC9Bb25",
        "40415",
        "0x0003010011010000000000000000000000000003d090"
      ],
      "transaction": {
        "from": "0xecf5e30f091d1db7c7b0ef26634a71d46dc9bb25",
        "to": "0x55782e7019f4619a06a25bf66d2998c8fe2cc436",
        "gas": "0x583f7",
        "value": "0x6c083a1a9b84",
        "input": "0x11684263000000000000000000000000ecf5e30f091d1db7c7b0ef26634a71d46dc9bb250000000000000000000000000000000000000000000000000000000000009ddf000000000000000000000000000000000000000000000000000000000000006000000000000000000000000000000000000000000000000000000000000000160003010011010000000000000000000000000003d09000000000000000000000",
        "nonce": "0x15",
        "chainId": "0x66eee"
      },
      "additionalContracts": [],
      "isFixedGasLimit": false
    }
  ],
  "receipts": [
    {
      "status": "0x1",
      "cumulativeGasUsed": "0xb6b2",
      "logs": [],
      "logsBloom": "0x00000000000000000000000000000000000000000000000000000000000000000000000000000000000000000000000000000000000000000000000000000000000000000000000000000000000000000000000000000000000000000000000000000000000000000000000000000000000000000000000000000000000000000000000000000000000000000000000000000000000000000000000000000000000000000000000000000000000000000000000000000000000000000000000000000000000000000000000000000000000000000000000000000000000000000000000000000000000000000000000000000000000000000000000000000000",
      "type": "0x2",
      "transactionHash": "0x31a2b7f41e0052fa5a9d7aff9dedbb875cbb828807213b07186f8ac928f67a38",
      "transactionIndex": "0x1",
      "blockHash": "0xee8e2be7420042b2f7e0c17f1726404b993c44c629897e75b8cb8e724798cfcb",
      "blockNumber": "0xff09836",
      "gasUsed": "0xb6b2",
      "effectiveGasPrice": "0x1318ac0",
      "from": "0xecf5e30f091d1db7c7b0ef26634a71d46dc9bb25",
      "to": "0x55782e7019f4619a06a25bf66d2998c8fe2cc436",
      "contractAddress": null,
      "gasUsedForL1": "0x0",
      "l1BlockNumber": "0xa55101",
      "timeboosted": false
    },
    {
      "status": "0x1",
      "cumulativeGasUsed": "0x39398",
      "logs": [
        {
          "address": "0x55782e7019f4619a06a25bf66d2998c8fe2cc436",
          "topics": [
            "0xc74fb24d400fca2a82a4c09f8d0b240a5274829080be96b89ccc4ba1b8772df0",
            "0x000000000000000000000000ecf5e30f091d1db7c7b0ef26634a71d46dc9bb25",
            "0x0000000000000000000000000000000000000000000000000000000000000001"
          ],
          "data": "0x0000000000000000000000000000000000000000000000000000000000000001",
          "blockHash": "0xf2b30d6fffd7ab625b5546c1d58ca412a3109fca82609d36a8f4f3357ca464b5",
          "blockNumber": "0xff0983b",
          "blockTimestamp": "0x6a021616",
          "transactionHash": "0x4a3ab7b6e55665364242314de7deeef980af5a81c6f0cad61929b13fcf3a1fe7",
          "transactionIndex": "0x1",
          "logIndex": "0x0",
          "removed": false
        }
      ],
      "logsBloom": "0x00000000000000000000000000000000000000000000000000000000000000000000000000000000000000000008000000000000000000000000000000050000400000000000000000000000000000000000000000040000000000000000000000000000000000000400000000000000000000000000000000000000000000000000000000000000000000000000000000800000000000000800000000000000000000000000000000000000000000000001000000000000000000000000000000000000000000000200000000000000000000000000000000000000000040000000000000000000000000000000000000000000000000000000008000000000",
      "type": "0x2",
      "transactionHash": "0x4a3ab7b6e55665364242314de7deeef980af5a81c6f0cad61929b13fcf3a1fe7",
      "transactionIndex": "0x1",
      "blockHash": "0xf2b30d6fffd7ab625b5546c1d58ca412a3109fca82609d36a8f4f3357ca464b5",
      "blockNumber": "0xff0983b",
      "gasUsed": "0x39398",
      "effectiveGasPrice": "0x1336750",
      "from": "0xecf5e30f091d1db7c7b0ef26634a71d46dc9bb25",
      "to": "0x55782e7019f4619a06a25bf66d2998c8fe2cc436",
      "contractAddress": null,
      "gasUsedForL1": "0x0",
      "l1BlockNumber": "0xa55101",
      "timeboosted": false
    },
    {
      "status": "0x1",
      "cumulativeGasUsed": "0x3c573",
      "logs": [
        {
          "address": "0x4f7cd4da19abb31b0ec98b9066b9e857b1bf9c0e",
          "topics": [
            "0x61ed099e74a97a1d7f8bb0952a88ca8b7b8ebd00c126ea04671f92a81213318a"
          ],
          "data": "0x0000000000000000000000005df3a1cebbd9c8ba7f8df51fd632a9aef8308897000000000000000000000000000000000000000000000000000055bd6279df7e",
          "blockHash": "0xb2c2f88d82a009dad5bcef8a3a631be13f860b34b50baeb76e0968054da73b22",
          "blockNumber": "0xff09841",
          "blockTimestamp": "0x6a021617",
          "transactionHash": "0xae29f8338305b398d17bfa5308e8766c1e522364b0637b47e130af214d8704b2",
          "transactionIndex": "0x1",
          "logIndex": "0x0",
          "removed": false
        },
        {
          "address": "0x4f7cd4da19abb31b0ec98b9066b9e857b1bf9c0e",
          "topics": [
            "0x07ea52d82345d6e838192107d8fd7123d9c2ec8e916cd0aad13fd2b60db24644"
          ],
          "data": "0x000000000000000000000000000000000000000000000000000000000000006000000000000000000000000000000000000000000000000000000000000000a000000000000000000000000000000000000000000000000000000000000000c0000000000000000000000000000000000000000000000000000000000000000100000000000000000000000053f488e93b4f1b60e8e83aa374dbe1780a1ee8a80000000000000000000000000000000000000000000000000000000000000000000000000000000000000000000000000000000000000000000000000000000100000000000000000000000000000000000000000000000000000449789c4cc6",
          "blockHash": "0xb2c2f88d82a009dad5bcef8a3a631be13f860b34b50baeb76e0968054da73b22",
          "blockNumber": "0xff09841",
          "blockTimestamp": "0x6a021617",
          "transactionHash": "0xae29f8338305b398d17bfa5308e8766c1e522364b0637b47e130af214d8704b2",
          "transactionIndex": "0x1",
          "logIndex": "0x1",
          "removed": false
        },
        {
          "address": "0x6edce65403992e310a62460808c4b910d972f10f",
          "topics": [
            "0x1ab700d4ced0c005b164c0f789fd09fcbb0156d4c2041b8a3bfbcd961cd1567f"
          ],
          "data": "0x000000000000000000000000000000000000000000000000000000000000006000000000000000000000000000000000000000000000000000000000000002a00000000000000000000000004f7cd4da19abb31b0ec98b9066b9e857b1bf9c0e000000000000000000000000000000000000000000000000000000000000021101000000000000000100009d2700000000000000000000000055782e7019f4619a06a25bf66d2998c8fe2cc43600009ddf0000000000000000000000007bad5250a1c0b286bc5128bb1d7c19320341c8304191d1e0c8208e5146b4bfa3e4fbb9a39f20e52e1b81a25734abe5c688abdf590000000000000000000000000000000000000000000000000000000000000003000000000000000000000000000000000000000000000000000000000000004000000000000000000000000000000000000000000000000000000000000000010000000000000000000000000000000000000000000000000000000000000001000000000000000000000000ecf5e30f091d1db7c7b0ef26634a71d46dc9bb2500000000000000000000000000000000000000000000000000000000000002ee0000000000000000000000000000000000000000000000000000000000a550ff00000000000000000000000000000000000000000000000000000000000000010000000000000000000000000000000000000000000000000000000000000000000000000000000000000000000000000000000000000000000000000000006400000000000000000000000000000000000000000000000000000000000027100000000000000000000000000000000000000000000000000000000000000000000000000000000000000000000000000000000000000000000000000000cafe00000000000000000000000000000000000000000000000000000000000000000000000000000000000000000000160003010011010000000000000000000000000003d09000000000000000000000",
          "blockHash": "0xb2c2f88d82a009dad5bcef8a3a631be13f860b34b50baeb76e0968054da73b22",
          "blockNumber": "0xff09841",
          "blockTimestamp": "0x6a021617",
          "transactionHash": "0xae29f8338305b398d17bfa5308e8766c1e522364b0637b47e130af214d8704b2",
          "transactionIndex": "0x1",
          "logIndex": "0x2",
          "removed": false
        },
        {
          "address": "0x55782e7019f4619a06a25bf66d2998c8fe2cc436",
          "topics": [
            "0xc012d8a96d2fcdcda03a0934f2c1f171224eb4b8c26408a011c75215ce7d1985",
            "0x0000000000000000000000000000000000000000000000000000000000009ddf"
          ],
          "data": "0x0000000000000000000000000000000000000000000000000000000000000001000000000000000000000000000000000000000000000000000000000000000100000000000000000000000000000000000000000000000000000000000000014191d1e0c8208e5146b4bfa3e4fbb9a39f20e52e1b81a25734abe5c688abdf59",
          "blockHash": "0xb2c2f88d82a009dad5bcef8a3a631be13f860b34b50baeb76e0968054da73b22",
          "blockNumber": "0xff09841",
          "blockTimestamp": "0x6a021617",
          "transactionHash": "0xae29f8338305b398d17bfa5308e8766c1e522364b0637b47e130af214d8704b2",
          "transactionIndex": "0x1",
          "logIndex": "0x3",
          "removed": false
        }
      ],
      "logsBloom": "0x00000000000000000000000000000000000000000000000000000080000000000000000000000000200000000000000000000000008000000000001000010000000000000000000000000000000000000000000020000000000000000000000000000000000000008200000000000000000000000000000800000000000000000000000000000020000000080000000000000000000000010800000000000000000000008000000000102000000000000000000000400000000440000000000000000000000000000000000000000000000000000000000000002000000000000000040000000000000000000000002000000000000040000000008000000000",
      "type": "0x2",
      "transactionHash": "0xae29f8338305b398d17bfa5308e8766c1e522364b0637b47e130af214d8704b2",
      "transactionIndex": "0x1",
      "blockHash": "0xb2c2f88d82a009dad5bcef8a3a631be13f860b34b50baeb76e0968054da73b22",
      "blockNumber": "0xff09841",
      "gasUsed": "0x3c573",
      "effectiveGasPrice": "0x1313ca0",
      "from": "0xecf5e30f091d1db7c7b0ef26634a71d46dc9bb25",
      "to": "0x55782e7019f4619a06a25bf66d2998c8fe2cc436",
      "contractAddress": null,
      "gasUsedForL1": "0x0",
      "l1BlockNumber": "0xa55101",
      "timeboosted": false
    }
  ],
  "libraries": [],
  "pending": [],
  "returns": {},
  "timestamp": 1778521624310,
  "chain": 421614,
  "commit": "3a5b41c"
}