{
  "transactions": [
    {
      "hash": "0x6fce4ed89390b9150aa3e82fba68914f8678fdc108c16c7b72d2ad3db7760d6c",
      "transactionType": "CALL",
      "contractName": null,
      "contractAddress": "0x55782e7019f4619a06a25bf66d2998c8fe2cc436",
      "function": "setStrategyVault(address,bool)",
      "arguments": [
        "0xECf5e30F091D1db7c7b0ef26634a71d46DC9Bb25",
        "true"
      ],
      "transaction": {
        "from": "0xecf5e30f091d1db7c7b0ef26634a71d46dc9bb25",
        "to": "0x55782e7019f4619a06a25bf66d2998c8fe2cc436",
        "gas": "0x94b9",
        "value": "0x0",
        "input": "0xf1e4503f000000000000000000000000ecf5e30f091d1db7c7b0ef26634a71d46dc9bb250000000000000000000000000000000000000000000000000000000000000001",
        "nonce": "0x17",
        "chainId": "0x66eee"
      },
      "additionalContracts": [],
      "isFixedGasLimit": false
    },
    {
      "hash": "0x7a3cb6ee4bad560b45f9a97766e5414c93058dfe4a2ec9d16a3c5ec2f5f8e0c2",
      "transactionType": "CALL",
      "contractName": null,
      "contractAddress": "0x55782e7019f4619a06a25bf66d2998c8fe2cc436",
      "function": "queueAttestation(address,(int256,uint256,uint256,uint256,uint256,uint256,uint8,bytes32))",
      "arguments": [
        "0xECf5e30F091D1db7c7b0ef26634a71d46DC9Bb25",
        "(750, 10834693, 1, 0, 100, 10000, 0, 0x000000000000000000000000000000000000000000000000000000000000cafe)"
      ],
      "transaction": {
        "from": "0xecf5e30f091d1db7c7b0ef26634a71d46dc9bb25",
        "to": "0x55782e7019f4619a06a25bf66d2998c8fe2cc436",
        "gas": "0x45e1f",
        "value": "0x0",
        "input": "0xbacdd573000000000000000000000000ecf5e30f091d1db7c7b0ef26634a71d46dc9bb2500000000000000000000000000000000000000000000000000000000000002ee0000000000000000000000000000000000000000000000000000000000a5530500000000000000000000000000000000000000000000000000000000000000010000000000000000000000000000000000000000000000000000000000000000000000000000000000000000000000000000000000000000000000000000006400000000000000000000000000000000000000000000000000000000000027100000000000000000000000000000000000000000000000000000000000000000000000000000000000000000000000000000000000000000000000000000cafe",
        "nonce": "0x18",
        "chainId": "0x66eee"
      },
      "additionalContracts": [],
      "isFixedGasLimit": false
    },
    {
      "hash": "0x455830e5d5dd0a5bec0b65e4cc9dd26843501cfd35286d1244cb67e06880e048",
      "transactionType": "CALL",
      "contractName": null,
      "contractAddress": "0x55782e7019f4619a06a25bf66d2998c8fe2cc436",
      "function": "flushAttestationsFor(address,uint32,bytes)",
      "arguments": [
        "0xECf5e30F091D1db7c7b0ef26634a71d46DC9Bb25",
        "40415",
        "0x0003010011010000000000000000000000000003d090"
      ],
      "transaction": {
        "from": "0xecf5e30f091d1db7c7b0ef26634a71d46dc9bb25",
        "to": "0x55782e7019f4619a06a25bf66d2998c8fe2cc436",
        "gas": "0x583f7",
        "value": "0x6c083a1a9b84",
        "input": "0x11684263000000000000000000000000ecf5e30f091d1db7c7b0ef26634a71d46dc9bb250000000000000000000000000000000000000000000000000000000000009ddf000000000000000000000000000000000000000000000000000000000000006000000000000000000000000000000000000000000000000000000000000000160003010011010000000000000000000000000003d09000000000000000000000",
        "nonce": "0x19",
        "chainId": "0x66eee"
      },
      "additionalContracts": [],
      "isFixedGasLimit": false
    }
  ],
  "receipts": [
    {
      "status": "0x1",
      "cumulativeGasUsed": "0x68f6",
      "logs": [],
      "logsBloom": "0x00000000000000000000000000000000000000000000000000000000000000000000000000000000000000000000000000000000000000000000000000000000000000000000000000000000000000000000000000000000000000000000000000000000000000000000000000000000000000000000000000000000000000000000000000000000000000000000000000000000000000000000000000000000000000000000000000000000000000000000000000000000000000000000000000000000000000000000000000000000000000000000000000000000000000000000000000000000000000000000000000000000000000000000000000000000",
      "type": "0x2",
      "transactionHash": "0x6fce4ed89390b9150aa3e82fba68914f8678fdc108c16c7b72d2ad3db7760d6c",
      "transactionIndex": "0x1",
      "blockHash": "0xde71a247d54ba33ae9de972f47315f2ff662639824ecfb1395dc39e17980938a",
      "blockNumber": "0xff10050",
      "gasUsed": "0x68f6",
      "effectiveGasPrice": "0x1313ca0",
      "from": "0xecf5e30f091d1db7c7b0ef26634a71d46dc9bb25",
      "to": "0x55782e7019f4619a06a25bf66d2998c8fe2cc436",
      "contractAddress": null,
      "gasUsedForL1": "0x0",
      "l1BlockNumber": "0xa55306",
      "timeboosted": false
    },
    {
      "status": "0x1",
      "cumulativeGasUsed": "0x4743b",
      "logs": [
        {
          "address": "0x55782e7019f4619a06a25bf66d2998c8fe2cc436",
          "topics": [
            "0xc74fb24d400fca2a82a4c09f8d0b240a5274829080be96b89ccc4ba1b8772df0",
            "0x000000000000000000000000ecf5e30f091d1db7c7b0ef26634a71d46dc9bb25",
            "0x0000000000000000000000000000000000000000000000000000000000000002"
          ],
          "data": "0x0000000000000000000000000000000000000000000000000000000000000001",
          "blockHash": "0x8a97d7502ebaa535f35176f02f233b39e12200cad5da73c161de2ac870d6fd13",
          "blockNumber": "0xff1005d",
          "blockTimestamp": "0x6a0232c8",
          "transactionHash": "0x7a3cb6ee4bad560b45f9a97766e5414c93058dfe4a2ec9d16a3c5ec2f5f8e0c2",
          "transactionIndex": "0x2",
          "logIndex": "0x1",
          "removed": false
        }
      ],
      "logsBloom": "0x04000000000000000000000000000000000000000000000000000000000000000000000000000000000000000008000000000000000000000000000000010000400000000000000000000000000000000000000000000000000000000000000000000000000000000400000000000000000000000000000000000000000000000000000000000000000000000000000000800000000000000800000000000000000000000000000000000100000000000001000000000000000000000000000000000000000000000200000000000000000000000000000000000000000000000000000000000000000000000000000000000000008000000000008000000000",
      "type": "0x2",
      "transactionHash": "0x7a3cb6ee4bad560b45f9a97766e5414c93058dfe4a2ec9d16a3c5ec2f5f8e0c2",
      "transactionIndex": "0x2",
      "blockHash": "0x8a97d7502ebaa535f35176f02f233b39e12200cad5da73c161de2ac870d6fd13",
      "blockNumber": "0xff1005d",
      "gasUsed": "0x350cc",
      "effectiveGasPrice": "0x1332100",
      "from": "0xecf5e30f091d1db7c7b0ef26634a71d46dc9bb25",
      "to": "0x55782e7019f4619a06a25bf66d2998c8fe2cc436",
      "contractAddress": null,
      "gasUsedForL1": "0x0",
      "l1BlockNumber": "0xa55306",
      "timeboosted": false
    },
    {
      "status": "0x1",
      "cumulativeGasUsed": "0x3c573",
      "logs": [
        {
          "address": "0x4f7cd4da19abb31b0ec98b9066b9e857b1bf9c0e",
          "topics": [
            "0x61ed099e74a97a1d7f8bb0952a88ca8b7b8ebd00c126ea04671f92a81213318a"
          ],
          "data": "0x0000000000000000000000005df3a1cebbd9c8ba7f8df51fd632a9aef8308897000000000000000000000000000000000000000000000000000055bd6279df7e",
          "blockHash": "0x7cb6db619d0e62f104455aa7d7b9b18a368bd01af5d1b85f9acec438183669ae",
          "blockNumber": "0xff10062",
          "blockTimestamp": "0x6a0232c9",
          "transactionHash": "0x455830e5d5dd0a5bec0b65e4cc9dd26843501cfd35286d1244cb67e06880e048",
          "transactionIndex": "0x1",
          "logIndex": "0x0",
          "removed": false
        },
        {
          "address": "0x4f7cd4da19abb31b0ec98b9066b9e857b1bf9c0e",
          "topics": [
            "0x07ea52d82345d6e838192107d8fd7123d9c2ec8e916cd0aad13fd2b60db24644"
          ],
          "data": "0x000000000000000000000000000000000000000000000000000000000000006000000000000000000000000000000000000000000000000000000000000000a000000000000000000000000000000000000000000000000000000000000000c0000000000000000000000000000000000000000000000000000000000000000100000000000000000000000053f488e93b4f1b60e8e83aa374dbe1780a1ee8a80000000000000000000000000000000000000000000000000000000000000000000000000000000000000000000000000000000000000000000000000000000100000000000000000000000000000000000000000000000000000449789c4cc6",
          "blockHash": "0x7cb6db619d0e62f104455aa7d7b9b18a368bd01af5d1b85f9acec438183669ae",
          "blockNumber": "0xff10062",
          "blockTimestamp": "0x6a0232c9",
          "transactionHash": "0x455830e5d5dd0a5bec0b65e4cc9dd26843501cfd35286d1244cb67e06880e048",
          "transactionIndex": "0x1",
          "logIndex": "0x1",
          "removed": false
        },
        {
          "address": "0x6edce65403992e310a62460808c4b910d972f10f",
          "topics": [
            "0x1ab700d4ced0c005b164c0f789fd09fcbb0156d4c2041b8a3bfbcd961cd1567f"
          ],
          "data": "0x000000000000000000000000000000000000000000000000000000000000006000000000000000000000000000000000000000000000000000000000000002a00000000000000000000000004f7cd4da19abb31b0ec98b9066b9e857b1bf9c0e000000000000000000000000000000000000000000000000000000000000021101000000000000000100009d2700000000000000000000000055782e7019f4619a06a25bf66d2998c8fe2cc43600009ddf0000000000000000000000009845c0c697964464dcaf2602b4e516caea98e51e3de1c5f96edde8cdd336e6bcf6acfa1683e6691d26205ef473a64e04a49e81e50000000000000000000000000000000000000000000000000000000000000003000000000000000000000000000000000000000000000000000000000000004000000000000000000000000000000000000000000000000000000000000000010000000000000000000000000000000000000000000000000000000000000002000000000000000000000000ecf5e30f091d1db7c7b0ef26634a71d46dc9bb2500000000000000000000000000000000000000000000000000000000000002ee0000000000000000000000000000000000000000000000000000000000a5530500000000000000000000000000000000000000000000000000000000000000010000000000000000000000000000000000000000000000000000000000000000000000000000000000000000000000000000000000000000000000000000006400000000000000000000000000000000000000000000000000000000000027100000000000000000000000000000000000000000000000000000000000000000000000000000000000000000000000000000000000000000000000000000cafe00000000000000000000000000000000000000000000000000000000000000000000000000000000000000000000160003010011010000000000000000000000000003d09000000000000000000000",
          "blockHash": "0x7cb6db619d0e62f104455aa7d7b9b18a368bd01af5d1b85f9acec438183669ae",
          "blockNumber": "0xff10062",
          "blockTimestamp": "0x6a0232c9",
          "transactionHash": "0x455830e5d5dd0a5bec0b65e4cc9dd26843501cfd35286d1244cb67e06880e048",
          "transactionIndex": "0x1",
          "logIndex": "0x2",
          "removed": false
        },
        {
          "address": "0x55782e7019f4619a06a25bf66d2998c8fe2cc436",
          "topics": [
            "0xc012d8a96d2fcdcda03a0934f2c1f171224eb4b8c26408a011c75215ce7d1985",
            "0x0000000000000000000000000000000000000000000000000000000000009ddf"
          ],
          "data": "0x0000000000000000000000000000000000000000000000000000000000000001000000000000000000000000000000000000000000000000000000000000000200000000000000000000000000000000000000000000000000000000000000023de1c5f96edde8cdd336e6bcf6acfa1683e6691d26205ef473a64e04a49e81e5",
          "blockHash": "0x7cb6db619d0e62f104455aa7d7b9b18a368bd01af5d1b85f9acec438183669ae",
          "blockNumber": "0xff10062",
          "blockTimestamp": "0x6a0232c9",
          "transactionHash": "0x455830e5d5dd0a5bec0b65e4cc9dd26843501cfd35286d1244cb67e06880e048",
          "transactionIndex": "0x1",
          "logIndex": "0x3",
          "removed": false
        }
      ],
      "logsBloom": "0x00000000000000000000000000000000000000000000000000000080000000000000000000000000200000000000000000000000008000000000001000010000000000000000000000000000000000000000000020000000000000000000000000000000000000008200000000000000000000000000000800000000000000000000000000000020000000080000000000000000000000010800000000000000000000008000000000102000000000000000000000400000000440000000000000000000000000000000000000000000000000000000000000002000000000000000040000000000000000000000002000000000000040000000008000000000",
      "type": "0x2",
      "transactionHash": "0x455830e5d5dd0a5bec0b65e4cc9dd26843501cfd35286d1244cb67e06880e048",
      "transactionIndex": "0x1",
      "blockHash": "0x7cb6db619d0e62f104455aa7d7b9b18a368bd01af5d1b85f9acec438183669ae",
      "blockNumber": "0xff10062",
      "gasUsed": "0x3c573",
      "effectiveGasPrice": "0x1312d00",
      "from": "0xecf5e30f091d1db7c7b0ef26634a71d46dc9bb25",
      "to": "0x55782e7019f4619a06a25bf66d2998c8fe2cc436",
      "contractAddress": null,
      "gasUsedForL1": "0x0",
      "l1BlockNumber": "0xa55306",
      "timeboosted": false
    }
  ],
  "libraries": [],
  "pending": [],
  "returns": {},
  "timestamp": 1778528972103,
  "chain": 421614,
  "commit": "b58afcc"
}