{
  "transactions": [
    {
      "hash": "0x73a20bc72ff5fd1710d56d9d7125bd7c8f59558a22820c5150cfd3cf723789e0",
      "transactionType": "CREATE",
      "contractName": "ERC1967Proxy",
      "contractAddress": "0x516f23b9d2b6918d005d00ccea3074ced1f8d005",
      "function": null,
      "arguments": [
        "0x78b3515f4e9186d9870dcEF02DA58E4C8c5C6e8f",
        "0x636c6acd00000000000000000000000000000000000000000000000000000000000000200000000000000000000000000000000000000000000000000000000000000140000000000000000000000000e8cf8a5711f08d5211d46a2835ecc9c9af1b91cd00000000000000000000000021fbc51ed4a063078b2a8b588508ceaad7899ce200000000000000000000000051c07adf596b1e72697a9b8232d061ed006943dc000000000000000000000000c065af9b57e2666877a9b479ee61b1f249516277000000000000000000000000ecf5e30f091d1db7c7b0ef26634a71d46dc9bb25000000000000000000000000ecf5e30f091d1db7c7b0ef26634a71d46dc9bb250000000000000000000000006e3c2304d1e7c8953b52e8e5f49a6dbd7ef4875b00000000000000000000000037714f599570bb2b8389e98d771f6176b9c96cd3000000000000000000000000ecf5e30f091d1db7c7b0ef26634a71d46dc9bb252e882135c6afc3bda02a9c8a7c6a351198d97599c804a2575a3d616073a8725100000000000000000000000000000000000000000000000000000000000000e0000000000000000000000000000000000000000000000000000000e8d4a5100000000000000000000000000000000000000000000000000000000000000005dc000000000000000000000000ecf5e30f091d1db7c7b0ef26634a71d46dc9bb25000000000000000000000000000000000000000000000000000000012a05f2007a3086d9064541e3d2fe738d098643d1f7743206d548491fa14c16e6448dbfc40000000000000000000000000000000000000000000000000000000000000001000000000000000000000000e8cf8a5711f08d5211d46a2835ecc9c9af1b91cd"
      ],
      "transaction": {
        "from": "0xecf5e30f091d1db7c7b0ef26634a71d46dc9bb25",
        "gas": "0xb6996",
        "value": "0x0",
        "input": "0x608060405261026c803803806100148161016e565b9283398101604082820312610156578151916001600160a01b03831690818403610156576020810151906001600160401b038211610156570182601f82011215610156578051906001600160401b03821161015a5761007c601f8301601f191660200161016e565b938285526020838301011161015657815f9260208093018387015e8401015281511561014757823b15610135577f360894a13ba1a3210667c828492db98dca3e2076cc3735a920a3ca505d382bbc80546001600160a01b031916821790557fbc7cd75a20ee27fd9adebab32041f755214dbc6bffa90cc0225b39da2e5c2d3b5f80a280511561011e5761010e91610193565b505b604051604c90816102208239f35b505034156101105763b398979f60e01b5f5260045ffd5b634c9c8ce360e01b5f5260045260245ffd5b6330a289cf60e21b5f5260045ffd5b5f80fd5b634e487b7160e01b5f52604160045260245ffd5b6040519190601f01601f191682016001600160401b0381118382101761015a57604052565b905f8091602081519101845af4808061020c575b156101c75750506040513d81523d5f602083013e60203d82010160405290565b156101ec57639996b31560e01b5f9081526001600160a01b0391909116600452602490fd5b3d156101fd576040513d5f823e3d90fd5b63d6bda27560e01b5f5260045ffd5b503d1515806101a75750813b15156101a756fe60806040527f360894a13ba1a3210667c828492db98dca3e2076cc3735a920a3ca505d382bbc545f9081906001600160a01b0316368280378136915af43d5f803e156048573d5ff35b3d5ffd00000000000000000000000078b3515f4e9186d9870dcef02da58e4c8c5c6e8f00000000000000000000000000000000000000000000000000000000000000400000000000000000000000000000000000000000000000000000000000000284636c6acd00000000000000000000000000000000000000000000000000000000000000200000000000000000000000000000000000000000000000000000000000000140000000000000000000000000e8cf8a5711f08d5211d46a2835ecc9c9af1b91cd00000000000000000000000021fbc51ed4a063078b2a8b588508ceaad7899ce200000000000000000000000051c07adf596b1e72697a9b8232d061ed006943dc000000000000000000000000c065af9b57e2666877a9b479ee61b1f249516277000000000000000000000000ecf5e30f091d1db7c7b0ef26634a71d46dc9bb25000000000000000000000000ecf5e30f091d1db7c7b0ef26634a71d46dc9bb250000000000000000000000006e3c2304d1e7c8953b52e8e5f49a6dbd7ef4875b00000000000000000000000037714f599570bb2b8389e98d771f6176b9c96cd3000000000000000000000000ecf5e30f091d1db7c7b0ef26634a71d46dc9bb252e882135c6afc3bda02a9c8a7c6a351198d97599c804a2575a3d616073a8725100000000000000000000000000000000000000000000000000000000000000e0000000000000000000000000000000000000000000000000000000e8d4a5100000000000000000000000000000000000000000000000000000000000000005dc000000000000000000000000ecf5e30f091d1db7c7b0ef26634a71d46dc9bb25000000000000000000000000000000000000000000000000000000012a05f2007a3086d9064541e3d2fe738d098643d1f7743206d548491fa14c16e6448dbfc40000000000000000000000000000000000000000000000000000000000000001000000000000000000000000e8cf8a5711f08d5211d46a2835ecc9c9af1b91cd00000000000000000000000000000000000000000000000000000000",
        "nonce": "0x1e",
        "chainId": "0x66eee"
      },
      "additionalContracts": [],
      "isFixedGasLimit": false
    },
    {
      "hash": "0x9ef42279a3f0b3f22999a52bbfbc2266a7936ddb284b7a0a25765bdce6c28bf0",
      "transactionType": "CALL",
      "contractName": null,
      "contractAddress": "0xe8cf8a5711f08d5211d46a2835ecc9c9af1b91cd",
      "function": "approve(address,uint256)",
      "arguments": [
        "0x21FBC51Ed4a063078b2a8B588508CeaAd7899ce2",
        "115792089237316195423570985008687907853269984665640564039457584007913129639935"
      ],
      "transaction": {
        "from": "0xecf5e30f091d1db7c7b0ef26634a71d46dc9bb25",
        "to": "0xe8cf8a5711f08d5211d46a2835ecc9c9af1b91cd",
        "gas": "0xed1f",
        "value": "0x0",
        "input": "0x095ea7b300000000000000000000000021fbc51ed4a063078b2a8b588508ceaad7899ce2ffffffffffffffffffffffffffffffffffffffffffffffffffffffffffffffff",
        "nonce": "0x1f",
        "chainId": "0x66eee"
      },
      "additionalContracts": [],
      "isFixedGasLimit": false
    },
    {
      "hash": "0x9da4654f02230dd540f7ac98b138b41d9566159a03af626dd6d352976939a4bb",
      "transactionType": "CALL",
      "contractName": null,
      "contractAddress": "0x21fbc51ed4a063078b2a8b588508ceaad7899ce2",
      "function": "registerStrategy(address,bytes32,uint256)",
      "arguments": [
        "0x516f23B9d2b6918D005d00Ccea3074cED1f8D005",
        "0x2e882135c6afc3bda02a9c8a7c6a351198d97599c804a2575a3d616073a87251",
        "5000000000"
      ],
      "transaction": {
        "from": "0xecf5e30f091d1db7c7b0ef26634a71d46dc9bb25",
        "to": "0x21fbc51ed4a063078b2a8b588508ceaad7899ce2",
        "gas": "0x59690",
        "value": "0x0",
        "input": "0x88375698000000000000000000000000516f23b9d2b6918d005d00ccea3074ced1f8d0052e882135c6afc3bda02a9c8a7c6a351198d97599c804a2575a3d616073a87251000000000000000000000000000000000000000000000000000000012a05f200",
        "nonce": "0x20",
        "chainId": "0x66eee"
      },
      "additionalContracts": [],
      "isFixedGasLimit": false
    }
  ],
  "receipts": [
    {
      "status": "0x1",
      "cumulativeGasUsed": "0x8b128",
      "logs": [
        {
          "address": "0x516f23b9d2b6918d005d00ccea3074ced1f8d005",
          "topics": [
            "0xbc7cd75a20ee27fd9adebab32041f755214dbc6bffa90cc0225b39da2e5c2d3b",
            "0x00000000000000000000000078b3515f4e9186d9870dcef02da58e4c8c5c6e8f"
          ],
          "data": "0x",
          "blockHash": "0x6a18fc2d1dd58c828e674c183e9460df23743f17cccccf20ee6a7fa47451a72b",
          "blockNumber": "0xffa2e0d",
          "blockTimestamp": "0x6a0499bf",
          "transactionHash": "0x73a20bc72ff5fd1710d56d9d7125bd7c8f59558a22820c5150cfd3cf723789e0",
          "transactionIndex": "0x1",
          "logIndex": "0x0",
          "removed": false
        },
        {
          "address": "0x516f23b9d2b6918d005d00ccea3074ced1f8d005",
          "topics": [
            "0x8be0079c531659141344cd1fd0a4f28419497f9722a3daafe3b4186f6b6457e0",
            "0x0000000000000000000000000000000000000000000000000000000000000000",
            "0x000000000000000000000000ecf5e30f091d1db7c7b0ef26634a71d46dc9bb25"
          ],
          "data": "0x",
          "blockHash": "0x6a18fc2d1dd58c828e674c183e9460df23743f17cccccf20ee6a7fa47451a72b",
          "blockNumber": "0xffa2e0d",
          "blockTimestamp": "0x6a0499bf",
          "transactionHash": "0x73a20bc72ff5fd1710d56d9d7125bd7c8f59558a22820c5150cfd3cf723789e0",
          "transactionIndex": "0x1",
          "logIndex": "0x1",
          "removed": false
        },
        {
          "address": "0x516f23b9d2b6918d005d00ccea3074ced1f8d005",
          "topics": [
            "0xc7f505b2f371ae2175ee4913f4499e1f2633a7b5936321eed1cdaeb6115181d2"
          ],
          "data": "0x0000000000000000000000000000000000000000000000000000000000000001",
          "blockHash": "0x6a18fc2d1dd58c828e674c183e9460df23743f17cccccf20ee6a7fa47451a72b",
          "blockNumber": "0xffa2e0d",
          "blockTimestamp": "0x6a0499bf",
          "transactionHash": "0x73a20bc72ff5fd1710d56d9d7125bd7c8f59558a22820c5150cfd3cf723789e0",
          "transactionIndex": "0x1",
          "logIndex": "0x2",
          "removed": false
        }
      ],
      "logsBloom": "0x00000000000000000000000000000000400000000000000000800000000000020000000000000000000000000000000000000000000000000008000000000000400000000000000000000000000002000001000000000000000000000000000000000000020000000000000000000800000000000000000000000000000000400000000000000000000800000000000000800000000080000000000000000000000000000000000000000008000000000000000000000000000000000000000400800020000000000200000000000000000000000004000000000000000020000000000000000000000000000000000000000000000000000080000000000000",
      "type": "0x2",
      "transactionHash": "0x73a20bc72ff5fd1710d56d9d7125bd7c8f59558a22820c5150cfd3cf723789e0",
      "transactionIndex": "0x1",
      "blockHash": "0x6a18fc2d1dd58c828e674c183e9460df23743f17cccccf20ee6a7fa47451a72b",
      "blockNumber": "0xffa2e0d",
      "gasUsed": "0x8b128",
      "effectiveGasPrice": "0x13182f0",
      "from": "0xecf5e30f091d1db7c7b0ef26634a71d46dc9bb25",
      "to": null,
      "contractAddress": "0x516f23b9d2b6918d005d00ccea3074ced1f8d005",
      "gasUsedForL1": "0x0",
      "l1BlockNumber": "0xa57e7d",
      "timeboosted": false
    },
    {
      "status": "0x1",
      "cumulativeGasUsed": "0x16780",
      "logs": [
        {
          "address": "0xe8cf8a5711f08d5211d46a2835ecc9c9af1b91cd",
          "topics": [
            "0x8c5be1e5ebec7d5bd14f71427d1e84f3dd0314c0f7b2291e5b200ac8c7c3b925",
            "0x000000000000000000000000ecf5e30f091d1db7c7b0ef26634a71d46dc9bb25",
            "0x00000000000000000000000021fbc51ed4a063078b2a8b588508ceaad7899ce2"
          ],
          "data": "0xffffffffffffffffffffffffffffffffffffffffffffffffffffffffffffffff",
          "blockHash": "0x9d0adf30e1f51620ea22c835b4a7e0c2adeb4b82d272b428cdf5958a855bce43",
          "blockNumber": "0xffa2e17",
          "blockTimestamp": "0x6a0499c2",
          "transactionHash": "0x9ef42279a3f0b3f22999a52bbfbc2266a7936ddb284b7a0a25765bdce6c28bf0",
          "transactionIndex": "0x3",
          "logIndex": "0x0",
          "removed": false
        }
      ],
      "logsBloom": "0x00100000000000000000000000000000000000000000000000000000000000000000000000000000000000000000000000000000000000000000000000200000400000000000000000100000000000000000000000000000000000000000000000000000000000000000000000000000000000000000000000000000000000000000000000020000000000000000000000800000000000000000000000000000020000000000000000000000000000000000000000000000000000000000000002000000000000000200000000000000000000000000000000000000000800000010000000000000000000100000000000000000000000000000000000000000",
      "type": "0x2",
      "transactionHash": "0x9ef42279a3f0b3f22999a52bbfbc2266a7936ddb284b7a0a25765bdce6c28bf0",
      "transactionIndex": "0x3",
      "blockHash": "0x9d0adf30e1f51620ea22c835b4a7e0c2adeb4b82d272b428cdf5958a855bce43",
      "blockNumber": "0xffa2e17",
      "gasUsed": "0xb4e8",
      "effectiveGasPrice": "0x1373fb0",
      "from": "0xecf5e30f091d1db7c7b0ef26634a71d46dc9bb25",
      "to": "0xe8cf8a5711f08d5211d46a2835ecc9c9af1b91cd",
      "contractAddress": null,
      "gasUsedForL1": "0x0",
      "l1BlockNumber": "0xa57e7d",
      "timeboosted": false
    },
    {
      "status": "0x1",
      "cumulativeGasUsed": "0x463fc",
      "logs": [
        {
          "address": "0xe8cf8a5711f08d5211d46a2835ecc9c9af1b91cd",
          "topics": [
            "0xddf252ad1be2c89b69c2b068fc378daa952ba7f163c4a11628f55a4df523b3ef",
            "0x000000000000000000000000ecf5e30f091d1db7c7b0ef26634a71d46dc9bb25",
            "0x00000000000000000000000021fbc51ed4a063078b2a8b588508ceaad7899ce2"
          ],
          "data": "0x000000000000000000000000000000000000000000000000000000012a05f200",
          "blockHash": "0x006c9ba3c1bcb3ae7340e3b783016ff062ac5b3eedea9dd2b66ccff6aadc1aa0",
          "blockNumber": "0xffa2e1f",
          "blockTimestamp": "0x6a0499c4",
          "transactionHash": "0x9da4654f02230dd540f7ac98b138b41d9566159a03af626dd6d352976939a4bb",
          "transactionIndex": "0x2",
          "logIndex": "0x0",
          "removed": false
        },
        {
          "address": "0x21fbc51ed4a063078b2a8b588508ceaad7899ce2",
          "topics": [
            "0xfcbcc085af918c303c797ac8b02a2f04d41a4756ade38c4232d74e33a1e1a9a1",
            "0x000000000000000000000000516f23b9d2b6918d005d00ccea3074ced1f8d005",
            "0x000000000000000000000000516f23b9d2b6918d005d00ccea3074ced1f8d005",
            "0x000000000000000000000000ecf5e30f091d1db7c7b0ef26634a71d46dc9bb25"
          ],
          "data": "0x2e882135c6afc3bda02a9c8a7c6a351198d97599c804a2575a3d616073a87251000000000000000000000000000000000000000000000000000000012a05f200",
          "blockHash": "0x006c9ba3c1bcb3ae7340e3b783016ff062ac5b3eedea9dd2b66ccff6aadc1aa0",
          "blockNumber": "0xffa2e1f",
          "blockTimestamp": "0x6a0499c4",
          "transactionHash": "0x9da4654f02230dd540f7ac98b138b41d9566159a03af626dd6d352976939a4bb",
          "transactionIndex": "0x2",
          "logIndex": "0x1",
          "removed": false
        }
      ],
      "logsBloom": "0x00140000000000000000000000000020000000000000000000000000000000000200000000000000000000000000000000000000000000000000000000000000400000000000000000100008000000000000000000000000000000000000000000000000000000000000000000000200000000000000000000000010000000000000000000020000000400000000000000800000000000000000000002000000000000000000000000000000000000000000000000000000080000000000000002000002000000000200000000000000000000000000000000000000000800000000000000000000000000100000000100000000000000000001000000000000",
      "type": "0x2",
      "transactionHash": "0x9da4654f02230dd540f7ac98b138b41d9566159a03af626dd6d352976939a4bb",
      "transactionIndex": "0x2",
      "blockHash": "0x006c9ba3c1bcb3ae7340e3b783016ff062ac5b3eedea9dd2b66ccff6aadc1aa0",
      "blockNumber": "0xffa2e1f",
      "gasUsed": "0x40bb4",
      "effectiveGasPrice": "0x131d110",
      "from": "0xecf5e30f091d1db7c7b0ef26634a71d46dc9bb25",
      "to": "0x21fbc51ed4a063078b2a8b588508ceaad7899ce2",
      "contractAddress": null,
      "gasUsedForL1": "0x0",
      "l1BlockNumber": "0xa57e7d",
      "timeboosted": false
    }
  ],
  "libraries": [],
  "pending": [],
  "returns": {},
  "timestamp": 1778686406624,
  "chain": 421614,
  "commit": "2242494"
}