{
  "transactions": [
    {
      "hash": "0xb36a7f7ead4b41f2d92eacbd4935e45f5f8886bf00e48c2d3e001f7825f70de2",
      "transactionType": "CALL",
      "contractName": null,
      "contractAddress": "0x55782e7019f4619a06a25bf66d2998c8fe2cc436",
      "function": "setStrategyVault(address,bool)",
      "arguments": [
        "0xECf5e30F091D1db7c7b0ef26634a71d46DC9Bb25",
        "true"
      ],
      "transaction": {
        "from": "0xecf5e30f091d1db7c7b0ef26634a71d46dc9bb25",
        "to": "0x55782e7019f4619a06a25bf66d2998c8fe2cc436",
        "gas": "0x90f9",
        "value": "0x0",
        "input": "0xf1e4503f000000000000000000000000ecf5e30f091d1db7c7b0ef26634a71d46dc9bb250000000000000000000000000000000000000000000000000000000000000001",
        "nonce": "0x16",
        "chainId": "0x14a34"
      },
      "additionalContracts": [],
      "isFixedGasLimit": false
    },
    {
      "hash": "0x7e6354481301c86d732f65876ad55828a46e82508b46b07928245a29e08e98a0",
      "transactionType": "CALL",
      "contractName": null,
      "contractAddress": "0x55782e7019f4619a06a25bf66d2998c8fe2cc436",
      "function": "sendReputationUpdate(uint32,address,uint8,(int256,uint256,uint256,uint256,uint256,uint256,uint8,bytes32),bytes)",
      "arguments": [
        "40415",
        "0xECf5e30F091D1db7c7b0ef26634a71d46DC9Bb25",
        "0",
        "(750, 41375839, 1, 0, 100, 10000, 0, 0x000000000000000000000000000000000000000000000000000000000000dead)",
        "0x00030100110100000000000000000000000000030d40"
      ],
      "transaction": {
        "from": "0xecf5e30f091d1db7c7b0ef26634a71d46dc9bb25",
        "to": "0x55782e7019f4619a06a25bf66d2998c8fe2cc436",
        "gas": "0x4d842",
        "value": "0x6c083a0e1bee",
        "input": "0xb5e73f050000000000000000000000000000000000000000000000000000000000009ddf000000000000000000000000ecf5e30f091d1db7c7b0ef26634a71d46dc9bb25000000000000000000000000000000000000000000000000000000000000000000000000000000000000000000000000000000000000000000000000000002ee000000000000000000000000000000000000000000000000000000000277585f00000000000000000000000000000000000000000000000000000000000000010000000000000000000000000000000000000000000000000000000000000000000000000000000000000000000000000000000000000000000000000000006400000000000000000000000000000000000000000000000000000000000027100000000000000000000000000000000000000000000000000000000000000000000000000000000000000000000000000000000000000000000000000000dead0000000000000000000000000000000000000000000000000000000000000180000000000000000000000000000000000000000000000000000000000000001600030100110100000000000000000000000000030d4000000000000000000000",
        "nonce": "0x17",
        "chainId": "0x14a34"
      },
      "additionalContracts": [],
      "isFixedGasLimit": false
    }
  ],
  "receipts": [
    {
      "status": "0x1",
      "cumulativeGasUsed": "0x19024",
      "logs": [],
      "logsBloom": "0x00000000000000000000000000000000000000000000000000000000000000000000000000000000000000000000000000000000000000000000000000000000000000000000000000000000000000000000000000000000000000000000000000000000000000000000000000000000000000000000000000000000000000000000000000000000000000000000000000000000000000000000000000000000000000000000000000000000000000000000000000000000000000000000000000000000000000000000000000000000000000000000000000000000000000000000000000000000000000000000000000000000000000000000000000000000",
      "type": "0x2",
      "transactionHash": "0xb36a7f7ead4b41f2d92eacbd4935e45f5f8886bf00e48c2d3e001f7825f70de2",
      "transactionIndex": "0x2",
      "blockHash": "0x0000000000000000000000000000000000000000000000000000000000000000",
      "blockNumber": "0x2775871",
      "gasUsed": "0x68f6",
      "effectiveGasPrice": "0x5b8d80",
      "blobGasUsed": "0xae38",
      "from": "0xecf5e30f091d1db7c7b0ef26634a71d46dc9bb25",
      "to": "0x55782e7019f4619a06a25bf66d2998c8fe2cc436",
      "contractAddress": null,
      "daFootprintGasScalar": "0x1be",
      "l1BaseFeeScalar": "0x44d",
      "l1BlobBaseFee": "0x1",
      "l1BlobBaseFeeScalar": "0xa118b",
      "l1Fee": "0x6e",
      "l1GasPrice": "0x19",
      "l1GasUsed": "0x640"
    },
    {
      "status": "0x1",
      "cumulativeGasUsed": "0x22ad22",
      "logs": [
        {
          "address": "0xc1868e054425d378095a003ecba3823a5d0135c9",
          "topics": [
            "0x61ed099e74a97a1d7f8bb0952a88ca8b7b8ebd00c126ea04671f92a81213318a"
          ],
          "data": "0x0000000000000000000000008a3d588d9f6ac041476b094f97ff94ec30169d3d000000000000000000000000000000000000000000000000000055bd625e8541",
          "blockHash": "0x0000000000000000000000000000000000000000000000000000000000000000",
          "blockNumber": "0x2775872",
          "blockTimestamp": "0x6a020fc4",
          "transactionHash": "0x7e6354481301c86d732f65876ad55828a46e82508b46b07928245a29e08e98a0",
          "transactionIndex": "0xd",
          "logIndex": "0x63",
          "removed": false
        },
        {
          "address": "0xc1868e054425d378095a003ecba3823a5d0135c9",
          "topics": [
            "0x07ea52d82345d6e838192107d8fd7123d9c2ec8e916cd0aad13fd2b60db24644"
          ],
          "data": "0x000000000000000000000000000000000000000000000000000000000000006000000000000000000000000000000000000000000000000000000000000000a000000000000000000000000000000000000000000000000000000000000000c00000000000000000000000000000000000000000000000000000000000000001000000000000000000000000e1a12515f9ab2764b887bf60b923ca494ebbb2d6000000000000000000000000000000000000000000000000000000000000000000000000000000000000000000000000000000000000000000000000000000010000000000000000000000000000000000000000000000000000044978ad3cb0",
          "blockHash": "0x0000000000000000000000000000000000000000000000000000000000000000",
          "blockNumber": "0x2775872",
          "blockTimestamp": "0x6a020fc4",
          "transactionHash": "0x7e6354481301c86d732f65876ad55828a46e82508b46b07928245a29e08e98a0",
          "transactionIndex": "0xd",
          "logIndex": "0x64",
          "removed": false
        },
        {
          "address": "0x6edce65403992e310a62460808c4b910d972f10f",
          "topics": [
            "0x1ab700d4ced0c005b164c0f789fd09fcbb0156d4c2041b8a3bfbcd961cd1567f"
          ],
          "data": "0x00000000000000000000000000000000000000000000000000000000000000600000000000000000000000000000000000000000000000000000000000000280000000000000000000000000c1868e054425d378095a003ecba3823a5d0135c900000000000000000000000000000000000000000000000000000000000001f101000000000000000300009d3500000000000000000000000055782e7019f4619a06a25bf66d2998c8fe2cc43600009ddf0000000000000000000000009d93f3f2254d7d6f6f4208938b7ce7f9e33c43b3383bc280af5231902f77069793d516a6c903c28b9a67f4abb1309e823c61756200000000000000000000000000000000000000000000000000000000000000010000000000000000000000000000000000000000000000000000000000000003000000000000000000000000ecf5e30f091d1db7c7b0ef26634a71d46dc9bb25000000000000000000000000000000000000000000000000000000000000000000000000000000000000000000000000000000000000000000000000000002ee000000000000000000000000000000000000000000000000000000000277585f00000000000000000000000000000000000000000000000000000000000000010000000000000000000000000000000000000000000000000000000000000000000000000000000000000000000000000000000000000000000000000000006400000000000000000000000000000000000000000000000000000000000027100000000000000000000000000000000000000000000000000000000000000000000000000000000000000000000000000000000000000000000000000000dead000000000000000000000000000000000000000000000000000000000000000000000000000000000000000000001600030100110100000000000000000000000000030d4000000000000000000000",
          "blockHash": "0x0000000000000000000000000000000000000000000000000000000000000000",
          "blockNumber": "0x2775872",
          "blockTimestamp": "0x6a020fc4",
          "transactionHash": "0x7e6354481301c86d732f65876ad55828a46e82508b46b07928245a29e08e98a0",
          "transactionIndex": "0xd",
          "logIndex": "0x65",
          "removed": false
        },
        {
          "address": "0x55782e7019f4619a06a25bf66d2998c8fe2cc436",
          "topics": [
            "0x28911d7a9d23ead5420f338b51bef381abda00a10f602d2cd39d78a6f4cbca63",
            "0x0000000000000000000000000000000000000000000000000000000000009ddf",
            "0x000000000000000000000000ecf5e30f091d1db7c7b0ef26634a71d46dc9bb25"
          ],
          "data": "0x0000000000000000000000000000000000000000000000000000000000000000383bc280af5231902f77069793d516a6c903c28b9a67f4abb1309e823c617562",
          "blockHash": "0x0000000000000000000000000000000000000000000000000000000000000000",
          "blockNumber": "0x2775872",
          "blockTimestamp": "0x6a020fc4",
          "transactionHash": "0x7e6354481301c86d732f65876ad55828a46e82508b46b07928245a29e08e98a0",
          "transactionIndex": "0xd",
          "logIndex": "0x66",
          "removed": false
        }
      ],
      "logsBloom": "0x000000000000000000000000000000000000000000000000000000000000000000000000000003002000000000000000000000000000000000000010000100004000000000000000000000000000000000000000000000000000000a0000000000000000000000008200000000000000000000000000000800000000000000000000000000000020002000080000000000800000000000000800000000000000000000008000000000100000000000000000000000400000000440000000000080000000000000000200000000000000000000000000000000000000000000000000040000000000000000000000002000000000000040000000008000000000",
      "type": "0x2",
      "transactionHash": "0x7e6354481301c86d732f65876ad55828a46e82508b46b07928245a29e08e98a0",
      "transactionIndex": "0xd",
      "blockHash": "0x0000000000000000000000000000000000000000000000000000000000000000",
      "blockNumber": "0x2775872",
      "gasUsed": "0x381ee",
      "effectiveGasPrice": "0x5b8d80",
      "blobGasUsed": "0x10a8e",
      "from": "0xecf5e30f091d1db7c7b0ef26634a71d46dc9bb25",
      "to": "0x55782e7019f4619a06a25bf66d2998c8fe2cc436",
      "contractAddress": null,
      "daFootprintGasScalar": "0x1be",
      "l1BaseFeeScalar": "0x44d",
      "l1BlobBaseFee": "0x1",
      "l1BlobBaseFeeScalar": "0xa118b",
      "l1Fee": "0xa8",
      "l1GasPrice": "0x19",
      "l1GasUsed": "0x992"
    }
  ],
  "libraries": [],
  "pending": [],
  "returns": {},
  "timestamp": 1778520004021,
  "chain": 84532,
  "commit": "e202616"
}