{
  "transactions": [
    {
      "hash": "0x1c983e740f8965b90179fa1c6e21751eb1f00211660a9845374315cf52df6725",
      "transactionType": "CREATE",
      "contractName": "StrategyVault",
      "contractAddress": "0x4510ea78880b7095f1f68f4e8029b776f3c8bea1",
      "function": null,
      "arguments": [
        "0x566e1F1B5bD7109F2C86805e2c092502D1B2f9f4",
        "0x345cd375EC42476EB95c5903fb3aBB27F9400f9D"
      ],
      "transaction": {
        "from": "0xecf5e30f091d1db7c7b0ef26634a71d46dc9bb25",
        "gas": "0x36ed11",
        "value": "0x0",
        "input": "0x60e03461016a57601f61323f38819003918201601f19168301916001600160401b0383118484101761016e57808492604094855283398101031261016a57610052602061004b83610182565b9201610182565b30608052906001600160a01b038116158015610159575b61014a5760a05260c0525f51602061321f5f395f51905f525460ff8160401c1661013b576002600160401b03196001600160401b038216016100e5575b60405161308890816101978239608051818181611a250152611ab7015260a051818181611e800152612470015260c0518181816102fa0152610ef60152f35b6001600160401b0319166001600160401b039081175f51602061321f5f395f51905f52556040519081527fc7f505b2f371ae2175ee4913f4499e1f2633a7b5936321eed1cdaeb6115181d290602090a15f6100a6565b63f92ee8a960e01b5f5260045ffd5b63d92e233d60e01b5f5260045ffd5b506001600160a01b03821615610069565b5f80fd5b634e487b7160e01b5f52604160045260245ffd5b51906001600160a01b038216820361016a5756fe6080806040526004361015610012575f80fd5b5f3560e01c908163118fd9761461249f575080631663cd9e1461245b578063170f06de14611d4d5780632b7ac3f314611d255780633042192714611d085780633f4ba83a14611c8a57806343fc010614611c5b57806349d4640d14611c335780634f1ef28614611a7957806352d1902d14611a1357806359ea2d8e146119f05780635c975abb146119c2578063636c6acd146110c5578063715018a61461105e57806373b8f9ee1461102257806373c4c78514610f4d5780637b10399914610f2557806380958cb514610ee15780638456cb5914610e7057806384b0196e14610d265780638da5cb5b14610cf257806399e0520214610cca5780639d85b41614610c51578063a4f82f2714610c19578063ad3cb1cc14610bce578063b15f554b146109c8578063b9b8af0b146109a3578063cdf456e11461097b578063d4978f1d14610953578063d700c0441461081e578063e658ea0314610771578063f2fde38b14610746578063f5baf0d7146105ce5763feecdea214610192575f80fd5b34610568576101a03661251f565b91939492905060018060a01b0360035460101c1633036105bf57600b5460ff8160a01c166105b0576101d061283e565b6101d8612865565b600d85106105a1578460011015610459575f5480602084013503610592578560021015610459573060408401356001600160a01b03160361058357856003101561045957610224612c78565b60608401350361057457856004101561045957600754604051635543cb2760e11b81526004810192909252602090829060249082906001600160a01b03165afa9081156104ba575f9161053e575b5060808301350361052f578460091015610459576001600160a01b03908116610120830135909116036105205783600c101561045957610180810135908143106105115784600b1015610459576101608101359182431161050257856008101561045957604051636d9833e360e01b81526101008301356004820181905294906020816024817f00000000000000000000000000000000000000000000000000000000000000006001600160a01b03165afa9081156104ba575f916104e3575b50156104d457861561045957823597885f52600f60205260ff60405f2054166104c557602084918a5f52600f825260405f20600160ff1982541617905560018060a01b03600854165f54998a61039f8d60405197889687958695633f9ba6d560e11b8752600487016128b2565b03915afa9081156104ba575f9161048b575b501561047c5761046d57600b546001600160a01b03169560058111156104595780600610156104595760071015610459576001600160401b039360e0859360405197885260a0810135602089015260c081013560408901520135606087015260808601521660a08401521660c08201527f65ca243fba541f40273163048b67bca987896537a1fb14da12e39657da30b15660e03092a45f5f5160206130485f395f51905f525d005b634e487b7160e01b5f52603260045260245ffd5b63f6e9d10960e01b5f5260045ffd5b6309bde33960e01b5f5260045ffd5b6104ad915060203d6020116104b3575b6104a581836125c2565b81019061289a565b5f6103b1565b503d61049b565b6040513d5f823e3d90fd5b6307eb960560e51b5f5260045ffd5b632cd0813760e21b5f5260045ffd5b6104fc915060203d6020116104b3576104a581836125c2565b5f610332565b633ddfdb7f60e11b5f5260045ffd5b633fe7e39760e01b5f5260045ffd5b6346d5c81760e01b5f5260045ffd5b631c5ee0bb60e31b5f5260045ffd5b90506020813d60201161056c575b81610559602093836125c2565b8101031261056857515f610272565b5f80fd5b3d915061054c565b63b1561fdb60e01b5f5260045ffd5b63c1faacc560e01b5f5260045ffd5b639ba2469b60e01b5f5260045ffd5b630720be9760e11b5f5260045ffd5b631184d5b960e11b5f5260045ffd5b631f0853c160e21b5f5260045ffd5b34610568575f366003190112610568575f60c06040516105ed816125a7565b828152606060208201528260408201528260608201528260808201528260a0820152015260405161061d816125a7565b5f54815260405180816020600154928381520160015f5260205f20925f5b818110610724575050610650925003826125c2565b60208201908152600254916040810192835260035492606082019361ffff81168552608083019060018060a01b039060101c1681526004549060a084019182526005549260c085019384526040519560208752610100870195516020880152519460e060408801528551809152602061012088019601905f5b81811061070557505050859661ffff915160608801525116608086015260018060a01b0390511660a08501525160c08401525160e08301520390f35b82516001600160a01b03168852602097880197909201916001016106c9565b84546001600160a01b031683526001948501948694506020909301920161063b565b346105685760203660031901126105685761076f610762612591565b61076a612943565b6127cd565b005b34610568576020366003190112610568576004356001600160401b038111610568576107a19036906004016124c2565b6007549091906001600160a01b0316330361080f5761080a7f7e947095ed288d8885423bdaef4015b7420ffa9b84d62ef67c402e8bc36a8ea991600160a01b60ff60a01b19600b541617600b556040519182915f835260406020840152309560408401916127ad565b0390a2005b633217675b60e21b5f5260045ffd5b3461056857602036600319011261056857600b54600435906001600160a01b03811633036109445760a01c60ff166105b05761085861283e565b610860612865565b80156109355760018060a01b0360065416906040516323b872dd60e01b5f5233600452306024528160445260205f60648180875af19060015f5114821615610914575b6040525f60605215610901576108d490335f52600e60205260405f206108ca8282546127a0565b9055600c546127a0565b80600c55600254106108f2575f5f5160206130485f395f51905f525d005b6304ffa0ff60e51b5f5260045ffd5b50635274afe760e01b5f5260045260245ffd5b90600181151661092c57833b15153d151616906108a3565b503d5f823e3d90fd5b63a4a7b87f60e01b5f5260045ffd5b63e2c44ab760e01b5f5260045ffd5b34610568575f366003190112610568576009546040516001600160a01b039091168152602090f35b34610568575f366003190112610568576006546040516001600160a01b039091168152602090f35b34610568575f36600319011261056857602060ff600b5460a01c166040519015158152f35b34610568576020366003190112610568576004356001600160401b038111610568576109f89036906004016124c2565b6003543360109190911c6001600160a01b0316141580610bb9575b610baa578101606082820312610568578135916020810135916001600160401b0383168093036105685760408201356001600160401b03811161056857610a5a92016125fe565b600d54906001600160401b038216831115610b9b576102588301808411610b78574211610b8c5760025480600a0290600a820403610b78578411610b6957610af5610afe91610af060405160208101907f9b934f447d6df1cf05665bf289b0a4c61af0efc33c9f66abef264a095e0b653e825288604082015287606082015260608152610ae86080826125c2565b519020612bf6565b612d3c565b90929192612d76565b600a546001600160a01b03908116911603610b5a57819083600c556001600160401b03191617600d5560405191825260208201527fdfdec6e6a8af39be1c1348fe48ad04832dd081c1c72176ced4ed1a782e9ff0fc60403092a2005b63100d211760e11b5f5260045ffd5b638b9f528760e01b5f5260045ffd5b634e487b7160e01b5f52601160045260245ffd5b634c08a0a160e11b5f5260045ffd5b630c5d582f60e01b5f5260045ffd5b63233919ad60e11b5f5260045ffd5b50600a546001600160a01b0316331415610a13565b34610568575f36600319011261056857610c15604051610bef6040826125c2565b60058152640352e302e360dc1b6020820152604051918291602083526020830190612644565b0390f35b34610568576020366003190112610568576001600160a01b03610c3a612591565b165f52600e602052602060405f2054604051908152f35b34610568576040366003190112610568576024356001600160401b03811680910361056857610cc2602091604051838101917f9b934f447d6df1cf05665bf289b0a4c61af0efc33c9f66abef264a095e0b653e83526004356040830152606082015260608152610ae86080826125c2565b604051908152f35b34610568575f36600319011261056857600b546040516001600160a01b039091168152602090f35b34610568575f366003190112610568575f516020612fc85f395f51905f52546040516001600160a01b039091168152602090f35b34610568575f366003190112610568577fa16a46d94261c7517cc8ff89f61c0ce93598e3c849801011dee649a6a557d100541580610e47575b15610e0a57610dae610d6f612a7a565b610d77612b49565b6020610dbc60405192610d8a83856125c2565b5f84525f368137604051958695600f60f81b875260e08588015260e0870190612644565b908582036040870152612644565b4660608501523060808501525f60a085015283810360c08501528180845192838152019301915f5b828110610df357505050500390f35b835185528695509381019392810192600101610de4565b60405162461bcd60e51b81526020600482015260156024820152741152540dcc4c8e88155b9a5b9a5d1a585b1a5e9959605a1b6044820152606490fd5b507fa16a46d94261c7517cc8ff89f61c0ce93598e3c849801011dee649a6a557d1015415610d5f565b34610568575f36600319011261056857610e88612943565b610e9061283e565b600160ff195f5160206130285f395f51905f525416175f5160206130285f395f51905f52557f62e78cea01bee320cd4e420270b5ea74000d11b0c9f74754ebdbfc544b05a2586020604051338152a1005b34610568575f366003190112610568576040517f00000000000000000000000000000000000000000000000000000000000000006001600160a01b03168152602090f35b34610568575f366003190112610568576007546040516001600160a01b039091168152602090f35b3461056857604036600319011261056857610f66612591565b600b54602435906001600160a01b0316330361094457610f84612865565b6001600160a01b0382165f818152600e6020526040902054909290821161101357610fae90612976565b811161100457610ff2915f52600e60205260405f20610fce8282546126dc565b9055610fdc81600c546126dc565b600c5560065433906001600160a01b03166129ca565b5f5f5160206130485f395f51905f525d005b6366427f6960e01b5f5260045ffd5b6349498d8760e11b5f5260045ffd5b346105685760203660031901126105685761103b612591565b600b546001600160a01b0316330361094457610ff290611059612865565b6126e9565b34610568575f36600319011261056857611076612943565b5f516020612fc85f395f51905f5280546001600160a01b031981169091555f906001600160a01b03167f8be0079c531659141344cd1fd0a4f28419497f9722a3daafe3b4186f6b6457e08280a3005b34610568576020366003190112610568576004356001600160401b03811161056857806004016101406003198336030112610568575f5160206130685f395f51905f5254906001600160401b0360ff8360401c16159216801590816119ba575b60011490816119b0575b1590816119a7575b50611998578160016001600160401b03195f5160206130685f395f51905f525416175f5160206130685f395f51905f5255611968575b6001600160a01b0361118a60806111848480612668565b0161267d565b1615801561194c575b8015611930575b8015611914575b80156118f8575b80156118dc575b80156118c0575b80156118a4575b8015611887575b801561186a575b61185b576111ef6111df610124850161267d565b6111e7612d11565b61076a612d11565b60409283516111fe85826125c2565b601381527212195b1a5bdcd4dd1c985d1959de55985d5b1d606a1b602082015284519061122b86836125c2565b60018252603160f81b6020830152611241612d11565b611249612d11565b8051906001600160401b0382116116765781906112735f516020612fa85f395f51905f5254612a42565b601f8111611801575b50602090601f8311600114611783575f92611778575b50508160011b915f199060031b1c1916175f516020612fa85f395f51905f52555b8051906001600160401b0382116116765781906112dd5f516020612fe85f395f51905f5254612a42565b601f8111611713575b50602090601f8311600114611695575f9261168a575b50508160011b915f199060031b1c1916175f516020612fe85f395f51905f52555b5f7fa16a46d94261c7517cc8ff89f61c0ce93598e3c849801011dee649a6a557d100555f7fa16a46d94261c7517cc8ff89f61c0ce93598e3c849801011dee649a6a557d1015561136b612d11565b6113758280612668565b80355f556113866020820182612691565b906001600160401b03821161167657600160401b8211611676576001548260015580831061163c575b5060015f5260205f205f5b83811061162157505050508481013560025560608101359061ffff82168092036105685760035460c09262010000600160b01b036113fa6080850161267d565b60101b169169ffffffffffffffffffff60b01b16171760035560a0810135600455013560055560018060a01b036114336024830161267d565b166001600160601b0360a01b600654161760065560018060a01b0361145a6044830161267d565b166001600160601b0360a01b600754161760075560018060a01b036114816064830161267d565b166001600160601b0360a01b600854161760085560018060a01b036114a86084830161267d565b166001600160601b0360a01b600954161760095560018060a01b036114cf60a4830161267d565b166001600160601b0360a01b600a541617600a5560018060a01b036114f660c4830161267d565b166001600160601b0360a01b600b541617600b5560018060a01b0361151d60e4830161267d565b166001600160601b0360a01b601054161760105561154561010460018060a01b03920161267d565b166001600160601b0360a01b60115416176011555f5b6115726115688380612668565b6020810190612691565b90508110156115c8576115886115688380612668565b909190811015610459576001916001600160a01b03906115ad90600584901b0161267d565b165f526012602052845f208260ff198254161790550161155b565b50506115d057005b60207fc7f505b2f371ae2175ee4913f4499e1f2633a7b5936321eed1cdaeb6115181d29160ff60401b195f5160206130685f395f51905f5254165f5160206130685f395f51905f52555160018152a1005b600190602061162f8561267d565b94019381840155016113ba565b60015f52611670907fb10e2d527612073b26eecdfd717e6a320cf44b4afac2b0732d9fcbe2b7fa0cf69081019084016126c6565b876113af565b634e487b7160e01b5f52604160045260245ffd5b0151905086806112fc565b5f516020612fe85f395f51905f525f9081528281209350601f198516905b8181106116fb57509084600195949392106116e3575b505050811b015f516020612fe85f395f51905f525561131d565b01515f1960f88460031b161c191690558680806116c9565b929360206001819287860151815501950193016116b3565b5f516020612fe85f395f51905f525f52611768907f5f9ce34815f8e11431c7bb75a8e6886a91478f7ffc1dbb0a98dc240fddd76b75601f850160051c8101916020861061176e575b601f0160051c01906126c6565b876112e6565b909150819061175b565b015190508780611292565b5f516020612fa85f395f51905f525f9081528281209350601f198516905b8181106117e957509084600195949392106117d1575b505050811b015f516020612fa85f395f51905f52556112b3565b01515f1960f88460031b161c191690558780806117b7565b929360206001819287860151815501950193016117a1565b5f516020612fa85f395f51905f525f52611855907f42ad5d3e1f2e6e70edcf6d991b8a3023d3fca8047a131592f9edb9fd9b89d57d601f850160051c8101916020861061176e57601f0160051c01906126c6565b8861127c565b63d92e233d60e01b5f5260045ffd5b506001600160a01b03611880610124850161267d565b16156111cb565b506001600160a01b0361189d610104850161267d565b16156111c4565b506001600160a01b036118b960e4850161267d565b16156111bd565b506001600160a01b036118d560c4850161267d565b16156111b6565b506001600160a01b036118f160a4850161267d565b16156111af565b506001600160a01b0361190d6084850161267d565b16156111a8565b506001600160a01b036119296064850161267d565b16156111a1565b506001600160a01b036119456044850161267d565b161561119a565b506001600160a01b036119616024850161267d565b1615611193565b600160401b60ff60401b195f5160206130685f395f51905f525416175f5160206130685f395f51905f525561116d565b63f92ee8a960e01b5f5260045ffd5b90501584611137565b303b15915061112f565b839150611125565b34610568575f36600319011261056857602060ff5f5160206130285f395f51905f5254166040519015158152f35b34610568576020366003190112610568576020610cc2611a0e612591565b612976565b34610568575f366003190112610568577f00000000000000000000000000000000000000000000000000000000000000006001600160a01b03163003611a6a5760206040515f5160206130085f395f51905f528152f35b63703e46dd60e11b5f5260045ffd5b604036600319011261056857611a8d612591565b6024356001600160401b03811161056857611aac9036906004016125fe565b906001600160a01b037f000000000000000000000000000000000000000000000000000000000000000016308114908115611c11575b50611a6a57611aef612943565b6040516352d1902d60e01b81526001600160a01b0382169290602081600481875afa5f9181611bdd575b50611b315783634c9c8ce360e01b5f5260045260245ffd5b805f5160206130085f395f51905f52859203611bcb5750823b15611bb9575f5160206130085f395f51905f5280546001600160a01b031916821790557fbc7cd75a20ee27fd9adebab32041f755214dbc6bffa90cc0225b39da2e5c2d3b5f80a2805115611ba15761076f91612dea565b505034611baa57005b63b398979f60e01b5f5260045ffd5b634c9c8ce360e01b5f5260045260245ffd5b632a87526960e21b5f5260045260245ffd5b9091506020813d602011611c09575b81611bf9602093836125c2565b8101031261056857519085611b19565b3d9150611bec565b5f5160206130085f395f51905f52546001600160a01b03161415905083611ae2565b34610568575f36600319011261056857600a546040516001600160a01b039091168152602090f35b34610568576020366003190112610568576004355f52600f602052602060ff60405f2054166040519015158152f35b34610568575f36600319011261056857611ca2612943565b5f5160206130285f395f51905f525460ff811615611cf95760ff19165f5160206130285f395f51905f52557f5db9ee0a495bf2e6ff9c91a7834c1ba4fdd244a5e8aa4e537bd38aeae4b073aa6020604051338152a1005b638dfc202b60e01b5f5260045ffd5b34610568575f366003190112610568576020600c54604051908152f35b34610568575f366003190112610568576008546040516001600160a01b039091168152602090f35b3461056857611d5b3661251f565b600354909592949193929060101c6001600160a01b031633036105bf57600b5460ff8160a01c166105b057611d8e61283e565b611d96612865565b600e86106105a1578560011015610459575f54602085013503610592578560021015610459573060408501356001600160a01b03160361058357856003101561045957611de1612c78565b606085013503610574578560041015610459576001600160a01b03908116608085013590911603610520576001548560051015610459578060a08501351090811591612443575b506124345784600b10156104595761016083013543106105115784600c10156104595761018083013543116105025784600d1015610459576040516349ddf27f60e11b81526101a084013560048201526020816024817f00000000000000000000000000000000000000000000000000000000000000006001600160a01b03165afa80156104ba575f906123eb575b6001600160401b0391501680156123dc5760b48101809111610b785742116123cd5784156104595782355f52600f60205260ff60405f2054166104c557829160209183355f52600f835260405f20600160ff1982541617905560018060a01b0360085416905f54611f3f8960405197889687958695633f9ba6d560e11b8752600487016128b2565b03915afa9081156104ba575f916123ae575b501561047c576009546001600160a01b031690611f7160a08201356128f9565b905460039190911b1c6001600160a01b0316600685111561045957611f9960c08301356128f9565b905460039190911b1c6001600160a01b0316946007811115610459578060081015610459575f5b878110156122c0578060051b860135605e198736030181121561056857602081880101356122b157856001600160a01b03611ffc89840161267d565b1614158080612286575b8061227e575b61226f5760046120228984016040810190612911565b90501061214f576120398883016040810190612911565b60041161056857356001600160e01b031916901561215d5763095ea7b360e01b0361214f5761206e8782016040810190612911565b80600411610568576040908201829003600319011261056857866001600160a01b0361209c60048401612cfd565b160361214057602460e087013591013503612131575f80915b816120d16120c4838c0161267d565b928b016040810190612911565b9190826040519384928337810182815203925af13d1561212c573d6120f5816125e3565b9061210360405192836125c2565b81525f60203d92013e5b1561211a57600101611fc0565b630a80e20360e41b5f5260045260245ffd5b61210d565b63f1eb37d160e01b5f5260045ffd5b63cb2b2c7560e01b5f5260045ffd5b62c671bf60e11b5f5260045ffd5b63178ca23160e31b0361214f5761217a8782016040810190612911565b806004116105685760e090820182900360031901126105685761219f60048201612cfd565b6121ab60248301612cfd565b6121b760448401612cfd565b9160c48401356001600160a01b03811603610568576001600160a01b0316879003612260576001600160a01b03168a900361225157306001600160a01b03909116036122425760e08601356084820135036122335760a461010087013591013503612224575f80916120b5565b632c1c6ea760e11b5f5260045ffd5b63285056d760e11b5f5260045ffd5b633eb5f71160e01b5f5260045ffd5b634e8460c760e01b5f5260045ffd5b63c8c3749960e01b5f5260045ffd5b635329f4eb60e11b5f5260045ffd5b50801561200c565b90506001600160a01b0361229b89840161267d565b165f52601260205260ff60405f20541690612006565b63e320176b60e01b5f5260045ffd5b508260018060a01b03600b5416905f54926122de60a08301356128f9565b905460039190911b1c6001600160a01b03166122fd60c08401356128f9565b905460039190911b1c6001600160a01b03169160091015610459576040519485526020850152604084015260e08101356060840152610100810135608084015260ff6101208201351660a08401526001600160401b036101608201351660c08401526001600160401b036101808201351660e084015235917fe8ea226f12514cec03bc7c0abc4dd055ef25465f050f94eab738755dc7adb25f6101003092a45f5f5160206130485f395f51905f525d005b6123c7915060203d6020116104b3576104a581836125c2565b85611f51565b632a1a27e160e01b5f5260045ffd5b63292c0b5760e01b5f5260045ffd5b506020813d60201161242c575b81612405602093836125c2565b8101031261056857516001600160401b0381168103610568576001600160401b0390611eb7565b3d91506123f8565b6308801f1d60e21b5f5260045ffd5b905085600610156104595760c0840135101587611e28565b34610568575f366003190112610568576040517f00000000000000000000000000000000000000000000000000000000000000006001600160a01b03168152602090f35b34610568575f366003190112610568576020906001600160401b03600d54168152f35b9181601f84011215610568578235916001600160401b038311610568576020838186019501011161056857565b9181601f84011215610568578235916001600160401b038311610568576020808501948460051b01011161056857565b6060600319820112610568576004356001600160401b0381116105685781612549916004016124c2565b929092916024356001600160401b038111610568578161256b916004016124ef565b92909291604435906001600160401b0382116105685761258d916004016124ef565b9091565b600435906001600160a01b038216820361056857565b60e081019081106001600160401b0382111761167657604052565b90601f801991011681019081106001600160401b0382111761167657604052565b6001600160401b03811161167657601f01601f191660200190565b81601f8201121561056857803590612615826125e3565b9261262360405194856125c2565b8284526020838301011161056857815f926020809301838601378301015290565b805180835260209291819084018484015e5f828201840152601f01601f1916010190565b90359060de1981360301821215610568570190565b356001600160a01b03811681036105685790565b903590601e198136030182121561056857018035906001600160401b03821161056857602001918160051b3603831361056857565b8181106126d1575050565b5f81556001016126c6565b91908203918211610b7857565b6126f281612976565b9060018060a01b031690815f52600e60205260405f2054808211156127705761271a916126dc565b61272681600c546126dc565b600c5560065461274290829033906001600160a01b03166129ca565b6040519081527f0caadc0986f4d706e391378d87fa79ac2ec5f0aa603d69e54f64be0b610f5ee260203092a3565b50506040515f81527f0caadc0986f4d706e391378d87fa79ac2ec5f0aa603d69e54f64be0b610f5ee260203092a3565b91908201809211610b7857565b908060209392818452848401375f828201840152601f01601f1916010190565b6001600160a01b0316801561282b575f516020612fc85f395f51905f5280546001600160a01b0319811683179091556001600160a01b03167f8be0079c531659141344cd1fd0a4f28419497f9722a3daafe3b4186f6b6457e05f80a3565b631e4fbdf760e01b5f525f60045260245ffd5b60ff5f5160206130285f395f51905f52541661285657565b63d93c066560e01b5f5260045ffd5b5f5160206130485f395f51905f525c61288b5760015f5160206130485f395f51905f525d565b633ee5aeb560e01b5f5260045ffd5b90816020910312610568575180151581036105685790565b926128cb929184526060602085015260608401916127ad565b8181036040909201919091528281526001600160fb1b0383116105685760209260051b809284830137010190565b6001548110156104595760015f5260205f2001905f90565b903590601e198136030182121561056857018035906001600160401b0382116105685760200191813603831361056857565b5f516020612fc85f395f51905f52546001600160a01b0316330361296357565b63118cdaa760e01b5f523360045260245ffd5b600b546001600160a01b03165f908152600e60205260409020549081156129c457600c549060018060a01b03165f52600e60205260405f205490818102918183041490151715610b78570490565b50505f90565b916040519163a9059cbb60e01b5f5260018060a01b031660045260245260205f60448180865af19060015f5114821615612a2a575b60405215612a0a5750565b635274afe760e01b5f9081526001600160a01b0391909116600452602490fd5b90600181151661092c57823b15153d151616906129ff565b90600182811c92168015612a70575b6020831014612a5c57565b634e487b7160e01b5f52602260045260245ffd5b91607f1691612a51565b604051905f825f516020612fa85f395f51905f525491612a9983612a42565b8083529260018116908115612b2a5750600114612abf575b612abd925003836125c2565b565b505f516020612fa85f395f51905f525f90815290917f42ad5d3e1f2e6e70edcf6d991b8a3023d3fca8047a131592f9edb9fd9b89d57d5b818310612b0e575050906020612abd92820101612ab1565b6020919350806001915483858901015201910190918492612af6565b60209250612abd94915060ff191682840152151560051b820101612ab1565b604051905f825f516020612fe85f395f51905f525491612b6883612a42565b8083529260018116908115612b2a5750600114612b8b57612abd925003836125c2565b505f516020612fe85f395f51905f525f90815290917f5f9ce34815f8e11431c7bb75a8e6886a91478f7ffc1dbb0a98dc240fddd76b755b818310612bda575050906020612abd92820101612ab1565b6020919350806001915483858901015201910190918492612bc2565b604290612c01612ef8565b612c09612f62565b6040519060208201927f8b73c3c69bb8fe3d512ecc4cf759cc79239f7b179b0ffacaa9a75d522b39400f8452604083015260608201524660808201523060a082015260a08152612c5a60c0826125c2565b519020906040519161190160f01b8352600283015260228201522090565b600754604051631dc6eb5160e21b815230600482015290602090829060249082906001600160a01b03165afa9081156104ba575f91612ccb575b508015612cbc5790565b6372bc436960e11b5f5260045ffd5b90506020813d602011612cf5575b81612ce6602093836125c2565b8101031261056857515f612cb2565b3d9150612cd9565b35906001600160a01b038216820361056857565b60ff5f5160206130685f395f51905f525460401c1615612d2d57565b631afcd79f60e31b5f5260045ffd5b8151919060418303612d6c57612d659250602082015190606060408401519301515f1a90612e76565b9192909190565b50505f9160029190565b6004811015612dd65780612d88575050565b60018103612d9f5763f645eedf60e01b5f5260045ffd5b60028103612dba575063fce698f760e01b5f5260045260245ffd5b600314612dc45750565b6335e2f38360e21b5f5260045260245ffd5b634e487b7160e01b5f52602160045260245ffd5b905f8091602081519101845af48080612e63575b15612e1e5750506040513d81523d5f602083013e60203d82010160405290565b15612e4357639996b31560e01b5f9081526001600160a01b0391909116600452602490fd5b3d15612e54576040513d5f823e3d90fd5b63d6bda27560e01b5f5260045ffd5b503d151580612dfe5750813b1515612dfe565b91907f7fffffffffffffffffffffffffffffff5d576e7357a4501ddfe92f46681b20a08411612eed579160209360809260ff5f9560405194855216868401526040830152606082015282805260015afa156104ba575f516001600160a01b03811615612ee357905f905f90565b505f906001905f90565b5050505f9160039190565b612f00612a7a565b8051908115612f10576020012090565b50507fa16a46d94261c7517cc8ff89f61c0ce93598e3c849801011dee649a6a557d100548015612f3d5790565b507fc5d2460186f7233c927e7db2dcc703c0e500b653ca82273b7bfad8045d85a47090565b612f6a612b49565b8051908115612f7a576020012090565b50507fa16a46d94261c7517cc8ff89f61c0ce93598e3c849801011dee649a6a557d101548015612f3d579056fea16a46d94261c7517cc8ff89f61c0ce93598e3c849801011dee649a6a557d1029016d09d72d40fdae2fd8ceac6b6234c7706214fd39c1cd1e609a0528c199300a16a46d94261c7517cc8ff89f61c0ce93598e3c849801011dee649a6a557d103360894a13ba1a3210667c828492db98dca3e2076cc3735a920a3ca505d382bbccd5ed15c6e187e77e9aee88184c21f4f2182ab5827cb3b7e07fbedcd63f033009b779b17422d0df92223018b32b4d1fa46e071723d6817e2486d003becc55f00f0c57e16840df040f15088dc2f81fe391c3923bec73e23a9662efc9c229c6a00f0c57e16840df040f15088dc2f81fe391c3923bec73e23a9662efc9c229c6a00000000000000000000000000566e1f1b5bd7109f2c86805e2c092502d1b2f9f4000000000000000000000000345cd375ec42476eb95c5903fb3abb27f9400f9d",
        "nonce": "0x55",
        "chainId": "0x940"
      },
      "additionalContracts": [],
      "isFixedGasLimit": false
    },
    {
      "hash": "0x9518bf5d25b2599351fe5763a6f02d7b6c34ee8281a0eca52c9792d1fea81908",
      "transactionType": "CALL",
      "contractName": null,
      "contractAddress": "0x818a782f040f09389e7c34b1e2e33188d473a950",
      "function": "upgradeToAndCall(address,bytes)",
      "arguments": [
        "0x4510eA78880B7095f1f68F4E8029B776f3c8beA1",
        "0x"
      ],
      "transaction": {
        "from": "0xecf5e30f091d1db7c7b0ef26634a71d46dc9bb25",
        "to": "0x818a782f040f09389e7c34b1e2e33188d473a950",
        "gas": "0xc9f1",
        "value": "0x0",
        "input": "0x4f1ef2860000000000000000000000004510ea78880b7095f1f68f4e8029b776f3c8bea100000000000000000000000000000000000000000000000000000000000000400000000000000000000000000000000000000000000000000000000000000000",
        "nonce": "0x56",
        "chainId": "0x940"
      },
      "additionalContracts": [],
      "isFixedGasLimit": false
    },
    {
      "hash": "0xb803221effa2ad6af3dfe78c53c8f7ab2d1865958645b0bbb69bcd7e0c7110e2",
      "transactionType": "CALL",
      "contractName": null,
      "contractAddress": "0xc1b19df0003eadf29313826dc874c769ebb09109",
      "function": "upgradeToAndCall(address,bytes)",
      "arguments": [
        "0x4510eA78880B7095f1f68F4E8029B776f3c8beA1",
        "0x"
      ],
      "transaction": {
        "from": "0xecf5e30f091d1db7c7b0ef26634a71d46dc9bb25",
        "to": "0xc1b19df0003eadf29313826dc874c769ebb09109",
        "gas": "0xd5f2",
        "value": "0x0",
        "input": "0x4f1ef2860000000000000000000000004510ea78880b7095f1f68f4e8029b776f3c8bea100000000000000000000000000000000000000000000000000000000000000400000000000000000000000000000000000000000000000000000000000000000",
        "nonce": "0x57",
        "chainId": "0x940"
      },
      "additionalContracts": [],
      "isFixedGasLimit": false
    },
    {
      "hash": "0x65bfe5e2474d35010acbf4ae0ca52822f5149c8cc202200b8572baf7d91a347c",
      "transactionType": "CALL",
      "contractName": null,
      "contractAddress": "0x4e19e5eec25fc15fbc30a9446d283f4ebed6462c",
      "function": "upgradeToAndCall(address,bytes)",
      "arguments": [
        "0x4510eA78880B7095f1f68F4E8029B776f3c8beA1",
        "0x"
      ],
      "transaction": {
        "from": "0xecf5e30f091d1db7c7b0ef26634a71d46dc9bb25",
        "to": "0x4e19e5eec25fc15fbc30a9446d283f4ebed6462c",
        "gas": "0xd5f2",
        "value": "0x0",
        "input": "0x4f1ef2860000000000000000000000004510ea78880b7095f1f68f4e8029b776f3c8bea100000000000000000000000000000000000000000000000000000000000000400000000000000000000000000000000000000000000000000000000000000000",
        "nonce": "0x58",
        "chainId": "0x940"
      },
      "additionalContracts": [],
      "isFixedGasLimit": false
    },
    {
      "hash": "0x638935476f8a48671c3caec5bf88fde3e3f0b6e0a67578a490efbcdf6f2a12c8",
      "transactionType": "CALL",
      "contractName": null,
      "contractAddress": "0x6c1f9466db7bc2364b0bac051e73421d5b75354b",
      "function": "upgradeToAndCall(address,bytes)",
      "arguments": [
        "0x4510eA78880B7095f1f68F4E8029B776f3c8beA1",
        "0x"
      ],
      "transaction": {
        "from": "0xecf5e30f091d1db7c7b0ef26634a71d46dc9bb25",
        "to": "0x6c1f9466db7bc2364b0bac051e73421d5b75354b",
        "gas": "0xc9f1",
        "value": "0x0",
        "input": "0x4f1ef2860000000000000000000000004510ea78880b7095f1f68f4e8029b776f3c8bea100000000000000000000000000000000000000000000000000000000000000400000000000000000000000000000000000000000000000000000000000000000",
        "nonce": "0x59",
        "chainId": "0x940"
      },
      "additionalContracts": [],
      "isFixedGasLimit": false
    },
    {
      "hash": "0xa49c0baa0bd3fb60b6ecd5b7bdec7ee26abd9bca62ead68b6bb1ef42183c2de1",
      "transactionType": "CALL",
      "contractName": null,
      "contractAddress": "0xd4898262bb6ffbaf5f0c016663a2c59767ddb65f",
      "function": "upgradeToAndCall(address,bytes)",
      "arguments": [
        "0x4510eA78880B7095f1f68F4E8029B776f3c8beA1",
        "0x"
      ],
      "transaction": {
        "from": "0xecf5e30f091d1db7c7b0ef26634a71d46dc9bb25",
        "to": "0xd4898262bb6ffbaf5f0c016663a2c59767ddb65f",
        "gas": "0xd5f2",
        "value": "0x0",
        "input": "0x4f1ef2860000000000000000000000004510ea78880b7095f1f68f4e8029b776f3c8bea100000000000000000000000000000000000000000000000000000000000000400000000000000000000000000000000000000000000000000000000000000000",
        "nonce": "0x5a",
        "chainId": "0x940"
      },
      "additionalContracts": [],
      "isFixedGasLimit": false
    },
    {
      "hash": "0xaf3a65eee29f542a6b1c1fbabdb491798f8c22eec389efbdabd94a345e4a44c1",
      "transactionType": "CALL",
      "contractName": null,
      "contractAddress": "0x50c1dcc21e571c106eee21f42f22fb6ea0d4a708",
      "function": "upgradeToAndCall(address,bytes)",
      "arguments": [
        "0x4510eA78880B7095f1f68F4E8029B776f3c8beA1",
        "0x"
      ],
      "transaction": {
        "from": "0xecf5e30f091d1db7c7b0ef26634a71d46dc9bb25",
        "to": "0x50c1dcc21e571c106eee21f42f22fb6ea0d4a708",
        "gas": "0xd5f2",
        "value": "0x0",
        "input": "0x4f1ef2860000000000000000000000004510ea78880b7095f1f68f4e8029b776f3c8bea100000000000000000000000000000000000000000000000000000000000000400000000000000000000000000000000000000000000000000000000000000000",
        "nonce": "0x5b",
        "chainId": "0x940"
      },
      "additionalContracts": [],
      "isFixedGasLimit": false
    },
    {
      "hash": "0xbbfc3e7a458b6e2fff767ebf2e02ce2506692bfe6b413e6bf0b9aed30686488e",
      "transactionType": "CALL",
      "contractName": null,
      "contractAddress": "0xbfbf9fa82b5df3b080be27f64d650101ee69c36f",
      "function": "upgradeToAndCall(address,bytes)",
      "arguments": [
        "0x4510eA78880B7095f1f68F4E8029B776f3c8beA1",
        "0x"
      ],
      "transaction": {
        "from": "0xecf5e30f091d1db7c7b0ef26634a71d46dc9bb25",
        "to": "0xbfbf9fa82b5df3b080be27f64d650101ee69c36f",
        "gas": "0xc9f1",
        "value": "0x0",
        "input": "0x4f1ef2860000000000000000000000004510ea78880b7095f1f68f4e8029b776f3c8bea100000000000000000000000000000000000000000000000000000000000000400000000000000000000000000000000000000000000000000000000000000000",
        "nonce": "0x5c",
        "chainId": "0x940"
      },
      "additionalContracts": [],
      "isFixedGasLimit": false
    },
    {
      "hash": "0x4ae4277a82c3fc24caa476623f5c16a28455dbc6ad308a5779c18a830f876b6f",
      "transactionType": "CALL",
      "contractName": null,
      "contractAddress": "0x5605b2e1883428680266fd25cb7429f2001c0c17",
      "function": "upgradeToAndCall(address,bytes)",
      "arguments": [
        "0x4510eA78880B7095f1f68F4E8029B776f3c8beA1",
        "0x"
      ],
      "transaction": {
        "from": "0xecf5e30f091d1db7c7b0ef26634a71d46dc9bb25",
        "to": "0x5605b2e1883428680266fd25cb7429f2001c0c17",
        "gas": "0xd5f2",
        "value": "0x0",
        "input": "0x4f1ef2860000000000000000000000004510ea78880b7095f1f68f4e8029b776f3c8bea100000000000000000000000000000000000000000000000000000000000000400000000000000000000000000000000000000000000000000000000000000000",
        "nonce": "0x5d",
        "chainId": "0x940"
      },
      "additionalContracts": [],
      "isFixedGasLimit": false
    },
    {
      "hash": "0x65e7a29660a2db5b23bebdfb26f99790485d3548299478d22632b5685d72ff7a",
      "transactionType": "CALL",
      "contractName": null,
      "contractAddress": "0x3863f44fe693764562c0d239e05c5f194544b0b4",
      "function": "upgradeToAndCall(address,bytes)",
      "arguments": [
        "0x4510eA78880B7095f1f68F4E8029B776f3c8beA1",
        "0x"
      ],
      "transaction": {
        "from": "0xecf5e30f091d1db7c7b0ef26634a71d46dc9bb25",
        "to": "0x3863f44fe693764562c0d239e05c5f194544b0b4",
        "gas": "0xd5f2",
        "value": "0x0",
        "input": "0x4f1ef2860000000000000000000000004510ea78880b7095f1f68f4e8029b776f3c8bea100000000000000000000000000000000000000000000000000000000000000400000000000000000000000000000000000000000000000000000000000000000",
        "nonce": "0x5e",
        "chainId": "0x940"
      },
      "additionalContracts": [],
      "isFixedGasLimit": false
    }
  ],
  "receipts": [
    {
      "status": "0x1",
      "cumulativeGasUsed": "0x2a4035",
      "logs": [
        {
          "address": "0x4510ea78880b7095f1f68f4e8029b776f3c8bea1",
          "topics": [
            "0xc7f505b2f371ae2175ee4913f4499e1f2633a7b5936321eed1cdaeb6115181d2"
          ],
          "data": "0x000000000000000000000000000000000000000000000000ffffffffffffffff",
          "blockHash": "0xa1222c886618855b4873eed37d7645f8b1d9d702c909c64a4356d52c05a4df02",
          "blockNumber": "0x143e618",
          "transactionHash": "0x638935476f8a48671c3caec5bf88fde3e3f0b6e0a67578a490efbcdf6f2a12c8",
          "transactionIndex": "0x0",
          "logIndex": "0x0",
          "removed": false
        }
      ],
      "logsBloom": "0x00000000000000000000000000000000020000000000000000200000000000000000000000000000000000000000000000000000000000000000000000000000000000000000000000000000000000001000000000000000000000000000000000000000000000000000000000000000000000000000000000000000000000000000000000000000000800000000000000000000000080000000000000000000000000000000000000000000000000000000000000000000000000000000000000000000000000000000000000000000000000000004000000000000000000000000000000000000000000000000000000000000000000000000000000000000",
      "type": "0x2",
      "transactionHash": "0x638935476f8a48671c3caec5bf88fde3e3f0b6e0a67578a490efbcdf6f2a12c8",
      "transactionIndex": "0x0",
      "blockHash": "0xa1222c886618855b4873eed37d7645f8b1d9d702c909c64a4356d52c05a4df02",
      "blockNumber": "0x143e618",
      "gasUsed": "0x2a4035",
      "effectiveGasPrice": "0xf4241",
      "from": "0xecf5e30f091d1db7c7b0ef26634a71d46dc9bb25",
      "to": null,
      "contractAddress": "0x4510ea78880b7095f1f68f4e8029b776f3c8bea1"
    },
    {
      "status": "0x1",
      "cumulativeGasUsed": "0x2ad269",
      "logs": [
        {
          "address": "0x818a782f040f09389e7c34b1e2e33188d473a950",
          "topics": [
            "0xbc7cd75a20ee27fd9adebab32041f755214dbc6bffa90cc0225b39da2e5c2d3b",
            "0x0000000000000000000000004510ea78880b7095f1f68f4e8029b776f3c8bea1"
          ],
          "data": "0x",
          "blockHash": "0xa1222c886618855b4873eed37d7645f8b1d9d702c909c64a4356d52c05a4df02",
          "blockNumber": "0x143e618",
          "transactionHash": "0xb803221effa2ad6af3dfe78c53c8f7ab2d1865958645b0bbb69bcd7e0c7110e2",
          "transactionIndex": "0x1",
          "logIndex": "0x1",
          "removed": false
        }
      ],
      "logsBloom": "0x00000000000000000000000000000000400000000000000000000000000000000000000000000000000000000000000000000000000000000000000000000000000000000000000000000000000082000000000000000000000000000000000008000000000000000000000000000000000000000000000008000000000000000000100000000000000000000000000000000000000000000000000000000000000000000000000000010000000000000000000000000000000000000000000000000020000000000000000000000000000000000000000000000000000000000000000000000000000000000000000000000000000000040000000000000000",
      "type": "0x2",
      "transactionHash": "0xb803221effa2ad6af3dfe78c53c8f7ab2d1865958645b0bbb69bcd7e0c7110e2",
      "transactionIndex": "0x1",
      "blockHash": "0xa1222c886618855b4873eed37d7645f8b1d9d702c909c64a4356d52c05a4df02",
      "blockNumber": "0x143e618",
      "gasUsed": "0x9234",
      "effectiveGasPrice": "0xf4241",
      "from": "0xecf5e30f091d1db7c7b0ef26634a71d46dc9bb25",
      "to": "0x818a782f040f09389e7c34b1e2e33188d473a950",
      "contractAddress": null
    },
    {
      "status": "0x1",
      "cumulativeGasUsed": "0x924a",
      "logs": [
        {
          "address": "0xc1b19df0003eadf29313826dc874c769ebb09109",
          "topics": [
            "0xbc7cd75a20ee27fd9adebab32041f755214dbc6bffa90cc0225b39da2e5c2d3b",
            "0x0000000000000000000000004510ea78880b7095f1f68f4e8029b776f3c8bea1"
          ],
          "data": "0x",
          "blockHash": "0x8cad8d0d25383bf4036d121ff79a3530a23dfaeb27c20e86e9a46086d367c411",
          "blockNumber": "0x143e619",
          "transactionHash": "0x9518bf5d25b2599351fe5763a6f02d7b6c34ee8281a0eca52c9792d1fea81908",
          "transactionIndex": "0x0",
          "logIndex": "0x0",
          "removed": false
        }
      ],
      "logsBloom": "0x00000000000000000000000000000000400000000000000000000000000000000400000000000000000000000000100000000000000000000000000000000000000000000000000000000000000002000000000000000000000000000000000000000000000000000000000000000000000000000000000008000000000000000000100000000000000000000000000000000000000000000000000000000000000000000000000000000000000000000000000000000100000000000000000000000020000000000000000000000000000000000000000000000000000000000000000000000000000000000000000000000000000000040000000000000000",
      "type": "0x2",
      "transactionHash": "0x9518bf5d25b2599351fe5763a6f02d7b6c34ee8281a0eca52c9792d1fea81908",
      "transactionIndex": "0x0",
      "blockHash": "0x8cad8d0d25383bf4036d121ff79a3530a23dfaeb27c20e86e9a46086d367c411",
      "blockNumber": "0x143e619",
      "gasUsed": "0x924a",
      "effectiveGasPrice": "0xf4241",
      "from": "0xecf5e30f091d1db7c7b0ef26634a71d46dc9bb25",
      "to": "0xc1b19df0003eadf29313826dc874c769ebb09109",
      "contractAddress": null
    },
    {
      "status": "0x1",
      "cumulativeGasUsed": "0x12494",
      "logs": [
        {
          "address": "0x4e19e5eec25fc15fbc30a9446d283f4ebed6462c",
          "topics": [
            "0xbc7cd75a20ee27fd9adebab32041f755214dbc6bffa90cc0225b39da2e5c2d3b",
            "0x0000000000000000000000004510ea78880b7095f1f68f4e8029b776f3c8bea1"
          ],
          "data": "0x",
          "blockHash": "0x8cad8d0d25383bf4036d121ff79a3530a23dfaeb27c20e86e9a46086d367c411",
          "blockNumber": "0x143e619",
          "transactionHash": "0x1c983e740f8965b90179fa1c6e21751eb1f00211660a9845374315cf52df6725",
          "transactionIndex": "0x1",
          "logIndex": "0x1",
          "removed": false
        }
      ],
      "logsBloom": "0x00000000000000000000000000000000400000000000000000000000000000080000000000000000000000000000000000000000000000000000000000000000000000000000000000000000000002000000000000000000000000000000000000000000000800000000000000000000000000000000000008000000000000000000100000000000000000000000000000000000000000000000000000000000000000000000000000000000000000000000000000000000000000000000000000000020000000000000000000000000200000000000000000000000000000000000000000000000000000000000000000000000000000040000000000000000",
      "type": "0x2",
      "transactionHash": "0x1c983e740f8965b90179fa1c6e21751eb1f00211660a9845374315cf52df6725",
      "transactionIndex": "0x1",
      "blockHash": "0x8cad8d0d25383bf4036d121ff79a3530a23dfaeb27c20e86e9a46086d367c411",
      "blockNumber": "0x143e619",
      "gasUsed": "0x924a",
      "effectiveGasPrice": "0xf4241",
      "from": "0xecf5e30f091d1db7c7b0ef26634a71d46dc9bb25",
      "to": "0x4e19e5eec25fc15fbc30a9446d283f4ebed6462c",
      "contractAddress": null
    },
    {
      "status": "0x1",
      "cumulativeGasUsed": "0x1b6c8",
      "logs": [
        {
          "address": "0x6c1f9466db7bc2364b0bac051e73421d5b75354b",
          "topics": [
            "0xbc7cd75a20ee27fd9adebab32041f755214dbc6bffa90cc0225b39da2e5c2d3b",
            "0x0000000000000000000000004510ea78880b7095f1f68f4e8029b776f3c8bea1"
          ],
          "data": "0x",
          "blockHash": "0x8cad8d0d25383bf4036d121ff79a3530a23dfaeb27c20e86e9a46086d367c411",
          "blockNumber": "0x143e619",
          "transactionHash": "0xa49c0baa0bd3fb60b6ecd5b7bdec7ee26abd9bca62ead68b6bb1ef42183c2de1",
          "transactionIndex": "0x2",
          "logIndex": "0x2",
          "removed": false
        }
      ],
      "logsBloom": "0x00000000000000000000000000000000400000000000000000000000000000000000000000000000000000000000000000000000000000000010000000000000000000000000000000000000000002000000000000000000000000000000000000000000000000020000000000000000000000000000000008000000000000000000100000000000000000000000000000000000000000000000000000000000000000000000000000000000400000000000000000000000000000000000000000000020000000000000000000000000000000000000000000000000000000000000000000000000000000000000000000000000000000040000000000000000",
      "type": "0x2",
      "transactionHash": "0xa49c0baa0bd3fb60b6ecd5b7bdec7ee26abd9bca62ead68b6bb1ef42183c2de1",
      "transactionIndex": "0x2",
      "blockHash": "0x8cad8d0d25383bf4036d121ff79a3530a23dfaeb27c20e86e9a46086d367c411",
      "blockNumber": "0x143e619",
      "gasUsed": "0x9234",
      "effectiveGasPrice": "0xf4241",
      "from": "0xecf5e30f091d1db7c7b0ef26634a71d46dc9bb25",
      "to": "0x6c1f9466db7bc2364b0bac051e73421d5b75354b",
      "contractAddress": null
    },
    {
      "status": "0x1",
      "cumulativeGasUsed": "0x24912",
      "logs": [
        {
          "address": "0xd4898262bb6ffbaf5f0c016663a2c59767ddb65f",
          "topics": [
            "0xbc7cd75a20ee27fd9adebab32041f755214dbc6bffa90cc0225b39da2e5c2d3b",
            "0x0000000000000000000000004510ea78880b7095f1f68f4e8029b776f3c8bea1"
          ],
          "data": "0x",
          "blockHash": "0x8cad8d0d25383bf4036d121ff79a3530a23dfaeb27c20e86e9a46086d367c411",
          "blockNumber": "0x143e619",
          "transactionHash": "0x65bfe5e2474d35010acbf4ae0ca52822f5149c8cc202200b8572baf7d91a347c",
          "transactionIndex": "0x3",
          "logIndex": "0x3",
          "removed": false
        }
      ],
      "logsBloom": "0x00000000000000000000000000000000400000000000000000000000000000000000000000000000000000000000000000000000000000040000000000000000000000000000000000000000000002000000000000000000000040000000000000000000000000000000000000000000000000000000000008000000000000000000100000000000000000000000000000000000000000000000000000000000000000100000000000000000000000000000000000000000000000000000000000000020000000000000000000000000000000000000000000000000000000000000000000000000000000000000000000000000000000040000000000000000",
      "type": "0x2",
      "transactionHash": "0x65bfe5e2474d35010acbf4ae0ca52822f5149c8cc202200b8572baf7d91a347c",
      "transactionIndex": "0x3",
      "blockHash": "0x8cad8d0d25383bf4036d121ff79a3530a23dfaeb27c20e86e9a46086d367c411",
      "blockNumber": "0x143e619",
      "gasUsed": "0x924a",
      "effectiveGasPrice": "0xf4241",
      "from": "0xecf5e30f091d1db7c7b0ef26634a71d46dc9bb25",
      "to": "0xd4898262bb6ffbaf5f0c016663a2c59767ddb65f",
      "contractAddress": null
    },
    {
      "status": "0x1",
      "cumulativeGasUsed": "0x2db5c",
      "logs": [
        {
          "address": "0x50c1dcc21e571c106eee21f42f22fb6ea0d4a708",
          "topics": [
            "0xbc7cd75a20ee27fd9adebab32041f755214dbc6bffa90cc0225b39da2e5c2d3b",
            "0x0000000000000000000000004510ea78880b7095f1f68f4e8029b776f3c8bea1"
          ],
          "data": "0x",
          "blockHash": "0x8cad8d0d25383bf4036d121ff79a3530a23dfaeb27c20e86e9a46086d367c411",
          "blockNumber": "0x143e619",
          "transactionHash": "0xaf3a65eee29f542a6b1c1fbabdb491798f8c22eec389efbdabd94a345e4a44c1",
          "transactionIndex": "0x4",
          "logIndex": "0x4",
          "removed": false
        }
      ],
      "logsBloom": "0x00000000000000000000000000000000400000000000000000001000000000000000000000000000000000000000000000000000000000000000000000000000000000000000000000000000000002000000000000000000000000000000000000000000000000000000000000000000000000000000000008000000000000000000100000000000000000000000000000000000000000000000000000000000000000000000000000000000000000000000000000000000000000000000000000000020010000004000000000000000000000000000000000000000000000000000000000000000000000000000000000000000000000040000000000000000",
      "type": "0x2",
      "transactionHash": "0xaf3a65eee29f542a6b1c1fbabdb491798f8c22eec389efbdabd94a345e4a44c1",
      "transactionIndex": "0x4",
      "blockHash": "0x8cad8d0d25383bf4036d121ff79a3530a23dfaeb27c20e86e9a46086d367c411",
      "blockNumber": "0x143e619",
      "gasUsed": "0x924a",
      "effectiveGasPrice": "0xf4241",
      "from": "0xecf5e30f091d1db7c7b0ef26634a71d46dc9bb25",
      "to": "0x50c1dcc21e571c106eee21f42f22fb6ea0d4a708",
      "contractAddress": null
    },
    {
      "status": "0x1",
      "cumulativeGasUsed": "0x36d90",
      "logs": [
        {
          "address": "0xbfbf9fa82b5df3b080be27f64d650101ee69c36f",
          "topics": [
            "0xbc7cd75a20ee27fd9adebab32041f755214dbc6bffa90cc0225b39da2e5c2d3b",
            "0x0000000000000000000000004510ea78880b7095f1f68f4e8029b776f3c8bea1"
          ],
          "data": "0x",
          "blockHash": "0x8cad8d0d25383bf4036d121ff79a3530a23dfaeb27c20e86e9a46086d367c411",
          "blockNumber": "0x143e619",
          "transactionHash": "0x4ae4277a82c3fc24caa476623f5c16a28455dbc6ad308a5779c18a830f876b6f",
          "transactionIndex": "0x5",
          "logIndex": "0x5",
          "removed": false
        }
      ],
      "logsBloom": "0x00000000000000000000000000000000400000000000000000000000000000000000000000000000000000000000000000000000000000000000000000000000000000000000000000000000000002000000000000000000000000000000000000000000000000000000000000000000000000000000000008000000000000000000100000000000000000000000000000000000000000000000000000000000000000000000000000000000000000000000000000000000000000000000000000000020000000000000000000000000000000000000000000000800000000000000000100000000000000020000000000000000000000040000000000000000",
      "type": "0x2",
      "transactionHash": "0x4ae4277a82c3fc24caa476623f5c16a28455dbc6ad308a5779c18a830f876b6f",
      "transactionIndex": "0x5",
      "blockHash": "0x8cad8d0d25383bf4036d121ff79a3530a23dfaeb27c20e86e9a46086d367c411",
      "blockNumber": "0x143e619",
      "gasUsed": "0x9234",
      "effectiveGasPrice": "0xf4241",
      "from": "0xecf5e30f091d1db7c7b0ef26634a71d46dc9bb25",
      "to": "0xbfbf9fa82b5df3b080be27f64d650101ee69c36f",
      "contractAddress": null
    },
    {
      "status": "0x1",
      "cumulativeGasUsed": "0x3ffda",
      "logs": [
        {
          "address": "0x5605b2e1883428680266fd25cb7429f2001c0c17",
          "topics": [
            "0xbc7cd75a20ee27fd9adebab32041f755214dbc6bffa90cc0225b39da2e5c2d3b",
            "0x0000000000000000000000004510ea78880b7095f1f68f4e8029b776f3c8bea1"
          ],
          "data": "0x",
          "blockHash": "0x8cad8d0d25383bf4036d121ff79a3530a23dfaeb27c20e86e9a46086d367c411",
          "blockNumber": "0x143e619",
          "transactionHash": "0xbbfc3e7a458b6e2fff767ebf2e02ce2506692bfe6b413e6bf0b9aed30686488e",
          "transactionIndex": "0x6",
          "logIndex": "0x6",
          "removed": false
        }
      ],
      "logsBloom": "0x00000000000000000000000000000000400000000000000000000000000000000000000000000000000000000000000000000001000000000000000000000000000000000000000000000000000002000000000000000000000000000000000000000000000000000000000000000000000000000000000008000000000000000000100000000000000000000000000000000000000000000000000000000000000000000000000000000000000000000000000000000000000000000000000000000020000000000000000000000000000000000000000000000000000000000000000000000000000000000000000000000000000000040000010020000000",
      "type": "0x2",
      "transactionHash": "0xbbfc3e7a458b6e2fff767ebf2e02ce2506692bfe6b413e6bf0b9aed30686488e",
      "transactionIndex": "0x6",
      "blockHash": "0x8cad8d0d25383bf4036d121ff79a3530a23dfaeb27c20e86e9a46086d367c411",
      "blockNumber": "0x143e619",
      "gasUsed": "0x924a",
      "effectiveGasPrice": "0xf4241",
      "from": "0xecf5e30f091d1db7c7b0ef26634a71d46dc9bb25",
      "to": "0x5605b2e1883428680266fd25cb7429f2001c0c17",
      "contractAddress": null
    },
    {
      "status": "0x1",
      "cumulativeGasUsed": "0x49224",
      "logs": [
        {
          "address": "0x3863f44fe693764562c0d239e05c5f194544b0b4",
          "topics": [
            "0xbc7cd75a20ee27fd9adebab32041f755214dbc6bffa90cc0225b39da2e5c2d3b",
            "0x0000000000000000000000004510ea78880b7095f1f68f4e8029b776f3c8bea1"
          ],
          "data": "0x",
          "blockHash": "0x8cad8d0d25383bf4036d121ff79a3530a23dfaeb27c20e86e9a46086d367c411",
          "blockNumber": "0x143e619",
          "transactionHash": "0x65e7a29660a2db5b23bebdfb26f99790485d3548299478d22632b5685d72ff7a",
          "transactionIndex": "0x7",
          "logIndex": "0x7",
          "removed": false
        }
      ],
      "logsBloom": "0x00000000000000000000000000000000400000000000000000000000000000000000000000000000000000000000000000000000000000000000000000000000000000000000000000000000000002000000000000000000000000000000000000000000000000000000000000000000000000000000002008000000000000000000100000000000000000000000000000000000000000000000000000000000000000000000000000000000000000000000000000000000000000000000000000000020000000000000000000000000000000400000000000000000000000000000000000000000000000000000000800000000000000040000000000000000",
      "type": "0x2",
      "transactionHash": "0x65e7a29660a2db5b23bebdfb26f99790485d3548299478d22632b5685d72ff7a",
      "transactionIndex": "0x7",
      "blockHash": "0x8cad8d0d25383bf4036d121ff79a3530a23dfaeb27c20e86e9a46086d367c411",
      "blockNumber": "0x143e619",
      "gasUsed": "0x924a",
      "effectiveGasPrice": "0xf4241",
      "from": "0xecf5e30f091d1db7c7b0ef26634a71d46dc9bb25",
      "to": "0x3863f44fe693764562c0d239e05c5f194544b0b4",
      "contractAddress": null
    }
  ],
  "libraries": [],
  "pending": [],
  "returns": {},
  "timestamp": 1778137427297,
  "chain": 2368,
  "commit": "5a45234"
}