{
  "transactions": [
    {
      "hash": "0xc0e9203a489348e28da8af6617104f644cddcfc1f0365ef8b6bd4f1b70cf6425",
      "transactionType": "CALL",
      "contractName": null,
      "contractAddress": "0x55782e7019f4619a06a25bf66d2998c8fe2cc436",
      "function": "setPeer(uint32,bytes32)",
      "arguments": [
        "40415",
        "0x0000000000000000000000009d93f3f2254d7d6f6f4208938b7ce7f9e33c43b3"
      ],
      "transaction": {
        "from": "0xecf5e30f091d1db7c7b0ef26634a71d46dc9bb25",
        "to": "0x55782e7019f4619a06a25bf66d2998c8fe2cc436",
        "gas": "0xf375",
        "value": "0x0",
        "input": "0x3400288b0000000000000000000000000000000000000000000000000000000000009ddf0000000000000000000000009d93f3f2254d7d6f6f4208938b7ce7f9e33c43b3",
        "nonce": "0x10",
        "chainId": "0x66eee"
      },
      "additionalContracts": [],
      "isFixedGasLimit": false
    },
    {
      "hash": "0x273ab5fa5dc91da66429648dfb9984eb5cffb655b4b309eb550f6f9f4ab408c2",
      "transactionType": "CALL",
      "contractName": null,
      "contractAddress": "0x55782e7019f4619a06a25bf66d2998c8fe2cc436",
      "function": "setPeer(uint32,bytes32)",
      "arguments": [
        "40245",
        "0x00000000000000000000000055782e7019f4619a06a25bf66d2998c8fe2cc436"
      ],
      "transaction": {
        "from": "0xecf5e30f091d1db7c7b0ef26634a71d46dc9bb25",
        "to": "0x55782e7019f4619a06a25bf66d2998c8fe2cc436",
        "gas": "0xf375",
        "value": "0x0",
        "input": "0x3400288b0000000000000000000000000000000000000000000000000000000000009d3500000000000000000000000055782e7019f4619a06a25bf66d2998c8fe2cc436",
        "nonce": "0x11",
        "chainId": "0x66eee"
      },
      "additionalContracts": [],
      "isFixedGasLimit": false
    }
  ],
  "receipts": [
    {
      "status": "0x1",
      "cumulativeGasUsed": "0x273b2",
      "logs": [
        {
          "address": "0x55782e7019f4619a06a25bf66d2998c8fe2cc436",
          "topics": [
            "0x238399d427b947898edb290f5ff0f9109849b1c3ba196a42e35f00c50a54b98b"
          ],
          "data": "0x0000000000000000000000000000000000000000000000000000000000009ddf0000000000000000000000009d93f3f2254d7d6f6f4208938b7ce7f9e33c43b3",
          "blockHash": "0xc13d10c8430f9c1bee24b1833f09f863506c371769a68d81b6ee5baa6605c31e",
          "blockNumber": "0xff066c1",
          "blockTimestamp": "0x6a0208cf",
          "transactionHash": "0xc0e9203a489348e28da8af6617104f644cddcfc1f0365ef8b6bd4f1b70cf6425",
          "transactionIndex": "0x2",
          "logIndex": "0x4",
          "removed": false
        }
      ],
      "logsBloom": "0x00000000000000000000000000000000000000000000000000000000000000000000000000000000000000000000000000000000000000000800000000010000000000000000000000000000000000000000000000000000000000000000000000000000000000000000000000000000000000000000000000000000000000000000000000000000000000000000000000000000000000000800000000000000000000000000000000000000000000000000000000000000000002000000000000000000000000000000000000000000000000000000000000040000000000000000000000000000000000000000000000000000000000000000008000000000",
      "type": "0x2",
      "transactionHash": "0xc0e9203a489348e28da8af6617104f644cddcfc1f0365ef8b6bd4f1b70cf6425",
      "transactionIndex": "0x2",
      "blockHash": "0xc13d10c8430f9c1bee24b1833f09f863506c371769a68d81b6ee5baa6605c31e",
      "blockNumber": "0xff066c1",
      "gasUsed": "0xb9c6",
      "effectiveGasPrice": "0x1312d00",
      "from": "0xecf5e30f091d1db7c7b0ef26634a71d46dc9bb25",
      "to": "0x55782e7019f4619a06a25bf66d2998c8fe2cc436",
      "contractAddress": null,
      "gasUsedForL1": "0x0",
      "l1BlockNumber": "0xa55005",
      "timeboosted": false
    },
    {
      "status": "0x1",
      "cumulativeGasUsed": "0x25669",
      "logs": [
        {
          "address": "0x55782e7019f4619a06a25bf66d2998c8fe2cc436",
          "topics": [
            "0x238399d427b947898edb290f5ff0f9109849b1c3ba196a42e35f00c50a54b98b"
          ],
          "data": "0x0000000000000000000000000000000000000000000000000000000000009d3500000000000000000000000055782e7019f4619a06a25bf66d2998c8fe2cc436",
          "blockHash": "0x63aaa72472ffd584c806f7c8d162c135c86aa3fd0c46947e2f1e8a358c180d62",
          "blockNumber": "0xff066cf",
          "blockTimestamp": "0x6a0208d2",
          "transactionHash": "0x273ab5fa5dc91da66429648dfb9984eb5cffb655b4b309eb550f6f9f4ab408c2",
          "transactionIndex": "0x2",
          "logIndex": "0x3",
          "removed": false
        }
      ],
      "logsBloom": "0x00000000000000000000000000000000000000000000000000000000000000000000000000000000000000000000000000000000000000000800000000010000000000000000000000000000000000000000000000000000000000000000000000000000000000000000000000000000000000000000000000000000000000000000000000000000000000000000000000000000000000000800000000000000000000000000000000000000000000000000000000000000000002000000000000000000000000000000000000000000000000000000000000040000000000000000000000000000000000000000000000000000000000000000008000000000",
      "type": "0x2",
      "transactionHash": "0x273ab5fa5dc91da66429648dfb9984eb5cffb655b4b309eb550f6f9f4ab408c2",
      "transactionIndex": "0x2",
      "blockHash": "0x63aaa72472ffd584c806f7c8d162c135c86aa3fd0c46947e2f1e8a358c180d62",
      "blockNumber": "0xff066cf",
      "gasUsed": "0xb9c6",
      "effectiveGasPrice": "0x1313ca0",
      "from": "0xecf5e30f091d1db7c7b0ef26634a71d46dc9bb25",
      "to": "0x55782e7019f4619a06a25bf66d2998c8fe2cc436",
      "contractAddress": null,
      "gasUsedForL1": "0x0",
      "l1BlockNumber": "0xa55005",
      "timeboosted": false
    }
  ],
  "libraries": [],
  "pending": [],
  "returns": {},
  "timestamp": 1778518227033,
  "chain": 421614,
  "commit": "e202616"
}