{
  "transactions": [
    {
      "hash": "0x10cde36404f038eddbc118cb1ae9580d0c33b6d2ee41a243df50a7abadda4557",
      "transactionType": "CREATE",
      "contractName": "TradeAttestationVerifier",
      "contractAddress": "0x3698f60a6761bfdd1511b4c68d000d55ff8fff81",
      "function": null,
      "arguments": [
        "0xECf5e30F091D1db7c7b0ef26634a71d46DC9Bb25"
      ],
      "transaction": {
        "from": "0xecf5e30f091d1db7c7b0ef26634a71d46dc9bb25",
        "gas": "0xbb647",
        "value": "0x0",
        "input": "0x60803460b857601f610a0738819003918201601f19168301916001600160401b0383118484101760bc5780849260209460405283398101031260b857516001600160a01b0381169081900360b857801560a5575f80546001600160a01b031981168317825560405192916001600160a01b03909116907f8be0079c531659141344cd1fd0a4f28419497f9722a3daafe3b4186f6b6457e09080a361093690816100d18239f35b631e4fbdf760e01b5f525f60045260245ffd5b5f80fd5b634e487b7160e01b5f52604160045260245ffdfe6080806040526004361015610012575f80fd5b5f3560e01c9081632916acad1461083c575080632e9bad94146107ce5780634dda55181461078b57806352dae4c31461068057806365b1342c14610663578063715018a61461060c5780637f374daa1461030b5780638cbf5121146102415780638da5cb5b1461021a578063aeb591c7146101e8578063d716ee421461012d5763f2fde38b146100a0575f80fd5b34610129576020366003190112610129576004356001600160a01b03811690819003610129576100ce6108c9565b8015610116575f80546001600160a01b03198116831782556001600160a01b0316907f8be0079c531659141344cd1fd0a4f28419497f9722a3daafe3b4186f6b6457e09080a3005b631e4fbdf760e01b5f525f60045260245ffd5b5f80fd5b346101295760403660031901126101295760043561014961086a565b6101516108c9565b6001600160a01b031680156101d9575f828152600160205260409020546001600160a01b03166101ca5760207f844aebaef6b58c1ac9ca20d442e8daac6dcd22a339a70bbed6385ab64882c3b491835f526001825260405f20816bffffffffffffffffffffffff60a01b825416179055604051908152a2005b630ea075bf60e21b5f5260045ffd5b63d92e233d60e01b5f5260045ffd5b34610129576020366003190112610129576004355f526001602052602060018060a01b0360405f205416604051908152f35b34610129575f366003190112610129575f546040516001600160a01b039091168152602090f35b346101295760203660031901126101295760043561025d6108c9565b5f818152600260205260409020546001600160a01b0381169081156102fc5760a01c67ffffffffffffffff1642106102ed575f828152600260209081526040808320839055600182529182902080546001600160a01b0319166001600160a01b03851617905590519182527f844aebaef6b58c1ac9ca20d442e8daac6dcd22a339a70bbed6385ab64882c3b491a2005b6301b3782160e21b5f5260045ffd5b63147fde5f60e31b5f5260045ffd5b346101295760603660031901126101295760243567ffffffffffffffff811161012957366023820112156101295780600401359067ffffffffffffffff8211610129578181016024810191368311610129576044359167ffffffffffffffff8311610129573660238401121561012957826004013567ffffffffffffffff8111610129578060051b923660248587010111610129576004355f908152600160205260409020546001600160a01b03169283156105fd576040978880516103d18282610880565b36903788516103e08a82610880565b5f5b8a81106105e0575050610100908980516103fc8282610880565b369037036105895761010090829003126101295761041d86602483016108ef565b9580608383011215610129578751916104368984610880565b8260e48201918383116101295760648b9101915b83831061056f575050509061045e916108ef565b906104798851976361971b8760e11b895260048901906108a2565b5f604488015b60028210610531575050506104989060c48701906108a2565b61012061010486015261012485018190526001600160fb1b03106101295783610144818481956024602098018484013781010301915afa908115610527575f916104e9575b50602091519015158152f35b90506020813d60201161051f575b8161050460209383610880565b810103126101295751908115158203610129579060206104dd565b3d91506104f7565b82513d5f823e3d90fd5b89835182905f915b60028310610556575050506020906001920193019101909161047f565b815181528d935060019092019160209182019101610539565b60209061057c86856108ef565b8152019101908a9061044a565b875162461bcd60e51b815260206004820152602a60248201527f54726164654174746573746174696f6e56657269666965723a206261642070726044820152690dedecc40d8cadccee8d60b31b6064820152608490fd5b6020908b516105ef8d82610880565b8c36823781840152016103e2565b635a0e2f2960e01b5f5260045ffd5b34610129575f366003190112610129576106246108c9565b5f80546001600160a01b0319811682556001600160a01b03167f8be0079c531659141344cd1fd0a4f28419497f9722a3daafe3b4186f6b6457e08280a3005b34610129575f3660031901126101295760206040516202a3008152f35b346101295760403660031901126101295760043561069c61086a565b6106a46108c9565b6001600160a01b03169081156101d9576202a30042018042116107775767ffffffffffffffff1660405190604082019082821067ffffffffffffffff83111761076357604091825284835260208084018281525f868152600283528490209451855491516001600160e01b03199092166001600160a01b03919091161760a09190911b67ffffffffffffffff60a01b161790935590519081527fd9b08bca3e0b295927d3f36bb442ea16e34f6c86e5045d86401e7dd72e8382c89190a3005b634e487b7160e01b5f52604160045260245ffd5b634e487b7160e01b5f52601160045260245ffd5b34610129576020366003190112610129576004355f5260026020526040805f205467ffffffffffffffff82519160018060a01b038116835260a01c166020820152f35b34610129576020366003190112610129576004356107ea6108c9565b5f818152600260205260409020546001600160a01b03169081156102fc57805f5260026020525f60408120557fe56c1ed5b4aabd590091793cf35dccea3e37490e6644e738bc0633dae0078a345f80a3005b34610129576020366003190112610129576020906004355f526001825260018060a01b0360405f2054168152f35b602435906001600160a01b038216820361012957565b90601f8019910116810190811067ffffffffffffffff82111761076357604052565b905f905b600282106108b357505050565b60208060019285518152019301910190916108a6565b5f546001600160a01b031633036108dc57565b63118cdaa760e01b5f523360045260245ffd5b9080601f83011215610129576040519161090a604084610880565b82906040810192831161012957905b8282106109265750505090565b813581526020918201910161091956000000000000000000000000ecf5e30f091d1db7c7b0ef26634a71d46dc9bb25",
        "nonce": "0x72",
        "chainId": "0x940"
      },
      "additionalContracts": [],
      "isFixedGasLimit": false
    },
    {
      "hash": "0x5de607f7b297593a041174d648fa1ff012a835c2b408e44ba0b0a73a765b9077",
      "transactionType": "CREATE",
      "contractName": "MomentumV1Verifier",
      "contractAddress": "0x6201037d1490c8f5b5c46729f127f14ff42010ba",
      "function": null,
      "arguments": null,
      "transaction": {
        "from": "0xecf5e30f091d1db7c7b0ef26634a71d46dc9bb25",
        "gas": "0xef157",
        "value": "0x0",
        "input": "0x60808060405234601557610ca6908161001a8239f35b5f80fdfe60806040526004361015610011575f80fd5b5f3560e01c638d15f88f14610024575f80fd5b34610117576102c03660031901126101175761003f3661011b565b3660c4116101175761005036610128565b366102c411610117576101109161040060405261006f61010435610136565b61007b61012435610136565b61008761014435610136565b61009361016435610136565b61009f61018435610136565b6100ab6101a435610136565b6100b76101c435610136565b6100c36101e435610136565b6100cf61020435610136565b6100db61022435610136565b6100e761024435610136565b6100f361026435610136565b6100ff61028435610136565b61010b6102a435610136565b61090f565b5f5260205ff35b5f80fd5b9060049160441161011757565b9060c4916101041161011757565b7f30644e72e131a029b85045b68181585d2833e84879b9709143e1f593f0000001111561015f57565b5f805260205ff35b604051917f2694e5fa801cf1fab9ff8259be82ce319fadc14c7f8b837ee02a32d811027b6383527f21111af762a42dee1fea59e14b59c47bce266ba159a5dbe6a6cd7eb5bf67fb8460208401526040830190815260408360608160076107cf195a01fa1561015f57815190526020810151606083015260409160809060066107cf195a01fa1561015f57565b604051917f1511d9e5c474f19f99489e72040f6c2ba8cb1129fc8f0ee3f6b9c6cc71817b4583527f03cab1ddfc2bfead9325eaf6d739eff2bea02d5e9f8926ddb5ec9da87f05458160208401526040830190815260408360608160076107cf195a01fa1561015f57815190526020810151606083015260409160809060066107cf195a01fa1561015f57565b604051917f2ca77e1d75904ef831135715532f30f46fb8a65f06de57c8395c721b5a90838f83527f077bc5ff7b596235cfefdc7ef124be2b98d94a4cd099b442e2e5913d43ee839860208401526040830190815260408360608160076107cf195a01fa1561015f57815190526020810151606083015260409160809060066107cf195a01fa1561015f57565b604051917f1eb583cfea59f00743b4a76e8a327e9e8b57f5071b6d34c7edec04430303fe1783527f2757d2b1339b7a32200009b9c1683c7d62bb8ecd00c438dd2d763325351d378160208401526040830190815260408360608160076107cf195a01fa1561015f57815190526020810151606083015260409160809060066107cf195a01fa1561015f57565b604051917f1dcad3e827aacb41d8416e68be9613b61ea94307124e7316189f94369ad2948f83527f22b4df3b76d45eff532dd8426dab33b9c07e453904d0b9484be325036d56754b60208401526040830190815260408360608160076107cf195a01fa1561015f57815190526020810151606083015260409160809060066107cf195a01fa1561015f57565b604051917f1439e5e819d96b1b41674d9398da71411021dd783de67a5becafdfc81c3510e483527f0aff3d2fd494e905abfe3f1b04a4559fb6c21f32f2b81c925cefc4fbb204b21260208401526040830190815260408360608160076107cf195a01fa1561015f57815190526020810151606083015260409160809060066107cf195a01fa1561015f57565b604051917f185f5192b2f05e8cc00e766a7eb5875f0c164b10ac640aea9d2fd4cc3586a6dc83527f210699a1f16e3d167bbb5ba4d750f3041663d1aa84952903028862f9095d991860208401526040830190815260408360608160076107cf195a01fa1561015f57815190526020810151606083015260409160809060066107cf195a01fa1561015f57565b604051917f1e2dec08758b53aea77a0e34c3b8848e238f63f526e3b52bdbb2c4def9e1b56e83527f1adaf3d64aa273f38432047a27d71a6838e8b904ced56056ff8bf9da8765a9aa60208401526040830190815260408360608160076107cf195a01fa1561015f57815190526020810151606083015260409160809060066107cf195a01fa1561015f57565b604051917f24165ca07cf6277059312cd0782dacf9642d3b224128b873cdb53886949c861d83527f1a600123941dee234dacfe0805ecffaf127d6c3800a5e11b0c3d3eebb20d275a60208401526040830190815260408360608160076107cf195a01fa1561015f57815190526020810151606083015260409160809060066107cf195a01fa1561015f57565b604051917f0a96023a7d47271ae4a223747d13aa3ce9bb405aee105692269912dc729f2e7883527f23f1d901612b164b8f22a68e4e340d02c0d14afd8ca081dfc385883a5f66c6c160208401526040830190815260408360608160076107cf195a01fa1561015f57815190526020810151606083015260409160809060066107cf195a01fa1561015f57565b604051917f0bba76efa5580cc8d078edce3f464aa3a2989a45b3db5d0ee0a2fe7fa97812a683527f0128e7a55c6f313ca9150a3102263a7799b4b44515c61e8077c2ee562935948360208401526040830190815260408360608160076107cf195a01fa1561015f57815190526020810151606083015260409160809060066107cf195a01fa1561015f57565b604051917f1cd0d5b18d6a8afec71d14c4505b43f6a70e6eb3604e27ec23c6ac90dc19873883527f16983664994474b45c9271b063aa10b021c61b204cca2fc96cc97a60e176713160208401526040830190815260408360608160076107cf195a01fa1561015f57815190526020810151606083015260409160809060066107cf195a01fa1561015f57565b604051917f137d1c7b010962a3db00eb1072b176b3992a79cbe2546a58b6d697f36da9b53083527f0e5093ababe8e8a4c24e121c616368e0116c3600fe400e9004bcd103ba96981360208401526040830190815260408360608160076107cf195a01fa1561015f57815190526020810151606083015260409160809060066107cf195a01fa1561015f57565b604051917f2b5d64225865a76fb9461475a0ff7d724c85e589f3f40a857dd808769d147dd883527f2a4b479e5afd892cdc20f660032c11bacf79b36aedd15acd75144aea43b9564660208401526040830190815260408360608160076107cf195a01fa1561015f57815190526020810151606083015260409160809060066107cf195a01fa1561015f57565b907f30644e72e131a029b85045b68181585d97816a916871ca8d3c208c16d87cfd47602080937f2b74d6e071a4b1e7ac4870d8d0c52b99801b5c0249c486c13ee358fde1a878e96080527f07e05fd2d4364b2b2acdcbdf53196f02b65b7799a7f50b54978a2caf872444b560a05261098b610104356080610167565b6109996101243560806101f3565b6109a761014435608061027f565b6109b561016435608061030b565b6109c3610184356080610397565b6109d16101a4356080610423565b6109df6101c43560806104af565b6109ed6101e435608061053b565b6109fb6102043560806105c7565b610a09610224356080610653565b610a176102443560806106df565b610a2561026435608061076b565b610a336102843560806107f7565b610a416102a4356080610883565b80356101005201358103066101205260443561014052606435610160526084356101805260a4356101a0527f2d4d9aa7e302d9df41749d5507949d05dbea33fbb16c643b22f599a2be6df2e26101c0527f14bedd503c37ceb061d8ec60209fe345ce89830a19230301f076caff004d19266101e0527f0967032fcbf776d1afc985f88877f182d38480a653f2decaa9794cbc3bf3060c610200527f0e187847ad4c798374d0d6732bf501847dd68bc0e071241e0213bc7fc13db7ab610220527f304cfbd1e08a704a99f5e847d93f8c3caafddec46b7a0d379da69a4d112346a7610240527f1739c1b1a457a8c7313123d24d2f9192f896b7c63eea05a9d57f06547ad0cec8610260526080516102805260a0516102a0527f198e9393920d483a7260bfb731fb5d25f1aa493335a9e71297e485b7aef312c26102c0527f1800deef121f1e76426a00665e5c4479674322d4f75edadd46debd5cd992f6ed6102e0527f090689d0585ff075ec9e99ad690c3395bc4b313370b38ef355acdadcd122975b610300527f12c85ea5db8c6deb4aab71808dcb408fe3d1e7690c43d37b4ce6cc0166fa7daa610320528035610340520135610360527f12d0aa1b0428bcb55eb65f1f402852d4a9b908b5835f0a27b9376a4f82219d05610380527f16a782df8b0d38217102ec7a79671ce4d5d3992702a5b946d78284a7bba2ca256103a0527f29f1c24f502add6b759434783a29a514694377329649974f8d1c944dfeb4b1be6103c0527f2d0b655d86d75b43631aab630bd11f74f919435e44a2dc6a37e979920adbad226103e05260206101006103008160086107cf195a01fa61010051169056",
        "nonce": "0x73",
        "chainId": "0x940"
      },
      "additionalContracts": [],
      "isFixedGasLimit": false
    },
    {
      "hash": "0xf90992c9f8dcfe1bcdfcdfedcc2f7d4bca4823ac14609fa5db03b53f34b490d2",
      "transactionType": "CREATE",
      "contractName": "MeanReversionV1VerifierAdapter",
      "contractAddress": "0x66d2eb526438745c6acb2e2f1c6738ce3bfc18e0",
      "function": null,
      "arguments": [
        "0x6201037d1490C8F5b5c46729F127F14Ff42010ba"
      ],
      "transaction": {
        "from": "0xecf5e30f091d1db7c7b0ef26634a71d46dc9bb25",
        "gas": "0x3e232",
        "value": "0x0",
        "input": "0x60a034606f57601f61031338819003918201601f19168301916001600160401b03831184841017607357808492602094604052833981010312606f57516001600160a01b03811690819003606f5760805260405161028b9081610088823960805181818161014201526102260152f35b5f80fd5b634e487b7160e01b5f52604160045260245ffdfe6080806040526004361015610012575f80fd5b5f3560e01c9081634adb772914610214575063c32e370e14610032575f80fd5b346101ba576101203660031901126101ba57366044116101ba573660c4116101ba5736610104116101ba576101043567ffffffffffffffff81116101ba57366023820112156101ba57806004013567ffffffffffffffff81116101ba573660248260051b840101116101ba57600e81036101fd576040516101c06100b68183610255565b3682375f5b600e8110156100f857828110156100e4578060019160051b6024818701013590840152016100bb565b634e487b7160e01b5f52603260045260245ffd5b5060408051638d15f88f60e01b8152919060048084013760445f8382015b600282106101e757505050604060c4808401375f61010483015b600e82106101d157836020816102c4817f00000000000000000000000000000000000000000000000000000000000000006001600160a01b03165afa80156101c6575f90610186575b6020906040519015158152f35b506020813d6020116101be575b816101a060209383610255565b810103126101ba575180151581036101ba57602090610179565b5f80fd5b3d9150610193565b6040513d5f823e3d90fd5b6020806001928551815201930191019091610130565b6040808281866001953701930191019091610116565b6349803a0d60e11b5f52600452600e60245260445ffd5b346101ba575f3660031901126101ba577f00000000000000000000000000000000000000000000000000000000000000006001600160a01b03168152602090f35b90601f8019910116810190811067ffffffffffffffff82111761027757604052565b634e487b7160e01b5f52604160045260245ffd0000000000000000000000006201037d1490c8f5b5c46729f127f14ff42010ba",
        "nonce": "0x74",
        "chainId": "0x940"
      },
      "additionalContracts": [],
      "isFixedGasLimit": false
    },
    {
      "hash": "0xcc506de0dbbc60e2a93b7f9850e8b5d3aa893e05611fdf822355ae572b35d397",
      "transactionType": "CREATE",
      "contractName": "MeanReversionV1Verifier",
      "contractAddress": "0x7cb4c01909e3e46f45423133072f8f86431dac9a",
      "function": null,
      "arguments": null,
      "transaction": {
        "from": "0xecf5e30f091d1db7c7b0ef26634a71d46dc9bb25",
        "gas": "0xeee0d",
        "value": "0x0",
        "input": "0x60808060405234601557610ca3908161001a8239f35b5f80fdfe60806040526004361015610011575f80fd5b5f3560e01c638d15f88f14610024575f80fd5b34610117576102c03660031901126101175761003f3661011b565b3660c4116101175761005036610128565b366102c411610117576101109161040060405261006f61010435610136565b61007b61012435610136565b61008761014435610136565b61009361016435610136565b61009f61018435610136565b6100ab6101a435610136565b6100b76101c435610136565b6100c36101e435610136565b6100cf61020435610136565b6100db61022435610136565b6100e761024435610136565b6100f361026435610136565b6100ff61028435610136565b61010b6102a435610136565b61090c565b5f5260205ff35b5f80fd5b9060049160441161011757565b9060c4916101041161011757565b7f30644e72e131a029b85045b68181585d2833e84879b9709143e1f593f0000001111561015f57565b5f805260205ff35b604051917f2687c3f0732ccafe1f6c2a5d28e874bc1193ad2cf4d40ee97694aa5da580cc0583527f1e67297e629fa879c30971ab44c2c8fd119b4aa794327c240335361bd837253660208401526040830190815260408360608160076107cf195a01fa1561015f57815190526020810151606083015260409160809060066107cf195a01fa1561015f57565b604051917f2e09a02c83d9f88aa5abce164c563c44c4f8bcf48b98a1e1046e62cefbac5d1783527f2787c7ad347149f4898e8ddbe3cffbc2562da379119aed00b42eb712db77222d60208401526040830190815260408360608160076107cf195a01fa1561015f57815190526020810151606083015260409160809060066107cf195a01fa1561015f57565b604051917ee953621c9bcd75a77263fb62fcc745886a8cb645263f49d7679a518dbad2d883527f21e891f34fa143396282c5d7fb9f52dd18e8f3437259e318448d9b518cf8a56f60208401526040830190815260408360608160076107cf195a01fa1561015f57815190526020810151606083015260409160809060066107cf195a01fa1561015f57565b604051917f1e3c83574c9536769898ba3aec42c942b5a9e996fc5396513c66e904d6e4774a83527f2b71a264e0e3c0d44bb5fbd02d6df0e3a32b3d0e1d21d315c05b02c28dbc518460208401526040830190815260408360608160076107cf195a01fa1561015f57815190526020810151606083015260409160809060066107cf195a01fa1561015f57565b604051917f1fa93a2fa8d61367ac9f6101ab4abb817bd4c57b8fcab91f0c8f087445b052f983527f0cf8152b0f55819590c4dc10353fae634d6f8c9d1c17d88a13bf8e83e94c4daf60208401526040830190815260408360608160076107cf195a01fa1561015f57815190526020810151606083015260409160809060066107cf195a01fa1561015f57565b604051917e77c20ba60112ca61a1b1879b1b4f7fa3e8a1e2d86a4ddaad685393a63339c783527f04ad8182b323b585bb2242d0da56939a3ba149e63be79764e414841f71e8d41c60208401526040830190815260408360608160076107cf195a01fa1561015f57815190526020810151606083015260409160809060066107cf195a01fa1561015f57565b604051917f1bb8c2e55ee9f3e80e5f8e6172f13339cbffc76640b1d815aba5ed9a0b6d234783527f06439e9917335cd6f406e8e4277e80eca2d8a65171376be24b6581af456bad5160208401526040830190815260408360608160076107cf195a01fa1561015f57815190526020810151606083015260409160809060066107cf195a01fa1561015f57565b604051917f1fd1fe8030b287b348d5ce96d34ae7e92b51fc4f0e784a4779cd4a09f957f0c183527f13733766f645778084f39a6d5123ef6151ec77c9006fa366756e3a5a80c35e3e60208401526040830190815260408360608160076107cf195a01fa1561015f57815190526020810151606083015260409160809060066107cf195a01fa1561015f57565b604051917f12d455cef80bed14b024b2f71b2504f7110720abf7c6e2b3b737590000af3ac183527f20f356f6d5e83b925a2690f2c07ec56e8b8d4d68c16d5763bdc9bd198190052b60208401526040830190815260408360608160076107cf195a01fa1561015f57815190526020810151606083015260409160809060066107cf195a01fa1561015f57565b604051917f1b97b2b18cfabbb47eda2411b44fce8658ba6ee4cd46d405afdece130ec38b0783527f2a029f01bc3b4f77e1408512eadabf16a704364203a9e6fbc21e8706ca7a039b60208401526040830190815260408360608160076107cf195a01fa1561015f57815190526020810151606083015260409160809060066107cf195a01fa1561015f57565b604051917f0d56eb63cda99bbcb5d25485770e4dfa3b5db4bcaf5b90376311aa6ba65e1d4b83527f07da9ec5f0b2f871a90fef5a1faf55972a5a9919d6ebd1547ce7b2fcb7bbb97e60208401526040830190815260408360608160076107cf195a01fa1561015f57815190526020810151606083015260409160809060066107cf195a01fa1561015f57565b604051917f025243fe1e78082b4cb63a2726c63eb20591a68cd25c79ccb2c6f490df4b6e2383527f0f65110535374d1e1dc33e0f2eb32ed2f5a56073d4b0e202c94923dacbf63a4060208401526040830190815260408360608160076107cf195a01fa1561015f57815190526020810151606083015260409160809060066107cf195a01fa1561015f57565b604051917f1cf7f0d9a2e0be9db927033d62509d6c7be4d4146b086c8abafb5fd5f58f6a9383527e5d8aa4f24246948ac1cd78f9d160582c2c2ad43e873888bd4e5745efec78cb60208401526040830190815260408360608160076107cf195a01fa1561015f57815190526020810151606083015260409160809060066107cf195a01fa1561015f57565b604051917f102e2ff4023482fa1bc5a3a6152ba52eda81a382bd47864448a281af254aa5ae83527f1cc68db185f415038316d462d9b4e4465a3010d52ad1da1c1de6408c81e9d3b160208401526040830190815260408360608160076107cf195a01fa1561015f57815190526020810151606083015260409160809060066107cf195a01fa1561015f57565b907f30644e72e131a029b85045b68181585d97816a916871ca8d3c208c16d87cfd47602080937f09935f39fdbf672397054ffc9184fb483e280dcfd0c8b76022d669c3e3bfc3f56080527f20918a8e7df8acbb1da26697a17b353308bffa493bed841e2bf18c4805dfd17a60a052610988610104356080610167565b6109966101243560806101f3565b6109a461014435608061027f565b6109b261016435608061030a565b6109c0610184356080610396565b6109ce6101a4356080610422565b6109dc6101c43560806104ad565b6109ea6101e4356080610539565b6109f86102043560806105c5565b610a06610224356080610651565b610a146102443560806106dd565b610a22610264356080610769565b610a306102843560806107f5565b610a3e6102a4356080610880565b80356101005201358103066101205260443561014052606435610160526084356101805260a4356101a0527f2d4d9aa7e302d9df41749d5507949d05dbea33fbb16c643b22f599a2be6df2e26101c0527f14bedd503c37ceb061d8ec60209fe345ce89830a19230301f076caff004d19266101e0527f0967032fcbf776d1afc985f88877f182d38480a653f2decaa9794cbc3bf3060c610200527f0e187847ad4c798374d0d6732bf501847dd68bc0e071241e0213bc7fc13db7ab610220527f304cfbd1e08a704a99f5e847d93f8c3caafddec46b7a0d379da69a4d112346a7610240527f1739c1b1a457a8c7313123d24d2f9192f896b7c63eea05a9d57f06547ad0cec8610260526080516102805260a0516102a0527f198e9393920d483a7260bfb731fb5d25f1aa493335a9e71297e485b7aef312c26102c0527f1800deef121f1e76426a00665e5c4479674322d4f75edadd46debd5cd992f6ed6102e0527f090689d0585ff075ec9e99ad690c3395bc4b313370b38ef355acdadcd122975b610300527f12c85ea5db8c6deb4aab71808dcb408fe3d1e7690c43d37b4ce6cc0166fa7daa610320528035610340520135610360527f2deea774823165ace6ade5dc8d501f5d108ab6d2a8ac9c1f32b688e941a91686610380527f2605c1d45ddf5ddbb86468ffe202b8cf7fff242a31ccaeaebf0245000a9308aa6103a0527f08cf926ccbc15fe301984a8078c7dca8bb2b6fe4e920dae8aa1f778a8950b6e16103c0527f249c8a134d44356c9c7b548c2ca5c71b1b57b33cec0131ed5db646db213553446103e05260206101006103008160086107cf195a01fa61010051169056",
        "nonce": "0x75",
        "chainId": "0x940"
      },
      "additionalContracts": [],
      "isFixedGasLimit": false
    },
    {
      "hash": "0x9898e794a5827882e887aa1891f554668a216924dc9e0fe6205d469a727556a7",
      "transactionType": "CREATE",
      "contractName": "MeanReversionV1VerifierAdapter",
      "contractAddress": "0xd52f10d74f4a212347812e78ca42136105d754c9",
      "function": null,
      "arguments": [
        "0x7Cb4C01909E3E46f45423133072F8F86431daC9a"
      ],
      "transaction": {
        "from": "0xecf5e30f091d1db7c7b0ef26634a71d46dc9bb25",
        "gas": "0x3e232",
        "value": "0x0",
        "input": "0x60a034606f57601f61031338819003918201601f19168301916001600160401b03831184841017607357808492602094604052833981010312606f57516001600160a01b03811690819003606f5760805260405161028b9081610088823960805181818161014201526102260152f35b5f80fd5b634e487b7160e01b5f52604160045260245ffdfe6080806040526004361015610012575f80fd5b5f3560e01c9081634adb772914610214575063c32e370e14610032575f80fd5b346101ba576101203660031901126101ba57366044116101ba573660c4116101ba5736610104116101ba576101043567ffffffffffffffff81116101ba57366023820112156101ba57806004013567ffffffffffffffff81116101ba573660248260051b840101116101ba57600e81036101fd576040516101c06100b68183610255565b3682375f5b600e8110156100f857828110156100e4578060019160051b6024818701013590840152016100bb565b634e487b7160e01b5f52603260045260245ffd5b5060408051638d15f88f60e01b8152919060048084013760445f8382015b600282106101e757505050604060c4808401375f61010483015b600e82106101d157836020816102c4817f00000000000000000000000000000000000000000000000000000000000000006001600160a01b03165afa80156101c6575f90610186575b6020906040519015158152f35b506020813d6020116101be575b816101a060209383610255565b810103126101ba575180151581036101ba57602090610179565b5f80fd5b3d9150610193565b6040513d5f823e3d90fd5b6020806001928551815201930191019091610130565b6040808281866001953701930191019091610116565b6349803a0d60e11b5f52600452600e60245260445ffd5b346101ba575f3660031901126101ba577f00000000000000000000000000000000000000000000000000000000000000006001600160a01b03168152602090f35b90601f8019910116810190811067ffffffffffffffff82111761027757604052565b634e487b7160e01b5f52604160045260245ffd0000000000000000000000007cb4c01909e3e46f45423133072f8f86431dac9a",
        "nonce": "0x76",
        "chainId": "0x940"
      },
      "additionalContracts": [],
      "isFixedGasLimit": false
    },
    {
      "hash": "0x4b041dc821bc766a82ab4a571a1cfcb5be5c573eb7e2ec73da2b6183e6544de9",
      "transactionType": "CALL",
      "contractName": "TradeAttestationVerifier",
      "contractAddress": "0x3698f60a6761bfdd1511b4c68d000d55ff8fff81",
      "function": "registerVerifier(bytes32,address)",
      "arguments": [
        "0x2a9aa442064b635baec37a7a259282faa5563a653a8325378d5676c6f04bc9dd",
        "0x66d2eb526438745C6acb2e2F1C6738Ce3bFC18E0"
      ],
      "transaction": {
        "from": "0xecf5e30f091d1db7c7b0ef26634a71d46dc9bb25",
        "to": "0x3698f60a6761bfdd1511b4c68d000d55ff8fff81",
        "gas": "0x11454",
        "value": "0x0",
        "input": "0xd716ee422a9aa442064b635baec37a7a259282faa5563a653a8325378d5676c6f04bc9dd00000000000000000000000066d2eb526438745c6acb2e2f1c6738ce3bfc18e0",
        "nonce": "0x77",
        "chainId": "0x940"
      },
      "additionalContracts": [],
      "isFixedGasLimit": false
    },
    {
      "hash": "0x2f5c28ec1de049f5566755474f7baae19576d90872004a4465b0395ac85839e7",
      "transactionType": "CALL",
      "contractName": "TradeAttestationVerifier",
      "contractAddress": "0x3698f60a6761bfdd1511b4c68d000d55ff8fff81",
      "function": "registerVerifier(bytes32,address)",
      "arguments": [
        "0x18602f4f74172d545f5258541634e1a125c3a4e1227ee2a4cbee957d3490f1fb",
        "0xd52F10D74F4A212347812E78cA42136105d754C9"
      ],
      "transaction": {
        "from": "0xecf5e30f091d1db7c7b0ef26634a71d46dc9bb25",
        "to": "0x3698f60a6761bfdd1511b4c68d000d55ff8fff81",
        "gas": "0x11454",
        "value": "0x0",
        "input": "0xd716ee4218602f4f74172d545f5258541634e1a125c3a4e1227ee2a4cbee957d3490f1fb000000000000000000000000d52f10d74f4a212347812e78ca42136105d754c9",
        "nonce": "0x78",
        "chainId": "0x940"
      },
      "additionalContracts": [],
      "isFixedGasLimit": false
    },
    {
      "hash": "0xdd5cf40d8a97abba94ee8d4d59f7a66eed2bb396431b6bcbe4d01fb8ba185e58",
      "transactionType": "CALL",
      "contractName": "TradeAttestationVerifier",
      "contractAddress": "0x3698f60a6761bfdd1511b4c68d000d55ff8fff81",
      "function": "registerVerifier(bytes32,address)",
      "arguments": [
        "0x2e882135c6afc3bda02a9c8a7c6a351198d97599c804a2575a3d616073a87251",
        "0xdA1572E9E8466e04A160AF33AD29B569117Be7Be"
      ],
      "transaction": {
        "from": "0xecf5e30f091d1db7c7b0ef26634a71d46dc9bb25",
        "to": "0x3698f60a6761bfdd1511b4c68d000d55ff8fff81",
        "gas": "0x11454",
        "value": "0x0",
        "input": "0xd716ee422e882135c6afc3bda02a9c8a7c6a351198d97599c804a2575a3d616073a87251000000000000000000000000da1572e9e8466e04a160af33ad29b569117be7be",
        "nonce": "0x79",
        "chainId": "0x940"
      },
      "additionalContracts": [],
      "isFixedGasLimit": false
    },
    {
      "hash": "0x54df9f310cc1a6072414124eaf0b1399573a6fd11a9fd7309e3e46495b30bc28",
      "transactionType": "CREATE",
      "contractName": "StrategyVault",
      "contractAddress": "0x934f7639e5cb320e4394736f5663b53e9c6b5c7b",
      "function": null,
      "arguments": [
        "0x566e1F1B5bD7109F2C86805e2c092502D1B2f9f4",
        "0x345cd375EC42476EB95c5903fb3aBB27F9400f9D"
      ],
      "transaction": {
        "from": "0xecf5e30f091d1db7c7b0ef26634a71d46dc9bb25",
        "gas": "0x3cee4c",
        "value": "0x0",
        "input": "0x60e03461016a57601f6137b838819003918201601f19168301916001600160401b0383118484101761016e57808492604094855283398101031261016a57610052602061004b83610182565b9201610182565b30608052906001600160a01b038116158015610159575b61014a5760a05260c0525f5160206137985f395f51905f525460ff8160401c1661013b576002600160401b03196001600160401b038216016100e5575b60405161360190816101978239608051818181611bad0152611c3f015260a0518181816121480152612732015260c05181818161033d01526110560152f35b6001600160401b0319166001600160401b039081175f5160206137985f395f51905f52556040519081527fc7f505b2f371ae2175ee4913f4499e1f2633a7b5936321eed1cdaeb6115181d290602090a15f6100a6565b63f92ee8a960e01b5f5260045ffd5b63d92e233d60e01b5f5260045ffd5b506001600160a01b03821615610069565b5f80fd5b634e487b7160e01b5f52604160045260245ffd5b51906001600160a01b038216820361016a5756fe6080806040526004361015610012575f80fd5b5f3560e01c908163118fd97614612761575080631663cd9e1461271d578063170f06de146120155780632b7ac3f314611fed5780633042192714611fd05780633f4ba83a14611f5257806341b6c90c14611f2f57806343fc010614611f0057806346ef1e5614611de357806349d4640d14611dbb5780634f1ef28614611c0157806352d1902d14611b9b57806359ea2d8e14611b785780635c975abb14611b4a578063636c6acd1461123f578063715018a6146111d857806373b8f9ee1461119c57806373c4c785146110d957806376985129146110ad5780637b1039991461108557806380958cb5146110415780638456cb5914610fd057806384b0196e14610e865780638da5cb5b14610e525780639806ca6e14610de957806399e0520214610dc15780639d85b41614610d485780639fd22e5114610cc8578063a4f82f2714610c90578063ad3cb1cc14610c45578063b15f554b14610a36578063b9b8af0b14610a11578063c8434711146109f0578063cdf456e1146109c8578063d4978f1d146109a0578063d700c0441461086b578063e658ea03146107be578063f2fde38b14610793578063f5baf0d71461061b5763feecdea2146101d4575f80fd5b346105b5576101e2366127e1565b6003549395909390915060101c6001600160a01b0316330361060c57600b5460ff8160a01c166105fd57610214612b00565b61021c612b27565b600d83106105ee5782600110156104a6575f54806020880135036105df5783600210156104a6573060408801356001600160a01b0316036105d05783600310156104a657610268613205565b6060880135036105c15783600410156104a657600754604051635543cb2760e11b81526004810192909252602090829060249082906001600160a01b03165afa908115610507575f9161058b575b5060808701350361057c5782600910156104a6576001600160a01b039081166101208701359091160361056d5781600c10156104a6576101808501359283431061055e5782600b10156104a65761016086013580431161054f5783600810156104a657604051636d9833e360e01b81526101008801356004820181905292906020816024817f00000000000000000000000000000000000000000000000000000000000000006001600160a01b03165afa908115610507575f91610530575b50156105215784156104a657873596875f52600f60205260ff60405f2054166105125760208991895f52600f825260405f20600160ff1982541617905560018060a01b03600854165f5497886103e28b60405197889687958695633f9ba6d560e11b875260048701612b74565b03915afa908115610507575f916104d8575b50156104c9576104ba57600b546001600160a01b03169360058111156104a65780600610156104a657600710156104a6576001600160401b038695819360e06104949a60405197885260a0810135602089015260c081013560408901520135606087015260808601521660a08401521660c08201527f65ca243fba541f40273163048b67bca987896537a1fb14da12e39657da30b15660e03092a4612c05565b5f5f5160206135c15f395f51905f525d005b634e487b7160e01b5f52603260045260245ffd5b63f6e9d10960e01b5f5260045ffd5b6309bde33960e01b5f5260045ffd5b6104fa915060203d602011610500575b6104f28183612884565b810190612b5c565b5f6103f4565b503d6104e8565b6040513d5f823e3d90fd5b6307eb960560e51b5f5260045ffd5b632cd0813760e21b5f5260045ffd5b610549915060203d602011610500576104f28183612884565b5f610375565b633ddfdb7f60e11b5f5260045ffd5b633fe7e39760e01b5f5260045ffd5b6346d5c81760e01b5f5260045ffd5b631c5ee0bb60e31b5f5260045ffd5b90506020813d6020116105b9575b816105a660209383612884565b810103126105b557515f6102b6565b5f80fd5b3d9150610599565b63b1561fdb60e01b5f5260045ffd5b63c1faacc560e01b5f5260045ffd5b639ba2469b60e01b5f5260045ffd5b630720be9760e11b5f5260045ffd5b631184d5b960e11b5f5260045ffd5b631f0853c160e21b5f5260045ffd5b346105b5575f3660031901126105b5575f60c060405161063a81612869565b828152606060208201528260408201528260608201528260808201528260a0820152015260405161066a81612869565b5f54815260405180816020600154928381520160015f5260205f20925f5b81811061077157505061069d92500382612884565b60208201908152600254916040810192835260035492606082019361ffff81168552608083019060018060a01b039060101c1681526004549060a084019182526005549260c085019384526040519560208752610100870195516020880152519460e060408801528551809152602061012088019601905f5b81811061075257505050859661ffff915160608801525116608086015260018060a01b0390511660a08501525160c08401525160e08301520390f35b82516001600160a01b0316885260209788019790920191600101610716565b84546001600160a01b0316835260019485019486945060209093019201610688565b346105b55760203660031901126105b5576107bc6107af612853565b6107b7612d3f565b612a8f565b005b346105b55760203660031901126105b5576004356001600160401b0381116105b5576107ee903690600401612784565b6007549091906001600160a01b0316330361085c576108577f7e947095ed288d8885423bdaef4015b7420ffa9b84d62ef67c402e8bc36a8ea991600160a01b60ff60a01b19600b541617600b556040519182915f83526040602084015230956040840191612a6f565b0390a2005b633217675b60e21b5f5260045ffd5b346105b55760203660031901126105b557600b54600435906001600160a01b03811633036109915760a01c60ff166105fd576108a5612b00565b6108ad612b27565b80156109825760018060a01b0360065416906040516323b872dd60e01b5f5233600452306024528160445260205f60648180875af19060015f5114821615610961575b6040525f6060521561094e5761092190335f52600e60205260405f20610917828254612a62565b9055600c54612a62565b80600c556002541061093f575f5f5160206135c15f395f51905f525d005b6304ffa0ff60e51b5f5260045ffd5b50635274afe760e01b5f5260045260245ffd5b90600181151661097957833b15153d151616906108f0565b503d5f823e3d90fd5b63a4a7b87f60e01b5f5260045ffd5b63e2c44ab760e01b5f5260045ffd5b346105b5575f3660031901126105b5576009546040516001600160a01b039091168152602090f35b346105b5575f3660031901126105b5576006546040516001600160a01b039091168152602090f35b346105b5575f3660031901126105b557602061ffff60135416604051908152f35b346105b5575f3660031901126105b557602060ff600b5460a01c166040519015158152f35b346105b55760203660031901126105b5576004356001600160401b0381116105b557610a66903690600401612784565b6003543360109190911c6001600160a01b0316141580610c30575b610c21578101906060818303126105b55780356020820135916001600160401b038316938484036105b55760408201356001600160401b0381116105b557610ac992016128c0565b92600d54936001600160401b038516821115610c12576102588201808311610bef574211610c035760025480600a0290600a820403610bef578311610be057610b65610b6e91610b6060405160208101907f9b934f447d6df1cf05665bf289b0a4c61af0efc33c9f66abef264a095e0b653e825287604082015286606082015260608152610b58608082612884565b519020613017565b6132c9565b90929192613303565b600a546001600160a01b03908116911603610bd157806107bc9483600c556001600160401b03191617600d556040519082825260208201527fdfdec6e6a8af39be1c1348fe48ad04832dd081c1c72176ced4ed1a782e9ff0fc60403092a2613099565b63100d211760e11b5f5260045ffd5b638b9f528760e01b5f5260045ffd5b634e487b7160e01b5f52601160045260245ffd5b634c08a0a160e11b5f5260045ffd5b630c5d582f60e01b5f5260045ffd5b63233919ad60e11b5f5260045ffd5b50600a546001600160a01b0316331415610a81565b346105b5575f3660031901126105b557610c8c604051610c66604082612884565b60058152640352e302e360dc1b6020820152604051918291602083526020830190612906565b0390f35b346105b55760203660031901126105b5576001600160a01b03610cb1612853565b165f52600e602052602060405f2054604051908152f35b346105b55760203660031901126105b557610ce1612853565b610ce9612d3f565b601380546301000000600160b81b03198116601884811b6301000000600160b81b0316919091179092556001600160a01b0392831692911c167fdc7a3622b2d188cbfdfab2567a4966ecdbeb40c6df8471a12618adc105750b8b5f80a3005b346105b55760403660031901126105b5576024356001600160401b0381168091036105b557610db9602091604051838101917f9b934f447d6df1cf05665bf289b0a4c61af0efc33c9f66abef264a095e0b653e83526004356040830152606082015260608152610b58608082612884565b604051908152f35b346105b5575f3660031901126105b557600b546040516001600160a01b039091168152602090f35b346105b55760203660031901126105b55760043561ffff81168091036105b557610e11612d3f565b6013547f636b79f1ce0724f5f16819701d2375d71e639559aaf59e4218339c40795d48356040805161ffff84168152846020820152a161ffff191617601355005b346105b5575f3660031901126105b5575f5160206135415f395f51905f52546040516001600160a01b039091168152602090f35b346105b5575f3660031901126105b5577fa16a46d94261c7517cc8ff89f61c0ce93598e3c849801011dee649a6a557d100541580610fa7575b15610f6a57610f0e610ecf612e9b565b610ed7612f6a565b6020610f1c60405192610eea8385612884565b5f84525f368137604051958695600f60f81b875260e08588015260e0870190612906565b908582036040870152612906565b4660608501523060808501525f60a085015283810360c08501528180845192838152019301915f5b828110610f5357505050500390f35b835185528695509381019392810192600101610f44565b60405162461bcd60e51b81526020600482015260156024820152741152540dcc4c8e88155b9a5b9a5d1a585b1a5e9959605a1b6044820152606490fd5b507fa16a46d94261c7517cc8ff89f61c0ce93598e3c849801011dee649a6a557d1015415610ebf565b346105b5575f3660031901126105b557610fe8612d3f565b610ff0612b00565b600160ff195f5160206135a15f395f51905f525416175f5160206135a15f395f51905f52557f62e78cea01bee320cd4e420270b5ea74000d11b0c9f74754ebdbfc544b05a2586020604051338152a1005b346105b5575f3660031901126105b5576040517f00000000000000000000000000000000000000000000000000000000000000006001600160a01b03168152602090f35b346105b5575f3660031901126105b5576007546040516001600160a01b039091168152602090f35b346105b5575f3660031901126105b55760135460405160189190911c6001600160a01b03168152602090f35b346105b55760403660031901126105b5576110f2612853565b600b54602435906001600160a01b0316330361099157611110612b27565b6001600160a01b0382165f818152600e6020526040902054909290821161118d5761113a90612d90565b811161117e57610494915f52600e60205260405f2061115a82825461299e565b905561116881600c5461299e565b600c5560065433906001600160a01b0316612deb565b6366427f6960e01b5f5260045ffd5b6349498d8760e11b5f5260045ffd5b346105b55760203660031901126105b5576111b5612853565b600b546001600160a01b0316330361099157610494906111d3612b27565b6129ab565b346105b5575f3660031901126105b5576111f0612d3f565b5f5160206135415f395f51905f5280546001600160a01b031981169091555f906001600160a01b03167f8be0079c531659141344cd1fd0a4f28419497f9722a3daafe3b4186f6b6457e08280a3005b346105b55760203660031901126105b5576004356001600160401b0381116105b5578060040161014060031983360301126105b5575f5160206135e15f395f51905f5254906001600160401b0360ff8360401c1615921680159081611b42575b6001149081611b38575b159081611b2f575b50611b20578160016001600160401b03195f5160206135e15f395f51905f525416175f5160206135e15f395f51905f5255611af0575b6001600160a01b0361130460806112fe848061292a565b0161293f565b16158015611ad4575b8015611ab8575b8015611a9c575b8015611a80575b8015611a64575b8015611a48575b8015611a2c575b8015611a0f575b80156119f2575b6119e357611369611359610124850161293f565b61136161329e565b6107b761329e565b60409283516113788582612884565b601381527212195b1a5bdcd4dd1c985d1959de55985d5b1d606a1b60208201528451906113a58683612884565b60018252603160f81b60208301526113bb61329e565b6113c361329e565b8051906001600160401b0382116117fe5781906113ed5f5160206135215f395f51905f5254612e63565b601f8111611989575b50602090601f831160011461190b575f92611900575b50508160011b915f199060031b1c1916175f5160206135215f395f51905f52555b8051906001600160401b0382116117fe5781906114575f5160206135615f395f51905f5254612e63565b601f811161189b575b50602090601f831160011461181d575f92611812575b50508160011b915f199060031b1c1916175f5160206135615f395f51905f52555b5f7fa16a46d94261c7517cc8ff89f61c0ce93598e3c849801011dee649a6a557d100555f7fa16a46d94261c7517cc8ff89f61c0ce93598e3c849801011dee649a6a557d101556114e561329e565b6114ef828061292a565b80355f556115006020820182612953565b906001600160401b0382116117fe57600160401b82116117fe57600154826001558083106117c4575b5060015f5260205f205f5b8381106117a957505050508481013560025560608101359061ffff82168092036105b55760c09161ffff1960035416176003556115736080820161293f565b6003805462010000600160b01b03191660109290921b62010000600160b01b031691909117905560a081013560045501356005556001600160a01b036115bb6024830161293f565b166001600160601b0360a01b600654161760065560018060a01b036115e26044830161293f565b166001600160601b0360a01b600754161760075560018060a01b036116096064830161293f565b166001600160601b0360a01b600854161760085560018060a01b036116306084830161293f565b166001600160601b0360a01b600954161760095560018060a01b0361165760a4830161293f565b166001600160601b0360a01b600a541617600a5560018060a01b0361167e60c4830161293f565b166001600160601b0360a01b600b541617600b5560018060a01b036116a560e4830161293f565b166001600160601b0360a01b60105416176010556116cd61010460018060a01b03920161293f565b166001600160601b0360a01b60115416176011555f5b6116fa6116f0838061292a565b6020810190612953565b9050811015611750576117106116f0838061292a565b9091908110156104a6576001916001600160a01b039061173590600584901b0161293f565b165f526012602052845f208260ff19825416179055016116e3565b505061175857005b60207fc7f505b2f371ae2175ee4913f4499e1f2633a7b5936321eed1cdaeb6115181d29160ff60401b195f5160206135e15f395f51905f5254165f5160206135e15f395f51905f52555160018152a1005b60019060206117b78561293f565b9401938184015501611534565b60015f526117f8907fb10e2d527612073b26eecdfd717e6a320cf44b4afac2b0732d9fcbe2b7fa0cf6908101908401612988565b87611529565b634e487b7160e01b5f52604160045260245ffd5b015190508680611476565b5f5160206135615f395f51905f525f9081528281209350601f198516905b818110611883575090846001959493921061186b575b505050811b015f5160206135615f395f51905f5255611497565b01515f1960f88460031b161c19169055868080611851565b9293602060018192878601518155019501930161183b565b5f5160206135615f395f51905f525f526118f0907f5f9ce34815f8e11431c7bb75a8e6886a91478f7ffc1dbb0a98dc240fddd76b75601f850160051c810191602086106118f6575b601f0160051c0190612988565b87611460565b90915081906118e3565b01519050878061140c565b5f5160206135215f395f51905f525f9081528281209350601f198516905b8181106119715750908460019594939210611959575b505050811b015f5160206135215f395f51905f525561142d565b01515f1960f88460031b161c1916905587808061193f565b92936020600181928786015181550195019301611929565b5f5160206135215f395f51905f525f526119dd907f42ad5d3e1f2e6e70edcf6d991b8a3023d3fca8047a131592f9edb9fd9b89d57d601f850160051c810191602086106118f657601f0160051c0190612988565b886113f6565b63d92e233d60e01b5f5260045ffd5b506001600160a01b03611a08610124850161293f565b1615611345565b506001600160a01b03611a25610104850161293f565b161561133e565b506001600160a01b03611a4160e4850161293f565b1615611337565b506001600160a01b03611a5d60c4850161293f565b1615611330565b506001600160a01b03611a7960a4850161293f565b1615611329565b506001600160a01b03611a956084850161293f565b1615611322565b506001600160a01b03611ab16064850161293f565b161561131b565b506001600160a01b03611acd6044850161293f565b1615611314565b506001600160a01b03611ae96024850161293f565b161561130d565b600160401b60ff60401b195f5160206135e15f395f51905f525416175f5160206135e15f395f51905f52556112e7565b63f92ee8a960e01b5f5260045ffd5b905015846112b1565b303b1591506112a9565b83915061129f565b346105b5575f3660031901126105b557602060ff5f5160206135a15f395f51905f5254166040519015158152f35b346105b55760203660031901126105b5576020610db9611b96612853565b612d90565b346105b5575f3660031901126105b5577f00000000000000000000000000000000000000000000000000000000000000006001600160a01b03163003611bf25760206040515f5160206135815f395f51905f528152f35b63703e46dd60e11b5f5260045ffd5b60403660031901126105b557611c15612853565b6024356001600160401b0381116105b557611c349036906004016128c0565b906001600160a01b037f000000000000000000000000000000000000000000000000000000000000000016308114908115611d99575b50611bf257611c77612d3f565b6040516352d1902d60e01b81526001600160a01b0382169290602081600481875afa5f9181611d65575b50611cb95783634c9c8ce360e01b5f5260045260245ffd5b805f5160206135815f395f51905f52859203611d535750823b15611d41575f5160206135815f395f51905f5280546001600160a01b031916821790557fbc7cd75a20ee27fd9adebab32041f755214dbc6bffa90cc0225b39da2e5c2d3b5f80a2805115611d29576107bc91613363565b505034611d3257005b63b398979f60e01b5f5260045ffd5b634c9c8ce360e01b5f5260045260245ffd5b632a87526960e21b5f5260045260245ffd5b9091506020813d602011611d91575b81611d8160209383612884565b810103126105b557519085611ca1565b3d9150611d74565b5f5160206135815f395f51905f52546001600160a01b03161415905083611c6a565b346105b5575f3660031901126105b557600a546040516001600160a01b039091168152602090f35b346105b55760203660031901126105b557611dfc612853565b611e04612d3f565b5f5160206135e15f395f51905f525460ff8160401c16908115611eeb575b50611b20575f5160206135e15f395f51905f52805467ffffffffffffffff19811660029081179092556001600160a01b039092169168ffffffffffffffffff19161781156119e357600880546001600160a01b0319811684179091556040517fc7f505b2f371ae2175ee4913f4499e1f2633a7b5936321eed1cdaeb6115181d29360209391926001600160a01b03167f5aebb9f6cc916cff4eaffcdfeb63e3bf14269f3d55f76ff336d4e1aa556269a45f80a35f5160206135e15f395f51905f525560028152a1005b600291506001600160401b0316101582611e22565b346105b55760203660031901126105b5576004355f52600f602052602060ff60405f2054166040519015158152f35b346105b5575f3660031901126105b557602060ff60135460101c16604051908152f35b346105b5575f3660031901126105b557611f6a612d3f565b5f5160206135a15f395f51905f525460ff811615611fc15760ff19165f5160206135a15f395f51905f52557f5db9ee0a495bf2e6ff9c91a7834c1ba4fdd244a5e8aa4e537bd38aeae4b073aa6020604051338152a1005b638dfc202b60e01b5f5260045ffd5b346105b5575f3660031901126105b5576020600c54604051908152f35b346105b5575f3660031901126105b5576008546040516001600160a01b039091168152602090f35b346105b557612023366127e1565b600354909592949193929060101c6001600160a01b0316330361060c57600b5460ff8160a01c166105fd57612056612b00565b61205e612b27565b600e86106105ee5785600110156104a6575f546020850135036105df5785600210156104a6573060408501356001600160a01b0316036105d05785600310156104a6576120a9613205565b6060850135036105c15785600410156104a6576001600160a01b0390811660808501359091160361056d5760015485600510156104a6578060a08501351090811591612705575b506126f65784600b10156104a657610160830135431061055e5784600c10156104a657610180830135431161054f5784600d10156104a6576040516349ddf27f60e11b81526101a084013560048201526020816024817f00000000000000000000000000000000000000000000000000000000000000006001600160a01b03165afa8015610507575f906126ad575b6001600160401b03915016801561269e5760b48101809111610bef57421161268f5784156104a65782355f52600f60205260ff60405f20541661051257829160209183355f52600f835260405f20600160ff1982541617905560018060a01b0360085416905f546122078960405197889687958695633f9ba6d560e11b875260048701612b74565b03915afa908115610507575f91612670575b50156104c9576009546001600160a01b03169061223960a0820135612bbb565b905460039190911b1c6001600160a01b031660068511156104a65761226160c0830135612bbb565b905460039190911b1c6001600160a01b03169460078111156104a65780600810156104a6575f5b87811015612588578060051b860135605e19873603018112156105b5576020818801013561257957856001600160a01b036122c489840161293f565b161415808061254e575b80612546575b6125375760046122ea8984016040810190612bd3565b905010612417576123018883016040810190612bd3565b6004116105b557356001600160e01b03191690156124255763095ea7b360e01b03612417576123368782016040810190612bd3565b806004116105b557604090820182900360031901126105b557866001600160a01b036123646004840161328a565b160361240857602460e0870135910135036123f9575f80915b8161239961238c838c0161293f565b928b016040810190612bd3565b9190826040519384928337810182815203925af13d156123f4573d6123bd816128a5565b906123cb6040519283612884565b81525f60203d92013e5b156123e257600101612288565b630a80e20360e41b5f5260045260245ffd5b6123d5565b63f1eb37d160e01b5f5260045ffd5b63cb2b2c7560e01b5f5260045ffd5b62c671bf60e11b5f5260045ffd5b63178ca23160e31b03612417576124428782016040810190612bd3565b806004116105b55760e090820182900360031901126105b5576124676004820161328a565b6124736024830161328a565b61247f6044840161328a565b9160c48401356001600160a01b038116036105b5576001600160a01b0316879003612528576001600160a01b03168a900361251957306001600160a01b039091160361250a5760e08601356084820135036124fb5760a4610100870135910135036124ec575f809161237d565b632c1c6ea760e11b5f5260045ffd5b63285056d760e11b5f5260045ffd5b633eb5f71160e01b5f5260045ffd5b634e8460c760e01b5f5260045ffd5b63c8c3749960e01b5f5260045ffd5b635329f4eb60e11b5f5260045ffd5b5080156122d4565b90506001600160a01b0361256389840161293f565b165f52601260205260ff60405f205416906122ce565b63e320176b60e01b5f5260045ffd5b50600b545f5484916001600160a01b03166125a660a0840135612bbb565b905460039190911b1c6001600160a01b0316936125c660c0850135612bbb565b905460039190911b1c6001600160a01b031690600910156104a657610494946040519384526020840152604083015260e08301356060830152610100830135608083015260ff6101208401351660a08301526001600160401b036101608401351660c08301526001600160401b036101808401351660e08301528235917fe8ea226f12514cec03bc7c0abc4dd055ef25465f050f94eab738755dc7adb25f6101003092a435612c05565b612689915060203d602011610500576104f28183612884565b85612219565b632a1a27e160e01b5f5260045ffd5b63292c0b5760e01b5f5260045ffd5b506020813d6020116126ee575b816126c760209383612884565b810103126105b557516001600160401b03811681036105b5576001600160401b039061217f565b3d91506126ba565b6308801f1d60e21b5f5260045ffd5b905085600610156104a65760c08401351015876120f0565b346105b5575f3660031901126105b5576040517f00000000000000000000000000000000000000000000000000000000000000006001600160a01b03168152602090f35b346105b5575f3660031901126105b5576020906001600160401b03600d54168152f35b9181601f840112156105b5578235916001600160401b0383116105b557602083818601950101116105b557565b9181601f840112156105b5578235916001600160401b0383116105b5576020808501948460051b0101116105b557565b60606003198201126105b5576004356001600160401b0381116105b5578161280b91600401612784565b929092916024356001600160401b0381116105b5578161282d916004016127b1565b92909291604435906001600160401b0382116105b55761284f916004016127b1565b9091565b600435906001600160a01b03821682036105b557565b60e081019081106001600160401b038211176117fe57604052565b90601f801991011681019081106001600160401b038211176117fe57604052565b6001600160401b0381116117fe57601f01601f191660200190565b81601f820112156105b5578035906128d7826128a5565b926128e56040519485612884565b828452602083830101116105b557815f926020809301838601378301015290565b805180835260209291819084018484015e5f828201840152601f01601f1916010190565b90359060de19813603018212156105b5570190565b356001600160a01b03811681036105b55790565b903590601e19813603018212156105b557018035906001600160401b0382116105b557602001918160051b360383136105b557565b818110612993575050565b5f8155600101612988565b91908203918211610bef57565b6129b481612d90565b9060018060a01b031690815f52600e60205260405f205480821115612a32576129dc9161299e565b6129e881600c5461299e565b600c55600654612a0490829033906001600160a01b0316612deb565b6040519081527f0caadc0986f4d706e391378d87fa79ac2ec5f0aa603d69e54f64be0b610f5ee260203092a3565b50506040515f81527f0caadc0986f4d706e391378d87fa79ac2ec5f0aa603d69e54f64be0b610f5ee260203092a3565b91908201809211610bef57565b908060209392818452848401375f828201840152601f01601f1916010190565b6001600160a01b03168015612aed575f5160206135415f395f51905f5280546001600160a01b0319811683179091556001600160a01b03167f8be0079c531659141344cd1fd0a4f28419497f9722a3daafe3b4186f6b6457e05f80a3565b631e4fbdf760e01b5f525f60045260245ffd5b60ff5f5160206135a15f395f51905f525416612b1857565b63d93c066560e01b5f5260045ffd5b5f5160206135c15f395f51905f525c612b4d5760015f5160206135c15f395f51905f525d565b633ee5aeb560e01b5f5260045ffd5b908160209103126105b5575180151581036105b55790565b92612b8d92918452606060208501526060840191612a6f565b8181036040909201919091528281526001600160fb1b0383116105b55760209260051b809284830137010190565b6001548110156104a65760015f5260205f2001905f90565b903590601e19813603018212156105b557018035906001600160401b0382116105b5576020019181360383136105b557565b6109404614612d3c5760135460181c6001600160a01b03165f8115612d375760405161010081018181106001600160401b038211176117fe576040525f8152602081015f8152604082015f8152606083015f8152608084015f815260a08501915f835260c08601935f855260e08701955f87525f86528a8752893b156105b55760405163bacdd57360e01b8152306004820152975160248901525160448801525160648701525160848601525160a48501525160c4840152516002811015612d235760e4830152516101048201525f816101248183875af1801561050757612d10575b507f13bf01bab24049f41ad9b17f6a64748f19ee46cd0a9ac6aa294c7e6bbe0500eb309180a4565b612d1c91505f90612884565b5f5f612ce8565b634e487b7160e01b5f52602160045260245ffd5b505050565b50565b5f5160206135415f395f51905f52546001600160a01b03163303612d5f57565b63118cdaa760e01b5f523360045260245ffd5b8115612d7c570490565b634e487b7160e01b5f52601260045260245ffd5b600b546001600160a01b03165f908152600e60205260409020548015612de557600c549160018060a01b03165f52600e60205260405f205491828102928184041490151715610bef57612de291612d72565b90565b50505f90565b916040519163a9059cbb60e01b5f5260018060a01b031660045260245260205f60448180865af19060015f5114821615612e4b575b60405215612e2b5750565b635274afe760e01b5f9081526001600160a01b0391909116600452602490fd5b90600181151661097957823b15153d15161690612e20565b90600182811c92168015612e91575b6020831014612e7d57565b634e487b7160e01b5f52602260045260245ffd5b91607f1691612e72565b604051905f825f5160206135215f395f51905f525491612eba83612e63565b8083529260018116908115612f4b5750600114612ee0575b612ede92500383612884565b565b505f5160206135215f395f51905f525f90815290917f42ad5d3e1f2e6e70edcf6d991b8a3023d3fca8047a131592f9edb9fd9b89d57d5b818310612f2f575050906020612ede92820101612ed2565b6020919350806001915483858901015201910190918492612f17565b60209250612ede94915060ff191682840152151560051b820101612ed2565b604051905f825f5160206135615f395f51905f525491612f8983612e63565b8083529260018116908115612f4b5750600114612fac57612ede92500383612884565b505f5160206135615f395f51905f525f90815290917f5f9ce34815f8e11431c7bb75a8e6886a91478f7ffc1dbb0a98dc240fddd76b755b818310612ffb575050906020612ede92820101612ed2565b6020919350806001915483858901015201910190918492612fe3565b604290613022613471565b61302a6134db565b6040519060208201927f8b73c3c69bb8fe3d512ecc4cf759cc79239f7b179b0ffacaa9a75d522b39400f8452604083015260608201524660808201523060a082015260a0815261307b60c082612884565b519020906040519161190160f01b8352600283015260228201522090565b6006546040516370a0823160e01b8152306004820152919290602090839060249082906001600160a01b03165afa918215610507575f926131d1575b5081156131c057818310156131c0576130ee838361299e565b6127108102908082046127101490151715610bef578261310d91612d72565b6013549061ffff8216806131b7575061ffff6101f45b1610156131a95750601354600160ff8260101c16019060ff8211610bef5762ff00001916601082901b62ff00001617601355600260ff909116101561316757505050565b6001600160401b039160405193845260208401521660408201527febe38d77086ae4b6b135619dd48b22929093e066172fdbef2955446319fc688260603092a2565b62ff00001916601355505050565b61ffff90613123565b50505062ff00001960135416601355565b9091506020813d6020116131fd575b816131ed60209383612884565b810103126105b55751905f6130d5565b3d91506131e0565b600754604051631dc6eb5160e21b815230600482015290602090829060249082906001600160a01b03165afa908115610507575f91613258575b5080156132495790565b6372bc436960e11b5f5260045ffd5b90506020813d602011613282575b8161327360209383612884565b810103126105b557515f61323f565b3d9150613266565b35906001600160a01b03821682036105b557565b60ff5f5160206135e15f395f51905f525460401c16156132ba57565b631afcd79f60e31b5f5260045ffd5b81519190604183036132f9576132f29250602082015190606060408401519301515f1a906133ef565b9192909190565b50505f9160029190565b6004811015612d235780613315575050565b6001810361332c5763f645eedf60e01b5f5260045ffd5b60028103613347575063fce698f760e01b5f5260045260245ffd5b6003146133515750565b6335e2f38360e21b5f5260045260245ffd5b905f8091602081519101845af480806133dc575b156133975750506040513d81523d5f602083013e60203d82010160405290565b156133bc57639996b31560e01b5f9081526001600160a01b0391909116600452602490fd5b3d156133cd576040513d5f823e3d90fd5b63d6bda27560e01b5f5260045ffd5b503d1515806133775750813b1515613377565b91907f7fffffffffffffffffffffffffffffff5d576e7357a4501ddfe92f46681b20a08411613466579160209360809260ff5f9560405194855216868401526040830152606082015282805260015afa15610507575f516001600160a01b0381161561345c57905f905f90565b505f906001905f90565b5050505f9160039190565b613479612e9b565b8051908115613489576020012090565b50507fa16a46d94261c7517cc8ff89f61c0ce93598e3c849801011dee649a6a557d1005480156134b65790565b507fc5d2460186f7233c927e7db2dcc703c0e500b653ca82273b7bfad8045d85a47090565b6134e3612f6a565b80519081156134f3576020012090565b50507fa16a46d94261c7517cc8ff89f61c0ce93598e3c849801011dee649a6a557d1015480156134b6579056fea16a46d94261c7517cc8ff89f61c0ce93598e3c849801011dee649a6a557d1029016d09d72d40fdae2fd8ceac6b6234c7706214fd39c1cd1e609a0528c199300a16a46d94261c7517cc8ff89f61c0ce93598e3c849801011dee649a6a557d103360894a13ba1a3210667c828492db98dca3e2076cc3735a920a3ca505d382bbccd5ed15c6e187e77e9aee88184c21f4f2182ab5827cb3b7e07fbedcd63f033009b779b17422d0df92223018b32b4d1fa46e071723d6817e2486d003becc55f00f0c57e16840df040f15088dc2f81fe391c3923bec73e23a9662efc9c229c6a00f0c57e16840df040f15088dc2f81fe391c3923bec73e23a9662efc9c229c6a00000000000000000000000000566e1f1b5bd7109f2c86805e2c092502d1b2f9f4000000000000000000000000345cd375ec42476eb95c5903fb3abb27f9400f9d",
        "nonce": "0x7a",
        "chainId": "0x940"
      },
      "additionalContracts": [],
      "isFixedGasLimit": false
    },
    {
      "hash": "0xbdb8f14e305c4e7f9496543d724b322c296e2c81416c76796ee7aa2f22e66550",
      "transactionType": "CALL",
      "contractName": null,
      "contractAddress": "0xf11d55a3057a3da51c9ed63bdc6ae8f666fa426a",
      "function": "upgradeToAndCall(address,bytes)",
      "arguments": [
        "0x934f7639e5Cb320e4394736f5663b53E9C6b5c7b",
        "0x46ef1e560000000000000000000000003698f60a6761bfdd1511b4c68d000d55ff8fff81"
      ],
      "transaction": {
        "from": "0xecf5e30f091d1db7c7b0ef26634a71d46dc9bb25",
        "to": "0xf11d55a3057a3da51c9ed63bdc6ae8f666fa426a",
        "gas": "0x1196e",
        "value": "0x0",
        "input": "0x4f1ef286000000000000000000000000934f7639e5cb320e4394736f5663b53e9c6b5c7b0000000000000000000000000000000000000000000000000000000000000040000000000000000000000000000000000000000000000000000000000000002446ef1e560000000000000000000000003698f60a6761bfdd1511b4c68d000d55ff8fff8100000000000000000000000000000000000000000000000000000000",
        "nonce": "0x7b",
        "chainId": "0x940"
      },
      "additionalContracts": [],
      "isFixedGasLimit": false
    },
    {
      "hash": "0x97114ad8f3a68695270c8a4ad3cc571e449180ada3270014f80e56b751ac65fe",
      "transactionType": "CALL",
      "contractName": null,
      "contractAddress": "0xc1b19df0003eadf29313826dc874c769ebb09109",
      "function": "upgradeToAndCall(address,bytes)",
      "arguments": [
        "0x934f7639e5Cb320e4394736f5663b53E9C6b5c7b",
        "0x46ef1e560000000000000000000000003698f60a6761bfdd1511b4c68d000d55ff8fff81"
      ],
      "transaction": {
        "from": "0xecf5e30f091d1db7c7b0ef26634a71d46dc9bb25",
        "to": "0xc1b19df0003eadf29313826dc874c769ebb09109",
        "gas": "0x129db",
        "value": "0x0",
        "input": "0x4f1ef286000000000000000000000000934f7639e5cb320e4394736f5663b53e9c6b5c7b0000000000000000000000000000000000000000000000000000000000000040000000000000000000000000000000000000000000000000000000000000002446ef1e560000000000000000000000003698f60a6761bfdd1511b4c68d000d55ff8fff8100000000000000000000000000000000000000000000000000000000",
        "nonce": "0x7c",
        "chainId": "0x940"
      },
      "additionalContracts": [],
      "isFixedGasLimit": false
    },
    {
      "hash": "0xe92cef0672f3ae5e66701ac4fd3fa9689d68a6bb60c55f5dcac7822bf61f9aa2",
      "transactionType": "CALL",
      "contractName": null,
      "contractAddress": "0x4e19e5eec25fc15fbc30a9446d283f4ebed6462c",
      "function": "upgradeToAndCall(address,bytes)",
      "arguments": [
        "0x934f7639e5Cb320e4394736f5663b53E9C6b5c7b",
        "0x46ef1e560000000000000000000000003698f60a6761bfdd1511b4c68d000d55ff8fff81"
      ],
      "transaction": {
        "from": "0xecf5e30f091d1db7c7b0ef26634a71d46dc9bb25",
        "to": "0x4e19e5eec25fc15fbc30a9446d283f4ebed6462c",
        "gas": "0x129db",
        "value": "0x0",
        "input": "0x4f1ef286000000000000000000000000934f7639e5cb320e4394736f5663b53e9c6b5c7b0000000000000000000000000000000000000000000000000000000000000040000000000000000000000000000000000000000000000000000000000000002446ef1e560000000000000000000000003698f60a6761bfdd1511b4c68d000d55ff8fff8100000000000000000000000000000000000000000000000000000000",
        "nonce": "0x7d",
        "chainId": "0x940"
      },
      "additionalContracts": [],
      "isFixedGasLimit": false
    },
    {
      "hash": "0x09d9fb24c4bbbc6645cb957b6c52e6ffaa470989091011f64e6b041bd16173e9",
      "transactionType": "CALL",
      "contractName": null,
      "contractAddress": "0xe85fc70edc752d3ff283f3fffa17598d32b5fc07",
      "function": "upgradeToAndCall(address,bytes)",
      "arguments": [
        "0x934f7639e5Cb320e4394736f5663b53E9C6b5c7b",
        "0x46ef1e560000000000000000000000003698f60a6761bfdd1511b4c68d000d55ff8fff81"
      ],
      "transaction": {
        "from": "0xecf5e30f091d1db7c7b0ef26634a71d46dc9bb25",
        "to": "0xe85fc70edc752d3ff283f3fffa17598d32b5fc07",
        "gas": "0x1196e",
        "value": "0x0",
        "input": "0x4f1ef286000000000000000000000000934f7639e5cb320e4394736f5663b53e9c6b5c7b0000000000000000000000000000000000000000000000000000000000000040000000000000000000000000000000000000000000000000000000000000002446ef1e560000000000000000000000003698f60a6761bfdd1511b4c68d000d55ff8fff8100000000000000000000000000000000000000000000000000000000",
        "nonce": "0x7e",
        "chainId": "0x940"
      },
      "additionalContracts": [],
      "isFixedGasLimit": false
    },
    {
      "hash": "0x3bddb3508e67bd7013d4299befea8b126ae17def8c452b608b9baa10f3d495a0",
      "transactionType": "CALL",
      "contractName": null,
      "contractAddress": "0xd4898262bb6ffbaf5f0c016663a2c59767ddb65f",
      "function": "upgradeToAndCall(address,bytes)",
      "arguments": [
        "0x934f7639e5Cb320e4394736f5663b53E9C6b5c7b",
        "0x46ef1e560000000000000000000000003698f60a6761bfdd1511b4c68d000d55ff8fff81"
      ],
      "transaction": {
        "from": "0xecf5e30f091d1db7c7b0ef26634a71d46dc9bb25",
        "to": "0xd4898262bb6ffbaf5f0c016663a2c59767ddb65f",
        "gas": "0x129db",
        "value": "0x0",
        "input": "0x4f1ef286000000000000000000000000934f7639e5cb320e4394736f5663b53e9c6b5c7b0000000000000000000000000000000000000000000000000000000000000040000000000000000000000000000000000000000000000000000000000000002446ef1e560000000000000000000000003698f60a6761bfdd1511b4c68d000d55ff8fff8100000000000000000000000000000000000000000000000000000000",
        "nonce": "0x7f",
        "chainId": "0x940"
      },
      "additionalContracts": [],
      "isFixedGasLimit": false
    },
    {
      "hash": "0xbc60e02a34fa8ec01c68dcc2785c6740c34c73cc4b300b65d3a19209290e3ff0",
      "transactionType": "CALL",
      "contractName": null,
      "contractAddress": "0x50c1dcc21e571c106eee21f42f22fb6ea0d4a708",
      "function": "upgradeToAndCall(address,bytes)",
      "arguments": [
        "0x934f7639e5Cb320e4394736f5663b53E9C6b5c7b",
        "0x46ef1e560000000000000000000000003698f60a6761bfdd1511b4c68d000d55ff8fff81"
      ],
      "transaction": {
        "from": "0xecf5e30f091d1db7c7b0ef26634a71d46dc9bb25",
        "to": "0x50c1dcc21e571c106eee21f42f22fb6ea0d4a708",
        "gas": "0x129db",
        "value": "0x0",
        "input": "0x4f1ef286000000000000000000000000934f7639e5cb320e4394736f5663b53e9c6b5c7b0000000000000000000000000000000000000000000000000000000000000040000000000000000000000000000000000000000000000000000000000000002446ef1e560000000000000000000000003698f60a6761bfdd1511b4c68d000d55ff8fff8100000000000000000000000000000000000000000000000000000000",
        "nonce": "0x80",
        "chainId": "0x940"
      },
      "additionalContracts": [],
      "isFixedGasLimit": false
    },
    {
      "hash": "0x8bd26ca6c5c9b522025ed5f93a8ec748a9f48c4385ca66f2e318150f85104b2b",
      "transactionType": "CALL",
      "contractName": null,
      "contractAddress": "0xb7496be712ed62fb02c6b9665f74ee6ff136d0d7",
      "function": "upgradeToAndCall(address,bytes)",
      "arguments": [
        "0x934f7639e5Cb320e4394736f5663b53E9C6b5c7b",
        "0x46ef1e560000000000000000000000003698f60a6761bfdd1511b4c68d000d55ff8fff81"
      ],
      "transaction": {
        "from": "0xecf5e30f091d1db7c7b0ef26634a71d46dc9bb25",
        "to": "0xb7496be712ed62fb02c6b9665f74ee6ff136d0d7",
        "gas": "0x1196e",
        "value": "0x0",
        "input": "0x4f1ef286000000000000000000000000934f7639e5cb320e4394736f5663b53e9c6b5c7b0000000000000000000000000000000000000000000000000000000000000040000000000000000000000000000000000000000000000000000000000000002446ef1e560000000000000000000000003698f60a6761bfdd1511b4c68d000d55ff8fff8100000000000000000000000000000000000000000000000000000000",
        "nonce": "0x81",
        "chainId": "0x940"
      },
      "additionalContracts": [],
      "isFixedGasLimit": false
    },
    {
      "hash": "0xcae1eb4b5b644e4b73f31b6e4774e2006ae60bec0199f844bae242a6b2853761",
      "transactionType": "CALL",
      "contractName": null,
      "contractAddress": "0x5605b2e1883428680266fd25cb7429f2001c0c17",
      "function": "upgradeToAndCall(address,bytes)",
      "arguments": [
        "0x934f7639e5Cb320e4394736f5663b53E9C6b5c7b",
        "0x46ef1e560000000000000000000000003698f60a6761bfdd1511b4c68d000d55ff8fff81"
      ],
      "transaction": {
        "from": "0xecf5e30f091d1db7c7b0ef26634a71d46dc9bb25",
        "to": "0x5605b2e1883428680266fd25cb7429f2001c0c17",
        "gas": "0x129db",
        "value": "0x0",
        "input": "0x4f1ef286000000000000000000000000934f7639e5cb320e4394736f5663b53e9c6b5c7b0000000000000000000000000000000000000000000000000000000000000040000000000000000000000000000000000000000000000000000000000000002446ef1e560000000000000000000000003698f60a6761bfdd1511b4c68d000d55ff8fff8100000000000000000000000000000000000000000000000000000000",
        "nonce": "0x82",
        "chainId": "0x940"
      },
      "additionalContracts": [],
      "isFixedGasLimit": false
    },
    {
      "hash": "0x240b53c00d4a9e42a713f97ed41764010833ae438e2b4fe274cfe7850ef2f039",
      "transactionType": "CALL",
      "contractName": null,
      "contractAddress": "0x3863f44fe693764562c0d239e05c5f194544b0b4",
      "function": "upgradeToAndCall(address,bytes)",
      "arguments": [
        "0x934f7639e5Cb320e4394736f5663b53E9C6b5c7b",
        "0x46ef1e560000000000000000000000003698f60a6761bfdd1511b4c68d000d55ff8fff81"
      ],
      "transaction": {
        "from": "0xecf5e30f091d1db7c7b0ef26634a71d46dc9bb25",
        "to": "0x3863f44fe693764562c0d239e05c5f194544b0b4",
        "gas": "0x129db",
        "value": "0x0",
        "input": "0x4f1ef286000000000000000000000000934f7639e5cb320e4394736f5663b53e9c6b5c7b0000000000000000000000000000000000000000000000000000000000000040000000000000000000000000000000000000000000000000000000000000002446ef1e560000000000000000000000003698f60a6761bfdd1511b4c68d000d55ff8fff8100000000000000000000000000000000000000000000000000000000",
        "nonce": "0x83",
        "chainId": "0x940"
      },
      "additionalContracts": [],
      "isFixedGasLimit": false
    }
  ],
  "receipts": [
    {
      "status": "0x1",
      "cumulativeGasUsed": "0x1e3ad2",
      "logs": [
        {
          "address": "0x3698f60a6761bfdd1511b4c68d000d55ff8fff81",
          "topics": [
            "0x8be0079c531659141344cd1fd0a4f28419497f9722a3daafe3b4186f6b6457e0",
            "0x0000000000000000000000000000000000000000000000000000000000000000",
            "0x000000000000000000000000ecf5e30f091d1db7c7b0ef26634a71d46dc9bb25"
          ],
          "data": "0x",
          "blockHash": "0x26ae1e89161ad48f29d7387d816065ce51366a99e50b1c989a2855c303a7326b",
          "blockNumber": "0x1443980",
          "transactionHash": "0x10cde36404f038eddbc118cb1ae9580d0c33b6d2ee41a243df50a7abadda4557",
          "transactionIndex": "0xb",
          "logIndex": "0x4e",
          "removed": false
        }
      ],
      "logsBloom": "0x00000000000000000000000000000000000000000000000000800000000000000000000000000000000000000000000000000000000000000000000001000000400000000000000000000000000000000001000000000000000000000000000000000000020000000000000000000800000000000000000000000000000000400000000000008000000000000000000000800000000000000000000000000000000000000000000080000000000000000000000000000000000000000000000000000000000000000200000000000000000000000000000000000000000020000000000000000000000000000000000000000000000000000000000000000000",
      "type": "0x2",
      "transactionHash": "0x10cde36404f038eddbc118cb1ae9580d0c33b6d2ee41a243df50a7abadda4557",
      "transactionIndex": "0xb",
      "blockHash": "0x26ae1e89161ad48f29d7387d816065ce51366a99e50b1c989a2855c303a7326b",
      "blockNumber": "0x1443980",
      "gasUsed": "0x9025e",
      "effectiveGasPrice": "0xf4241",
      "from": "0xecf5e30f091d1db7c7b0ef26634a71d46dc9bb25",
      "to": null,
      "contractAddress": "0x3698f60a6761bfdd1511b4c68d000d55ff8fff81"
    },
    {
      "status": "0x1",
      "cumulativeGasUsed": "0x10b61a",
      "logs": [],
      "logsBloom": "0x00000000000000000000000000000000000000000000000000000000000000000000000000000000000000000000000000000000000000000000000000000000000000000000000000000000000000000000000000000000000000000000000000000000000000000000000000000000000000000000000000000000000000000000000000000000000000000000000000000000000000000000000000000000000000000000000000000000000000000000000000000000000000000000000000000000000000000000000000000000000000000000000000000000000000000000000000000000000000000000000000000000000000000000000000000000",
      "type": "0x2",
      "transactionHash": "0x5de607f7b297593a041174d648fa1ff012a835c2b408e44ba0b0a73a765b9077",
      "transactionIndex": "0x3",
      "blockHash": "0xa7df1a0b65834f2bb8db8fa25c91a6265e5f510cb6acab79ed16df939b78e582",
      "blockNumber": "0x1443981",
      "gasUsed": "0xb7e92",
      "effectiveGasPrice": "0xf4241",
      "from": "0xecf5e30f091d1db7c7b0ef26634a71d46dc9bb25",
      "to": null,
      "contractAddress": "0x6201037d1490c8f5b5c46729f127f14ff42010ba"
    },
    {
      "status": "0x1",
      "cumulativeGasUsed": "0xbde3d",
      "logs": [],
      "logsBloom": "0x00000000000000000000000000000000000000000000000000000000000000000000000000000000000000000000000000000000000000000000000000000000000000000000000000000000000000000000000000000000000000000000000000000000000000000000000000000000000000000000000000000000000000000000000000000000000000000000000000000000000000000000000000000000000000000000000000000000000000000000000000000000000000000000000000000000000000000000000000000000000000000000000000000000000000000000000000000000000000000000000000000000000000000000000000000000",
      "type": "0x2",
      "transactionHash": "0xf90992c9f8dcfe1bcdfcdfedcc2f7d4bca4823ac14609fa5db03b53f34b490d2",
      "transactionIndex": "0x4",
      "blockHash": "0x4c39a188b984ff366fa0ab374a940db78ea1c562e7bafe441d78b57da015a977",
      "blockNumber": "0x1443982",
      "gasUsed": "0x2fcc4",
      "effectiveGasPrice": "0xf4241",
      "from": "0xecf5e30f091d1db7c7b0ef26634a71d46dc9bb25",
      "to": null,
      "contractAddress": "0x66d2eb526438745c6acb2e2f1c6738ce3bfc18e0"
    },
    {
      "status": "0x1",
      "cumulativeGasUsed": "0xb7c0a",
      "logs": [],
      "logsBloom": "0x00000000000000000000000000000000000000000000000000000000000000000000000000000000000000000000000000000000000000000000000000000000000000000000000000000000000000000000000000000000000000000000000000000000000000000000000000000000000000000000000000000000000000000000000000000000000000000000000000000000000000000000000000000000000000000000000000000000000000000000000000000000000000000000000000000000000000000000000000000000000000000000000000000000000000000000000000000000000000000000000000000000000000000000000000000000",
      "type": "0x2",
      "transactionHash": "0xcc506de0dbbc60e2a93b7f9850e8b5d3aa893e05611fdf822355ae572b35d397",
      "transactionIndex": "0x0",
      "blockHash": "0xa0a80b0d436f6bf1fd50e8a8bb0c0b7e168e7a9a8448c1d8c20c2589bf7e2115",
      "blockNumber": "0x1443983",
      "gasUsed": "0xb7c0a",
      "effectiveGasPrice": "0xf4241",
      "from": "0xecf5e30f091d1db7c7b0ef26634a71d46dc9bb25",
      "to": null,
      "contractAddress": "0x7cb4c01909e3e46f45423133072f8f86431dac9a"
    },
    {
      "status": "0x1",
      "cumulativeGasUsed": "0x114942",
      "logs": [],
      "logsBloom": "0x00000000000000000000000000000000000000000000000000000000000000000000000000000000000000000000000000000000000000000000000000000000000000000000000000000000000000000000000000000000000000000000000000000000000000000000000000000000000000000000000000000000000000000000000000000000000000000000000000000000000000000000000000000000000000000000000000000000000000000000000000000000000000000000000000000000000000000000000000000000000000000000000000000000000000000000000000000000000000000000000000000000000000000000000000000000",
      "type": "0x2",
      "transactionHash": "0x9898e794a5827882e887aa1891f554668a216924dc9e0fe6205d469a727556a7",
      "transactionIndex": "0x7",
      "blockHash": "0x84a34e615534c9132407842d48123cf134197f78197e5cfb9e1fa1daea1ee590",
      "blockNumber": "0x1443985",
      "gasUsed": "0x2fcc4",
      "effectiveGasPrice": "0xf4241",
      "from": "0xecf5e30f091d1db7c7b0ef26634a71d46dc9bb25",
      "to": null,
      "contractAddress": "0xd52f10d74f4a212347812e78ca42136105d754c9"
    },
    {
      "status": "0x1",
      "cumulativeGasUsed": "0x97d3e",
      "logs": [
        {
          "address": "0x3698f60a6761bfdd1511b4c68d000d55ff8fff81",
          "topics": [
            "0x844aebaef6b58c1ac9ca20d442e8daac6dcd22a339a70bbed6385ab64882c3b4",
            "0x2a9aa442064b635baec37a7a259282faa5563a653a8325378d5676c6f04bc9dd"
          ],
          "data": "0x00000000000000000000000066d2eb526438745c6acb2e2f1c6738ce3bfc18e0",
          "blockHash": "0x1147b719042e3e92e4d29cddd4062808187754996fa649949d919b0f1993a1f0",
          "blockNumber": "0x1443986",
          "transactionHash": "0x4b041dc821bc766a82ab4a571a1cfcb5be5c573eb7e2ec73da2b6183e6544de9",
          "transactionIndex": "0x4",
          "logIndex": "0x22",
          "removed": false
        }
      ],
      "logsBloom": "0x00000000000000000000000000000000000000000000000000000000000000000000000000000000000000000000000000000000000000000000000001000000000000000000000000000000000000000000000000000000000000000000000000000000002000000000000000000000000000000000000000000000000000000000000000008000080000000000000004000000040000000000000000000000000000000000000080000000000000000000000000000000000000000000000000000000000010000000000000000000000000000000000000000000000000000000400000000000000000000000000000000000000000000000000000000000",
      "type": "0x2",
      "transactionHash": "0x4b041dc821bc766a82ab4a571a1cfcb5be5c573eb7e2ec73da2b6183e6544de9",
      "transactionIndex": "0x4",
      "blockHash": "0x1147b719042e3e92e4d29cddd4062808187754996fa649949d919b0f1993a1f0",
      "blockNumber": "0x1443986",
      "gasUsed": "0xbcf2",
      "effectiveGasPrice": "0xf4241",
      "from": "0xecf5e30f091d1db7c7b0ef26634a71d46dc9bb25",
      "to": "0x3698f60a6761bfdd1511b4c68d000d55ff8fff81",
      "contractAddress": null
    },
    {
      "status": "0x1",
      "cumulativeGasUsed": "0xbcf2",
      "logs": [
        {
          "address": "0x3698f60a6761bfdd1511b4c68d000d55ff8fff81",
          "topics": [
            "0x844aebaef6b58c1ac9ca20d442e8daac6dcd22a339a70bbed6385ab64882c3b4",
            "0x18602f4f74172d545f5258541634e1a125c3a4e1227ee2a4cbee957d3490f1fb"
          ],
          "data": "0x000000000000000000000000d52f10d74f4a212347812e78ca42136105d754c9",
          "blockHash": "0x64f66f53e337d51e3587640b5a231cf8fa3646269de225731416cb7781b021d5",
          "blockNumber": "0x1443988",
          "transactionHash": "0x2f5c28ec1de049f5566755474f7baae19576d90872004a4465b0395ac85839e7",
          "transactionIndex": "0x0",
          "logIndex": "0x0",
          "removed": false
        }
      ],
      "logsBloom": "0x00000000000000000000000000000000000000000000000000000000000000000000000000000000000000000000000000000000000000000000000001000000000000000000000000100000000000000000000000000000000000000000000000000000002000000040000000000000000000000000000000000000000000000000000000008000080000000000000000000000040000000000000000000000000000000000000080000000000000000000000000000000000000000000000000008000000000000000000000000000000000000000000000000000000000000000000000000000000000000000000000000000000000000000000000000000",
      "type": "0x2",
      "transactionHash": "0x2f5c28ec1de049f5566755474f7baae19576d90872004a4465b0395ac85839e7",
      "transactionIndex": "0x0",
      "blockHash": "0x64f66f53e337d51e3587640b5a231cf8fa3646269de225731416cb7781b021d5",
      "blockNumber": "0x1443988",
      "gasUsed": "0xbcf2",
      "effectiveGasPrice": "0xf4241",
      "from": "0xecf5e30f091d1db7c7b0ef26634a71d46dc9bb25",
      "to": "0x3698f60a6761bfdd1511b4c68d000d55ff8fff81",
      "contractAddress": null
    },
    {
      "status": "0x1",
      "cumulativeGasUsed": "0xbcf2",
      "logs": [
        {
          "address": "0x3698f60a6761bfdd1511b4c68d000d55ff8fff81",
          "topics": [
            "0x844aebaef6b58c1ac9ca20d442e8daac6dcd22a339a70bbed6385ab64882c3b4",
            "0x2e882135c6afc3bda02a9c8a7c6a351198d97599c804a2575a3d616073a87251"
          ],
          "data": "0x000000000000000000000000da1572e9e8466e04a160af33ad29b569117be7be",
          "blockHash": "0x18b0746118d6d1e66f1f199de5c4011fd9ef8b08271778909d0480666058f4b6",
          "blockNumber": "0x1443989",
          "transactionHash": "0xdd5cf40d8a97abba94ee8d4d59f7a66eed2bb396431b6bcbe4d01fb8ba185e58",
          "transactionIndex": "0x0",
          "logIndex": "0x0",
          "removed": false
        }
      ],
      "logsBloom": "0x00000000000000000000000000000000000000000000000000000000000000000000000000000000008000000000000000000000000000000000000001000000000000000000000000000000000000000000000000000000000000000000000000000000002000000000000000000000000000000000000000000000000000000000000000008000080008000000000000000000040000000000000000000000000000000000000080000000000000000000000000000000000000000000000000000000000000000000000000100000000000000000000000000000000000000000000000000000000000000000000000000000000000000000000000000000",
      "type": "0x2",
      "transactionHash": "0xdd5cf40d8a97abba94ee8d4d59f7a66eed2bb396431b6bcbe4d01fb8ba185e58",
      "transactionIndex": "0x0",
      "blockHash": "0x18b0746118d6d1e66f1f199de5c4011fd9ef8b08271778909d0480666058f4b6",
      "blockNumber": "0x1443989",
      "gasUsed": "0xbcf2",
      "effectiveGasPrice": "0xf4241",
      "from": "0xecf5e30f091d1db7c7b0ef26634a71d46dc9bb25",
      "to": "0x3698f60a6761bfdd1511b4c68d000d55ff8fff81",
      "contractAddress": null
    },
    {
      "status": "0x1",
      "cumulativeGasUsed": "0x3640a0",
      "logs": [
        {
          "address": "0x934f7639e5cb320e4394736f5663b53e9c6b5c7b",
          "topics": [
            "0xc7f505b2f371ae2175ee4913f4499e1f2633a7b5936321eed1cdaeb6115181d2"
          ],
          "data": "0x000000000000000000000000000000000000000000000000ffffffffffffffff",
          "blockHash": "0x0af352e2fc260df783dc584c003c82a5ae4d11a920cbfb5eca4d11889f250650",
          "blockNumber": "0x144398b",
          "transactionHash": "0x54df9f310cc1a6072414124eaf0b1399573a6fd11a9fd7309e3e46495b30bc28",
          "transactionIndex": "0x4",
          "logIndex": "0x1a",
          "removed": false
        }
      ],
      "logsBloom": "0x00000000000000000000000000000000000000000000000000000000000000000000000000000000000000000000000000000000000000000000000000000000000000000000000000000000000000000000000000000000000000000000000000000000000000000000000000000000000000000000000000000000000000000000000000000000000808040000000000000000000080000000000000000000000000000000000000000000000000000000000000000000000000000000000000000000000000000000000000000000000100000004000000000000000000000000000000000000000000000000000000000000000000000000000000000000",
      "type": "0x2",
      "transactionHash": "0x54df9f310cc1a6072414124eaf0b1399573a6fd11a9fd7309e3e46495b30bc28",
      "transactionIndex": "0x4",
      "blockHash": "0x0af352e2fc260df783dc584c003c82a5ae4d11a920cbfb5eca4d11889f250650",
      "blockNumber": "0x144398b",
      "gasUsed": "0x2edeb1",
      "effectiveGasPrice": "0xf4241",
      "from": "0xecf5e30f091d1db7c7b0ef26634a71d46dc9bb25",
      "to": null,
      "contractAddress": "0x934f7639e5cb320e4394736f5663b53e9c6b5c7b"
    },
    {
      "status": "0x1",
      "cumulativeGasUsed": "0x8d524",
      "logs": [
        {
          "address": "0xf11d55a3057a3da51c9ed63bdc6ae8f666fa426a",
          "topics": [
            "0xbc7cd75a20ee27fd9adebab32041f755214dbc6bffa90cc0225b39da2e5c2d3b",
            "0x000000000000000000000000934f7639e5cb320e4394736f5663b53e9c6b5c7b"
          ],
          "data": "0x",
          "blockHash": "0xa8c73cab4db597e92b1b37e3563a6033b6b9250d150c7b977af7cfeab68c8b70",
          "blockNumber": "0x144398c",
          "transactionHash": "0xbdb8f14e305c4e7f9496543d724b322c296e2c81416c76796ee7aa2f22e66550",
          "transactionIndex": "0x4",
          "logIndex": "0x1e",
          "removed": false
        },
        {
          "address": "0xf11d55a3057a3da51c9ed63bdc6ae8f666fa426a",
          "topics": [
            "0x5aebb9f6cc916cff4eaffcdfeb63e3bf14269f3d55f76ff336d4e1aa556269a4",
            "0x000000000000000000000000743e1bd7e9795e78b10965eaeaa93bf215476c96",
            "0x0000000000000000000000003698f60a6761bfdd1511b4c68d000d55ff8fff81"
          ],
          "data": "0x",
          "blockHash": "0xa8c73cab4db597e92b1b37e3563a6033b6b9250d150c7b977af7cfeab68c8b70",
          "blockNumber": "0x144398c",
          "transactionHash": "0xbdb8f14e305c4e7f9496543d724b322c296e2c81416c76796ee7aa2f22e66550",
          "transactionIndex": "0x4",
          "logIndex": "0x1f",
          "removed": false
        },
        {
          "address": "0xf11d55a3057a3da51c9ed63bdc6ae8f666fa426a",
          "topics": [
            "0xc7f505b2f371ae2175ee4913f4499e1f2633a7b5936321eed1cdaeb6115181d2"
          ],
          "data": "0x0000000000000000000000000000000000000000000000000000000000000002",
          "blockHash": "0xa8c73cab4db597e92b1b37e3563a6033b6b9250d150c7b977af7cfeab68c8b70",
          "blockNumber": "0x144398c",
          "transactionHash": "0xbdb8f14e305c4e7f9496543d724b322c296e2c81416c76796ee7aa2f22e66550",
          "transactionIndex": "0x4",
          "logIndex": "0x20",
          "removed": false
        }
      ],
      "logsBloom": "0x00000000000000200000800400000000400000000000000000000000000020000000000000000000000000000000000000000000000000000000000000000000000000000000000000000000000002000000000000000000000000000000000000000000100000000001000000000000020000000000000000000000000000000000000000000000000880000000000000000000000080000000000000000005000000000000000000000000000000000000000102040000000000000000000000000020008000000000000000000000000000000004000000000000000000000000000000000000000000000000000000000000000000004000000000000000",
      "type": "0x2",
      "transactionHash": "0xbdb8f14e305c4e7f9496543d724b322c296e2c81416c76796ee7aa2f22e66550",
      "transactionIndex": "0x4",
      "blockHash": "0xa8c73cab4db597e92b1b37e3563a6033b6b9250d150c7b977af7cfeab68c8b70",
      "blockNumber": "0x144398c",
      "gasUsed": "0xcbc0",
      "effectiveGasPrice": "0xf4241",
      "from": "0xecf5e30f091d1db7c7b0ef26634a71d46dc9bb25",
      "to": "0xf11d55a3057a3da51c9ed63bdc6ae8f666fa426a",
      "contractAddress": null
    },
    {
      "status": "0x1",
      "cumulativeGasUsed": "0xcbaa",
      "logs": [
        {
          "address": "0xc1b19df0003eadf29313826dc874c769ebb09109",
          "topics": [
            "0xbc7cd75a20ee27fd9adebab32041f755214dbc6bffa90cc0225b39da2e5c2d3b",
            "0x000000000000000000000000934f7639e5cb320e4394736f5663b53e9c6b5c7b"
          ],
          "data": "0x",
          "blockHash": "0xc6ae70f3b2c27fea2a9c2d9502569292522eb95f6b6a94b6ba4be56237cf815c",
          "blockNumber": "0x144398d",
          "transactionHash": "0x97114ad8f3a68695270c8a4ad3cc571e449180ada3270014f80e56b751ac65fe",
          "transactionIndex": "0x0",
          "logIndex": "0x0",
          "removed": false
        },
        {
          "address": "0xc1b19df0003eadf29313826dc874c769ebb09109",
          "topics": [
            "0x5aebb9f6cc916cff4eaffcdfeb63e3bf14269f3d55f76ff336d4e1aa556269a4",
            "0x000000000000000000000000743e1bd7e9795e78b10965eaeaa93bf215476c96",
            "0x0000000000000000000000003698f60a6761bfdd1511b4c68d000d55ff8fff81"
          ],
          "data": "0x",
          "blockHash": "0xc6ae70f3b2c27fea2a9c2d9502569292522eb95f6b6a94b6ba4be56237cf815c",
          "blockNumber": "0x144398d",
          "transactionHash": "0x97114ad8f3a68695270c8a4ad3cc571e449180ada3270014f80e56b751ac65fe",
          "transactionIndex": "0x0",
          "logIndex": "0x1",
          "removed": false
        },
        {
          "address": "0xc1b19df0003eadf29313826dc874c769ebb09109",
          "topics": [
            "0xc7f505b2f371ae2175ee4913f4499e1f2633a7b5936321eed1cdaeb6115181d2"
          ],
          "data": "0x0000000000000000000000000000000000000000000000000000000000000002",
          "blockHash": "0xc6ae70f3b2c27fea2a9c2d9502569292522eb95f6b6a94b6ba4be56237cf815c",
          "blockNumber": "0x144398d",
          "transactionHash": "0x97114ad8f3a68695270c8a4ad3cc571e449180ada3270014f80e56b751ac65fe",
          "transactionIndex": "0x0",
          "logIndex": "0x2",
          "removed": false
        }
      ],
      "logsBloom": "0x00000000000000000000800400000000400000000000000000000000000020000400000000000000000000000000100000000000000000000000000000000000000000000000000000000000000002000000000000000000000000000000000000000000100000000001000000000000020000000000000000000000000000000000000000000000000880000000000000000000000080000000000000000004000000000000000000000000000000000000000102040100000000000000000000000020008000000000000000000000000000000004000000000000000000000000000000000000000000000000000000000000000000000000000000000000",
      "type": "0x2",
      "transactionHash": "0x97114ad8f3a68695270c8a4ad3cc571e449180ada3270014f80e56b751ac65fe",
      "transactionIndex": "0x0",
      "blockHash": "0xc6ae70f3b2c27fea2a9c2d9502569292522eb95f6b6a94b6ba4be56237cf815c",
      "blockNumber": "0x144398d",
      "gasUsed": "0xcbaa",
      "effectiveGasPrice": "0xf4241",
      "from": "0xecf5e30f091d1db7c7b0ef26634a71d46dc9bb25",
      "to": "0xc1b19df0003eadf29313826dc874c769ebb09109",
      "contractAddress": null
    },
    {
      "status": "0x1",
      "cumulativeGasUsed": "0xcbaa",
      "logs": [
        {
          "address": "0x4e19e5eec25fc15fbc30a9446d283f4ebed6462c",
          "topics": [
            "0xbc7cd75a20ee27fd9adebab32041f755214dbc6bffa90cc0225b39da2e5c2d3b",
            "0x000000000000000000000000934f7639e5cb320e4394736f5663b53e9c6b5c7b"
          ],
          "data": "0x",
          "blockHash": "0x7286b17ba6795c6bc79993bce324cfb857da2b73d39b28914066a634d10e1883",
          "blockNumber": "0x144398e",
          "transactionHash": "0xe92cef0672f3ae5e66701ac4fd3fa9689d68a6bb60c55f5dcac7822bf61f9aa2",
          "transactionIndex": "0x0",
          "logIndex": "0x0",
          "removed": false
        },
        {
          "address": "0x4e19e5eec25fc15fbc30a9446d283f4ebed6462c",
          "topics": [
            "0x5aebb9f6cc916cff4eaffcdfeb63e3bf14269f3d55f76ff336d4e1aa556269a4",
            "0x000000000000000000000000743e1bd7e9795e78b10965eaeaa93bf215476c96",
            "0x0000000000000000000000003698f60a6761bfdd1511b4c68d000d55ff8fff81"
          ],
          "data": "0x",
          "blockHash": "0x7286b17ba6795c6bc79993bce324cfb857da2b73d39b28914066a634d10e1883",
          "blockNumber": "0x144398e",
          "transactionHash": "0xe92cef0672f3ae5e66701ac4fd3fa9689d68a6bb60c55f5dcac7822bf61f9aa2",
          "transactionIndex": "0x0",
          "logIndex": "0x1",
          "removed": false
        },
        {
          "address": "0x4e19e5eec25fc15fbc30a9446d283f4ebed6462c",
          "topics": [
            "0xc7f505b2f371ae2175ee4913f4499e1f2633a7b5936321eed1cdaeb6115181d2"
          ],
          "data": "0x0000000000000000000000000000000000000000000000000000000000000002",
          "blockHash": "0x7286b17ba6795c6bc79993bce324cfb857da2b73d39b28914066a634d10e1883",
          "blockNumber": "0x144398e",
          "transactionHash": "0xe92cef0672f3ae5e66701ac4fd3fa9689d68a6bb60c55f5dcac7822bf61f9aa2",
          "transactionIndex": "0x0",
          "logIndex": "0x2",
          "removed": false
        }
      ],
      "logsBloom": "0x00000000000000000000800400000000400000000000000000000000000020080000000000000000000000000000000000000000000000000000000000000000000000000000000000000000000002000000000000000000000000000000000000000000100800000001000000000000020000000000000000000000000000000000000000000000000880000000000000000000000080000000000000000004000000000000000000000000000000000000000102040000000000000000000000000020008000000000000000000000200000000004000000000000000000000000000000000000000000000000000000000000000000000000000000000000",
      "type": "0x2",
      "transactionHash": "0xe92cef0672f3ae5e66701ac4fd3fa9689d68a6bb60c55f5dcac7822bf61f9aa2",
      "transactionIndex": "0x0",
      "blockHash": "0x7286b17ba6795c6bc79993bce324cfb857da2b73d39b28914066a634d10e1883",
      "blockNumber": "0x144398e",
      "gasUsed": "0xcbaa",
      "effectiveGasPrice": "0xf4241",
      "from": "0xecf5e30f091d1db7c7b0ef26634a71d46dc9bb25",
      "to": "0x4e19e5eec25fc15fbc30a9446d283f4ebed6462c",
      "contractAddress": null
    },
    {
      "status": "0x1",
      "cumulativeGasUsed": "0xcbc0",
      "logs": [
        {
          "address": "0xe85fc70edc752d3ff283f3fffa17598d32b5fc07",
          "topics": [
            "0xbc7cd75a20ee27fd9adebab32041f755214dbc6bffa90cc0225b39da2e5c2d3b",
            "0x000000000000000000000000934f7639e5cb320e4394736f5663b53e9c6b5c7b"
          ],
          "data": "0x",
          "blockHash": "0x8a47feec832100a1f3c82cbf7626ed6a20f36cfad0591594aa5aeb716fde470c",
          "blockNumber": "0x1443992",
          "transactionHash": "0x09d9fb24c4bbbc6645cb957b6c52e6ffaa470989091011f64e6b041bd16173e9",
          "transactionIndex": "0x0",
          "logIndex": "0x0",
          "removed": false
        },
        {
          "address": "0xe85fc70edc752d3ff283f3fffa17598d32b5fc07",
          "topics": [
            "0x5aebb9f6cc916cff4eaffcdfeb63e3bf14269f3d55f76ff336d4e1aa556269a4",
            "0x000000000000000000000000743e1bd7e9795e78b10965eaeaa93bf215476c96",
            "0x0000000000000000000000003698f60a6761bfdd1511b4c68d000d55ff8fff81"
          ],
          "data": "0x",
          "blockHash": "0x8a47feec832100a1f3c82cbf7626ed6a20f36cfad0591594aa5aeb716fde470c",
          "blockNumber": "0x1443992",
          "transactionHash": "0x09d9fb24c4bbbc6645cb957b6c52e6ffaa470989091011f64e6b041bd16173e9",
          "transactionIndex": "0x0",
          "logIndex": "0x1",
          "removed": false
        },
        {
          "address": "0xe85fc70edc752d3ff283f3fffa17598d32b5fc07",
          "topics": [
            "0xc7f505b2f371ae2175ee4913f4499e1f2633a7b5936321eed1cdaeb6115181d2"
          ],
          "data": "0x0000000000000000000000000000000000000000000000000000000000000002",
          "blockHash": "0x8a47feec832100a1f3c82cbf7626ed6a20f36cfad0591594aa5aeb716fde470c",
          "blockNumber": "0x1443992",
          "transactionHash": "0x09d9fb24c4bbbc6645cb957b6c52e6ffaa470989091011f64e6b041bd16173e9",
          "transactionIndex": "0x0",
          "logIndex": "0x2",
          "removed": false
        }
      ],
      "logsBloom": "0x00000000000000000000800400000000400000000000000000000000000020000000000000000000000000000000000000000000000000000000000000000000000000000000000000000000000002010000000000000000000000000000000000000000100000000001000000000000020000000000000000000000000000000004000000000000000880000000000000000000000080000000000000000004000000000000000000000000000000000000000102040000000000002000000000000020008000000000000000000000000000000004000000000000000000000000000000000000000000000000000000000000000000000000000000000000",
      "type": "0x2",
      "transactionHash": "0x09d9fb24c4bbbc6645cb957b6c52e6ffaa470989091011f64e6b041bd16173e9",
      "transactionIndex": "0x0",
      "blockHash": "0x8a47feec832100a1f3c82cbf7626ed6a20f36cfad0591594aa5aeb716fde470c",
      "blockNumber": "0x1443992",
      "gasUsed": "0xcbc0",
      "effectiveGasPrice": "0xf4241",
      "from": "0xecf5e30f091d1db7c7b0ef26634a71d46dc9bb25",
      "to": "0xe85fc70edc752d3ff283f3fffa17598d32b5fc07",
      "contractAddress": null
    },
    {
      "status": "0x1",
      "cumulativeGasUsed": "0x3d83e",
      "logs": [
        {
          "address": "0xd4898262bb6ffbaf5f0c016663a2c59767ddb65f",
          "topics": [
            "0xbc7cd75a20ee27fd9adebab32041f755214dbc6bffa90cc0225b39da2e5c2d3b",
            "0x000000000000000000000000934f7639e5cb320e4394736f5663b53e9c6b5c7b"
          ],
          "data": "0x",
          "blockHash": "0xac8baa0347d7789aa89c07744faf486f33f4834976bc3dae2c21e1f380f95089",
          "blockNumber": "0x1443993",
          "transactionHash": "0x3bddb3508e67bd7013d4299befea8b126ae17def8c452b608b9baa10f3d495a0",
          "transactionIndex": "0x1",
          "logIndex": "0x1",
          "removed": false
        },
        {
          "address": "0xd4898262bb6ffbaf5f0c016663a2c59767ddb65f",
          "topics": [
            "0x5aebb9f6cc916cff4eaffcdfeb63e3bf14269f3d55f76ff336d4e1aa556269a4",
            "0x000000000000000000000000743e1bd7e9795e78b10965eaeaa93bf215476c96",
            "0x0000000000000000000000003698f60a6761bfdd1511b4c68d000d55ff8fff81"
          ],
          "data": "0x",
          "blockHash": "0xac8baa0347d7789aa89c07744faf486f33f4834976bc3dae2c21e1f380f95089",
          "blockNumber": "0x1443993",
          "transactionHash": "0x3bddb3508e67bd7013d4299befea8b126ae17def8c452b608b9baa10f3d495a0",
          "transactionIndex": "0x1",
          "logIndex": "0x2",
          "removed": false
        },
        {
          "address": "0xd4898262bb6ffbaf5f0c016663a2c59767ddb65f",
          "topics": [
            "0xc7f505b2f371ae2175ee4913f4499e1f2633a7b5936321eed1cdaeb6115181d2"
          ],
          "data": "0x0000000000000000000000000000000000000000000000000000000000000002",
          "blockHash": "0xac8baa0347d7789aa89c07744faf486f33f4834976bc3dae2c21e1f380f95089",
          "blockNumber": "0x1443993",
          "transactionHash": "0x3bddb3508e67bd7013d4299befea8b126ae17def8c452b608b9baa10f3d495a0",
          "transactionIndex": "0x1",
          "logIndex": "0x3",
          "removed": false
        }
      ],
      "logsBloom": "0x00000000000000000000800400000000400000000000000000000000000020000000000000000000000000000000000000000000000000040000000000000000000000000000000000000000000002000000000000000000000040000000000000000000100000000001000000000000020000000000000000000000000000000000000000000000000880000000000000000000000080000000000000000004000000100000000000000000000000000000000102040000000000000000000000000020008000000000000000000000000000000004000000000000000000000000000000000000000000000000000000000000000000000000000000000000",
      "type": "0x2",
      "transactionHash": "0x3bddb3508e67bd7013d4299befea8b126ae17def8c452b608b9baa10f3d495a0",
      "transactionIndex": "0x1",
      "blockHash": "0xac8baa0347d7789aa89c07744faf486f33f4834976bc3dae2c21e1f380f95089",
      "blockNumber": "0x1443993",
      "gasUsed": "0xcbaa",
      "effectiveGasPrice": "0xf4241",
      "from": "0xecf5e30f091d1db7c7b0ef26634a71d46dc9bb25",
      "to": "0xd4898262bb6ffbaf5f0c016663a2c59767ddb65f",
      "contractAddress": null
    },
    {
      "status": "0x1",
      "cumulativeGasUsed": "0x704da",
      "logs": [
        {
          "address": "0x50c1dcc21e571c106eee21f42f22fb6ea0d4a708",
          "topics": [
            "0xbc7cd75a20ee27fd9adebab32041f755214dbc6bffa90cc0225b39da2e5c2d3b",
            "0x000000000000000000000000934f7639e5cb320e4394736f5663b53e9c6b5c7b"
          ],
          "data": "0x",
          "blockHash": "0x5c5c8a19cd136f55c6104d7ec6bffe816935ccef95f70a9d04dc91f3759c3e77",
          "blockNumber": "0x1443995",
          "transactionHash": "0xbc60e02a34fa8ec01c68dcc2785c6740c34c73cc4b300b65d3a19209290e3ff0",
          "transactionIndex": "0x4",
          "logIndex": "0x14",
          "removed": false
        },
        {
          "address": "0x50c1dcc21e571c106eee21f42f22fb6ea0d4a708",
          "topics": [
            "0x5aebb9f6cc916cff4eaffcdfeb63e3bf14269f3d55f76ff336d4e1aa556269a4",
            "0x000000000000000000000000743e1bd7e9795e78b10965eaeaa93bf215476c96",
            "0x0000000000000000000000003698f60a6761bfdd1511b4c68d000d55ff8fff81"
          ],
          "data": "0x",
          "blockHash": "0x5c5c8a19cd136f55c6104d7ec6bffe816935ccef95f70a9d04dc91f3759c3e77",
          "blockNumber": "0x1443995",
          "transactionHash": "0xbc60e02a34fa8ec01c68dcc2785c6740c34c73cc4b300b65d3a19209290e3ff0",
          "transactionIndex": "0x4",
          "logIndex": "0x15",
          "removed": false
        },
        {
          "address": "0x50c1dcc21e571c106eee21f42f22fb6ea0d4a708",
          "topics": [
            "0xc7f505b2f371ae2175ee4913f4499e1f2633a7b5936321eed1cdaeb6115181d2"
          ],
          "data": "0x0000000000000000000000000000000000000000000000000000000000000002",
          "blockHash": "0x5c5c8a19cd136f55c6104d7ec6bffe816935ccef95f70a9d04dc91f3759c3e77",
          "blockNumber": "0x1443995",
          "transactionHash": "0xbc60e02a34fa8ec01c68dcc2785c6740c34c73cc4b300b65d3a19209290e3ff0",
          "transactionIndex": "0x4",
          "logIndex": "0x16",
          "removed": false
        }
      ],
      "logsBloom": "0x00000000000000000000800400000000400000000000000000001000000020000000000000000000000000000000000000000000000000000000000000000000000000000000000000000000000002000000000000000000000000000000000000000000100000000001000000000000020000000000000000000000000000000000000000000000000880000000000000000000000080000000000000000004000000000000000000000000000000000000000102040000000000000000000000000020018000004000000000000000000000000004000000000000000000000000000000000000000000000000000000000000000000000000000000000000",
      "type": "0x2",
      "transactionHash": "0xbc60e02a34fa8ec01c68dcc2785c6740c34c73cc4b300b65d3a19209290e3ff0",
      "transactionIndex": "0x4",
      "blockHash": "0x5c5c8a19cd136f55c6104d7ec6bffe816935ccef95f70a9d04dc91f3759c3e77",
      "blockNumber": "0x1443995",
      "gasUsed": "0xcbaa",
      "effectiveGasPrice": "0xf4241",
      "from": "0xecf5e30f091d1db7c7b0ef26634a71d46dc9bb25",
      "to": "0x50c1dcc21e571c106eee21f42f22fb6ea0d4a708",
      "contractAddress": null
    },
    {
      "status": "0x1",
      "cumulativeGasUsed": "0x71d81",
      "logs": [
        {
          "address": "0xb7496be712ed62fb02c6b9665f74ee6ff136d0d7",
          "topics": [
            "0xbc7cd75a20ee27fd9adebab32041f755214dbc6bffa90cc0225b39da2e5c2d3b",
            "0x000000000000000000000000934f7639e5cb320e4394736f5663b53e9c6b5c7b"
          ],
          "data": "0x",
          "blockHash": "0xbd3edd48f9f379411fe04dc8a1352bf0d3da8dc2dfb6a5dbe22ee58fc8e8cd3b",
          "blockNumber": "0x1443996",
          "transactionHash": "0x8bd26ca6c5c9b522025ed5f93a8ec748a9f48c4385ca66f2e318150f85104b2b",
          "transactionIndex": "0x4",
          "logIndex": "0x14",
          "removed": false
        },
        {
          "address": "0xb7496be712ed62fb02c6b9665f74ee6ff136d0d7",
          "topics": [
            "0x5aebb9f6cc916cff4eaffcdfeb63e3bf14269f3d55f76ff336d4e1aa556269a4",
            "0x000000000000000000000000743e1bd7e9795e78b10965eaeaa93bf215476c96",
            "0x0000000000000000000000003698f60a6761bfdd1511b4c68d000d55ff8fff81"
          ],
          "data": "0x",
          "blockHash": "0xbd3edd48f9f379411fe04dc8a1352bf0d3da8dc2dfb6a5dbe22ee58fc8e8cd3b",
          "blockNumber": "0x1443996",
          "transactionHash": "0x8bd26ca6c5c9b522025ed5f93a8ec748a9f48c4385ca66f2e318150f85104b2b",
          "transactionIndex": "0x4",
          "logIndex": "0x15",
          "removed": false
        },
        {
          "address": "0xb7496be712ed62fb02c6b9665f74ee6ff136d0d7",
          "topics": [
            "0xc7f505b2f371ae2175ee4913f4499e1f2633a7b5936321eed1cdaeb6115181d2"
          ],
          "data": "0x0000000000000000000000000000000000000000000000000000000000000002",
          "blockHash": "0xbd3edd48f9f379411fe04dc8a1352bf0d3da8dc2dfb6a5dbe22ee58fc8e8cd3b",
          "blockNumber": "0x1443996",
          "transactionHash": "0x8bd26ca6c5c9b522025ed5f93a8ec748a9f48c4385ca66f2e318150f85104b2b",
          "transactionIndex": "0x4",
          "logIndex": "0x16",
          "removed": false
        }
      ],
      "logsBloom": "0x00000000000000000000800400000000400000000000000000000000000020000000000000000000000200000000000000000000000000000000000000000000000000000000000000000000000002000000000000000000000000000000000000000000100000000001000000000000020000000000000000000000000000000000000000000000000880000000000000000000000080000000000000000004000000000000000000000000000000000000000102040000000000200000000000000020008000008000000000000000000000000004000000000000000000000000000000000000000000000000000000000000000000000000000000000000",
      "type": "0x2",
      "transactionHash": "0x8bd26ca6c5c9b522025ed5f93a8ec748a9f48c4385ca66f2e318150f85104b2b",
      "transactionIndex": "0x4",
      "blockHash": "0xbd3edd48f9f379411fe04dc8a1352bf0d3da8dc2dfb6a5dbe22ee58fc8e8cd3b",
      "blockNumber": "0x1443996",
      "gasUsed": "0xcbc0",
      "effectiveGasPrice": "0xf4241",
      "from": "0xecf5e30f091d1db7c7b0ef26634a71d46dc9bb25",
      "to": "0xb7496be712ed62fb02c6b9665f74ee6ff136d0d7",
      "contractAddress": null
    },
    {
      "status": "0x1",
      "cumulativeGasUsed": "0xcbaa",
      "logs": [
        {
          "address": "0x5605b2e1883428680266fd25cb7429f2001c0c17",
          "topics": [
            "0xbc7cd75a20ee27fd9adebab32041f755214dbc6bffa90cc0225b39da2e5c2d3b",
            "0x000000000000000000000000934f7639e5cb320e4394736f5663b53e9c6b5c7b"
          ],
          "data": "0x",
          "blockHash": "0x80216a2a41f0e3203b8b10cd888d862d26a6ed9d74cb00952707268f132426fd",
          "blockNumber": "0x1443997",
          "transactionHash": "0xcae1eb4b5b644e4b73f31b6e4774e2006ae60bec0199f844bae242a6b2853761",
          "transactionIndex": "0x0",
          "logIndex": "0x0",
          "removed": false
        },
        {
          "address": "0x5605b2e1883428680266fd25cb7429f2001c0c17",
          "topics": [
            "0x5aebb9f6cc916cff4eaffcdfeb63e3bf14269f3d55f76ff336d4e1aa556269a4",
            "0x000000000000000000000000743e1bd7e9795e78b10965eaeaa93bf215476c96",
            "0x0000000000000000000000003698f60a6761bfdd1511b4c68d000d55ff8fff81"
          ],
          "data": "0x",
          "blockHash": "0x80216a2a41f0e3203b8b10cd888d862d26a6ed9d74cb00952707268f132426fd",
          "blockNumber": "0x1443997",
          "transactionHash": "0xcae1eb4b5b644e4b73f31b6e4774e2006ae60bec0199f844bae242a6b2853761",
          "transactionIndex": "0x0",
          "logIndex": "0x1",
          "removed": false
        },
        {
          "address": "0x5605b2e1883428680266fd25cb7429f2001c0c17",
          "topics": [
            "0xc7f505b2f371ae2175ee4913f4499e1f2633a7b5936321eed1cdaeb6115181d2"
          ],
          "data": "0x0000000000000000000000000000000000000000000000000000000000000002",
          "blockHash": "0x80216a2a41f0e3203b8b10cd888d862d26a6ed9d74cb00952707268f132426fd",
          "blockNumber": "0x1443997",
          "transactionHash": "0xcae1eb4b5b644e4b73f31b6e4774e2006ae60bec0199f844bae242a6b2853761",
          "transactionIndex": "0x0",
          "logIndex": "0x2",
          "removed": false
        }
      ],
      "logsBloom": "0x00000000000000000000800400000000400000000000000000000000000020000000000000000000000000000000000000000001000000000000000000000000000000000000000000000000000002000000000000000000000000000000000000000000100000000001000000000000020000000000000000000000000000000000000000000000000880000000000000000000000080000000000000000004000000000000000000000000000000000000000102040000000000000000000000000020008000000000000000000000000000000004000000000000000000000000000000000000000000000000000000000000000000000000010020000000",
      "type": "0x2",
      "transactionHash": "0xcae1eb4b5b644e4b73f31b6e4774e2006ae60bec0199f844bae242a6b2853761",
      "transactionIndex": "0x0",
      "blockHash": "0x80216a2a41f0e3203b8b10cd888d862d26a6ed9d74cb00952707268f132426fd",
      "blockNumber": "0x1443997",
      "gasUsed": "0xcbaa",
      "effectiveGasPrice": "0xf4241",
      "from": "0xecf5e30f091d1db7c7b0ef26634a71d46dc9bb25",
      "to": "0x5605b2e1883428680266fd25cb7429f2001c0c17",
      "contractAddress": null
    },
    {
      "status": "0x1",
      "cumulativeGasUsed": "0xcbaa",
      "logs": [
        {
          "address": "0x3863f44fe693764562c0d239e05c5f194544b0b4",
          "topics": [
            "0xbc7cd75a20ee27fd9adebab32041f755214dbc6bffa90cc0225b39da2e5c2d3b",
            "0x000000000000000000000000934f7639e5cb320e4394736f5663b53e9c6b5c7b"
          ],
          "data": "0x",
          "blockHash": "0x2a11668641f7e5d26455f5b356c7002a65037acb0b8d2d2f2f8dbddde3f9b3fc",
          "blockNumber": "0x1443998",
          "transactionHash": "0x240b53c00d4a9e42a713f97ed41764010833ae438e2b4fe274cfe7850ef2f039",
          "transactionIndex": "0x0",
          "logIndex": "0x0",
          "removed": false
        },
        {
          "address": "0x3863f44fe693764562c0d239e05c5f194544b0b4",
          "topics": [
            "0x5aebb9f6cc916cff4eaffcdfeb63e3bf14269f3d55f76ff336d4e1aa556269a4",
            "0x000000000000000000000000743e1bd7e9795e78b10965eaeaa93bf215476c96",
            "0x0000000000000000000000003698f60a6761bfdd1511b4c68d000d55ff8fff81"
          ],
          "data": "0x",
          "blockHash": "0x2a11668641f7e5d26455f5b356c7002a65037acb0b8d2d2f2f8dbddde3f9b3fc",
          "blockNumber": "0x1443998",
          "transactionHash": "0x240b53c00d4a9e42a713f97ed41764010833ae438e2b4fe274cfe7850ef2f039",
          "transactionIndex": "0x0",
          "logIndex": "0x1",
          "removed": false
        },
        {
          "address": "0x3863f44fe693764562c0d239e05c5f194544b0b4",
          "topics": [
            "0xc7f505b2f371ae2175ee4913f4499e1f2633a7b5936321eed1cdaeb6115181d2"
          ],
          "data": "0x0000000000000000000000000000000000000000000000000000000000000002",
          "blockHash": "0x2a11668641f7e5d26455f5b356c7002a65037acb0b8d2d2f2f8dbddde3f9b3fc",
          "blockNumber": "0x1443998",
          "transactionHash": "0x240b53c00d4a9e42a713f97ed41764010833ae438e2b4fe274cfe7850ef2f039",
          "transactionIndex": "0x0",
          "logIndex": "0x2",
          "removed": false
        }
      ],
      "logsBloom": "0x00000000000000000000800400000000400000000000000000000000000020000000000000000000000000000000000000000000000000000000000000000000000000000000000000000000000002000000000000000000000000000000000000000000100000000001000000000000020000000000002000000000000000000000000000000000000880000000000000000000000080000000000000000004000000000000000000000000000000000000000102040000000000000000000000000020008000000000000000000000000000400004000000000000000000000000000000000000000000000000000800000000000000000000000000000000",
      "type": "0x2",
      "transactionHash": "0x240b53c00d4a9e42a713f97ed41764010833ae438e2b4fe274cfe7850ef2f039",
      "transactionIndex": "0x0",
      "blockHash": "0x2a11668641f7e5d26455f5b356c7002a65037acb0b8d2d2f2f8dbddde3f9b3fc",
      "blockNumber": "0x1443998",
      "gasUsed": "0xcbaa",
      "effectiveGasPrice": "0xf4241",
      "from": "0xecf5e30f091d1db7c7b0ef26634a71d46dc9bb25",
      "to": "0x3863f44fe693764562c0d239e05c5f194544b0b4",
      "contractAddress": null
    }
  ],
  "libraries": [],
  "pending": [],
  "returns": {
    "a": {
      "internal_type": "struct RedeployTAVAndMigrate.Out",
      "value": "(0x3698F60a6761bfDd1511B4C68d000d55FF8fff81, 0x6201037d1490C8F5b5c46729F127F14Ff42010ba, 0x66d2eb526438745C6acb2e2F1C6738Ce3bFC18E0, 0x7Cb4C01909E3E46f45423133072F8F86431daC9a, 0xd52F10D74F4A212347812E78cA42136105d754C9, 0xdA1572E9E8466e04A160AF33AD29B569117Be7Be, 0x934f7639e5Cb320e4394736f5663b53E9C6b5c7b)"
    }
  },
  "timestamp": 1778271067655,
  "chain": 2368,
  "commit": "93334b7"
}