{
  "transactions": [
    {
      "hash": "0x69284168f1dbd59b3a81f5eb0951cfcaace8cd0117c2d9022b5422a4f79c632a",
      "transactionType": "CREATE",
      "contractName": "MockTestToken",
      "contractAddress": "0x3f81a60c5d5c6bfcb415080b846da22903ff37a0",
      "function": null,
      "arguments": [
        "Helios Mock WBTC",
        "mWBTC",
        "8"
      ],
      "transaction": {
        "from": "0xecf5e30f091d1db7c7b0ef26634a71d46dc9bb25",
        "gas": "0x97641",
        "value": "0x0",
        "input": "0x60a06040523461033057610a388038038061001981610334565b9283398101906060818303126103305780516001600160401b0381116103305782610045918301610359565b60208201519092906001600160401b03811161033057604091610069918401610359565b91015160ff811681036103305782516001600160401b03811161024157600354600181811c91168015610326575b602082101461022357601f81116102c3575b506020601f821160011461026057819293945f92610255575b50508160011b915f199060031b1c1916176003555b81516001600160401b03811161024157600454600181811c91168015610237575b602082101461022357601f81116101c0575b50602092601f821160011461015f57928192935f92610154575b50508160011b915f199060031b1c1916176004555b60805260405161068d90816103ab82396080518161031c0152f35b015190505f80610124565b601f1982169360045f52805f20915f5b8681106101a85750836001959610610190575b505050811b01600455610139565b01515f1960f88460031b161c191690555f8080610182565b9192602060018192868501518155019401920161016f565b60045f527f8a35acfbc15ff81a39ae7d344fd709f28e8600b4aa8c65c6b64bfe7fe36bd19b601f830160051c81019160208410610219575b601f0160051c01905b81811061020e575061010a565b5f8155600101610201565b90915081906101f8565b634e487b7160e01b5f52602260045260245ffd5b90607f16906100f8565b634e487b7160e01b5f52604160045260245ffd5b015190505f806100c2565b601f1982169060035f52805f20915f5b8181106102ab57509583600195969710610293575b505050811b016003556100d7565b01515f1960f88460031b161c191690555f8080610285565b9192602060018192868b015181550194019201610270565b60035f527fc2575a0e9e593c00f959f8c92f12db2869c3395a3b0502d05e2516446f71f85b601f830160051c8101916020841061031c575b601f0160051c01905b81811061031157506100a9565b5f8155600101610304565b90915081906102fb565b90607f1690610097565b5f80fd5b6040519190601f01601f191682016001600160401b0381118382101761024157604052565b81601f82011215610330578051906001600160401b03821161024157610388601f8301601f1916602001610334565b928284526020838301011161033057815f9260208093018386015e830101529056fe6080806040526004361015610012575f80fd5b5f3560e01c90816306fdde03146104be57508063095ea7b31461043c57806318160ddd1461041f57806323b872dd14610340578063313ce5671461030357806340c10f191461026157806370a082311461022a57806395d89b411461010f578063a9059cbb146100de5763dd62ed3e1461008a575f80fd5b346100da5760403660031901126100da576100a36105b7565b6100ab6105cd565b6001600160a01b039182165f908152600160209081526040808320949093168252928352819020549051908152f35b5f80fd5b346100da5760403660031901126100da576101046100fa6105b7565b60243590336105e3565b602060405160018152f35b346100da575f3660031901126100da576040515f6004548060011c90600181168015610220575b60208310811461020c578285529081156101f0575060011461019b575b50819003601f01601f191681019067ffffffffffffffff821181831017610187576101838291826040528261058d565b0390f35b634e487b7160e01b5f52604160045260245ffd5b905060045f527f8a35acfbc15ff81a39ae7d344fd709f28e8600b4aa8c65c6b64bfe7fe36bd19b5f905b8282106101da57506020915082010182610153565b60018160209254838588010152019101906101c5565b90506020925060ff191682840152151560051b82010182610153565b634e487b7160e01b5f52602260045260245ffd5b91607f1691610136565b346100da5760203660031901126100da576001600160a01b0361024b6105b7565b165f525f602052602060405f2054604051908152f35b346100da5760403660031901126100da5761027a6105b7565b6001600160a01b031660243581156102f057600254908082018092116102dc5760207fddf252ad1be2c89b69c2b068fc378daa952ba7f163c4a11628f55a4df523b3ef915f9360025584845283825260408420818154019055604051908152a3005b634e487b7160e01b5f52601160045260245ffd5b63ec442f0560e01b5f525f60045260245ffd5b346100da575f3660031901126100da57602060405160ff7f0000000000000000000000000000000000000000000000000000000000000000168152f35b346100da5760603660031901126100da576103596105b7565b6103616105cd565b6001600160a01b0382165f818152600160209081526040808320338452909152902054909260443592915f19811061039f575b5061010493506105e3565b8381106104045784156103f15733156103de57610104945f52600160205260405f2060018060a01b0333165f526020528360405f209103905584610394565b634a1406b160e11b5f525f60045260245ffd5b63e602df0560e01b5f525f60045260245ffd5b8390637dc7a0d960e11b5f523360045260245260445260645ffd5b346100da575f3660031901126100da576020600254604051908152f35b346100da5760403660031901126100da576104556105b7565b6024359033156103f1576001600160a01b03169081156103de57335f52600160205260405f20825f526020528060405f20556040519081527f8c5be1e5ebec7d5bd14f71427d1e84f3dd0314c0f7b2291e5b200ac8c7c3b92560203392a3602060405160018152f35b346100da575f3660031901126100da575f6003548060011c90600181168015610583575b60208310811461020c578285529081156101f0575060011461052e5750819003601f01601f191681019067ffffffffffffffff821181831017610187576101838291826040528261058d565b905060035f527fc2575a0e9e593c00f959f8c92f12db2869c3395a3b0502d05e2516446f71f85b5f905b82821061056d57506020915082010182610153565b6001816020925483858801015201910190610558565b91607f16916104e2565b602060409281835280519182918282860152018484015e5f828201840152601f01601f1916010190565b600435906001600160a01b03821682036100da57565b602435906001600160a01b03821682036100da57565b6001600160a01b031690811561067a576001600160a01b03169182156102f057815f525f60205260405f205481811061066157817fddf252ad1be2c89b69c2b068fc378daa952ba7f163c4a11628f55a4df523b3ef92602092855f525f84520360405f2055845f525f825260405f20818154019055604051908152a3565b8263391434e360e21b5f5260045260245260445260645ffd5b634b637e8f60e11b5f525f60045260245ffd000000000000000000000000000000000000000000000000000000000000006000000000000000000000000000000000000000000000000000000000000000a00000000000000000000000000000000000000000000000000000000000000008000000000000000000000000000000000000000000000000000000000000001048656c696f73204d6f636b20574254430000000000000000000000000000000000000000000000000000000000000000000000000000000000000000000000056d57425443000000000000000000000000000000000000000000000000000000",
        "nonce": "0x2cb",
        "chainId": "0x940"
      },
      "additionalContracts": [],
      "isFixedGasLimit": false
    },
    {
      "hash": "0x91c7eaadc4a6c3633e63d33d42c57096603b07573b6648020b754ac9ef0bbf2f",
      "transactionType": "CREATE",
      "contractName": "MockTestToken",
      "contractAddress": "0x789ff10eb109626b01816161be72c9df32be4a00",
      "function": null,
      "arguments": [
        "Helios Mock WETH",
        "mWETH",
        "18"
      ],
      "transaction": {
        "from": "0xecf5e30f091d1db7c7b0ef26634a71d46dc9bb25",
        "gas": "0x97641",
        "value": "0x0",
        "input": "0x60a06040523461033057610a388038038061001981610334565b9283398101906060818303126103305780516001600160401b0381116103305782610045918301610359565b60208201519092906001600160401b03811161033057604091610069918401610359565b91015160ff811681036103305782516001600160401b03811161024157600354600181811c91168015610326575b602082101461022357601f81116102c3575b506020601f821160011461026057819293945f92610255575b50508160011b915f199060031b1c1916176003555b81516001600160401b03811161024157600454600181811c91168015610237575b602082101461022357601f81116101c0575b50602092601f821160011461015f57928192935f92610154575b50508160011b915f199060031b1c1916176004555b60805260405161068d90816103ab82396080518161031c0152f35b015190505f80610124565b601f1982169360045f52805f20915f5b8681106101a85750836001959610610190575b505050811b01600455610139565b01515f1960f88460031b161c191690555f8080610182565b9192602060018192868501518155019401920161016f565b60045f527f8a35acfbc15ff81a39ae7d344fd709f28e8600b4aa8c65c6b64bfe7fe36bd19b601f830160051c81019160208410610219575b601f0160051c01905b81811061020e575061010a565b5f8155600101610201565b90915081906101f8565b634e487b7160e01b5f52602260045260245ffd5b90607f16906100f8565b634e487b7160e01b5f52604160045260245ffd5b015190505f806100c2565b601f1982169060035f52805f20915f5b8181106102ab57509583600195969710610293575b505050811b016003556100d7565b01515f1960f88460031b161c191690555f8080610285565b9192602060018192868b015181550194019201610270565b60035f527fc2575a0e9e593c00f959f8c92f12db2869c3395a3b0502d05e2516446f71f85b601f830160051c8101916020841061031c575b601f0160051c01905b81811061031157506100a9565b5f8155600101610304565b90915081906102fb565b90607f1690610097565b5f80fd5b6040519190601f01601f191682016001600160401b0381118382101761024157604052565b81601f82011215610330578051906001600160401b03821161024157610388601f8301601f1916602001610334565b928284526020838301011161033057815f9260208093018386015e830101529056fe6080806040526004361015610012575f80fd5b5f3560e01c90816306fdde03146104be57508063095ea7b31461043c57806318160ddd1461041f57806323b872dd14610340578063313ce5671461030357806340c10f191461026157806370a082311461022a57806395d89b411461010f578063a9059cbb146100de5763dd62ed3e1461008a575f80fd5b346100da5760403660031901126100da576100a36105b7565b6100ab6105cd565b6001600160a01b039182165f908152600160209081526040808320949093168252928352819020549051908152f35b5f80fd5b346100da5760403660031901126100da576101046100fa6105b7565b60243590336105e3565b602060405160018152f35b346100da575f3660031901126100da576040515f6004548060011c90600181168015610220575b60208310811461020c578285529081156101f0575060011461019b575b50819003601f01601f191681019067ffffffffffffffff821181831017610187576101838291826040528261058d565b0390f35b634e487b7160e01b5f52604160045260245ffd5b905060045f527f8a35acfbc15ff81a39ae7d344fd709f28e8600b4aa8c65c6b64bfe7fe36bd19b5f905b8282106101da57506020915082010182610153565b60018160209254838588010152019101906101c5565b90506020925060ff191682840152151560051b82010182610153565b634e487b7160e01b5f52602260045260245ffd5b91607f1691610136565b346100da5760203660031901126100da576001600160a01b0361024b6105b7565b165f525f602052602060405f2054604051908152f35b346100da5760403660031901126100da5761027a6105b7565b6001600160a01b031660243581156102f057600254908082018092116102dc5760207fddf252ad1be2c89b69c2b068fc378daa952ba7f163c4a11628f55a4df523b3ef915f9360025584845283825260408420818154019055604051908152a3005b634e487b7160e01b5f52601160045260245ffd5b63ec442f0560e01b5f525f60045260245ffd5b346100da575f3660031901126100da57602060405160ff7f0000000000000000000000000000000000000000000000000000000000000000168152f35b346100da5760603660031901126100da576103596105b7565b6103616105cd565b6001600160a01b0382165f818152600160209081526040808320338452909152902054909260443592915f19811061039f575b5061010493506105e3565b8381106104045784156103f15733156103de57610104945f52600160205260405f2060018060a01b0333165f526020528360405f209103905584610394565b634a1406b160e11b5f525f60045260245ffd5b63e602df0560e01b5f525f60045260245ffd5b8390637dc7a0d960e11b5f523360045260245260445260645ffd5b346100da575f3660031901126100da576020600254604051908152f35b346100da5760403660031901126100da576104556105b7565b6024359033156103f1576001600160a01b03169081156103de57335f52600160205260405f20825f526020528060405f20556040519081527f8c5be1e5ebec7d5bd14f71427d1e84f3dd0314c0f7b2291e5b200ac8c7c3b92560203392a3602060405160018152f35b346100da575f3660031901126100da575f6003548060011c90600181168015610583575b60208310811461020c578285529081156101f0575060011461052e5750819003601f01601f191681019067ffffffffffffffff821181831017610187576101838291826040528261058d565b905060035f527fc2575a0e9e593c00f959f8c92f12db2869c3395a3b0502d05e2516446f71f85b5f905b82821061056d57506020915082010182610153565b6001816020925483858801015201910190610558565b91607f16916104e2565b602060409281835280519182918282860152018484015e5f828201840152601f01601f1916010190565b600435906001600160a01b03821682036100da57565b602435906001600160a01b03821682036100da57565b6001600160a01b031690811561067a576001600160a01b03169182156102f057815f525f60205260405f205481811061066157817fddf252ad1be2c89b69c2b068fc378daa952ba7f163c4a11628f55a4df523b3ef92602092855f525f84520360405f2055845f525f825260405f20818154019055604051908152a3565b8263391434e360e21b5f5260045260245260445260645ffd5b634b637e8f60e11b5f525f60045260245ffd000000000000000000000000000000000000000000000000000000000000006000000000000000000000000000000000000000000000000000000000000000a00000000000000000000000000000000000000000000000000000000000000012000000000000000000000000000000000000000000000000000000000000001048656c696f73204d6f636b20574554480000000000000000000000000000000000000000000000000000000000000000000000000000000000000000000000056d57455448000000000000000000000000000000000000000000000000000000",
        "nonce": "0x2cc",
        "chainId": "0x940"
      },
      "additionalContracts": [],
      "isFixedGasLimit": false
    },
    {
      "hash": "0x89002a6e1ad1aae3846b786434b707db9bd02f5102ebc8b9f28ac047164991ef",
      "transactionType": "CREATE",
      "contractName": "MockTestToken",
      "contractAddress": "0xcf1276516a625723e40ae13d598de837079ad532",
      "function": null,
      "arguments": [
        "Helios Mock SOL",
        "mSOL",
        "9"
      ],
      "transaction": {
        "from": "0xecf5e30f091d1db7c7b0ef26634a71d46dc9bb25",
        "gas": "0x97622",
        "value": "0x0",
        "input": "0x60a06040523461033057610a388038038061001981610334565b9283398101906060818303126103305780516001600160401b0381116103305782610045918301610359565b60208201519092906001600160401b03811161033057604091610069918401610359565b91015160ff811681036103305782516001600160401b03811161024157600354600181811c91168015610326575b602082101461022357601f81116102c3575b506020601f821160011461026057819293945f92610255575b50508160011b915f199060031b1c1916176003555b81516001600160401b03811161024157600454600181811c91168015610237575b602082101461022357601f81116101c0575b50602092601f821160011461015f57928192935f92610154575b50508160011b915f199060031b1c1916176004555b60805260405161068d90816103ab82396080518161031c0152f35b015190505f80610124565b601f1982169360045f52805f20915f5b8681106101a85750836001959610610190575b505050811b01600455610139565b01515f1960f88460031b161c191690555f8080610182565b9192602060018192868501518155019401920161016f565b60045f527f8a35acfbc15ff81a39ae7d344fd709f28e8600b4aa8c65c6b64bfe7fe36bd19b601f830160051c81019160208410610219575b601f0160051c01905b81811061020e575061010a565b5f8155600101610201565b90915081906101f8565b634e487b7160e01b5f52602260045260245ffd5b90607f16906100f8565b634e487b7160e01b5f52604160045260245ffd5b015190505f806100c2565b601f1982169060035f52805f20915f5b8181106102ab57509583600195969710610293575b505050811b016003556100d7565b01515f1960f88460031b161c191690555f8080610285565b9192602060018192868b015181550194019201610270565b60035f527fc2575a0e9e593c00f959f8c92f12db2869c3395a3b0502d05e2516446f71f85b601f830160051c8101916020841061031c575b601f0160051c01905b81811061031157506100a9565b5f8155600101610304565b90915081906102fb565b90607f1690610097565b5f80fd5b6040519190601f01601f191682016001600160401b0381118382101761024157604052565b81601f82011215610330578051906001600160401b03821161024157610388601f8301601f1916602001610334565b928284526020838301011161033057815f9260208093018386015e830101529056fe6080806040526004361015610012575f80fd5b5f3560e01c90816306fdde03146104be57508063095ea7b31461043c57806318160ddd1461041f57806323b872dd14610340578063313ce5671461030357806340c10f191461026157806370a082311461022a57806395d89b411461010f578063a9059cbb146100de5763dd62ed3e1461008a575f80fd5b346100da5760403660031901126100da576100a36105b7565b6100ab6105cd565b6001600160a01b039182165f908152600160209081526040808320949093168252928352819020549051908152f35b5f80fd5b346100da5760403660031901126100da576101046100fa6105b7565b60243590336105e3565b602060405160018152f35b346100da575f3660031901126100da576040515f6004548060011c90600181168015610220575b60208310811461020c578285529081156101f0575060011461019b575b50819003601f01601f191681019067ffffffffffffffff821181831017610187576101838291826040528261058d565b0390f35b634e487b7160e01b5f52604160045260245ffd5b905060045f527f8a35acfbc15ff81a39ae7d344fd709f28e8600b4aa8c65c6b64bfe7fe36bd19b5f905b8282106101da57506020915082010182610153565b60018160209254838588010152019101906101c5565b90506020925060ff191682840152151560051b82010182610153565b634e487b7160e01b5f52602260045260245ffd5b91607f1691610136565b346100da5760203660031901126100da576001600160a01b0361024b6105b7565b165f525f602052602060405f2054604051908152f35b346100da5760403660031901126100da5761027a6105b7565b6001600160a01b031660243581156102f057600254908082018092116102dc5760207fddf252ad1be2c89b69c2b068fc378daa952ba7f163c4a11628f55a4df523b3ef915f9360025584845283825260408420818154019055604051908152a3005b634e487b7160e01b5f52601160045260245ffd5b63ec442f0560e01b5f525f60045260245ffd5b346100da575f3660031901126100da57602060405160ff7f0000000000000000000000000000000000000000000000000000000000000000168152f35b346100da5760603660031901126100da576103596105b7565b6103616105cd565b6001600160a01b0382165f818152600160209081526040808320338452909152902054909260443592915f19811061039f575b5061010493506105e3565b8381106104045784156103f15733156103de57610104945f52600160205260405f2060018060a01b0333165f526020528360405f209103905584610394565b634a1406b160e11b5f525f60045260245ffd5b63e602df0560e01b5f525f60045260245ffd5b8390637dc7a0d960e11b5f523360045260245260445260645ffd5b346100da575f3660031901126100da576020600254604051908152f35b346100da5760403660031901126100da576104556105b7565b6024359033156103f1576001600160a01b03169081156103de57335f52600160205260405f20825f526020528060405f20556040519081527f8c5be1e5ebec7d5bd14f71427d1e84f3dd0314c0f7b2291e5b200ac8c7c3b92560203392a3602060405160018152f35b346100da575f3660031901126100da575f6003548060011c90600181168015610583575b60208310811461020c578285529081156101f0575060011461052e5750819003601f01601f191681019067ffffffffffffffff821181831017610187576101838291826040528261058d565b905060035f527fc2575a0e9e593c00f959f8c92f12db2869c3395a3b0502d05e2516446f71f85b5f905b82821061056d57506020915082010182610153565b6001816020925483858801015201910190610558565b91607f16916104e2565b602060409281835280519182918282860152018484015e5f828201840152601f01601f1916010190565b600435906001600160a01b03821682036100da57565b602435906001600160a01b03821682036100da57565b6001600160a01b031690811561067a576001600160a01b03169182156102f057815f525f60205260405f205481811061066157817fddf252ad1be2c89b69c2b068fc378daa952ba7f163c4a11628f55a4df523b3ef92602092855f525f84520360405f2055845f525f825260405f20818154019055604051908152a3565b8263391434e360e21b5f5260045260245260445260645ffd5b634b637e8f60e11b5f525f60045260245ffd000000000000000000000000000000000000000000000000000000000000006000000000000000000000000000000000000000000000000000000000000000a00000000000000000000000000000000000000000000000000000000000000009000000000000000000000000000000000000000000000000000000000000000f48656c696f73204d6f636b20534f4c000000000000000000000000000000000000000000000000000000000000000000000000000000000000000000000000046d534f4c00000000000000000000000000000000000000000000000000000000",
        "nonce": "0x2cd",
        "chainId": "0x940"
      },
      "additionalContracts": [],
      "isFixedGasLimit": false
    },
    {
      "hash": "0xcc2edb5edf82d784ecb1edb1b8b259f9d10df94a7afa9d8dc01f8eb016c70856",
      "transactionType": "CALL",
      "contractName": "MockTestToken",
      "contractAddress": "0x3f81a60c5d5c6bfcb415080b846da22903ff37a0",
      "function": "mint(address,uint256)",
      "arguments": [
        "0xECf5e30F091D1db7c7b0ef26634a71d46DC9Bb25",
        "100000000000"
      ],
      "transaction": {
        "from": "0xecf5e30f091d1db7c7b0ef26634a71d46dc9bb25",
        "to": "0x3f81a60c5d5c6bfcb415080b846da22903ff37a0",
        "gas": "0x184e4",
        "value": "0x0",
        "input": "0x40c10f19000000000000000000000000ecf5e30f091d1db7c7b0ef26634a71d46dc9bb25000000000000000000000000000000000000000000000000000000174876e800",
        "nonce": "0x2ce",
        "chainId": "0x940"
      },
      "additionalContracts": [],
      "isFixedGasLimit": false
    },
    {
      "hash": "0x6b794fd252720055f271860612f8c44139052e8519aa91c48770eb88ee229e84",
      "transactionType": "CALL",
      "contractName": "MockTestToken",
      "contractAddress": "0x789ff10eb109626b01816161be72c9df32be4a00",
      "function": "mint(address,uint256)",
      "arguments": [
        "0xECf5e30F091D1db7c7b0ef26634a71d46DC9Bb25",
        "50000000000000000000000"
      ],
      "transaction": {
        "from": "0xecf5e30f091d1db7c7b0ef26634a71d46dc9bb25",
        "to": "0x789ff10eb109626b01816161be72c9df32be4a00",
        "gas": "0x1852a",
        "value": "0x0",
        "input": "0x40c10f19000000000000000000000000ecf5e30f091d1db7c7b0ef26634a71d46dc9bb25000000000000000000000000000000000000000000000a968163f0a57b400000",
        "nonce": "0x2cf",
        "chainId": "0x940"
      },
      "additionalContracts": [],
      "isFixedGasLimit": false
    },
    {
      "hash": "0x89d684528fd72d92de579376a4f9f8db480112058af6f02e88c5dea52eeffb46",
      "transactionType": "CALL",
      "contractName": "MockTestToken",
      "contractAddress": "0xcf1276516a625723e40ae13d598de837079ad532",
      "function": "mint(address,uint256)",
      "arguments": [
        "0xECf5e30F091D1db7c7b0ef26634a71d46DC9Bb25",
        "1000000000000000"
      ],
      "transaction": {
        "from": "0xecf5e30f091d1db7c7b0ef26634a71d46dc9bb25",
        "to": "0xcf1276516a625723e40ae13d598de837079ad532",
        "gas": "0x18507",
        "value": "0x0",
        "input": "0x40c10f19000000000000000000000000ecf5e30f091d1db7c7b0ef26634a71d46dc9bb2500000000000000000000000000000000000000000000000000038d7ea4c68000",
        "nonce": "0x2d0",
        "chainId": "0x940"
      },
      "additionalContracts": [],
      "isFixedGasLimit": false
    },
    {
      "hash": "0xf054027fd76fc48056489241d0efa1c726379f0ef79762c8b234cc32455f2734",
      "transactionType": "CALL",
      "contractName": "MockTestToken",
      "contractAddress": "0x3f81a60c5d5c6bfcb415080b846da22903ff37a0",
      "function": "transfer(address,uint256)",
      "arguments": [
        "0x55782e7019f4619A06A25bf66D2998C8Fe2CC436",
        "100000000000"
      ],
      "transaction": {
        "from": "0xecf5e30f091d1db7c7b0ef26634a71d46dc9bb25",
        "to": "0x3f81a60c5d5c6bfcb415080b846da22903ff37a0",
        "gas": "0xfa8e",
        "value": "0x0",
        "input": "0xa9059cbb00000000000000000000000055782e7019f4619a06a25bf66d2998c8fe2cc436000000000000000000000000000000000000000000000000000000174876e800",
        "nonce": "0x2d1",
        "chainId": "0x940"
      },
      "additionalContracts": [],
      "isFixedGasLimit": false
    },
    {
      "hash": "0x868d1d713a91a88288c5c4b96ed83d5dcff462db43c203aeede59742a7c31adf",
      "transactionType": "CALL",
      "contractName": "MockTestToken",
      "contractAddress": "0x789ff10eb109626b01816161be72c9df32be4a00",
      "function": "transfer(address,uint256)",
      "arguments": [
        "0x55782e7019f4619A06A25bf66D2998C8Fe2CC436",
        "50000000000000000000000"
      ],
      "transaction": {
        "from": "0xecf5e30f091d1db7c7b0ef26634a71d46dc9bb25",
        "to": "0x789ff10eb109626b01816161be72c9df32be4a00",
        "gas": "0xfad0",
        "value": "0x0",
        "input": "0xa9059cbb00000000000000000000000055782e7019f4619a06a25bf66d2998c8fe2cc436000000000000000000000000000000000000000000000a968163f0a57b400000",
        "nonce": "0x2d2",
        "chainId": "0x940"
      },
      "additionalContracts": [],
      "isFixedGasLimit": false
    },
    {
      "hash": "0xf98d6252b9cf623158a5f9344d667cc5c6637b9ded4ffc1cb7c0632d85ff1bf6",
      "transactionType": "CALL",
      "contractName": "MockTestToken",
      "contractAddress": "0xcf1276516a625723e40ae13d598de837079ad532",
      "function": "transfer(address,uint256)",
      "arguments": [
        "0x55782e7019f4619A06A25bf66D2998C8Fe2CC436",
        "1000000000000000"
      ],
      "transaction": {
        "from": "0xecf5e30f091d1db7c7b0ef26634a71d46dc9bb25",
        "to": "0xcf1276516a625723e40ae13d598de837079ad532",
        "gas": "0xfaae",
        "value": "0x0",
        "input": "0xa9059cbb00000000000000000000000055782e7019f4619a06a25bf66d2998c8fe2cc43600000000000000000000000000000000000000000000000000038d7ea4c68000",
        "nonce": "0x2d3",
        "chainId": "0x940"
      },
      "additionalContracts": [],
      "isFixedGasLimit": false
    }
  ],
  "receipts": [
    {
      "status": "0x1",
      "cumulativeGasUsed": "0x74746",
      "logs": [],
      "logsBloom": "0x00000000000000000000000000000000000000000000000000000000000000000000000000000000000000000000000000000000000000000000000000000000000000000000000000000000000000000000000000000000000000000000000000000000000000000000000000000000000000000000000000000000000000000000000000000000000000000000000000000000000000000000000000000000000000000000000000000000000000000000000000000000000000000000000000000000000000000000000000000000000000000000000000000000000000000000000000000000000000000000000000000000000000000000000000000000",
      "type": "0x2",
      "transactionHash": "0x69284168f1dbd59b3a81f5eb0951cfcaace8cd0117c2d9022b5422a4f79c632a",
      "transactionIndex": "0x0",
      "blockHash": "0x4fc6564f52b218e234bf28c1acee9cb598443449a64d58487f9b5e33ac36f2d7",
      "blockNumber": "0x1446fc5",
      "gasUsed": "0x74746",
      "effectiveGasPrice": "0xf4241",
      "from": "0xecf5e30f091d1db7c7b0ef26634a71d46dc9bb25",
      "to": null,
      "contractAddress": "0x3f81a60c5d5c6bfcb415080b846da22903ff37a0"
    },
    {
      "status": "0x1",
      "cumulativeGasUsed": "0x74746",
      "logs": [],
      "logsBloom": "0x00000000000000000000000000000000000000000000000000000000000000000000000000000000000000000000000000000000000000000000000000000000000000000000000000000000000000000000000000000000000000000000000000000000000000000000000000000000000000000000000000000000000000000000000000000000000000000000000000000000000000000000000000000000000000000000000000000000000000000000000000000000000000000000000000000000000000000000000000000000000000000000000000000000000000000000000000000000000000000000000000000000000000000000000000000000",
      "type": "0x2",
      "transactionHash": "0x91c7eaadc4a6c3633e63d33d42c57096603b07573b6648020b754ac9ef0bbf2f",
      "transactionIndex": "0x0",
      "blockHash": "0x1f176b28ae7c2840cbbc5623c6291f8232c46cf6c6c214baca1cbc06fae908a3",
      "blockNumber": "0x1446fc6",
      "gasUsed": "0x74746",
      "effectiveGasPrice": "0xf4241",
      "from": "0xecf5e30f091d1db7c7b0ef26634a71d46dc9bb25",
      "to": null,
      "contractAddress": "0x789ff10eb109626b01816161be72c9df32be4a00"
    },
    {
      "status": "0x1",
      "cumulativeGasUsed": "0x7472e",
      "logs": [],
      "logsBloom": "0x00000000000000000000000000000000000000000000000000000000000000000000000000000000000000000000000000000000000000000000000000000000000000000000000000000000000000000000000000000000000000000000000000000000000000000000000000000000000000000000000000000000000000000000000000000000000000000000000000000000000000000000000000000000000000000000000000000000000000000000000000000000000000000000000000000000000000000000000000000000000000000000000000000000000000000000000000000000000000000000000000000000000000000000000000000000",
      "type": "0x2",
      "transactionHash": "0x89002a6e1ad1aae3846b786434b707db9bd02f5102ebc8b9f28ac047164991ef",
      "transactionIndex": "0x0",
      "blockHash": "0x7665bfbf951eeab85431bf66ad868fbf4248bc8fb7ad9841400aa759523278fa",
      "blockNumber": "0x1446fc7",
      "gasUsed": "0x7472e",
      "effectiveGasPrice": "0xf4241",
      "from": "0xecf5e30f091d1db7c7b0ef26634a71d46dc9bb25",
      "to": null,
      "contractAddress": "0xcf1276516a625723e40ae13d598de837079ad532"
    },
    {
      "status": "0x1",
      "cumulativeGasUsed": "0x109e9",
      "logs": [
        {
          "address": "0x3f81a60c5d5c6bfcb415080b846da22903ff37a0",
          "topics": [
            "0xddf252ad1be2c89b69c2b068fc378daa952ba7f163c4a11628f55a4df523b3ef",
            "0x0000000000000000000000000000000000000000000000000000000000000000",
            "0x000000000000000000000000ecf5e30f091d1db7c7b0ef26634a71d46dc9bb25"
          ],
          "data": "0x000000000000000000000000000000000000000000000000000000174876e800",
          "blockHash": "0xa5c0f52984575dcd4ba70d8751f5a58ed68b04c3113b6138818d09def9b19875",
          "blockNumber": "0x1446fc8",
          "transactionHash": "0xcc2edb5edf82d784ecb1edb1b8b259f9d10df94a7afa9d8dc01f8eb016c70856",
          "transactionIndex": "0x0",
          "logIndex": "0x0",
          "removed": false
        }
      ],
      "logsBloom": "0x00000000000000002000000000000000000000000000000000000000000000000000000000000010000000000000000000000000000000000000000000000000400000000000000000000008000000000000000000000000000000000000000000000000020000000000000000000800000001000000000000000010000000000000000000000000000000000000000000800000000000000000000000000000000000000000000000000000000000000000000000000000000000000000000000000002000000000200000000000000000000000000000000000000000020000000000000000000000000000000000000000000000000000000000000000000",
      "type": "0x2",
      "transactionHash": "0xcc2edb5edf82d784ecb1edb1b8b259f9d10df94a7afa9d8dc01f8eb016c70856",
      "transactionIndex": "0x0",
      "blockHash": "0xa5c0f52984575dcd4ba70d8751f5a58ed68b04c3113b6138818d09def9b19875",
      "blockNumber": "0x1446fc8",
      "gasUsed": "0x109e9",
      "effectiveGasPrice": "0xf4241",
      "from": "0xecf5e30f091d1db7c7b0ef26634a71d46dc9bb25",
      "to": "0x3f81a60c5d5c6bfcb415080b846da22903ff37a0",
      "contractAddress": null
    },
    {
      "status": "0x1",
      "cumulativeGasUsed": "0x10a19",
      "logs": [
        {
          "address": "0x789ff10eb109626b01816161be72c9df32be4a00",
          "topics": [
            "0xddf252ad1be2c89b69c2b068fc378daa952ba7f163c4a11628f55a4df523b3ef",
            "0x0000000000000000000000000000000000000000000000000000000000000000",
            "0x000000000000000000000000ecf5e30f091d1db7c7b0ef26634a71d46dc9bb25"
          ],
          "data": "0x000000000000000000000000000000000000000000000a968163f0a57b400000",
          "blockHash": "0x1c09f6695418d4a3d0bcf51c5abb859723987ce7edbe46746c663d595a186bd7",
          "blockNumber": "0x1446fc9",
          "transactionHash": "0x6b794fd252720055f271860612f8c44139052e8519aa91c48770eb88ee229e84",
          "transactionIndex": "0x0",
          "logIndex": "0x0",
          "removed": false
        }
      ],
      "logsBloom": "0x00400000000000000000000000000000000000000000000000000000400000000000000000000000000000000000000000000000000000000000000000000000400000000000000000000008000000000000000001000000000000000000000000000000020000000000000000000800000000000000000000000010000000000000000000000000000000000000000000800000000000000000000000000000000000000000000000000000000000000000000000000000000000000000000000000002000000000200000000000000000000000000000000000000000020000000000000000000000000000000000000000000000000000000000000000000",
      "type": "0x2",
      "transactionHash": "0x6b794fd252720055f271860612f8c44139052e8519aa91c48770eb88ee229e84",
      "transactionIndex": "0x0",
      "blockHash": "0x1c09f6695418d4a3d0bcf51c5abb859723987ce7edbe46746c663d595a186bd7",
      "blockNumber": "0x1446fc9",
      "gasUsed": "0x10a19",
      "effectiveGasPrice": "0xf4241",
      "from": "0xecf5e30f091d1db7c7b0ef26634a71d46dc9bb25",
      "to": "0x789ff10eb109626b01816161be72c9df32be4a00",
      "contractAddress": null
    },
    {
      "status": "0x1",
      "cumulativeGasUsed": "0x10a01",
      "logs": [
        {
          "address": "0xcf1276516a625723e40ae13d598de837079ad532",
          "topics": [
            "0xddf252ad1be2c89b69c2b068fc378daa952ba7f163c4a11628f55a4df523b3ef",
            "0x0000000000000000000000000000000000000000000000000000000000000000",
            "0x000000000000000000000000ecf5e30f091d1db7c7b0ef26634a71d46dc9bb25"
          ],
          "data": "0x00000000000000000000000000000000000000000000000000038d7ea4c68000",
          "blockHash": "0xfcc88e649d49e6b165948a7172ce5912f563c4c9ea860100ee6143ed0daa6cd7",
          "blockNumber": "0x1446fca",
          "transactionHash": "0x89d684528fd72d92de579376a4f9f8db480112058af6f02e88c5dea52eeffb46",
          "transactionIndex": "0x0",
          "logIndex": "0x0",
          "removed": false
        }
      ],
      "logsBloom": "0x00000000000000000000000000000040000000000000000000000000000000000000000000000000000008000000000000000000000000000000000000000000400000000000000000000008000000000000000000000000000000000000000000000000020000000000000000000800000000000000000000000010000000000000000000000000000000000000000080800000000000000000000000000000000000000000000000000000000000000000000000000000000000000000000000000002000000000200000000000000000000000000000000000000000020000000000000000000000000000000000000000000000000000000000000000000",
      "type": "0x2",
      "transactionHash": "0x89d684528fd72d92de579376a4f9f8db480112058af6f02e88c5dea52eeffb46",
      "transactionIndex": "0x0",
      "blockHash": "0xfcc88e649d49e6b165948a7172ce5912f563c4c9ea860100ee6143ed0daa6cd7",
      "blockNumber": "0x1446fca",
      "gasUsed": "0x10a01",
      "effectiveGasPrice": "0xf4241",
      "from": "0xecf5e30f091d1db7c7b0ef26634a71d46dc9bb25",
      "to": "0xcf1276516a625723e40ae13d598de837079ad532",
      "contractAddress": null
    },
    {
      "status": "0x1",
      "cumulativeGasUsed": "0xc826",
      "logs": [
        {
          "address": "0x3f81a60c5d5c6bfcb415080b846da22903ff37a0",
          "topics": [
            "0xddf252ad1be2c89b69c2b068fc378daa952ba7f163c4a11628f55a4df523b3ef",
            "0x000000000000000000000000ecf5e30f091d1db7c7b0ef26634a71d46dc9bb25",
            "0x00000000000000000000000055782e7019f4619a06a25bf66d2998c8fe2cc436"
          ],
          "data": "0x000000000000000000000000000000000000000000000000000000174876e800",
          "blockHash": "0xc81c1cc84334abcf94d4be83df352abdd08a0ab624275761f453f02361731d28",
          "blockNumber": "0x1446fcb",
          "transactionHash": "0xf054027fd76fc48056489241d0efa1c726379f0ef79762c8b234cc32455f2734",
          "transactionIndex": "0x0",
          "logIndex": "0x0",
          "removed": false
        }
      ],
      "logsBloom": "0x00000000000000002000000000000000000000000000000000000000000000000000000000000010000000000000000000000000000000000000000000000000400000000000000000000008000000000000080000000000000000000000000000000000000000000000000000000000000001000000000000000010000000000000000000000002000000000000000100800000000000000000000000000000000000000000000000000000000000000000000000000000000000000000000000000002000000000200000000000000000000000000000000000000000000000000000000000000000000000000000000000000000000000000000000000000",
      "type": "0x2",
      "transactionHash": "0xf054027fd76fc48056489241d0efa1c726379f0ef79762c8b234cc32455f2734",
      "transactionIndex": "0x0",
      "blockHash": "0xc81c1cc84334abcf94d4be83df352abdd08a0ab624275761f453f02361731d28",
      "blockNumber": "0x1446fcb",
      "gasUsed": "0xc826",
      "effectiveGasPrice": "0xf4241",
      "from": "0xecf5e30f091d1db7c7b0ef26634a71d46dc9bb25",
      "to": "0x3f81a60c5d5c6bfcb415080b846da22903ff37a0",
      "contractAddress": null
    },
    {
      "status": "0x1",
      "cumulativeGasUsed": "0xc856",
      "logs": [
        {
          "address": "0x789ff10eb109626b01816161be72c9df32be4a00",
          "topics": [
            "0xddf252ad1be2c89b69c2b068fc378daa952ba7f163c4a11628f55a4df523b3ef",
            "0x000000000000000000000000ecf5e30f091d1db7c7b0ef26634a71d46dc9bb25",
            "0x00000000000000000000000055782e7019f4619a06a25bf66d2998c8fe2cc436"
          ],
          "data": "0x000000000000000000000000000000000000000000000a968163f0a57b400000",
          "blockHash": "0x3a2a1c4ea5655b4aa85db20c48f3a113e38f82142a8bcfe61dce26990e79b35d",
          "blockNumber": "0x1446fcc",
          "transactionHash": "0x868d1d713a91a88288c5c4b96ed83d5dcff462db43c203aeede59742a7c31adf",
          "transactionIndex": "0x0",
          "logIndex": "0x0",
          "removed": false
        }
      ],
      "logsBloom": "0x00400000000000000000000000000000000000000000000000000000400000000000000000000000000000000000000000000000000000000000000000000000400000000000000000000008000000000000080001000000000000000000000000000000000000000000000000000000000000000000000000000010000000000000000000000002000000000000000100800000000000000000000000000000000000000000000000000000000000000000000000000000000000000000000000000002000000000200000000000000000000000000000000000000000000000000000000000000000000000000000000000000000000000000000000000000",
      "type": "0x2",
      "transactionHash": "0x868d1d713a91a88288c5c4b96ed83d5dcff462db43c203aeede59742a7c31adf",
      "transactionIndex": "0x0",
      "blockHash": "0x3a2a1c4ea5655b4aa85db20c48f3a113e38f82142a8bcfe61dce26990e79b35d",
      "blockNumber": "0x1446fcc",
      "gasUsed": "0xc856",
      "effectiveGasPrice": "0xf4241",
      "from": "0xecf5e30f091d1db7c7b0ef26634a71d46dc9bb25",
      "to": "0x789ff10eb109626b01816161be72c9df32be4a00",
      "contractAddress": null
    },
    {
      "status": "0x1",
      "cumulativeGasUsed": "0xc83e",
      "logs": [
        {
          "address": "0xcf1276516a625723e40ae13d598de837079ad532",
          "topics": [
            "0xddf252ad1be2c89b69c2b068fc378daa952ba7f163c4a11628f55a4df523b3ef",
            "0x000000000000000000000000ecf5e30f091d1db7c7b0ef26634a71d46dc9bb25",
            "0x00000000000000000000000055782e7019f4619a06a25bf66d2998c8fe2cc436"
          ],
          "data": "0x00000000000000000000000000000000000000000000000000038d7ea4c68000",
          "blockHash": "0xaa7d318d8db4ed46b7e71767c4a025365c210402de9b244586cfbffe657e9102",
          "blockNumber": "0x1446fcd",
          "transactionHash": "0xf98d6252b9cf623158a5f9344d667cc5c6637b9ded4ffc1cb7c0632d85ff1bf6",
          "transactionIndex": "0x0",
          "logIndex": "0x0",
          "removed": false
        }
      ],
      "logsBloom": "0x00000000000000000000000000000040000000000000000000000000000000000000000000000000000008000000000000000000000000000000000000000000400000000000000000000008000000000000080000000000000000000000000000000000000000000000000000000000000000000000000000000010000000000000000000000002000000000000000180800000000000000000000000000000000000000000000000000000000000000000000000000000000000000000000000000002000000000200000000000000000000000000000000000000000000000000000000000000000000000000000000000000000000000000000000000000",
      "type": "0x2",
      "transactionHash": "0xf98d6252b9cf623158a5f9344d667cc5c6637b9ded4ffc1cb7c0632d85ff1bf6",
      "transactionIndex": "0x0",
      "blockHash": "0xaa7d318d8db4ed46b7e71767c4a025365c210402de9b244586cfbffe657e9102",
      "blockNumber": "0x1446fcd",
      "gasUsed": "0xc83e",
      "effectiveGasPrice": "0xf4241",
      "from": "0xecf5e30f091d1db7c7b0ef26634a71d46dc9bb25",
      "to": "0xcf1276516a625723e40ae13d598de837079ad532",
      "contractAddress": null
    }
  ],
  "libraries": [],
  "pending": [],
  "returns": {
    "o": {
      "internal_type": "struct DeployTestUniverse.Outputs",
      "value": "(0x3F81a60c5d5c6BFcB415080B846Da22903Ff37A0, 0x789fF10Eb109626b01816161bE72C9df32BE4A00, 0xcF1276516A625723E40AE13d598DE837079Ad532)"
    }
  },
  "timestamp": 1778340221843,
  "chain": 2368,
  "commit": "e7f8094"
}