{
  "transactions": [
    {
      "hash": "0x5baae862e7f260187b782f9a09c9bb63a9980e4db0efc05f2f9a3c83ce985404",
      "transactionType": "CALL",
      "contractName": null,
      "contractAddress": "0x3a0f5b9436eca0c8c0eced659dcc41e86e65e33d",
      "function": "deactivate(address)",
      "arguments": [
        "0xf11D55a3057A3Da51c9ED63BdC6aE8F666Fa426A"
      ],
      "transaction": {
        "from": "0xecf5e30f091d1db7c7b0ef26634a71d46dc9bb25",
        "to": "0x3a0f5b9436eca0c8c0eced659dcc41e86e65e33d",
        "gas": "0xa2f1",
        "value": "0x0",
        "input": "0x3ea053eb000000000000000000000000f11d55a3057a3da51c9ed63bdc6ae8f666fa426a",
        "nonce": "0x2e8",
        "chainId": "0x940"
      },
      "additionalContracts": [],
      "isFixedGasLimit": false
    },
    {
      "hash": "0x467a7908179c2533c2114db6a301ecc34c08f0107a61d3e3930cbab8984229d0",
      "transactionType": "CALL",
      "contractName": null,
      "contractAddress": "0x3a0f5b9436eca0c8c0eced659dcc41e86e65e33d",
      "function": "deactivate(address)",
      "arguments": [
        "0xc1B19Df0003eaDF29313826DC874c769Ebb09109"
      ],
      "transaction": {
        "from": "0xecf5e30f091d1db7c7b0ef26634a71d46dc9bb25",
        "to": "0x3a0f5b9436eca0c8c0eced659dcc41e86e65e33d",
        "gas": "0xa2e0",
        "value": "0x0",
        "input": "0x3ea053eb000000000000000000000000c1b19df0003eadf29313826dc874c769ebb09109",
        "nonce": "0x2e9",
        "chainId": "0x940"
      },
      "additionalContracts": [],
      "isFixedGasLimit": false
    },
    {
      "hash": "0xbac735c5a6c93c6948309e5dcb5b4ba439ebd2e9543f7afc48d091484ce0704f",
      "transactionType": "CALL",
      "contractName": null,
      "contractAddress": "0x3a0f5b9436eca0c8c0eced659dcc41e86e65e33d",
      "function": "deactivate(address)",
      "arguments": [
        "0x4e19e5EeC25fc15FBC30A9446d283f4EBeD6462C"
      ],
      "transaction": {
        "from": "0xecf5e30f091d1db7c7b0ef26634a71d46dc9bb25",
        "to": "0x3a0f5b9436eca0c8c0eced659dcc41e86e65e33d",
        "gas": "0xa2f1",
        "value": "0x0",
        "input": "0x3ea053eb0000000000000000000000004e19e5eec25fc15fbc30a9446d283f4ebed6462c",
        "nonce": "0x2ea",
        "chainId": "0x940"
      },
      "additionalContracts": [],
      "isFixedGasLimit": false
    },
    {
      "hash": "0x0ba552e0655673e5a147e6250a45ed3ebd80345136bcbcb20053e6fe53a3435e",
      "transactionType": "CALL",
      "contractName": null,
      "contractAddress": "0x3a0f5b9436eca0c8c0eced659dcc41e86e65e33d",
      "function": "deactivate(address)",
      "arguments": [
        "0xE85FC70edC752D3ff283F3FFFA17598d32b5FC07"
      ],
      "transaction": {
        "from": "0xecf5e30f091d1db7c7b0ef26634a71d46dc9bb25",
        "to": "0x3a0f5b9436eca0c8c0eced659dcc41e86e65e33d",
        "gas": "0xa2f1",
        "value": "0x0",
        "input": "0x3ea053eb000000000000000000000000e85fc70edc752d3ff283f3fffa17598d32b5fc07",
        "nonce": "0x2eb",
        "chainId": "0x940"
      },
      "additionalContracts": [],
      "isFixedGasLimit": false
    },
    {
      "hash": "0x4b3038b0f92a2397f9d677d6996c562ac8ce33abe8db2e8af386828a7ec863e9",
      "transactionType": "CALL",
      "contractName": null,
      "contractAddress": "0x3a0f5b9436eca0c8c0eced659dcc41e86e65e33d",
      "function": "deactivate(address)",
      "arguments": [
        "0xD4898262Bb6FfBaF5F0C016663a2C59767DDb65F"
      ],
      "transaction": {
        "from": "0xecf5e30f091d1db7c7b0ef26634a71d46dc9bb25",
        "to": "0x3a0f5b9436eca0c8c0eced659dcc41e86e65e33d",
        "gas": "0xa2f1",
        "value": "0x0",
        "input": "0x3ea053eb000000000000000000000000d4898262bb6ffbaf5f0c016663a2c59767ddb65f",
        "nonce": "0x2ec",
        "chainId": "0x940"
      },
      "additionalContracts": [],
      "isFixedGasLimit": false
    },
    {
      "hash": "0x1f2a9e7f08e3ad8b0ead7e0d0673f8ea50678b1f84e53c0948ad0c73ac133b56",
      "transactionType": "CALL",
      "contractName": null,
      "contractAddress": "0x3a0f5b9436eca0c8c0eced659dcc41e86e65e33d",
      "function": "deactivate(address)",
      "arguments": [
        "0x50c1DCC21E571c106eEE21f42f22FB6eA0d4a708"
      ],
      "transaction": {
        "from": "0xecf5e30f091d1db7c7b0ef26634a71d46dc9bb25",
        "to": "0x3a0f5b9436eca0c8c0eced659dcc41e86e65e33d",
        "gas": "0xa2f1",
        "value": "0x0",
        "input": "0x3ea053eb00000000000000000000000050c1dcc21e571c106eee21f42f22fb6ea0d4a708",
        "nonce": "0x2ed",
        "chainId": "0x940"
      },
      "additionalContracts": [],
      "isFixedGasLimit": false
    },
    {
      "hash": "0x28b3b4a4a8c62b9749111b81d36988c9791ebbb87cbbf9b17a7746a40076395b",
      "transactionType": "CALL",
      "contractName": null,
      "contractAddress": "0x3a0f5b9436eca0c8c0eced659dcc41e86e65e33d",
      "function": "deactivate(address)",
      "arguments": [
        "0xb7496bE712Ed62fB02c6b9665F74eE6ff136d0d7"
      ],
      "transaction": {
        "from": "0xecf5e30f091d1db7c7b0ef26634a71d46dc9bb25",
        "to": "0x3a0f5b9436eca0c8c0eced659dcc41e86e65e33d",
        "gas": "0xa2f1",
        "value": "0x0",
        "input": "0x3ea053eb000000000000000000000000b7496be712ed62fb02c6b9665f74ee6ff136d0d7",
        "nonce": "0x2ee",
        "chainId": "0x940"
      },
      "additionalContracts": [],
      "isFixedGasLimit": false
    },
    {
      "hash": "0x6abf16429c576dd0e8b2dd9e5c18083fa5b75000cc32042d53fa13c8b9af9b43",
      "transactionType": "CALL",
      "contractName": null,
      "contractAddress": "0x3a0f5b9436eca0c8c0eced659dcc41e86e65e33d",
      "function": "deactivate(address)",
      "arguments": [
        "0x5605B2E1883428680266fD25cb7429f2001c0c17"
      ],
      "transaction": {
        "from": "0xecf5e30f091d1db7c7b0ef26634a71d46dc9bb25",
        "to": "0x3a0f5b9436eca0c8c0eced659dcc41e86e65e33d",
        "gas": "0xa2e0",
        "value": "0x0",
        "input": "0x3ea053eb0000000000000000000000005605b2e1883428680266fd25cb7429f2001c0c17",
        "nonce": "0x2ef",
        "chainId": "0x940"
      },
      "additionalContracts": [],
      "isFixedGasLimit": false
    },
    {
      "hash": "0x7bd9bb320958e8230de20f4a31497db0e090cecd209700b1bcdd904e574bd58c",
      "transactionType": "CALL",
      "contractName": null,
      "contractAddress": "0x3a0f5b9436eca0c8c0eced659dcc41e86e65e33d",
      "function": "deactivate(address)",
      "arguments": [
        "0x3863f44FE693764562c0d239e05C5F194544B0B4"
      ],
      "transaction": {
        "from": "0xecf5e30f091d1db7c7b0ef26634a71d46dc9bb25",
        "to": "0x3a0f5b9436eca0c8c0eced659dcc41e86e65e33d",
        "gas": "0xa2f1",
        "value": "0x0",
        "input": "0x3ea053eb0000000000000000000000003863f44fe693764562c0d239e05c5f194544b0b4",
        "nonce": "0x2f0",
        "chainId": "0x940"
      },
      "additionalContracts": [],
      "isFixedGasLimit": false
    }
  ],
  "receipts": [
    {
      "status": "0x1",
      "cumulativeGasUsed": "0x75f8",
      "logs": [
        {
          "address": "0x3a0f5b9436eca0c8c0eced659dcc41e86e65e33d",
          "topics": [
            "0x274ec28d31430170ad5dd350f8e7505ffab078c309300878c710383ae4cbed49",
            "0x000000000000000000000000f11d55a3057a3da51c9ed63bdc6ae8f666fa426a"
          ],
          "data": "0x",
          "blockHash": "0x8056b89326ed9fd7fcba5a830f6dc2913df8eb62b87c690df55bd11abf3f2c16",
          "blockNumber": "0x144700f",
          "transactionHash": "0x5baae862e7f260187b782f9a09c9bb63a9980e4db0efc05f2f9a3c83ce985404",
          "transactionIndex": "0x0",
          "logIndex": "0x0",
          "removed": false
        }
      ],
      "logsBloom": "0x00000000000000000000000000000000000000000000000000000000000000000000000000000000000000080000000000000000000000002000000000000000000000000002000000000000000000000000000000000000000000000000000000000000000000000000000000000000000000000200000080000000000000000100000000000000000000100000000000000000000010000000000000000000000000000000000000000004000000000000000000000000000000000000000000000000000000000000000000000000000000000000000000000000000000000000000000000000000000000000000000000000000000000000000000000000",
      "type": "0x2",
      "transactionHash": "0x5baae862e7f260187b782f9a09c9bb63a9980e4db0efc05f2f9a3c83ce985404",
      "transactionIndex": "0x0",
      "blockHash": "0x8056b89326ed9fd7fcba5a830f6dc2913df8eb62b87c690df55bd11abf3f2c16",
      "blockNumber": "0x144700f",
      "gasUsed": "0x75f8",
      "effectiveGasPrice": "0xf4241",
      "from": "0xecf5e30f091d1db7c7b0ef26634a71d46dc9bb25",
      "to": "0x3a0f5b9436eca0c8c0eced659dcc41e86e65e33d",
      "contractAddress": null
    },
    {
      "status": "0x1",
      "cumulativeGasUsed": "0x75ec",
      "logs": [
        {
          "address": "0x3a0f5b9436eca0c8c0eced659dcc41e86e65e33d",
          "topics": [
            "0x274ec28d31430170ad5dd350f8e7505ffab078c309300878c710383ae4cbed49",
            "0x000000000000000000000000c1b19df0003eadf29313826dc874c769ebb09109"
          ],
          "data": "0x",
          "blockHash": "0x401546c04094d3588bab9dac1feb4ad61433c74b6da2fcea1341aa8842792316",
          "blockNumber": "0x1447010",
          "transactionHash": "0x467a7908179c2533c2114db6a301ecc34c08f0107a61d3e3930cbab8984229d0",
          "transactionIndex": "0x0",
          "logIndex": "0x0",
          "removed": false
        }
      ],
      "logsBloom": "0x00000000000000000000000000000000000000000000000000000000000000000000000000000000000000080000000000000000000001002000000000000000000000000000000000000000000000000000000000000000000000040000000000000000000000000000000000000000000000000200000080000000000000000000000000000000000000100000000400000000000000000000000000000000000000000000000000000004000000000000000000000000000000000000000000000000000000000000000000000000000000000000000000000000000000000000000000000000000000000000000000000000000000000000000000000000",
      "type": "0x2",
      "transactionHash": "0x467a7908179c2533c2114db6a301ecc34c08f0107a61d3e3930cbab8984229d0",
      "transactionIndex": "0x0",
      "blockHash": "0x401546c04094d3588bab9dac1feb4ad61433c74b6da2fcea1341aa8842792316",
      "blockNumber": "0x1447010",
      "gasUsed": "0x75ec",
      "effectiveGasPrice": "0xf4241",
      "from": "0xecf5e30f091d1db7c7b0ef26634a71d46dc9bb25",
      "to": "0x3a0f5b9436eca0c8c0eced659dcc41e86e65e33d",
      "contractAddress": null
    },
    {
      "status": "0x1",
      "cumulativeGasUsed": "0x75f8",
      "logs": [
        {
          "address": "0x3a0f5b9436eca0c8c0eced659dcc41e86e65e33d",
          "topics": [
            "0x274ec28d31430170ad5dd350f8e7505ffab078c309300878c710383ae4cbed49",
            "0x0000000000000000000000004e19e5eec25fc15fbc30a9446d283f4ebed6462c"
          ],
          "data": "0x",
          "blockHash": "0xcb4e6cfe2a05dcfcf2a7c389f3b89aa131644788e67178611b2ca8c20e875738",
          "blockNumber": "0x1447011",
          "transactionHash": "0xbac735c5a6c93c6948309e5dcb5b4ba439ebd2e9543f7afc48d091484ce0704f",
          "transactionIndex": "0x0",
          "logIndex": "0x0",
          "removed": false
        }
      ],
      "logsBloom": "0x00000000000000000000000000000000000000000000000000000000000000000000000000000000000000080001000000000000000000002000000000000000000000000000000000000000000000000000000000001000000000000000000000000000000000000000000000000000000000000200000080000000000000000000000000000000000000100000000000000000000000000020000000000000000000000000000000000004000000000000000000000000000000000000000000000000000000000000000000000000000000000000000000000000000000000000000000000000000000000000000000000000000000000000000000000000",
      "type": "0x2",
      "transactionHash": "0xbac735c5a6c93c6948309e5dcb5b4ba439ebd2e9543f7afc48d091484ce0704f",
      "transactionIndex": "0x0",
      "blockHash": "0xcb4e6cfe2a05dcfcf2a7c389f3b89aa131644788e67178611b2ca8c20e875738",
      "blockNumber": "0x1447011",
      "gasUsed": "0x75f8",
      "effectiveGasPrice": "0xf4241",
      "from": "0xecf5e30f091d1db7c7b0ef26634a71d46dc9bb25",
      "to": "0x3a0f5b9436eca0c8c0eced659dcc41e86e65e33d",
      "contractAddress": null
    },
    {
      "status": "0x1",
      "cumulativeGasUsed": "0x75f8",
      "logs": [
        {
          "address": "0x3a0f5b9436eca0c8c0eced659dcc41e86e65e33d",
          "topics": [
            "0x274ec28d31430170ad5dd350f8e7505ffab078c309300878c710383ae4cbed49",
            "0x000000000000000000000000e85fc70edc752d3ff283f3fffa17598d32b5fc07"
          ],
          "data": "0x",
          "blockHash": "0xea47e6181d39f00b37cf5a32d6dc9040cc4fcfe9de83f84316e6f74d53d6cd06",
          "blockNumber": "0x1447012",
          "transactionHash": "0x0ba552e0655673e5a147e6250a45ed3ebd80345136bcbcb20053e6fe53a3435e",
          "transactionIndex": "0x0",
          "logIndex": "0x0",
          "removed": false
        }
      ],
      "logsBloom": "0x00000000000000000000000000080001000000000000000000000000000000000000000000000000000000080000000000000000000000002000000000000000000000000000000000000000000000000000000000000000000000000008000000000000000000000000000000000000000000000200000080000000000000000000000000000000000000100000000000000000000000000000000000000000000000000000000000000004000000000000000000000000000000000000000000000000000000000000000000000000000000000000000000000000000000000000000000000000000000000000000000000000000000000000000000000000",
      "type": "0x2",
      "transactionHash": "0x0ba552e0655673e5a147e6250a45ed3ebd80345136bcbcb20053e6fe53a3435e",
      "transactionIndex": "0x0",
      "blockHash": "0xea47e6181d39f00b37cf5a32d6dc9040cc4fcfe9de83f84316e6f74d53d6cd06",
      "blockNumber": "0x1447012",
      "gasUsed": "0x75f8",
      "effectiveGasPrice": "0xf4241",
      "from": "0xecf5e30f091d1db7c7b0ef26634a71d46dc9bb25",
      "to": "0x3a0f5b9436eca0c8c0eced659dcc41e86e65e33d",
      "contractAddress": null
    },
    {
      "status": "0x1",
      "cumulativeGasUsed": "0x75f8",
      "logs": [
        {
          "address": "0x3a0f5b9436eca0c8c0eced659dcc41e86e65e33d",
          "topics": [
            "0x274ec28d31430170ad5dd350f8e7505ffab078c309300878c710383ae4cbed49",
            "0x000000000000000000000000d4898262bb6ffbaf5f0c016663a2c59767ddb65f"
          ],
          "data": "0x",
          "blockHash": "0x787283035d18a75fe8a1ff5ad9e4a1840598375b0b3d73e1e4655c51976961f9",
          "blockNumber": "0x1447013",
          "transactionHash": "0x4b3038b0f92a2397f9d677d6996c562ac8ce33abe8db2e8af386828a7ec863e9",
          "transactionIndex": "0x0",
          "logIndex": "0x0",
          "removed": false
        }
      ],
      "logsBloom": "0x00000000000000000000000000000000000000000000000000000000000000000000000008000000000000080000000000000000000000002000000000000000000000000000000000000000000000000000000000000000000000000000000000000000000000000000000000000000000000000200000080000000000000000000000000000000000000100000000000000000000000000000000000000000000000000000000000000004000000000000000000000000000000000000000000000000000000000000000000000000000020000000000000000010000000000000000000000000000000000000000000000000000000000000000000000000",
      "type": "0x2",
      "transactionHash": "0x4b3038b0f92a2397f9d677d6996c562ac8ce33abe8db2e8af386828a7ec863e9",
      "transactionIndex": "0x0",
      "blockHash": "0x787283035d18a75fe8a1ff5ad9e4a1840598375b0b3d73e1e4655c51976961f9",
      "blockNumber": "0x1447013",
      "gasUsed": "0x75f8",
      "effectiveGasPrice": "0xf4241",
      "from": "0xecf5e30f091d1db7c7b0ef26634a71d46dc9bb25",
      "to": "0x3a0f5b9436eca0c8c0eced659dcc41e86e65e33d",
      "contractAddress": null
    },
    {
      "status": "0x1",
      "cumulativeGasUsed": "0x75f8",
      "logs": [
        {
          "address": "0x3a0f5b9436eca0c8c0eced659dcc41e86e65e33d",
          "topics": [
            "0x274ec28d31430170ad5dd350f8e7505ffab078c309300878c710383ae4cbed49",
            "0x00000000000000000000000050c1dcc21e571c106eee21f42f22fb6ea0d4a708"
          ],
          "data": "0x",
          "blockHash": "0x46d1af586344018b281a954cf434f4a0f0057e78df7fc7cb96c52ffd90b84b1c",
          "blockNumber": "0x1447014",
          "transactionHash": "0x1f2a9e7f08e3ad8b0ead7e0d0673f8ea50678b1f84e53c0948ad0c73ac133b56",
          "transactionIndex": "0x0",
          "logIndex": "0x0",
          "removed": false
        }
      ],
      "logsBloom": "0x00000000000000000000000000000000000000000000000000000000000000000000000000400000000000080000000000008000000000002000000000000000000000000000000000000000000000000000000000000000000000000000000000000000000000000000000000000000000000000200000080000000000000000000000000000000000000100000000000000000000000000000000000000000000000000000000000000004000000000000000000000000000000000000000000000000000000000000000000000000000000000000000000000000000000000000000000000000000000000000000000000000000000000000000000000010",
      "type": "0x2",
      "transactionHash": "0x1f2a9e7f08e3ad8b0ead7e0d0673f8ea50678b1f84e53c0948ad0c73ac133b56",
      "transactionIndex": "0x0",
      "blockHash": "0x46d1af586344018b281a954cf434f4a0f0057e78df7fc7cb96c52ffd90b84b1c",
      "blockNumber": "0x1447014",
      "gasUsed": "0x75f8",
      "effectiveGasPrice": "0xf4241",
      "from": "0xecf5e30f091d1db7c7b0ef26634a71d46dc9bb25",
      "to": "0x3a0f5b9436eca0c8c0eced659dcc41e86e65e33d",
      "contractAddress": null
    },
    {
      "status": "0x1",
      "cumulativeGasUsed": "0x75f8",
      "logs": [
        {
          "address": "0x3a0f5b9436eca0c8c0eced659dcc41e86e65e33d",
          "topics": [
            "0x274ec28d31430170ad5dd350f8e7505ffab078c309300878c710383ae4cbed49",
            "0x000000000000000000000000b7496be712ed62fb02c6b9665f74ee6ff136d0d7"
          ],
          "data": "0x",
          "blockHash": "0xeb31c674819493447d2107affebef7a9f8c0e5282a9b56d2a5996d02cdaef77a",
          "blockNumber": "0x1447015",
          "transactionHash": "0x28b3b4a4a8c62b9749111b81d36988c9791ebbb87cbbf9b17a7746a40076395b",
          "transactionIndex": "0x0",
          "logIndex": "0x0",
          "removed": false
        }
      ],
      "logsBloom": "0x00000000000000000000000000000000000000000000000000000000000000000000000000000000000000080000000000000000000000002000000000000000000000000000000000000000000000000000080000000000000000000000000000000000000000000000000000000000000000000200000080000000000000000000000000000000000000100000000000000000000000000000000000000000000000000000000000000004000000000000000000400000000000000000000000000000000000000000000000000000200000000000000000000000000000000000000000000000000000000000000000000000000000000000000000000000",
      "type": "0x2",
      "transactionHash": "0x28b3b4a4a8c62b9749111b81d36988c9791ebbb87cbbf9b17a7746a40076395b",
      "transactionIndex": "0x0",
      "blockHash": "0xeb31c674819493447d2107affebef7a9f8c0e5282a9b56d2a5996d02cdaef77a",
      "blockNumber": "0x1447015",
      "gasUsed": "0x75f8",
      "effectiveGasPrice": "0xf4241",
      "from": "0xecf5e30f091d1db7c7b0ef26634a71d46dc9bb25",
      "to": "0x3a0f5b9436eca0c8c0eced659dcc41e86e65e33d",
      "contractAddress": null
    },
    {
      "status": "0x1",
      "cumulativeGasUsed": "0x75ec",
      "logs": [
        {
          "address": "0x3a0f5b9436eca0c8c0eced659dcc41e86e65e33d",
          "topics": [
            "0x274ec28d31430170ad5dd350f8e7505ffab078c309300878c710383ae4cbed49",
            "0x0000000000000000000000005605b2e1883428680266fd25cb7429f2001c0c17"
          ],
          "data": "0x",
          "blockHash": "0xe55feccd6be2b23255503a0d2cc231383a987abd73713afcec3532644501ec9a",
          "blockNumber": "0x1447016",
          "transactionHash": "0x6abf16429c576dd0e8b2dd9e5c18083fa5b75000cc32042d53fa13c8b9af9b43",
          "transactionIndex": "0x0",
          "logIndex": "0x0",
          "removed": false
        }
      ],
      "logsBloom": "0x00000000000000000000000000000000000000000000000000000000000000000000000000000000000000080000000000000000000000002000000000000000000000000000000000000000000000000000000000000002000000000000000000000000000000000000000000000000000000000200000080000000000000000000000000000000000000100000000000000000000000000000000000000000000000000000000000000004000000000000000000000000000000000000000000000000080000000000000000000000000000000000080000000000000000000000000000000000000000000000000000000000000000000000000000000000",
      "type": "0x2",
      "transactionHash": "0x6abf16429c576dd0e8b2dd9e5c18083fa5b75000cc32042d53fa13c8b9af9b43",
      "transactionIndex": "0x0",
      "blockHash": "0xe55feccd6be2b23255503a0d2cc231383a987abd73713afcec3532644501ec9a",
      "blockNumber": "0x1447016",
      "gasUsed": "0x75ec",
      "effectiveGasPrice": "0xf4241",
      "from": "0xecf5e30f091d1db7c7b0ef26634a71d46dc9bb25",
      "to": "0x3a0f5b9436eca0c8c0eced659dcc41e86e65e33d",
      "contractAddress": null
    },
    {
      "status": "0x1",
      "cumulativeGasUsed": "0x75f8",
      "logs": [
        {
          "address": "0x3a0f5b9436eca0c8c0eced659dcc41e86e65e33d",
          "topics": [
            "0x274ec28d31430170ad5dd350f8e7505ffab078c309300878c710383ae4cbed49",
            "0x0000000000000000000000003863f44fe693764562c0d239e05c5f194544b0b4"
          ],
          "data": "0x",
          "blockHash": "0xf96ff1f2a2c703d9f1f6aeabc1169e1dbde061a793a9a7b70da2759e51fef1fb",
          "blockNumber": "0x1447017",
          "transactionHash": "0x7bd9bb320958e8230de20f4a31497db0e090cecd209700b1bcdd904e574bd58c",
          "transactionIndex": "0x0",
          "logIndex": "0x0",
          "removed": false
        }
      ],
      "logsBloom": "0x00000000000000000000000000000002000000000000000000000000000000000000000000000000000000080000000000000000000000002000000000000000000000000000000000000000000000000000000000000000000000000000000000000000000000000000000000000000000000000200000080000000000000000000000000000000000000100000000000000000000000000000000000000000000000000000000000000004000000000000000000000000000000000000000001000000000000000000000000000000000000000000000000000000000000000000000000000000000000000000000000000000000000080000000000000000",
      "type": "0x2",
      "transactionHash": "0x7bd9bb320958e8230de20f4a31497db0e090cecd209700b1bcdd904e574bd58c",
      "transactionIndex": "0x0",
      "blockHash": "0xf96ff1f2a2c703d9f1f6aeabc1169e1dbde061a793a9a7b70da2759e51fef1fb",
      "blockNumber": "0x1447017",
      "gasUsed": "0x75f8",
      "effectiveGasPrice": "0xf4241",
      "from": "0xecf5e30f091d1db7c7b0ef26634a71d46dc9bb25",
      "to": "0x3a0f5b9436eca0c8c0eced659dcc41e86e65e33d",
      "contractAddress": null
    }
  ],
  "libraries": [],
  "pending": [],
  "returns": {},
  "timestamp": 1778340504580,
  "chain": 2368,
  "commit": "e7f8094"
}