{
  "transactions": [
    {
      "hash": "0x2077b160430c0c278b46e004524e23237d995a6df4bdf1dea9412df5ccc5d961",
      "transactionType": "CALL",
      "contractName": null,
      "contractAddress": "0xe8cf8a5711f08d5211d46a2835ecc9c9af1b91cd",
      "function": "mint(address,uint256)",
      "arguments": [
        "0xECf5e30F091D1db7c7b0ef26634a71d46DC9Bb25",
        "50000000000000000000"
      ],
      "transaction": {
        "from": "0xecf5e30f091d1db7c7b0ef26634a71d46dc9bb25",
        "to": "0xe8cf8a5711f08d5211d46a2835ecc9c9af1b91cd",
        "gas": "0xb6f4",
        "value": "0x0",
        "input": "0x40c10f19000000000000000000000000ecf5e30f091d1db7c7b0ef26634a71d46dc9bb25000000000000000000000000000000000000000000000002b5e3af16b1880000",
        "nonce": "0x110b3",
        "chainId": "0x940"
      },
      "additionalContracts": [],
      "isFixedGasLimit": false
    },
    {
      "hash": "0x3f236d8efdbdd40601c25f2cdc5e236cb7896bff917d95fedafa0e2f8244fdb5",
      "transactionType": "CALL",
      "contractName": null,
      "contractAddress": "0xe8cf8a5711f08d5211d46a2835ecc9c9af1b91cd",
      "function": "approve(address,uint256)",
      "arguments": [
        "0x78b3515f4e9186d9870dcEF02DA58E4C8c5C6e8f",
        "50000000000000000000"
      ],
      "transaction": {
        "from": "0xecf5e30f091d1db7c7b0ef26634a71d46dc9bb25",
        "to": "0xe8cf8a5711f08d5211d46a2835ecc9c9af1b91cd",
        "gas": "0x1069d",
        "value": "0x0",
        "input": "0x095ea7b300000000000000000000000078b3515f4e9186d9870dcef02da58e4c8c5c6e8f000000000000000000000000000000000000000000000002b5e3af16b1880000",
        "nonce": "0x110b4",
        "chainId": "0x940"
      },
      "additionalContracts": [],
      "isFixedGasLimit": false
    },
    {
      "hash": "0x899a22ad4de90cff23eb67ad319191556fb7c36494f2d0a6777838eb9c71af99",
      "transactionType": "CALL",
      "contractName": null,
      "contractAddress": "0x78b3515f4e9186d9870dcef02da58e4c8c5c6e8f",
      "function": "deposit(address,uint256)",
      "arguments": [
        "0xe8CF8A5711F08d5211D46a2835ECC9C9aF1b91cD",
        "50000000000000000000"
      ],
      "transaction": {
        "from": "0xecf5e30f091d1db7c7b0ef26634a71d46dc9bb25",
        "to": "0x78b3515f4e9186d9870dcef02da58e4c8c5c6e8f",
        "gas": "0x2186d",
        "value": "0x0",
        "input": "0x47e7ef24000000000000000000000000e8cf8a5711f08d5211d46a2835ecc9c9af1b91cd000000000000000000000000000000000000000000000002b5e3af16b1880000",
        "nonce": "0x110b5",
        "chainId": "0x940"
      },
      "additionalContracts": [],
      "isFixedGasLimit": false
    },
    {
      "hash": "0xcd2f42e74e6c1ce83cde6ece25377081a0b76a44e3687278bb6e8effeeb228c2",
      "transactionType": "CALL",
      "contractName": null,
      "contractAddress": "0x78b3515f4e9186d9870dcef02da58e4c8c5c6e8f",
      "function": "setMetaStrategy((bytes32,bytes32[],address[],uint32[],uint256,uint16,uint8,uint16,uint16,uint256,uint64,uint16,uint16,uint32),bytes)",
      "arguments": [
        "(0x9f8efbee5c604b9a3f823669c4e0978b873c73f6bb2a4fbbe36d8bd8382775f7, [], [0xe8CF8A5711F08d5211D46a2835ECC9C9aF1b91cD], [2368, 84532, 421614], 50000000000000000000, 2500, 8, 2000, 5000, 300, 1781341090, 3, 50, 25)",
        "0x"
      ],
      "transaction": {
        "from": "0xecf5e30f091d1db7c7b0ef26634a71d46dc9bb25",
        "to": "0x78b3515f4e9186d9870dcef02da58e4c8c5c6e8f",
        "gas": "0x58d61",
        "value": "0x0",
        "input": "0x0d70e661000000000000000000000000000000000000000000000000000000000000004000000000000000000000000000000000000000000000000000000000000002e09f8efbee5c604b9a3f823669c4e0978b873c73f6bb2a4fbbe36d8bd8382775f700000000000000000000000000000000000000000000000000000000000001c000000000000000000000000000000000000000000000000000000000000001e00000000000000000000000000000000000000000000000000000000000000220000000000000000000000000000000000000000000000002b5e3af16b188000000000000000000000000000000000000000000000000000000000000000009c4000000000000000000000000000000000000000000000000000000000000000800000000000000000000000000000000000000000000000000000000000007d00000000000000000000000000000000000000000000000000000000000001388000000000000000000000000000000000000000000000000000000000000012c000000000000000000000000000000000000000000000000000000006a2d1ba200000000000000000000000000000000000000000000000000000000000000030000000000000000000000000000000000000000000000000000000000000032000000000000000000000000000000000000000000000000000000000000001900000000000000000000000000000000000000000000000000000000000000000000000000000000000000000000000000000000000000000000000000000001000000000000000000000000e8cf8a5711f08d5211d46a2835ecc9c9af1b91cd000000000000000000000000000000000000000000000000000000000000000300000000000000000000000000000000000000000000000000000000000009400000000000000000000000000000000000000000000000000000000000014a340000000000000000000000000000000000000000000000000000000000066eee0000000000000000000000000000000000000000000000000000000000000000",
        "nonce": "0x110b6",
        "chainId": "0x940"
      },
      "additionalContracts": [],
      "isFixedGasLimit": false
    },
    {
      "hash": "0x1cd341703eb096ee37d275f77f300e0b3bf2576b38d2e99f249809e3723bce9c",
      "transactionType": "CALL",
      "contractName": null,
      "contractAddress": "0x78b3515f4e9186d9870dcef02da58e4c8c5c6e8f",
      "function": "delegateToAllocator(address,uint64)",
      "arguments": [
        "0xf3E4452FE17edBFA6833022B9c186aa14b98955d",
        "2592000"
      ],
      "transaction": {
        "from": "0xecf5e30f091d1db7c7b0ef26634a71d46dc9bb25",
        "to": "0x78b3515f4e9186d9870dcef02da58e4c8c5c6e8f",
        "gas": "0xd514",
        "value": "0x0",
        "input": "0xb31b0dfc000000000000000000000000f3e4452fe17edbfa6833022b9c186aa14b98955d0000000000000000000000000000000000000000000000000000000000278d00",
        "nonce": "0x110b7",
        "chainId": "0x940"
      },
      "additionalContracts": [],
      "isFixedGasLimit": false
    }
  ],
  "receipts": [
    {
      "status": "0x1",
      "cumulativeGasUsed": "0x8475",
      "logs": [
        {
          "address": "0xe8cf8a5711f08d5211d46a2835ecc9c9af1b91cd",
          "topics": [
            "0xddf252ad1be2c89b69c2b068fc378daa952ba7f163c4a11628f55a4df523b3ef",
            "0x0000000000000000000000000000000000000000000000000000000000000000",
            "0x000000000000000000000000ecf5e30f091d1db7c7b0ef26634a71d46dc9bb25"
          ],
          "data": "0x000000000000000000000000000000000000000000000002b5e3af16b1880000",
          "blockHash": "0x935eaedbfbe5514327fb45437b1ca449bd5386ed9d2975063cf237d14ac9477f",
          "blockNumber": "0x1465d92",
          "transactionHash": "0x2077b160430c0c278b46e004524e23237d995a6df4bdf1dea9412df5ccc5d961",
          "transactionIndex": "0x0",
          "logIndex": "0x0",
          "removed": false
        }
      ],
      "logsBloom": "0x00000000000000000000000000000000000000000000000000000000000000000000000000000000000000000000000000000000000000000000000000000000400000000000000000100008000000000000000000000000000000000000000000000000020000000000000000000800000000000000000000000010000000000000000000000000000000000000000000800000000000000000000000000000000000000000000000000000000000000000000000000000000000000000000000000002000000000200000000000000000000000000000000000000000820000000000000000000000000100000000000000000000000000000000000000000",
      "type": "0x2",
      "transactionHash": "0x2077b160430c0c278b46e004524e23237d995a6df4bdf1dea9412df5ccc5d961",
      "transactionIndex": "0x0",
      "blockHash": "0x935eaedbfbe5514327fb45437b1ca449bd5386ed9d2975063cf237d14ac9477f",
      "blockNumber": "0x1465d92",
      "gasUsed": "0x8475",
      "effectiveGasPrice": "0xf4241",
      "from": "0xecf5e30f091d1db7c7b0ef26634a71d46dc9bb25",
      "to": "0xe8cf8a5711f08d5211d46a2835ecc9c9af1b91cd",
      "contractAddress": null
    },
    {
      "status": "0x1",
      "cumulativeGasUsed": "0xb391",
      "logs": [
        {
          "address": "0xe8cf8a5711f08d5211d46a2835ecc9c9af1b91cd",
          "topics": [
            "0x8c5be1e5ebec7d5bd14f71427d1e84f3dd0314c0f7b2291e5b200ac8c7c3b925",
            "0x000000000000000000000000ecf5e30f091d1db7c7b0ef26634a71d46dc9bb25",
            "0x00000000000000000000000078b3515f4e9186d9870dcef02da58e4c8c5c6e8f"
          ],
          "data": "0x000000000000000000000000000000000000000000000002b5e3af16b1880000",
          "blockHash": "0x0faf6d2a6baa2c917572b3295ea6b17ab9a8eaac7245ed7b49534ed537fecf99",
          "blockNumber": "0x1465d93",
          "transactionHash": "0x3f236d8efdbdd40601c25f2cdc5e236cb7896bff917d95fedafa0e2f8244fdb5",
          "transactionIndex": "0x0",
          "logIndex": "0x0",
          "removed": false
        }
      ],
      "logsBloom": "0x00000000000000000000000000000000000000000000000000000000000000000000000000000000000000000000000000000000000000000000000000200000400000000000000000100000000000000000000000000000000000000000000000000000000000000000000000000000000000000000000000000000000000000000000000000000000000000000000000800000000000000000000000000000020000000000000000000008000000000000000000000000000000000000000000800000000000000200000000000000000000000000000000000000000800000010000000000000000000100000000000000000000000000080000000000000",
      "type": "0x2",
      "transactionHash": "0x3f236d8efdbdd40601c25f2cdc5e236cb7896bff917d95fedafa0e2f8244fdb5",
      "transactionIndex": "0x0",
      "blockHash": "0x0faf6d2a6baa2c917572b3295ea6b17ab9a8eaac7245ed7b49534ed537fecf99",
      "blockNumber": "0x1465d93",
      "gasUsed": "0xb391",
      "effectiveGasPrice": "0xf4241",
      "from": "0xecf5e30f091d1db7c7b0ef26634a71d46dc9bb25",
      "to": "0xe8cf8a5711f08d5211d46a2835ecc9c9af1b91cd",
      "contractAddress": null
    },
    {
      "status": "0x1",
      "cumulativeGasUsed": "0x2351b",
      "logs": [
        {
          "address": "0xe8cf8a5711f08d5211d46a2835ecc9c9af1b91cd",
          "topics": [
            "0xddf252ad1be2c89b69c2b068fc378daa952ba7f163c4a11628f55a4df523b3ef",
            "0x000000000000000000000000ecf5e30f091d1db7c7b0ef26634a71d46dc9bb25",
            "0x00000000000000000000000078b3515f4e9186d9870dcef02da58e4c8c5c6e8f"
          ],
          "data": "0x000000000000000000000000000000000000000000000002b5e3af16b1880000",
          "blockHash": "0x0faf6d2a6baa2c917572b3295ea6b17ab9a8eaac7245ed7b49534ed537fecf99",
          "blockNumber": "0x1465d93",
          "transactionHash": "0x899a22ad4de90cff23eb67ad319191556fb7c36494f2d0a6777838eb9c71af99",
          "transactionIndex": "0x1",
          "logIndex": "0x1",
          "removed": false
        },
        {
          "address": "0x78b3515f4e9186d9870dcef02da58e4c8c5c6e8f",
          "topics": [
            "0x8752a472e571a816aea92eec8dae9baf628e840f4929fbcc2d155e6233ff68a7",
            "0x000000000000000000000000ecf5e30f091d1db7c7b0ef26634a71d46dc9bb25",
            "0x000000000000000000000000e8cf8a5711f08d5211d46a2835ecc9c9af1b91cd"
          ],
          "data": "0x000000000000000000000000000000000000000000000002b5e3af16b1880000",
          "blockHash": "0x0faf6d2a6baa2c917572b3295ea6b17ab9a8eaac7245ed7b49534ed537fecf99",
          "blockNumber": "0x1465d93",
          "transactionHash": "0x899a22ad4de90cff23eb67ad319191556fb7c36494f2d0a6777838eb9c71af99",
          "transactionIndex": "0x1",
          "logIndex": "0x2",
          "removed": false
        }
      ],
      "logsBloom": "0x00000000000000000000000000000000000000000000000000000000000000000000000400000000000000000000000000000000000000000000000000000000400000000000000010100008000000000000000000000000000000000000000000000000000000000000000000004000000000000000000000000010000000000000000000000000000000000000000002800000000000000000000000000002000000000000000010000028000000000000000000080000000000000000000000800002000000000200000000000000000000000000000000000000000801000000000000000000000000100000000000000000000000000080000000000000",
      "type": "0x2",
      "transactionHash": "0x899a22ad4de90cff23eb67ad319191556fb7c36494f2d0a6777838eb9c71af99",
      "transactionIndex": "0x1",
      "blockHash": "0x0faf6d2a6baa2c917572b3295ea6b17ab9a8eaac7245ed7b49534ed537fecf99",
      "blockNumber": "0x1465d93",
      "gasUsed": "0x1818a",
      "effectiveGasPrice": "0xf4241",
      "from": "0xecf5e30f091d1db7c7b0ef26634a71d46dc9bb25",
      "to": "0x78b3515f4e9186d9870dcef02da58e4c8c5c6e8f",
      "contractAddress": null
    },
    {
      "status": "0x1",
      "cumulativeGasUsed": "0x63a2a",
      "logs": [
        {
          "address": "0x78b3515f4e9186d9870dcef02da58e4c8c5c6e8f",
          "topics": [
            "0xca4be8a2a326774e90d2615db848a30b4ec9718ef5baac56f814758db8f12280",
            "0x000000000000000000000000ecf5e30f091d1db7c7b0ef26634a71d46dc9bb25",
            "0x9f8efbee5c604b9a3f823669c4e0978b873c73f6bb2a4fbbe36d8bd8382775f7"
          ],
          "data": "0x",
          "blockHash": "0x0faf6d2a6baa2c917572b3295ea6b17ab9a8eaac7245ed7b49534ed537fecf99",
          "blockNumber": "0x1465d93",
          "transactionHash": "0x1cd341703eb096ee37d275f77f300e0b3bf2576b38d2e99f249809e3723bce9c",
          "transactionIndex": "0x2",
          "logIndex": "0x3",
          "removed": false
        }
      ],
      "logsBloom": "0x00000000000000000000000000000000000000000000000000000000000000000000000400000000000000000000000000000000000001000000000000000000400000100000000000000000000000000000000000100000000000000000000000000000000000000000000000000000000000010000000000000000000000000000000000000000000000000000000002800000000000000000200000000000000000000000000010000000000000000000000000000000000000000000000000000000000000000200080000000000000000000000000000000000000000000000000000000000000000000000000000000000000000000000000000000000",
      "type": "0x2",
      "transactionHash": "0x1cd341703eb096ee37d275f77f300e0b3bf2576b38d2e99f249809e3723bce9c",
      "transactionIndex": "0x2",
      "blockHash": "0x0faf6d2a6baa2c917572b3295ea6b17ab9a8eaac7245ed7b49534ed537fecf99",
      "blockNumber": "0x1465d93",
      "gasUsed": "0x4050f",
      "effectiveGasPrice": "0xf4241",
      "from": "0xecf5e30f091d1db7c7b0ef26634a71d46dc9bb25",
      "to": "0x78b3515f4e9186d9870dcef02da58e4c8c5c6e8f",
      "contractAddress": null
    },
    {
      "status": "0x1",
      "cumulativeGasUsed": "0x6d46e",
      "logs": [
        {
          "address": "0x78b3515f4e9186d9870dcef02da58e4c8c5c6e8f",
          "topics": [
            "0x0aabbdb220e9e54513e9722dd42534552e2e96f661bb1c9078e6ec0cb5803015",
            "0x000000000000000000000000ecf5e30f091d1db7c7b0ef26634a71d46dc9bb25",
            "0x000000000000000000000000f3e4452fe17edbfa6833022b9c186aa14b98955d"
          ],
          "data": "0x0000000000000000000000000000000000000000000000000000000000278d00918ada7db47da4993f324e7686151c1bda9c25c7b6445b011e1d530b3fd91b92",
          "blockHash": "0x0faf6d2a6baa2c917572b3295ea6b17ab9a8eaac7245ed7b49534ed537fecf99",
          "blockNumber": "0x1465d93",
          "transactionHash": "0xcd2f42e74e6c1ce83cde6ece25377081a0b76a44e3687278bb6e8effeeb228c2",
          "transactionIndex": "0x3",
          "logIndex": "0x4",
          "removed": false
        }
      ],
      "logsBloom": "0x00000000000000000000000000000000000002000000000000000000000000000000000440000000000000000000000000000000000000000000000000000000400000000000000000000000000000000000000000000000000000000000000002000000000000000000080000000000000000000000000000000000000000000000000000000000000000000000000002800000000000000000000000000000000000000000000010000000000000000000000000000000000000000000000000000000000000000200000000000000000000000000000000000000020000000000000000000000000400000000000000000000000000000000000000000000",
      "type": "0x2",
      "transactionHash": "0xcd2f42e74e6c1ce83cde6ece25377081a0b76a44e3687278bb6e8effeeb228c2",
      "transactionIndex": "0x3",
      "blockHash": "0x0faf6d2a6baa2c917572b3295ea6b17ab9a8eaac7245ed7b49534ed537fecf99",
      "blockNumber": "0x1465d93",
      "gasUsed": "0x9a44",
      "effectiveGasPrice": "0xf4241",
      "from": "0xecf5e30f091d1db7c7b0ef26634a71d46dc9bb25",
      "to": "0x78b3515f4e9186d9870dcef02da58e4c8c5c6e8f",
      "contractAddress": null
    }
  ],
  "libraries": [],
  "pending": [],
  "returns": {},
  "timestamp": 1778749112173,
  "chain": 2368,
  "commit": "baf6548"
}