{
  "transactions": [
    {
      "hash": "0xf7d0372a4277e985a0ff71e8a999677a08ab0179fe73b7ba6204ef92ab62f3a5",
      "transactionType": "CALL",
      "contractName": null,
      "contractAddress": "0xe8cf8a5711f08d5211d46a2835ecc9c9af1b91cd",
      "function": "mint(address,uint256)",
      "arguments": [
        "0xECf5e30F091D1db7c7b0ef26634a71d46DC9Bb25",
        "2000000000000000000000"
      ],
      "transaction": {
        "from": "0xecf5e30f091d1db7c7b0ef26634a71d46dc9bb25",
        "to": "0xe8cf8a5711f08d5211d46a2835ecc9c9af1b91cd",
        "gas": "0xb6f4",
        "value": "0x0",
        "input": "0x40c10f19000000000000000000000000ecf5e30f091d1db7c7b0ef26634a71d46dc9bb2500000000000000000000000000000000000000000000006c6b935b8bbd400000",
        "nonce": "0x110eb",
        "chainId": "0x940"
      },
      "additionalContracts": [],
      "isFixedGasLimit": false
    },
    {
      "hash": "0xcd5c45e6aac7c3679b3dc8997481a30ff81164eda2ad3e717186f8c1b98a6faa",
      "transactionType": "CALL",
      "contractName": null,
      "contractAddress": "0xe8cf8a5711f08d5211d46a2835ecc9c9af1b91cd",
      "function": "approve(address,uint256)",
      "arguments": [
        "0x78b3515f4e9186d9870dcEF02DA58E4C8c5C6e8f",
        "2000000000000000000000"
      ],
      "transaction": {
        "from": "0xecf5e30f091d1db7c7b0ef26634a71d46dc9bb25",
        "to": "0xe8cf8a5711f08d5211d46a2835ecc9c9af1b91cd",
        "gas": "0x1069d",
        "value": "0x0",
        "input": "0x095ea7b300000000000000000000000078b3515f4e9186d9870dcef02da58e4c8c5c6e8f00000000000000000000000000000000000000000000006c6b935b8bbd400000",
        "nonce": "0x110ec",
        "chainId": "0x940"
      },
      "additionalContracts": [],
      "isFixedGasLimit": false
    },
    {
      "hash": "0x0015aa7f86ddbe6abf9823e3cabfd56d53cca5fec2dfe52eb8a0c5156aa67063",
      "transactionType": "CALL",
      "contractName": null,
      "contractAddress": "0x78b3515f4e9186d9870dcef02da58e4c8c5c6e8f",
      "function": "deposit(address,uint256)",
      "arguments": [
        "0xe8CF8A5711F08d5211D46a2835ECC9C9aF1b91cD",
        "2000000000000000000000"
      ],
      "transaction": {
        "from": "0xecf5e30f091d1db7c7b0ef26634a71d46dc9bb25",
        "to": "0x78b3515f4e9186d9870dcef02da58e4c8c5c6e8f",
        "gas": "0x1550c",
        "value": "0x0",
        "input": "0x47e7ef24000000000000000000000000e8cf8a5711f08d5211d46a2835ecc9c9af1b91cd00000000000000000000000000000000000000000000006c6b935b8bbd400000",
        "nonce": "0x110ed",
        "chainId": "0x940"
      },
      "additionalContracts": [],
      "isFixedGasLimit": false
    },
    {
      "hash": "0xf8e07f3c70be40a5de27dd4103bca7622023c064edc7c75d154db61c104cb924",
      "transactionType": "CALL",
      "contractName": null,
      "contractAddress": "0x78b3515f4e9186d9870dcef02da58e4c8c5c6e8f",
      "function": "setMetaStrategy((bytes32,bytes32[],address[],uint32[],uint256,uint16,uint8,uint16,uint16,uint256,uint64,uint16,uint16,uint32),bytes)",
      "arguments": [
        "(0x9f8efbee5c604b9a3f823669c4e0978b873c73f6bb2a4fbbe36d8bd8382775f7, [0x2a9aa442064b635baec37a7a259282faa5563a653a8325378d5676c6f04bc9dd, 0x18602f4f74172d545f5258541634e1a125c3a4e1227ee2a4cbee957d3490f1fb, 0x2e882135c6afc3bda02a9c8a7c6a351198d97599c804a2575a3d616073a87251], [0xe8CF8A5711F08d5211D46a2835ECC9C9aF1b91cD], [2368, 84532, 421614], 2000000000000000000000, 2500, 8, 2000, 5000, 300, 1781636488, 3, 50, 25)",
        "0x"
      ],
      "transaction": {
        "from": "0xecf5e30f091d1db7c7b0ef26634a71d46dc9bb25",
        "to": "0x78b3515f4e9186d9870dcef02da58e4c8c5c6e8f",
        "gas": "0x24bd8",
        "value": "0x0",
        "input": "0x0d70e661000000000000000000000000000000000000000000000000000000000000004000000000000000000000000000000000000000000000000000000000000003409f8efbee5c604b9a3f823669c4e0978b873c73f6bb2a4fbbe36d8bd8382775f700000000000000000000000000000000000000000000000000000000000001c00000000000000000000000000000000000000000000000000000000000000240000000000000000000000000000000000000000000000000000000000000028000000000000000000000000000000000000000000000006c6b935b8bbd40000000000000000000000000000000000000000000000000000000000000000009c4000000000000000000000000000000000000000000000000000000000000000800000000000000000000000000000000000000000000000000000000000007d00000000000000000000000000000000000000000000000000000000000001388000000000000000000000000000000000000000000000000000000000000012c000000000000000000000000000000000000000000000000000000006a319d8800000000000000000000000000000000000000000000000000000000000000030000000000000000000000000000000000000000000000000000000000000032000000000000000000000000000000000000000000000000000000000000001900000000000000000000000000000000000000000000000000000000000000032a9aa442064b635baec37a7a259282faa5563a653a8325378d5676c6f04bc9dd18602f4f74172d545f5258541634e1a125c3a4e1227ee2a4cbee957d3490f1fb2e882135c6afc3bda02a9c8a7c6a351198d97599c804a2575a3d616073a872510000000000000000000000000000000000000000000000000000000000000001000000000000000000000000e8cf8a5711f08d5211d46a2835ecc9c9af1b91cd000000000000000000000000000000000000000000000000000000000000000300000000000000000000000000000000000000000000000000000000000009400000000000000000000000000000000000000000000000000000000000014a340000000000000000000000000000000000000000000000000000000000066eee0000000000000000000000000000000000000000000000000000000000000000",
        "nonce": "0x110ee",
        "chainId": "0x940"
      },
      "additionalContracts": [],
      "isFixedGasLimit": false
    },
    {
      "hash": "0xe906c8404b95ee34bbc589a02da83a67f63e49cefa214f519b0a695cc8311069",
      "transactionType": "CALL",
      "contractName": null,
      "contractAddress": "0x78b3515f4e9186d9870dcef02da58e4c8c5c6e8f",
      "function": "delegateToAllocator(address,uint64)",
      "arguments": [
        "0xf3E4452FE17edBFA6833022B9c186aa14b98955d",
        "2592000"
      ],
      "transaction": {
        "from": "0xecf5e30f091d1db7c7b0ef26634a71d46dc9bb25",
        "to": "0x78b3515f4e9186d9870dcef02da58e4c8c5c6e8f",
        "gas": "0xd514",
        "value": "0x0",
        "input": "0xb31b0dfc000000000000000000000000f3e4452fe17edbfa6833022b9c186aa14b98955d0000000000000000000000000000000000000000000000000000000000278d00",
        "nonce": "0x110ef",
        "chainId": "0x940"
      },
      "additionalContracts": [],
      "isFixedGasLimit": false
    }
  ],
  "receipts": [
    {
      "status": "0x1",
      "cumulativeGasUsed": "0x63c6f",
      "logs": [
        {
          "address": "0xe8cf8a5711f08d5211d46a2835ecc9c9af1b91cd",
          "topics": [
            "0xddf252ad1be2c89b69c2b068fc378daa952ba7f163c4a11628f55a4df523b3ef",
            "0x0000000000000000000000000000000000000000000000000000000000000000",
            "0x000000000000000000000000ecf5e30f091d1db7c7b0ef26634a71d46dc9bb25"
          ],
          "data": "0x00000000000000000000000000000000000000000000006c6b935b8bbd400000",
          "blockHash": "0xff1d045db976b40cb4675b22ea45f3a92c9477c5a2dcea17092e021d105e986c",
          "blockNumber": "0x1479667",
          "transactionHash": "0xf7d0372a4277e985a0ff71e8a999677a08ab0179fe73b7ba6204ef92ab62f3a5",
          "transactionIndex": "0x4",
          "logIndex": "0x12",
          "removed": false
        }
      ],
      "logsBloom": "0x00000000000000000000000000000000000000000000000000000000000000000000000000000000000000000000000000000000000000000000000000000000400000000000000000100008000000000000000000000000000000000000000000000000020000000000000000000800000000000000000000000010000000000000000000000000000000000000000000800000000000000000000000000000000000000000000000000000000000000000000000000000000000000000000000000002000000000200000000000000000000000000000000000000000820000000000000000000000000100000000000000000000000000000000000000000",
      "type": "0x2",
      "transactionHash": "0xf7d0372a4277e985a0ff71e8a999677a08ab0179fe73b7ba6204ef92ab62f3a5",
      "transactionIndex": "0x4",
      "blockHash": "0xff1d045db976b40cb4675b22ea45f3a92c9477c5a2dcea17092e021d105e986c",
      "blockNumber": "0x1479667",
      "gasUsed": "0x8475",
      "effectiveGasPrice": "0xf4241",
      "from": "0xecf5e30f091d1db7c7b0ef26634a71d46dc9bb25",
      "to": "0xe8cf8a5711f08d5211d46a2835ecc9c9af1b91cd",
      "contractAddress": null
    },
    {
      "status": "0x1",
      "cumulativeGasUsed": "0xb391",
      "logs": [
        {
          "address": "0xe8cf8a5711f08d5211d46a2835ecc9c9af1b91cd",
          "topics": [
            "0x8c5be1e5ebec7d5bd14f71427d1e84f3dd0314c0f7b2291e5b200ac8c7c3b925",
            "0x000000000000000000000000ecf5e30f091d1db7c7b0ef26634a71d46dc9bb25",
            "0x00000000000000000000000078b3515f4e9186d9870dcef02da58e4c8c5c6e8f"
          ],
          "data": "0x00000000000000000000000000000000000000000000006c6b935b8bbd400000",
          "blockHash": "0xe60197489d0dae2c7fd6c52df1a84389994f2c9a05dd201f2e1330df07eaff47",
          "blockNumber": "0x1479668",
          "transactionHash": "0xcd5c45e6aac7c3679b3dc8997481a30ff81164eda2ad3e717186f8c1b98a6faa",
          "transactionIndex": "0x0",
          "logIndex": "0x0",
          "removed": false
        }
      ],
      "logsBloom": "0x00000000000000000000000000000000000000000000000000000000000000000000000000000000000000000000000000000000000000000000000000200000400000000000000000100000000000000000000000000000000000000000000000000000000000000000000000000000000000000000000000000000000000000000000000000000000000000000000000800000000000000000000000000000020000000000000000000008000000000000000000000000000000000000000000800000000000000200000000000000000000000000000000000000000800000010000000000000000000100000000000000000000000000080000000000000",
      "type": "0x2",
      "transactionHash": "0xcd5c45e6aac7c3679b3dc8997481a30ff81164eda2ad3e717186f8c1b98a6faa",
      "transactionIndex": "0x0",
      "blockHash": "0xe60197489d0dae2c7fd6c52df1a84389994f2c9a05dd201f2e1330df07eaff47",
      "blockNumber": "0x1479668",
      "gasUsed": "0xb391",
      "effectiveGasPrice": "0xf4241",
      "from": "0xecf5e30f091d1db7c7b0ef26634a71d46dc9bb25",
      "to": "0xe8cf8a5711f08d5211d46a2835ecc9c9af1b91cd",
      "contractAddress": null
    },
    {
      "status": "0x1",
      "cumulativeGasUsed": "0xfbf2",
      "logs": [
        {
          "address": "0xe8cf8a5711f08d5211d46a2835ecc9c9af1b91cd",
          "topics": [
            "0xddf252ad1be2c89b69c2b068fc378daa952ba7f163c4a11628f55a4df523b3ef",
            "0x000000000000000000000000ecf5e30f091d1db7c7b0ef26634a71d46dc9bb25",
            "0x00000000000000000000000078b3515f4e9186d9870dcef02da58e4c8c5c6e8f"
          ],
          "data": "0x00000000000000000000000000000000000000000000006c6b935b8bbd400000",
          "blockHash": "0x5f3f0dfdb03fecd042ea471d7a6bbc4c44fdb573bab121f75d41a5ae9ba1375d",
          "blockNumber": "0x1479669",
          "transactionHash": "0x0015aa7f86ddbe6abf9823e3cabfd56d53cca5fec2dfe52eb8a0c5156aa67063",
          "transactionIndex": "0x0",
          "logIndex": "0x0",
          "removed": false
        },
        {
          "address": "0x78b3515f4e9186d9870dcef02da58e4c8c5c6e8f",
          "topics": [
            "0x8752a472e571a816aea92eec8dae9baf628e840f4929fbcc2d155e6233ff68a7",
            "0x000000000000000000000000ecf5e30f091d1db7c7b0ef26634a71d46dc9bb25",
            "0x000000000000000000000000e8cf8a5711f08d5211d46a2835ecc9c9af1b91cd"
          ],
          "data": "0x00000000000000000000000000000000000000000000006c6b935b8bbd400000",
          "blockHash": "0x5f3f0dfdb03fecd042ea471d7a6bbc4c44fdb573bab121f75d41a5ae9ba1375d",
          "blockNumber": "0x1479669",
          "transactionHash": "0x0015aa7f86ddbe6abf9823e3cabfd56d53cca5fec2dfe52eb8a0c5156aa67063",
          "transactionIndex": "0x0",
          "logIndex": "0x1",
          "removed": false
        }
      ],
      "logsBloom": "0x00000000000000000000000000000000000000000000000000000000000000000000000400000000000000000000000000000000000000000000000000000000400000000000000010100008000000000000000000000000000000000000000000000000000000000000000000004000000000000000000000000010000000000000000000000000000000000000000002800000000000000000000000000002000000000000000010000028000000000000000000080000000000000000000000800002000000000200000000000000000000000000000000000000000801000000000000000000000000100000000000000000000000000080000000000000",
      "type": "0x2",
      "transactionHash": "0x0015aa7f86ddbe6abf9823e3cabfd56d53cca5fec2dfe52eb8a0c5156aa67063",
      "transactionIndex": "0x0",
      "blockHash": "0x5f3f0dfdb03fecd042ea471d7a6bbc4c44fdb573bab121f75d41a5ae9ba1375d",
      "blockNumber": "0x1479669",
      "gasUsed": "0xfbf2",
      "effectiveGasPrice": "0xf4241",
      "from": "0xecf5e30f091d1db7c7b0ef26634a71d46dc9bb25",
      "to": "0x78b3515f4e9186d9870dcef02da58e4c8c5c6e8f",
      "contractAddress": null
    },
    {
      "status": "0x1",
      "cumulativeGasUsed": "0x89909",
      "logs": [
        {
          "address": "0x78b3515f4e9186d9870dcef02da58e4c8c5c6e8f",
          "topics": [
            "0xca4be8a2a326774e90d2615db848a30b4ec9718ef5baac56f814758db8f12280",
            "0x000000000000000000000000ecf5e30f091d1db7c7b0ef26634a71d46dc9bb25",
            "0x9f8efbee5c604b9a3f823669c4e0978b873c73f6bb2a4fbbe36d8bd8382775f7"
          ],
          "data": "0x",
          "blockHash": "0xd8e19501a1054855fdd16793951076197c1ae03007517c1137b1a1d53b607824",
          "blockNumber": "0x147966a",
          "transactionHash": "0xf8e07f3c70be40a5de27dd4103bca7622023c064edc7c75d154db61c104cb924",
          "transactionIndex": "0x6",
          "logIndex": "0x11",
          "removed": false
        }
      ],
      "logsBloom": "0x00000000000000000000000000000000000000000000000000000000000000000000000400000000000000000000000000000000000001000000000000000000400000100000000000000000000000000000000000100000000000000000000000000000000000000000000000000000000000010000000000000000000000000000000000000000000000000000000002800000000000000000200000000000000000000000000010000000000000000000000000000000000000000000000000000000000000000200080000000000000000000000000000000000000000000000000000000000000000000000000000000000000000000000000000000000",
      "type": "0x2",
      "transactionHash": "0xf8e07f3c70be40a5de27dd4103bca7622023c064edc7c75d154db61c104cb924",
      "transactionIndex": "0x6",
      "blockHash": "0xd8e19501a1054855fdd16793951076197c1ae03007517c1137b1a1d53b607824",
      "blockNumber": "0x147966a",
      "gasUsed": "0x1ca67",
      "effectiveGasPrice": "0xf4241",
      "from": "0xecf5e30f091d1db7c7b0ef26634a71d46dc9bb25",
      "to": "0x78b3515f4e9186d9870dcef02da58e4c8c5c6e8f",
      "contractAddress": null
    },
    {
      "status": "0x1",
      "cumulativeGasUsed": "0x3d86c",
      "logs": [
        {
          "address": "0x78b3515f4e9186d9870dcef02da58e4c8c5c6e8f",
          "topics": [
            "0x0aabbdb220e9e54513e9722dd42534552e2e96f661bb1c9078e6ec0cb5803015",
            "0x000000000000000000000000ecf5e30f091d1db7c7b0ef26634a71d46dc9bb25",
            "0x000000000000000000000000f3e4452fe17edbfa6833022b9c186aa14b98955d"
          ],
          "data": "0x0000000000000000000000000000000000000000000000000000000000278d00abdec2807ff7b6b70f5966e6921d3693af207796fc89491dacd7c315c7be58a3",
          "blockHash": "0x96ead03df11097e65a33c94ac940fb994aea5ecd4474f67a8a78a28031898a9b",
          "blockNumber": "0x147966b",
          "transactionHash": "0xe906c8404b95ee34bbc589a02da83a67f63e49cefa214f519b0a695cc8311069",
          "transactionIndex": "0x4",
          "logIndex": "0x5",
          "removed": false
        }
      ],
      "logsBloom": "0x00000000000000000000000000000000000002000000000000000000000000000000000440000000000000000000000000000000000000000000000000000000400000000000000000000000000000000000000000000000000000000000000002000000000000000000080000000000000000000000000000000000000000000000000000000000000000000000000002800000000000000000000000000000000000000000000010000000000000000000000000000000000000000000000000000000000000000200000000000000000000000000000000000000020000000000000000000000000400000000000000000000000000000000000000000000",
      "type": "0x2",
      "transactionHash": "0xe906c8404b95ee34bbc589a02da83a67f63e49cefa214f519b0a695cc8311069",
      "transactionIndex": "0x4",
      "blockHash": "0x96ead03df11097e65a33c94ac940fb994aea5ecd4474f67a8a78a28031898a9b",
      "blockNumber": "0x147966b",
      "gasUsed": "0x9a44",
      "effectiveGasPrice": "0xf4241",
      "from": "0xecf5e30f091d1db7c7b0ef26634a71d46dc9bb25",
      "to": "0x78b3515f4e9186d9870dcef02da58e4c8c5c6e8f",
      "contractAddress": null
    }
  ],
  "libraries": [],
  "pending": [],
  "returns": {},
  "timestamp": 1779044520815,
  "chain": 2368,
  "commit": "8640dca"
}