{
  "transactions": [
    {
      "hash": "0x74b5f5853a3a58c7fb02679d1e15c49771aa43c1cc9706c0548f2d149fb5e67b",
      "transactionType": "CALL",
      "contractName": null,
      "contractAddress": "0x55782e7019f4619a06a25bf66d2998c8fe2cc436",
      "function": "setStrategyVault(address,bool)",
      "arguments": [
        "0xECf5e30F091D1db7c7b0ef26634a71d46DC9Bb25",
        "true"
      ],
      "transaction": {
        "from": "0xecf5e30f091d1db7c7b0ef26634a71d46dc9bb25",
        "to": "0x55782e7019f4619a06a25bf66d2998c8fe2cc436",
        "gas": "0x90f9",
        "value": "0x0",
        "input": "0xf1e4503f000000000000000000000000ecf5e30f091d1db7c7b0ef26634a71d46dc9bb250000000000000000000000000000000000000000000000000000000000000001",
        "nonce": "0x1c",
        "chainId": "0x14a34"
      },
      "additionalContracts": [],
      "isFixedGasLimit": false
    },
    {
      "hash": "0xd8f867d77acb3873e5c59465511a2016eaed253a98e3825ebcc0a82f5f145dd4",
      "transactionType": "CALL",
      "contractName": null,
      "contractAddress": "0x55782e7019f4619a06a25bf66d2998c8fe2cc436",
      "function": "queueAttestation(address,(int256,uint256,uint256,uint256,uint256,uint256,uint8,bytes32))",
      "arguments": [
        "0xECf5e30F091D1db7c7b0ef26634a71d46DC9Bb25",
        "(750, 41376540, 1, 0, 100, 10000, 0, 0x000000000000000000000000000000000000000000000000000000000000cafe)"
      ],
      "transaction": {
        "from": "0xecf5e30f091d1db7c7b0ef26634a71d46dc9bb25",
        "to": "0x55782e7019f4619a06a25bf66d2998c8fe2cc436",
        "gas": "0x49476",
        "value": "0x0",
        "input": "0xbacdd573000000000000000000000000ecf5e30f091d1db7c7b0ef26634a71d46dc9bb2500000000000000000000000000000000000000000000000000000000000002ee0000000000000000000000000000000000000000000000000000000002775b1c00000000000000000000000000000000000000000000000000000000000000010000000000000000000000000000000000000000000000000000000000000000000000000000000000000000000000000000000000000000000000000000006400000000000000000000000000000000000000000000000000000000000027100000000000000000000000000000000000000000000000000000000000000000000000000000000000000000000000000000000000000000000000000000cafe",
        "nonce": "0x1d",
        "chainId": "0x14a34"
      },
      "additionalContracts": [],
      "isFixedGasLimit": false
    },
    {
      "hash": "0xb23d24d5eac913b191709dd3e4e7b7806c4be7410a893a87e9d68661f38f3cb4",
      "transactionType": "CALL",
      "contractName": null,
      "contractAddress": "0x55782e7019f4619a06a25bf66d2998c8fe2cc436",
      "function": "flushAttestationsFor(address,uint32,bytes)",
      "arguments": [
        "0xECf5e30F091D1db7c7b0ef26634a71d46DC9Bb25",
        "40415",
        "0x0003010011010000000000000000000000000003d090"
      ],
      "transaction": {
        "from": "0xecf5e30f091d1db7c7b0ef26634a71d46dc9bb25",
        "to": "0x55782e7019f4619a06a25bf66d2998c8fe2cc436",
        "gas": "0x583f7",
        "value": "0x6c083a759ad5",
        "input": "0x11684263000000000000000000000000ecf5e30f091d1db7c7b0ef26634a71d46dc9bb250000000000000000000000000000000000000000000000000000000000009ddf000000000000000000000000000000000000000000000000000000000000006000000000000000000000000000000000000000000000000000000000000000160003010011010000000000000000000000000003d09000000000000000000000",
        "nonce": "0x1e",
        "chainId": "0x14a34"
      },
      "additionalContracts": [],
      "isFixedGasLimit": false
    }
  ],
  "receipts": [
    {
      "status": "0x1",
      "cumulativeGasUsed": "0x98cd8",
      "logs": [],
      "logsBloom": "0x00000000000000000000000000000000000000000000000000000000000000000000000000000000000000000000000000000000000000000000000000000000000000000000000000000000000000000000000000000000000000000000000000000000000000000000000000000000000000000000000000000000000000000000000000000000000000000000000000000000000000000000000000000000000000000000000000000000000000000000000000000000000000000000000000000000000000000000000000000000000000000000000000000000000000000000000000000000000000000000000000000000000000000000000000000000",
      "type": "0x2",
      "transactionHash": "0x74b5f5853a3a58c7fb02679d1e15c49771aa43c1cc9706c0548f2d149fb5e67b",
      "transactionIndex": "0x6",
      "blockHash": "0x78999ddc2ecf3cc582af3fe28e6ec927694b5e8cf5b28da74c3c67cca208733e",
      "blockNumber": "0x2775b28",
      "gasUsed": "0x68f6",
      "effectiveGasPrice": "0x5b8d80",
      "blobGasUsed": "0xae38",
      "from": "0xecf5e30f091d1db7c7b0ef26634a71d46dc9bb25",
      "to": "0x55782e7019f4619a06a25bf66d2998c8fe2cc436",
      "contractAddress": null,
      "daFootprintGasScalar": "0x1be",
      "l1BaseFeeScalar": "0x44d",
      "l1BlobBaseFee": "0x1",
      "l1BlobBaseFeeScalar": "0xa118b",
      "l1Fee": "0x5f",
      "l1GasPrice": "0x11",
      "l1GasUsed": "0x640"
    },
    {
      "status": "0x1",
      "cumulativeGasUsed": "0x89c7f",
      "logs": [
        {
          "address": "0x55782e7019f4619a06a25bf66d2998c8fe2cc436",
          "topics": [
            "0xc74fb24d400fca2a82a4c09f8d0b240a5274829080be96b89ccc4ba1b8772df0",
            "0x000000000000000000000000ecf5e30f091d1db7c7b0ef26634a71d46dc9bb25",
            "0x0000000000000000000000000000000000000000000000000000000000000005"
          ],
          "data": "0x0000000000000000000000000000000000000000000000000000000000000001",
          "blockHash": "0x05f2fa11f377546c4d975e3afaa9fde461325065ceef4052ba837aed5be38ab2",
          "blockNumber": "0x2775b2a",
          "blockTimestamp": "0x6a021534",
          "transactionHash": "0xd8f867d77acb3873e5c59465511a2016eaed253a98e3825ebcc0a82f5f145dd4",
          "transactionIndex": "0x4",
          "logIndex": "0x7",
          "removed": false
        }
      ],
      "logsBloom": "0x00000000000000000000000000000000000000000000000000000000000000000000000000000000000000000008000000000000000000000000000000010000400010000000000000000000000000000000000000000000000000000000000000000000000000000400000000000000000000000000000000000000000000000000000000000000000000000000001000800800000000000800000000000000000000000000000000000000000000000001000000000000000000000000000000000000000000000200000000000000000000000000000000000000000000000000000000000000000000000000000000000000000000000000008000000000",
      "type": "0x2",
      "transactionHash": "0xd8f867d77acb3873e5c59465511a2016eaed253a98e3825ebcc0a82f5f145dd4",
      "transactionIndex": "0x4",
      "blockHash": "0x05f2fa11f377546c4d975e3afaa9fde461325065ceef4052ba837aed5be38ab2",
      "blockNumber": "0x2775b2a",
      "gasUsed": "0x350d8",
      "effectiveGasPrice": "0x5b8d80",
      "blobGasUsed": "0xd64a",
      "from": "0xecf5e30f091d1db7c7b0ef26634a71d46dc9bb25",
      "to": "0x55782e7019f4619a06a25bf66d2998c8fe2cc436",
      "contractAddress": null,
      "daFootprintGasScalar": "0x1be",
      "l1BaseFeeScalar": "0x44d",
      "l1BlobBaseFee": "0x1",
      "l1BlobBaseFeeScalar": "0xa118b",
      "l1Fee": "0x76",
      "l1GasPrice": "0x11",
      "l1GasUsed": "0x7b0"
    },
    {
      "status": "0x1",
      "cumulativeGasUsed": "0x72046",
      "logs": [
        {
          "address": "0xc1868e054425d378095a003ecba3823a5d0135c9",
          "topics": [
            "0x61ed099e74a97a1d7f8bb0952a88ca8b7b8ebd00c126ea04671f92a81213318a"
          ],
          "data": "0x0000000000000000000000008a3d588d9f6ac041476b094f97ff94ec30169d3d000000000000000000000000000000000000000000000000000055bd62b4c457",
          "blockHash": "0x3cad99a085f04ef38da4e15d002d0c3d2435ce33f9dc6c0200264554f3ec1579",
          "blockNumber": "0x2775b2c",
          "blockTimestamp": "0x6a021538",
          "transactionHash": "0xb23d24d5eac913b191709dd3e4e7b7806c4be7410a893a87e9d68661f38f3cb4",
          "transactionIndex": "0x2",
          "logIndex": "0x7",
          "removed": false
        },
        {
          "address": "0xc1868e054425d378095a003ecba3823a5d0135c9",
          "topics": [
            "0x07ea52d82345d6e838192107d8fd7123d9c2ec8e916cd0aad13fd2b60db24644"
          ],
          "data": "0x000000000000000000000000000000000000000000000000000000000000006000000000000000000000000000000000000000000000000000000000000000a000000000000000000000000000000000000000000000000000000000000000c00000000000000000000000000000000000000000000000000000000000000001000000000000000000000000e1a12515f9ab2764b887bf60b923ca494ebbb2d6000000000000000000000000000000000000000000000000000000000000000000000000000000000000000000000000000000000000000000000000000000010000000000000000000000000000000000000000000000000000044978ad3cb0",
          "blockHash": "0x3cad99a085f04ef38da4e15d002d0c3d2435ce33f9dc6c0200264554f3ec1579",
          "blockNumber": "0x2775b2c",
          "blockTimestamp": "0x6a021538",
          "transactionHash": "0xb23d24d5eac913b191709dd3e4e7b7806c4be7410a893a87e9d68661f38f3cb4",
          "transactionIndex": "0x2",
          "logIndex": "0x8",
          "removed": false
        },
        {
          "address": "0x6edce65403992e310a62460808c4b910d972f10f",
          "topics": [
            "0x1ab700d4ced0c005b164c0f789fd09fcbb0156d4c2041b8a3bfbcd961cd1567f"
          ],
          "data": "0x000000000000000000000000000000000000000000000000000000000000006000000000000000000000000000000000000000000000000000000000000002a0000000000000000000000000c1868e054425d378095a003ecba3823a5d0135c9000000000000000000000000000000000000000000000000000000000000021101000000000000000100009d3500000000000000000000000055782e7019f4619a06a25bf66d2998c8fe2cc43600009ddf0000000000000000000000007bad5250a1c0b286bc5128bb1d7c19320341c8302eb1ec248ba911c556715f4d43242687098e32c638f3c3449d7a3e8706ab55ca0000000000000000000000000000000000000000000000000000000000000003000000000000000000000000000000000000000000000000000000000000004000000000000000000000000000000000000000000000000000000000000000010000000000000000000000000000000000000000000000000000000000000005000000000000000000000000ecf5e30f091d1db7c7b0ef26634a71d46dc9bb2500000000000000000000000000000000000000000000000000000000000002ee0000000000000000000000000000000000000000000000000000000002775b1c00000000000000000000000000000000000000000000000000000000000000010000000000000000000000000000000000000000000000000000000000000000000000000000000000000000000000000000000000000000000000000000006400000000000000000000000000000000000000000000000000000000000027100000000000000000000000000000000000000000000000000000000000000000000000000000000000000000000000000000000000000000000000000000cafe00000000000000000000000000000000000000000000000000000000000000000000000000000000000000000000160003010011010000000000000000000000000003d09000000000000000000000",
          "blockHash": "0x3cad99a085f04ef38da4e15d002d0c3d2435ce33f9dc6c0200264554f3ec1579",
          "blockNumber": "0x2775b2c",
          "blockTimestamp": "0x6a021538",
          "transactionHash": "0xb23d24d5eac913b191709dd3e4e7b7806c4be7410a893a87e9d68661f38f3cb4",
          "transactionIndex": "0x2",
          "logIndex": "0x9",
          "removed": false
        },
        {
          "address": "0x55782e7019f4619a06a25bf66d2998c8fe2cc436",
          "topics": [
            "0xc012d8a96d2fcdcda03a0934f2c1f171224eb4b8c26408a011c75215ce7d1985",
            "0x0000000000000000000000000000000000000000000000000000000000009ddf"
          ],
          "data": "0x0000000000000000000000000000000000000000000000000000000000000001000000000000000000000000000000000000000000000000000000000000000500000000000000000000000000000000000000000000000000000000000000052eb1ec248ba911c556715f4d43242687098e32c638f3c3449d7a3e8706ab55ca",
          "blockHash": "0x3cad99a085f04ef38da4e15d002d0c3d2435ce33f9dc6c0200264554f3ec1579",
          "blockNumber": "0x2775b2c",
          "blockTimestamp": "0x6a021538",
          "transactionHash": "0xb23d24d5eac913b191709dd3e4e7b7806c4be7410a893a87e9d68661f38f3cb4",
          "transactionIndex": "0x2",
          "logIndex": "0xa",
          "removed": false
        }
      ],
      "logsBloom": "0x00000000000000000000000000000000000000000000000000000080000000000000000000000200200000000000000000000000000000000000001000010000000000000000000000000000000000000000000020000000000000020000000000000000000000008200000000000000000000000000000800000000000000000000000000000020000000080000000000000000000000000800000000000000000000008000000000100000000000000000000000400000000440000000000080000000000000000000000000000000000000000000000000002000000000000000040000000000000000000000002000000000000040000000008000000000",
      "type": "0x2",
      "transactionHash": "0xb23d24d5eac913b191709dd3e4e7b7806c4be7410a893a87e9d68661f38f3cb4",
      "transactionIndex": "0x2",
      "blockHash": "0x3cad99a085f04ef38da4e15d002d0c3d2435ce33f9dc6c0200264554f3ec1579",
      "blockNumber": "0x2775b2c",
      "gasUsed": "0x3c573",
      "effectiveGasPrice": "0x5b8d80",
      "blobGasUsed": "0xcf52",
      "from": "0xecf5e30f091d1db7c7b0ef26634a71d46dc9bb25",
      "to": "0x55782e7019f4619a06a25bf66d2998c8fe2cc436",
      "contractAddress": null,
      "daFootprintGasScalar": "0x1be",
      "l1BaseFeeScalar": "0x44d",
      "l1BlobBaseFee": "0x2",
      "l1BlobBaseFeeScalar": "0xa118b",
      "l1Fee": "0xc1",
      "l1GasPrice": "0x11",
      "l1GasUsed": "0x77b"
    }
  ],
  "libraries": [],
  "pending": [],
  "returns": {},
  "timestamp": 1778521400557,
  "chain": 84532,
  "commit": "7ee8a67"
}