{
  "transactions": [
    {
      "hash": "0xa19a27bf765472af818889e6e81203aa894d00fe72ffa4be52ca56c175bed418",
      "transactionType": "CALL",
      "contractName": null,
      "contractAddress": "0x55782e7019f4619a06a25bf66d2998c8fe2cc436",
      "function": "setStrategyVault(address,bool)",
      "arguments": [
        "0xECf5e30F091D1db7c7b0ef26634a71d46DC9Bb25",
        "true"
      ],
      "transaction": {
        "from": "0xecf5e30f091d1db7c7b0ef26634a71d46dc9bb25",
        "to": "0x55782e7019f4619a06a25bf66d2998c8fe2cc436",
        "gas": "0x90f9",
        "value": "0x0",
        "input": "0xf1e4503f000000000000000000000000ecf5e30f091d1db7c7b0ef26634a71d46dc9bb250000000000000000000000000000000000000000000000000000000000000001",
        "nonce": "0x20",
        "chainId": "0x14a34"
      },
      "additionalContracts": [],
      "isFixedGasLimit": false
    },
    {
      "hash": "0x87016fb27b5769023d748fd3fdc49aa8f3dcbadc6a6cdf0c27c190bb15729a3e",
      "transactionType": "CALL",
      "contractName": null,
      "contractAddress": "0x55782e7019f4619a06a25bf66d2998c8fe2cc436",
      "function": "queueAttestation(address,(int256,uint256,uint256,uint256,uint256,uint256,uint8,bytes32))",
      "arguments": [
        "0xECf5e30F091D1db7c7b0ef26634a71d46DC9Bb25",
        "(750, 41379896, 1, 0, 100, 10000, 0, 0x000000000000000000000000000000000000000000000000000000000000cafe)"
      ],
      "transaction": {
        "from": "0xecf5e30f091d1db7c7b0ef26634a71d46dc9bb25",
        "to": "0x55782e7019f4619a06a25bf66d2998c8fe2cc436",
        "gas": "0x49476",
        "value": "0x0",
        "input": "0xbacdd573000000000000000000000000ecf5e30f091d1db7c7b0ef26634a71d46dc9bb2500000000000000000000000000000000000000000000000000000000000002ee000000000000000000000000000000000000000000000000000000000277683800000000000000000000000000000000000000000000000000000000000000010000000000000000000000000000000000000000000000000000000000000000000000000000000000000000000000000000000000000000000000000000006400000000000000000000000000000000000000000000000000000000000027100000000000000000000000000000000000000000000000000000000000000000000000000000000000000000000000000000000000000000000000000000cafe",
        "nonce": "0x21",
        "chainId": "0x14a34"
      },
      "additionalContracts": [],
      "isFixedGasLimit": false
    },
    {
      "hash": "0xcfb3967d31dea8c1a979bd8da0418a0e6eb243b04a73dba2bdd3c3fd9293f913",
      "transactionType": "CALL",
      "contractName": null,
      "contractAddress": "0x55782e7019f4619a06a25bf66d2998c8fe2cc436",
      "function": "flushAttestationsFor(address,uint32,bytes)",
      "arguments": [
        "0xECf5e30F091D1db7c7b0ef26634a71d46DC9Bb25",
        "40415",
        "0x0003010011010000000000000000000000000003d090"
      ],
      "transaction": {
        "from": "0xecf5e30f091d1db7c7b0ef26634a71d46dc9bb25",
        "to": "0x55782e7019f4619a06a25bf66d2998c8fe2cc436",
        "gas": "0x583f7",
        "value": "0x6c083a759ad5",
        "input": "0x11684263000000000000000000000000ecf5e30f091d1db7c7b0ef26634a71d46dc9bb250000000000000000000000000000000000000000000000000000000000009ddf000000000000000000000000000000000000000000000000000000000000006000000000000000000000000000000000000000000000000000000000000000160003010011010000000000000000000000000003d09000000000000000000000",
        "nonce": "0x22",
        "chainId": "0x14a34"
      },
      "additionalContracts": [],
      "isFixedGasLimit": false
    }
  ],
  "receipts": [
    {
      "status": "0x1",
      "cumulativeGasUsed": "0x163e78",
      "logs": [],
      "logsBloom": "0x00000000000000000000000000000000000000000000000000000000000000000000000000000000000000000000000000000000000000000000000000000000000000000000000000000000000000000000000000000000000000000000000000000000000000000000000000000000000000000000000000000000000000000000000000000000000000000000000000000000000000000000000000000000000000000000000000000000000000000000000000000000000000000000000000000000000000000000000000000000000000000000000000000000000000000000000000000000000000000000000000000000000000000000000000000000",
      "type": "0x2",
      "transactionHash": "0x87016fb27b5769023d748fd3fdc49aa8f3dcbadc6a6cdf0c27c190bb15729a3e",
      "transactionIndex": "0xb",
      "blockHash": "0xb6d9f87e1341e05b8e752383c98569a130e4fe51a447c26d4c2591fb4a4c93ef",
      "blockNumber": "0x2776847",
      "gasUsed": "0x68f6",
      "effectiveGasPrice": "0x5b8d80",
      "blobGasUsed": "0xae38",
      "from": "0xecf5e30f091d1db7c7b0ef26634a71d46dc9bb25",
      "to": "0x55782e7019f4619a06a25bf66d2998c8fe2cc436",
      "contractAddress": null,
      "daFootprintGasScalar": "0x1be",
      "l1BaseFeeScalar": "0x44d",
      "l1BlobBaseFee": "0x1",
      "l1BlobBaseFeeScalar": "0xa118b",
      "l1Fee": "0x5e",
      "l1GasPrice": "0x10",
      "l1GasUsed": "0x640"
    },
    {
      "status": "0x1",
      "cumulativeGasUsed": "0x198f50",
      "logs": [
        {
          "address": "0x55782e7019f4619a06a25bf66d2998c8fe2cc436",
          "topics": [
            "0xc74fb24d400fca2a82a4c09f8d0b240a5274829080be96b89ccc4ba1b8772df0",
            "0x000000000000000000000000ecf5e30f091d1db7c7b0ef26634a71d46dc9bb25",
            "0x0000000000000000000000000000000000000000000000000000000000000006"
          ],
          "data": "0x0000000000000000000000000000000000000000000000000000000000000001",
          "blockHash": "0xb6d9f87e1341e05b8e752383c98569a130e4fe51a447c26d4c2591fb4a4c93ef",
          "blockNumber": "0x2776847",
          "blockTimestamp": "0x6a022f6e",
          "transactionHash": "0xa19a27bf765472af818889e6e81203aa894d00fe72ffa4be52ca56c175bed418",
          "transactionIndex": "0xc",
          "logIndex": "0x24",
          "removed": false
        }
      ],
      "logsBloom": "0x00000000000000000000000000000000000000000000000000000000000000000000000000000000000000000008000000000000000400000000000000010000400000000000000000000000000000000000000000000000000000000000000000000000000000000400000000000000000000000000000000000000000000000000000400000000000000000000000000800000000000000800000000000000000000000000000000000000000000000001000000000000000000080000000000000000000000000200000000000000000000000000000000000000000000000000000000000000000000000000000000000000000000000000008000000000",
      "type": "0x2",
      "transactionHash": "0xa19a27bf765472af818889e6e81203aa894d00fe72ffa4be52ca56c175bed418",
      "transactionIndex": "0xc",
      "blockHash": "0xb6d9f87e1341e05b8e752383c98569a130e4fe51a447c26d4c2591fb4a4c93ef",
      "blockNumber": "0x2776847",
      "gasUsed": "0x350d8",
      "effectiveGasPrice": "0x5b8d80",
      "blobGasUsed": "0xd64a",
      "from": "0xecf5e30f091d1db7c7b0ef26634a71d46dc9bb25",
      "to": "0x55782e7019f4619a06a25bf66d2998c8fe2cc436",
      "contractAddress": null,
      "daFootprintGasScalar": "0x1be",
      "l1BaseFeeScalar": "0x44d",
      "l1BlobBaseFee": "0x1",
      "l1BlobBaseFeeScalar": "0xa118b",
      "l1Fee": "0x73",
      "l1GasPrice": "0x10",
      "l1GasUsed": "0x7b0"
    },
    {
      "status": "0x1",
      "cumulativeGasUsed": "0x1d54c3",
      "logs": [
        {
          "address": "0xc1868e054425d378095a003ecba3823a5d0135c9",
          "topics": [
            "0x61ed099e74a97a1d7f8bb0952a88ca8b7b8ebd00c126ea04671f92a81213318a"
          ],
          "data": "0x0000000000000000000000008a3d588d9f6ac041476b094f97ff94ec30169d3d000000000000000000000000000000000000000000000000000055bd62b4c457",
          "blockHash": "0xb6d9f87e1341e05b8e752383c98569a130e4fe51a447c26d4c2591fb4a4c93ef",
          "blockNumber": "0x2776847",
          "blockTimestamp": "0x6a022f6e",
          "transactionHash": "0xcfb3967d31dea8c1a979bd8da0418a0e6eb243b04a73dba2bdd3c3fd9293f913",
          "transactionIndex": "0xd",
          "logIndex": "0x25",
          "removed": false
        },
        {
          "address": "0xc1868e054425d378095a003ecba3823a5d0135c9",
          "topics": [
            "0x07ea52d82345d6e838192107d8fd7123d9c2ec8e916cd0aad13fd2b60db24644"
          ],
          "data": "0x000000000000000000000000000000000000000000000000000000000000006000000000000000000000000000000000000000000000000000000000000000a000000000000000000000000000000000000000000000000000000000000000c00000000000000000000000000000000000000000000000000000000000000001000000000000000000000000e1a12515f9ab2764b887bf60b923ca494ebbb2d6000000000000000000000000000000000000000000000000000000000000000000000000000000000000000000000000000000000000000000000000000000010000000000000000000000000000000000000000000000000000044978ad3cb0",
          "blockHash": "0xb6d9f87e1341e05b8e752383c98569a130e4fe51a447c26d4c2591fb4a4c93ef",
          "blockNumber": "0x2776847",
          "blockTimestamp": "0x6a022f6e",
          "transactionHash": "0xcfb3967d31dea8c1a979bd8da0418a0e6eb243b04a73dba2bdd3c3fd9293f913",
          "transactionIndex": "0xd",
          "logIndex": "0x26",
          "removed": false
        },
        {
          "address": "0x6edce65403992e310a62460808c4b910d972f10f",
          "topics": [
            "0x1ab700d4ced0c005b164c0f789fd09fcbb0156d4c2041b8a3bfbcd961cd1567f"
          ],
          "data": "0x000000000000000000000000000000000000000000000000000000000000006000000000000000000000000000000000000000000000000000000000000002a0000000000000000000000000c1868e054425d378095a003ecba3823a5d0135c9000000000000000000000000000000000000000000000000000000000000021101000000000000000100009d3500000000000000000000000055782e7019f4619a06a25bf66d2998c8fe2cc43600009ddf0000000000000000000000009845c0c697964464dcaf2602b4e516caea98e51eee32cb6d54a55db529f17cad43be62cab84cf4a25afa21030bc86e802385ad410000000000000000000000000000000000000000000000000000000000000003000000000000000000000000000000000000000000000000000000000000004000000000000000000000000000000000000000000000000000000000000000010000000000000000000000000000000000000000000000000000000000000006000000000000000000000000ecf5e30f091d1db7c7b0ef26634a71d46dc9bb2500000000000000000000000000000000000000000000000000000000000002ee000000000000000000000000000000000000000000000000000000000277683800000000000000000000000000000000000000000000000000000000000000010000000000000000000000000000000000000000000000000000000000000000000000000000000000000000000000000000000000000000000000000000006400000000000000000000000000000000000000000000000000000000000027100000000000000000000000000000000000000000000000000000000000000000000000000000000000000000000000000000000000000000000000000000cafe00000000000000000000000000000000000000000000000000000000000000000000000000000000000000000000160003010011010000000000000000000000000003d09000000000000000000000",
          "blockHash": "0xb6d9f87e1341e05b8e752383c98569a130e4fe51a447c26d4c2591fb4a4c93ef",
          "blockNumber": "0x2776847",
          "blockTimestamp": "0x6a022f6e",
          "transactionHash": "0xcfb3967d31dea8c1a979bd8da0418a0e6eb243b04a73dba2bdd3c3fd9293f913",
          "transactionIndex": "0xd",
          "logIndex": "0x27",
          "removed": false
        },
        {
          "address": "0x55782e7019f4619a06a25bf66d2998c8fe2cc436",
          "topics": [
            "0xc012d8a96d2fcdcda03a0934f2c1f171224eb4b8c26408a011c75215ce7d1985",
            "0x0000000000000000000000000000000000000000000000000000000000009ddf"
          ],
          "data": "0x000000000000000000000000000000000000000000000000000000000000000100000000000000000000000000000000000000000000000000000000000000060000000000000000000000000000000000000000000000000000000000000006ee32cb6d54a55db529f17cad43be62cab84cf4a25afa21030bc86e802385ad41",
          "blockHash": "0xb6d9f87e1341e05b8e752383c98569a130e4fe51a447c26d4c2591fb4a4c93ef",
          "blockNumber": "0x2776847",
          "blockTimestamp": "0x6a022f6e",
          "transactionHash": "0xcfb3967d31dea8c1a979bd8da0418a0e6eb243b04a73dba2bdd3c3fd9293f913",
          "transactionIndex": "0xd",
          "logIndex": "0x28",
          "removed": false
        }
      ],
      "logsBloom": "0x00000000000000000000000000000000000000000000000000000080000000000000000000000200200000000000000000000000000000000000001000010000000000000000000000000000000000000000000020000000000000020000000000000000000000008200000000000000000000000000000800000000000000000000000000000020000000080000000000000000000000000800000000000000000000008000000000100000000000000000000000400000000440000000000080000000000000000000000000000000000000000000000000002000000000000000040000000000000000000000002000000000000040000000008000000000",
      "type": "0x2",
      "transactionHash": "0xcfb3967d31dea8c1a979bd8da0418a0e6eb243b04a73dba2bdd3c3fd9293f913",
      "transactionIndex": "0xd",
      "blockHash": "0xb6d9f87e1341e05b8e752383c98569a130e4fe51a447c26d4c2591fb4a4c93ef",
      "blockNumber": "0x2776847",
      "gasUsed": "0x3c573",
      "effectiveGasPrice": "0x5b8d80",
      "blobGasUsed": "0xcf52",
      "from": "0xecf5e30f091d1db7c7b0ef26634a71d46dc9bb25",
      "to": "0x55782e7019f4619a06a25bf66d2998c8fe2cc436",
      "contractAddress": null,
      "daFootprintGasScalar": "0x1be",
      "l1BaseFeeScalar": "0x44d",
      "l1BlobBaseFee": "0x1",
      "l1BlobBaseFeeScalar": "0xa118b",
      "l1Fee": "0x70",
      "l1GasPrice": "0x10",
      "l1GasUsed": "0x77b"
    }
  ],
  "libraries": [],
  "pending": [],
  "returns": {},
  "timestamp": 1778528110230,
  "chain": 84532,
  "commit": "b58afcc"
}