{
  "transactions": [
    {
      "hash": "0x5c5aa86d154084fe8e436f8497da611ae8ec84f6e8c8a38894417df8918b5804",
      "transactionType": "CALL",
      "contractName": null,
      "contractAddress": "0x55782e7019f4619a06a25bf66d2998c8fe2cc436",
      "function": "setStrategyVault(address,bool)",
      "arguments": [
        "0xECf5e30F091D1db7c7b0ef26634a71d46DC9Bb25",
        "true"
      ],
      "transaction": {
        "from": "0xecf5e30f091d1db7c7b0ef26634a71d46dc9bb25",
        "to": "0x55782e7019f4619a06a25bf66d2998c8fe2cc436",
        "gas": "0x90f9",
        "value": "0x0",
        "input": "0xf1e4503f000000000000000000000000ecf5e30f091d1db7c7b0ef26634a71d46dc9bb250000000000000000000000000000000000000000000000000000000000000001",
        "nonce": "0x18",
        "chainId": "0x14a34"
      },
      "additionalContracts": [],
      "isFixedGasLimit": false
    },
    {
      "hash": "0xf7f4b7dd8c5e7a582d154863427cdec71ffcc7ed52229fdcb01e3ed1e3e63e22",
      "transactionType": "CALL",
      "contractName": null,
      "contractAddress": "0x55782e7019f4619a06a25bf66d2998c8fe2cc436",
      "function": "queueAttestation(address,(int256,uint256,uint256,uint256,uint256,uint256,uint8,bytes32))",
      "arguments": [
        "0xECf5e30F091D1db7c7b0ef26634a71d46DC9Bb25",
        "(750, 41376021, 1, 0, 100, 10000, 0, 0x000000000000000000000000000000000000000000000000000000000000cafe)"
      ],
      "transaction": {
        "from": "0xecf5e30f091d1db7c7b0ef26634a71d46dc9bb25",
        "to": "0x55782e7019f4619a06a25bf66d2998c8fe2cc436",
        "gas": "0x49476",
        "value": "0x0",
        "input": "0xbacdd573000000000000000000000000ecf5e30f091d1db7c7b0ef26634a71d46dc9bb2500000000000000000000000000000000000000000000000000000000000002ee000000000000000000000000000000000000000000000000000000000277591500000000000000000000000000000000000000000000000000000000000000010000000000000000000000000000000000000000000000000000000000000000000000000000000000000000000000000000000000000000000000000000006400000000000000000000000000000000000000000000000000000000000027100000000000000000000000000000000000000000000000000000000000000000000000000000000000000000000000000000000000000000000000000000cafe",
        "nonce": "0x19",
        "chainId": "0x14a34"
      },
      "additionalContracts": [],
      "isFixedGasLimit": false
    },
    {
      "hash": "0x9d777976deb0422a3796667aa81735dfc781d03f7d43ac0cde8add7ace949401",
      "transactionType": "CALL",
      "contractName": null,
      "contractAddress": "0x55782e7019f4619a06a25bf66d2998c8fe2cc436",
      "function": "flushAttestationsFor(address,uint32,bytes)",
      "arguments": [
        "0xECf5e30F091D1db7c7b0ef26634a71d46DC9Bb25",
        "40415",
        "0x0003010011010000000000000000000000000003d090"
      ],
      "transaction": {
        "from": "0xecf5e30f091d1db7c7b0ef26634a71d46dc9bb25",
        "to": "0x55782e7019f4619a06a25bf66d2998c8fe2cc436",
        "gas": "0x4d942",
        "value": "0x6c083a759ad5",
        "input": "0x11684263000000000000000000000000ecf5e30f091d1db7c7b0ef26634a71d46dc9bb250000000000000000000000000000000000000000000000000000000000009ddf000000000000000000000000000000000000000000000000000000000000006000000000000000000000000000000000000000000000000000000000000000160003010011010000000000000000000000000003d09000000000000000000000",
        "nonce": "0x1a",
        "chainId": "0x14a34"
      },
      "additionalContracts": [],
      "isFixedGasLimit": false
    }
  ],
  "receipts": [
    {
      "status": "0x1",
      "cumulativeGasUsed": "0x1d0219",
      "logs": [],
      "logsBloom": "0x00000000000000000000000000000000000000000000000000000000000000000000000000000000000000000000000000000000000000000000000000000000000000000000000000000000000000000000000000000000000000000000000000000000000000000000000000000000000000000000000000000000000000000000000000000000000000000000000000000000000000000000000000000000000000000000000000000000000000000000000000000000000000000000000000000000000000000000000000000000000000000000000000000000000000000000000000000000000000000000000000000000000000000000000000000000",
      "type": "0x2",
      "transactionHash": "0x5c5aa86d154084fe8e436f8497da611ae8ec84f6e8c8a38894417df8918b5804",
      "transactionIndex": "0xc",
      "blockHash": "0x76a19523f9b0c821b91445de234cefeb6be536c2feb1f3fb042422cc6a9d4418",
      "blockNumber": "0x2775922",
      "gasUsed": "0x68f6",
      "effectiveGasPrice": "0x5b8d80",
      "blobGasUsed": "0xae38",
      "from": "0xecf5e30f091d1db7c7b0ef26634a71d46dc9bb25",
      "to": "0x55782e7019f4619a06a25bf66d2998c8fe2cc436",
      "contractAddress": null,
      "daFootprintGasScalar": "0x1be",
      "l1BaseFeeScalar": "0x44d",
      "l1BlobBaseFee": "0x2",
      "l1BlobBaseFeeScalar": "0xa118b",
      "l1Fee": "0xb0",
      "l1GasPrice": "0x19",
      "l1GasUsed": "0x640"
    },
    {
      "status": "0x1",
      "cumulativeGasUsed": "0x11297c",
      "logs": [
        {
          "address": "0x55782e7019f4619a06a25bf66d2998c8fe2cc436",
          "topics": [
            "0xc74fb24d400fca2a82a4c09f8d0b240a5274829080be96b89ccc4ba1b8772df0",
            "0x000000000000000000000000ecf5e30f091d1db7c7b0ef26634a71d46dc9bb25",
            "0x0000000000000000000000000000000000000000000000000000000000000004"
          ],
          "data": "0x0000000000000000000000000000000000000000000000000000000000000001",
          "blockHash": "0x8a913058768a666cb996d671632dbddf99d53e5113756857fae850ee45171042",
          "blockNumber": "0x2775924",
          "blockTimestamp": "0x6a021128",
          "transactionHash": "0xf7f4b7dd8c5e7a582d154863427cdec71ffcc7ed52229fdcb01e3ed1e3e63e22",
          "transactionIndex": "0x5",
          "logIndex": "0x38",
          "removed": false
        }
      ],
      "logsBloom": "0x00000000000000000000000000000000000000000000000000000000000000000000000000000000000000000008000000000000000000000000000000010000400000000000000000000000000000000000000000000000000000000000000008000000000000000400000000000000000000000000000000000000000000000000000000000000000000000000000000800000000000000800000000000000000000000000000000000000000000000001000000000000002000000000000000000000000000000200000000000000000000008000000000000000000000000000000000000000000000000000000000000000000000000000008000000000",
      "type": "0x2",
      "transactionHash": "0xf7f4b7dd8c5e7a582d154863427cdec71ffcc7ed52229fdcb01e3ed1e3e63e22",
      "transactionIndex": "0x5",
      "blockHash": "0x8a913058768a666cb996d671632dbddf99d53e5113756857fae850ee45171042",
      "blockNumber": "0x2775924",
      "gasUsed": "0x350d8",
      "effectiveGasPrice": "0x5b8d80",
      "blobGasUsed": "0xd64a",
      "from": "0xecf5e30f091d1db7c7b0ef26634a71d46dc9bb25",
      "to": "0x55782e7019f4619a06a25bf66d2998c8fe2cc436",
      "contractAddress": null,
      "daFootprintGasScalar": "0x1be",
      "l1BaseFeeScalar": "0x44d",
      "l1BlobBaseFee": "0x2",
      "l1BlobBaseFeeScalar": "0xa118b",
      "l1Fee": "0xd8",
      "l1GasPrice": "0x19",
      "l1GasUsed": "0x7b0"
    },
    {
      "status": "0x1",
      "cumulativeGasUsed": "0xf332a",
      "logs": [
        {
          "address": "0xc1868e054425d378095a003ecba3823a5d0135c9",
          "topics": [
            "0x61ed099e74a97a1d7f8bb0952a88ca8b7b8ebd00c126ea04671f92a81213318a"
          ],
          "data": "0x0000000000000000000000008a3d588d9f6ac041476b094f97ff94ec30169d3d000000000000000000000000000000000000000000000000000055bd62b4c457",
          "blockHash": "0x4496db3fa66a552a02ceeec3e511c6c81c4b661e8ba157eb34ee6011ba8114c2",
          "blockNumber": "0x2775925",
          "blockTimestamp": "0x6a02112a",
          "transactionHash": "0x9d777976deb0422a3796667aa81735dfc781d03f7d43ac0cde8add7ace949401",
          "transactionIndex": "0x9",
          "logIndex": "0x1a",
          "removed": false
        },
        {
          "address": "0xc1868e054425d378095a003ecba3823a5d0135c9",
          "topics": [
            "0x07ea52d82345d6e838192107d8fd7123d9c2ec8e916cd0aad13fd2b60db24644"
          ],
          "data": "0x000000000000000000000000000000000000000000000000000000000000006000000000000000000000000000000000000000000000000000000000000000a000000000000000000000000000000000000000000000000000000000000000c00000000000000000000000000000000000000000000000000000000000000001000000000000000000000000e1a12515f9ab2764b887bf60b923ca494ebbb2d6000000000000000000000000000000000000000000000000000000000000000000000000000000000000000000000000000000000000000000000000000000010000000000000000000000000000000000000000000000000000044978ad3cb0",
          "blockHash": "0x4496db3fa66a552a02ceeec3e511c6c81c4b661e8ba157eb34ee6011ba8114c2",
          "blockNumber": "0x2775925",
          "blockTimestamp": "0x6a02112a",
          "transactionHash": "0x9d777976deb0422a3796667aa81735dfc781d03f7d43ac0cde8add7ace949401",
          "transactionIndex": "0x9",
          "logIndex": "0x1b",
          "removed": false
        },
        {
          "address": "0x6edce65403992e310a62460808c4b910d972f10f",
          "topics": [
            "0x1ab700d4ced0c005b164c0f789fd09fcbb0156d4c2041b8a3bfbcd961cd1567f"
          ],
          "data": "0x000000000000000000000000000000000000000000000000000000000000006000000000000000000000000000000000000000000000000000000000000002a0000000000000000000000000c1868e054425d378095a003ecba3823a5d0135c9000000000000000000000000000000000000000000000000000000000000021101000000000000000400009d3500000000000000000000000055782e7019f4619a06a25bf66d2998c8fe2cc43600009ddf0000000000000000000000009d93f3f2254d7d6f6f4208938b7ce7f9e33c43b3f3e1efba2972b693acfb4128f0734be531c02488c17a50f277fa54960bf291d00000000000000000000000000000000000000000000000000000000000000003000000000000000000000000000000000000000000000000000000000000004000000000000000000000000000000000000000000000000000000000000000010000000000000000000000000000000000000000000000000000000000000004000000000000000000000000ecf5e30f091d1db7c7b0ef26634a71d46dc9bb2500000000000000000000000000000000000000000000000000000000000002ee000000000000000000000000000000000000000000000000000000000277591500000000000000000000000000000000000000000000000000000000000000010000000000000000000000000000000000000000000000000000000000000000000000000000000000000000000000000000000000000000000000000000006400000000000000000000000000000000000000000000000000000000000027100000000000000000000000000000000000000000000000000000000000000000000000000000000000000000000000000000000000000000000000000000cafe00000000000000000000000000000000000000000000000000000000000000000000000000000000000000000000160003010011010000000000000000000000000003d09000000000000000000000",
          "blockHash": "0x4496db3fa66a552a02ceeec3e511c6c81c4b661e8ba157eb34ee6011ba8114c2",
          "blockNumber": "0x2775925",
          "blockTimestamp": "0x6a02112a",
          "transactionHash": "0x9d777976deb0422a3796667aa81735dfc781d03f7d43ac0cde8add7ace949401",
          "transactionIndex": "0x9",
          "logIndex": "0x1c",
          "removed": false
        },
        {
          "address": "0x55782e7019f4619a06a25bf66d2998c8fe2cc436",
          "topics": [
            "0xc012d8a96d2fcdcda03a0934f2c1f171224eb4b8c26408a011c75215ce7d1985",
            "0x0000000000000000000000000000000000000000000000000000000000009ddf"
          ],
          "data": "0x000000000000000000000000000000000000000000000000000000000000000100000000000000000000000000000000000000000000000000000000000000040000000000000000000000000000000000000000000000000000000000000004f3e1efba2972b693acfb4128f0734be531c02488c17a50f277fa54960bf291d0",
          "blockHash": "0x4496db3fa66a552a02ceeec3e511c6c81c4b661e8ba157eb34ee6011ba8114c2",
          "blockNumber": "0x2775925",
          "blockTimestamp": "0x6a02112a",
          "transactionHash": "0x9d777976deb0422a3796667aa81735dfc781d03f7d43ac0cde8add7ace949401",
          "transactionIndex": "0x9",
          "logIndex": "0x1d",
          "removed": false
        }
      ],
      "logsBloom": "0x00000000000000000000000000000000000000000000000000000080000000000000000000000200200000000000000000000000000000000000001000010000000000000000000000000000000000000000000020000000000000020000000000000000000000008200000000000000000000000000000800000000000000000000000000000020000000080000000000000000000000000800000000000000000000008000000000100000000000000000000000400000000440000000000080000000000000000000000000000000000000000000000000002000000000000000040000000000000000000000002000000000000040000000008000000000",
      "type": "0x2",
      "transactionHash": "0x9d777976deb0422a3796667aa81735dfc781d03f7d43ac0cde8add7ace949401",
      "transactionIndex": "0x9",
      "blockHash": "0x4496db3fa66a552a02ceeec3e511c6c81c4b661e8ba157eb34ee6011ba8114c2",
      "blockNumber": "0x2775925",
      "gasUsed": "0x382a7",
      "effectiveGasPrice": "0x5b8d80",
      "blobGasUsed": "0xcf52",
      "from": "0xecf5e30f091d1db7c7b0ef26634a71d46dc9bb25",
      "to": "0x55782e7019f4619a06a25bf66d2998c8fe2cc436",
      "contractAddress": null,
      "daFootprintGasScalar": "0x1be",
      "l1BaseFeeScalar": "0x44d",
      "l1BlobBaseFee": "0x2",
      "l1BlobBaseFeeScalar": "0xa118b",
      "l1Fee": "0xd2",
      "l1GasPrice": "0x19",
      "l1GasUsed": "0x77b"
    }
  ],
  "libraries": [],
  "pending": [],
  "returns": {},
  "timestamp": 1778520363063,
  "chain": 84532,
  "commit": "e202616"
}