{
  "transactions": [
    {
      "hash": "0x0b27ee071a2a9aaa83d07cc9bbe94e91544d95e43d9c1116d8ba54db9605978f",
      "transactionType": "CALL",
      "contractName": null,
      "contractAddress": "0x2a94de11521eaf190e451863befe0f178f04df32",
      "function": "deactivate(address)",
      "arguments": [
        "0x90e7A456404e73466e71A190dBB5A5A3490776A8"
      ],
      "transaction": {
        "from": "0xecf5e30f091d1db7c7b0ef26634a71d46dc9bb25",
        "to": "0x2a94de11521eaf190e451863befe0f178f04df32",
        "gas": "0xe54e",
        "value": "0x0",
        "input": "0x3ea053eb00000000000000000000000090e7a456404e73466e71a190dbb5a5a3490776a8",
        "nonce": "0x2f",
        "chainId": "0x14a34"
      },
      "additionalContracts": [],
      "isFixedGasLimit": false
    },
    {
      "hash": "0x833a408a24b7d17b2847ca8a2d445d5634c9c9e1eb5762c0073017fe81220304",
      "transactionType": "CALL",
      "contractName": null,
      "contractAddress": "0x2a94de11521eaf190e451863befe0f178f04df32",
      "function": "deactivate(address)",
      "arguments": [
        "0x1e458D57F9fE0CF50F82366c258b05A254d8Fa6f"
      ],
      "transaction": {
        "from": "0xecf5e30f091d1db7c7b0ef26634a71d46dc9bb25",
        "to": "0x2a94de11521eaf190e451863befe0f178f04df32",
        "gas": "0xe54e",
        "value": "0x0",
        "input": "0x3ea053eb0000000000000000000000001e458d57f9fe0cf50f82366c258b05a254d8fa6f",
        "nonce": "0x30",
        "chainId": "0x14a34"
      },
      "additionalContracts": [],
      "isFixedGasLimit": false
    },
    {
      "hash": "0xc8a99dfe3a4ab7beee2d9e93b5233279d488d0f3d85bcc4109725955f93971d6",
      "transactionType": "CREATE",
      "contractName": "ERC1967Proxy",
      "contractAddress": "0x9e14299e6faee1c1f352e2f9197d8a080306fe8d",
      "function": null,
      "arguments": [
        "0x735680A32A0e5d9d23D7e8e8302F434e7F30428E",
        "0x636c6acd00000000000000000000000000000000000000000000000000000000000000200000000000000000000000000000000000000000000000000000000000000140000000000000000000000000e8cf8a5711f08d5211d46a2835ecc9c9af1b91cd0000000000000000000000002a94de11521eaf190e451863befe0f178f04df3200000000000000000000000051c07adf596b1e72697a9b8232d061ed006943dc00000000000000000000000094cc0aac535ccdb3c01d6787d6413c739ae12bc4000000000000000000000000f95ba60e81bf483cfdc95cfe52ccf3029ef09e03000000000000000000000000ecf5e30f091d1db7c7b0ef26634a71d46dc9bb250000000000000000000000006e3c2304d1e7c8953b52e8e5f49a6dbd7ef4875b00000000000000000000000037714f599570bb2b8389e98d771f6176b9c96cd3000000000000000000000000ecf5e30f091d1db7c7b0ef26634a71d46dc9bb252a9aa442064b635baec37a7a259282faa5563a653a8325378d5676c6f04bc9dd00000000000000000000000000000000000000000000000000000000000000e0000000000000000000000000000000000000000000000000000000e8d4a5100000000000000000000000000000000000000000000000000000000000000005dc000000000000000000000000f95ba60e81bf483cfdc95cfe52ccf3029ef09e03000000000000000000000000000000000000000000000000000000012a05f2007b37ef1a93a463f3f05a6b3eeaa8efe413b00feb0963137e50299cead972d0470000000000000000000000000000000000000000000000000000000000000002000000000000000000000000e8cf8a5711f08d5211d46a2835ecc9c9af1b91cd0000000000000000000000004200000000000000000000000000000000000006"
      ],
      "transaction": {
        "from": "0xecf5e30f091d1db7c7b0ef26634a71d46dc9bb25",
        "gas": "0xc331f",
        "value": "0x0",
        "input": "0x608060405261026c803803806100148161016e565b9283398101604082820312610156578151916001600160a01b03831690818403610156576020810151906001600160401b038211610156570182601f82011215610156578051906001600160401b03821161015a5761007c601f8301601f191660200161016e565b938285526020838301011161015657815f9260208093018387015e8401015281511561014757823b15610135577f360894a13ba1a3210667c828492db98dca3e2076cc3735a920a3ca505d382bbc80546001600160a01b031916821790557fbc7cd75a20ee27fd9adebab32041f755214dbc6bffa90cc0225b39da2e5c2d3b5f80a280511561011e5761010e91610193565b505b604051604c90816102208239f35b505034156101105763b398979f60e01b5f5260045ffd5b634c9c8ce360e01b5f5260045260245ffd5b6330a289cf60e21b5f5260045ffd5b5f80fd5b634e487b7160e01b5f52604160045260245ffd5b6040519190601f01601f191682016001600160401b0381118382101761015a57604052565b905f8091602081519101845af4808061020c575b156101c75750506040513d81523d5f602083013e60203d82010160405290565b156101ec57639996b31560e01b5f9081526001600160a01b0391909116600452602490fd5b3d156101fd576040513d5f823e3d90fd5b63d6bda27560e01b5f5260045ffd5b503d1515806101a75750813b15156101a756fe60806040527f360894a13ba1a3210667c828492db98dca3e2076cc3735a920a3ca505d382bbc545f9081906001600160a01b0316368280378136915af43d5f803e156048573d5ff35b3d5ffd000000000000000000000000735680a32a0e5d9d23d7e8e8302f434e7f30428e000000000000000000000000000000000000000000000000000000000000004000000000000000000000000000000000000000000000000000000000000002a4636c6acd00000000000000000000000000000000000000000000000000000000000000200000000000000000000000000000000000000000000000000000000000000140000000000000000000000000e8cf8a5711f08d5211d46a2835ecc9c9af1b91cd0000000000000000000000002a94de11521eaf190e451863befe0f178f04df3200000000000000000000000051c07adf596b1e72697a9b8232d061ed006943dc00000000000000000000000094cc0aac535ccdb3c01d6787d6413c739ae12bc4000000000000000000000000f95ba60e81bf483cfdc95cfe52ccf3029ef09e03000000000000000000000000ecf5e30f091d1db7c7b0ef26634a71d46dc9bb250000000000000000000000006e3c2304d1e7c8953b52e8e5f49a6dbd7ef4875b00000000000000000000000037714f599570bb2b8389e98d771f6176b9c96cd3000000000000000000000000ecf5e30f091d1db7c7b0ef26634a71d46dc9bb252a9aa442064b635baec37a7a259282faa5563a653a8325378d5676c6f04bc9dd00000000000000000000000000000000000000000000000000000000000000e0000000000000000000000000000000000000000000000000000000e8d4a5100000000000000000000000000000000000000000000000000000000000000005dc000000000000000000000000f95ba60e81bf483cfdc95cfe52ccf3029ef09e03000000000000000000000000000000000000000000000000000000012a05f2007b37ef1a93a463f3f05a6b3eeaa8efe413b00feb0963137e50299cead972d0470000000000000000000000000000000000000000000000000000000000000002000000000000000000000000e8cf8a5711f08d5211d46a2835ecc9c9af1b91cd000000000000000000000000420000000000000000000000000000000000000600000000000000000000000000000000000000000000000000000000",
        "nonce": "0x31",
        "chainId": "0x14a34"
      },
      "additionalContracts": [],
      "isFixedGasLimit": false
    },
    {
      "hash": "0x17b047371a0a23f5cbc5b935fcdba3a31972d194bd0688e3d4d7614c25257420",
      "transactionType": "CREATE",
      "contractName": "ERC1967Proxy",
      "contractAddress": "0x8b375617589dbc7a90049b0fe07f2fb4d5a19f08",
      "function": null,
      "arguments": [
        "0x735680A32A0e5d9d23D7e8e8302F434e7F30428E",
        "0x636c6acd00000000000000000000000000000000000000000000000000000000000000200000000000000000000000000000000000000000000000000000000000000140000000000000000000000000e8cf8a5711f08d5211d46a2835ecc9c9af1b91cd0000000000000000000000002a94de11521eaf190e451863befe0f178f04df3200000000000000000000000051c07adf596b1e72697a9b8232d061ed006943dc00000000000000000000000094cc0aac535ccdb3c01d6787d6413c739ae12bc4000000000000000000000000a21aaf25544cd43505b6e11512e1268dbd453476000000000000000000000000ecf5e30f091d1db7c7b0ef26634a71d46dc9bb250000000000000000000000006e3c2304d1e7c8953b52e8e5f49a6dbd7ef4875b00000000000000000000000037714f599570bb2b8389e98d771f6176b9c96cd3000000000000000000000000ecf5e30f091d1db7c7b0ef26634a71d46dc9bb2518602f4f74172d545f5258541634e1a125c3a4e1227ee2a4cbee957d3490f1fb00000000000000000000000000000000000000000000000000000000000000e0000000000000000000000000000000000000000000000000000000e8d4a5100000000000000000000000000000000000000000000000000000000000000005dc000000000000000000000000a21aaf25544cd43505b6e11512e1268dbd453476000000000000000000000000000000000000000000000000000000012a05f2006eb77d79cfd4376b8e4d0adfa7127fb8bb5558e2eb3b2498ac4a2e989b6a10f50000000000000000000000000000000000000000000000000000000000000002000000000000000000000000e8cf8a5711f08d5211d46a2835ecc9c9af1b91cd0000000000000000000000004200000000000000000000000000000000000006"
      ],
      "transaction": {
        "from": "0xecf5e30f091d1db7c7b0ef26634a71d46dc9bb25",
        "gas": "0xc331f",
        "value": "0x0",
        "input": "0x608060405261026c803803806100148161016e565b9283398101604082820312610156578151916001600160a01b03831690818403610156576020810151906001600160401b038211610156570182601f82011215610156578051906001600160401b03821161015a5761007c601f8301601f191660200161016e565b938285526020838301011161015657815f9260208093018387015e8401015281511561014757823b15610135577f360894a13ba1a3210667c828492db98dca3e2076cc3735a920a3ca505d382bbc80546001600160a01b031916821790557fbc7cd75a20ee27fd9adebab32041f755214dbc6bffa90cc0225b39da2e5c2d3b5f80a280511561011e5761010e91610193565b505b604051604c90816102208239f35b505034156101105763b398979f60e01b5f5260045ffd5b634c9c8ce360e01b5f5260045260245ffd5b6330a289cf60e21b5f5260045ffd5b5f80fd5b634e487b7160e01b5f52604160045260245ffd5b6040519190601f01601f191682016001600160401b0381118382101761015a57604052565b905f8091602081519101845af4808061020c575b156101c75750506040513d81523d5f602083013e60203d82010160405290565b156101ec57639996b31560e01b5f9081526001600160a01b0391909116600452602490fd5b3d156101fd576040513d5f823e3d90fd5b63d6bda27560e01b5f5260045ffd5b503d1515806101a75750813b15156101a756fe60806040527f360894a13ba1a3210667c828492db98dca3e2076cc3735a920a3ca505d382bbc545f9081906001600160a01b0316368280378136915af43d5f803e156048573d5ff35b3d5ffd000000000000000000000000735680a32a0e5d9d23d7e8e8302f434e7f30428e000000000000000000000000000000000000000000000000000000000000004000000000000000000000000000000000000000000000000000000000000002a4636c6acd00000000000000000000000000000000000000000000000000000000000000200000000000000000000000000000000000000000000000000000000000000140000000000000000000000000e8cf8a5711f08d5211d46a2835ecc9c9af1b91cd0000000000000000000000002a94de11521eaf190e451863befe0f178f04df3200000000000000000000000051c07adf596b1e72697a9b8232d061ed006943dc00000000000000000000000094cc0aac535ccdb3c01d6787d6413c739ae12bc4000000000000000000000000a21aaf25544cd43505b6e11512e1268dbd453476000000000000000000000000ecf5e30f091d1db7c7b0ef26634a71d46dc9bb250000000000000000000000006e3c2304d1e7c8953b52e8e5f49a6dbd7ef4875b00000000000000000000000037714f599570bb2b8389e98d771f6176b9c96cd3000000000000000000000000ecf5e30f091d1db7c7b0ef26634a71d46dc9bb2518602f4f74172d545f5258541634e1a125c3a4e1227ee2a4cbee957d3490f1fb00000000000000000000000000000000000000000000000000000000000000e0000000000000000000000000000000000000000000000000000000e8d4a5100000000000000000000000000000000000000000000000000000000000000005dc000000000000000000000000a21aaf25544cd43505b6e11512e1268dbd453476000000000000000000000000000000000000000000000000000000012a05f2006eb77d79cfd4376b8e4d0adfa7127fb8bb5558e2eb3b2498ac4a2e989b6a10f50000000000000000000000000000000000000000000000000000000000000002000000000000000000000000e8cf8a5711f08d5211d46a2835ecc9c9af1b91cd000000000000000000000000420000000000000000000000000000000000000600000000000000000000000000000000000000000000000000000000",
        "nonce": "0x32",
        "chainId": "0x14a34"
      },
      "additionalContracts": [],
      "isFixedGasLimit": false
    },
    {
      "hash": "0x95a9afce7a324e205c73d80c79bb43b752b8a25d1baf34319c04e111b863764d",
      "transactionType": "CALL",
      "contractName": null,
      "contractAddress": "0xe8cf8a5711f08d5211d46a2835ecc9c9af1b91cd",
      "function": "approve(address,uint256)",
      "arguments": [
        "0x2a94DE11521EAF190e451863bEfe0F178f04DF32",
        "115792089237316195423570985008687907853269984665640564039457584007913129639935"
      ],
      "transaction": {
        "from": "0xecf5e30f091d1db7c7b0ef26634a71d46dc9bb25",
        "to": "0xe8cf8a5711f08d5211d46a2835ecc9c9af1b91cd",
        "gas": "0x8e80",
        "value": "0x0",
        "input": "0x095ea7b30000000000000000000000002a94de11521eaf190e451863befe0f178f04df32ffffffffffffffffffffffffffffffffffffffffffffffffffffffffffffffff",
        "nonce": "0x33",
        "chainId": "0x14a34"
      },
      "additionalContracts": [],
      "isFixedGasLimit": false
    },
    {
      "hash": "0xa28cb926bde4fe1d576aede584904acef58044179621ecdc8877ce12327e9f03",
      "transactionType": "CALL",
      "contractName": null,
      "contractAddress": "0x2a94de11521eaf190e451863befe0f178f04df32",
      "function": "registerStrategy(address,bytes32,uint256)",
      "arguments": [
        "0x9e14299e6FAeE1C1F352E2F9197D8A080306FE8d",
        "0x2a9aa442064b635baec37a7a259282faa5563a653a8325378d5676c6f04bc9dd",
        "5000000000"
      ],
      "transaction": {
        "from": "0xecf5e30f091d1db7c7b0ef26634a71d46dc9bb25",
        "to": "0x2a94de11521eaf190e451863befe0f178f04df32",
        "gas": "0x481e7",
        "value": "0x0",
        "input": "0x883756980000000000000000000000009e14299e6faee1c1f352e2f9197d8a080306fe8d2a9aa442064b635baec37a7a259282faa5563a653a8325378d5676c6f04bc9dd000000000000000000000000000000000000000000000000000000012a05f200",
        "nonce": "0x34",
        "chainId": "0x14a34"
      },
      "additionalContracts": [],
      "isFixedGasLimit": false
    },
    {
      "hash": "0xadf589b79ec797f9c06935c7f05b2c9cdcea727fd85b1df712b675e4de1c2e89",
      "transactionType": "CALL",
      "contractName": null,
      "contractAddress": "0x2a94de11521eaf190e451863befe0f178f04df32",
      "function": "registerStrategy(address,bytes32,uint256)",
      "arguments": [
        "0x8b375617589DBC7A90049b0fE07f2Fb4D5A19F08",
        "0x18602f4f74172d545f5258541634e1a125c3a4e1227ee2a4cbee957d3490f1fb",
        "5000000000"
      ],
      "transaction": {
        "from": "0xecf5e30f091d1db7c7b0ef26634a71d46dc9bb25",
        "to": "0x2a94de11521eaf190e451863befe0f178f04df32",
        "gas": "0x46801",
        "value": "0x0",
        "input": "0x883756980000000000000000000000008b375617589dbc7a90049b0fe07f2fb4d5a19f0818602f4f74172d545f5258541634e1a125c3a4e1227ee2a4cbee957d3490f1fb000000000000000000000000000000000000000000000000000000012a05f200",
        "nonce": "0x35",
        "chainId": "0x14a34"
      },
      "additionalContracts": [],
      "isFixedGasLimit": false
    }
  ],
  "receipts": [
    {
      "status": "0x1",
      "cumulativeGasUsed": "0x7bf26d",
      "logs": [
        {
          "address": "0x2a94de11521eaf190e451863befe0f178f04df32",
          "topics": [
            "0x274ec28d31430170ad5dd350f8e7505ffab078c309300878c710383ae4cbed49",
            "0x00000000000000000000000090e7a456404e73466e71a190dbb5a5a3490776a8"
          ],
          "data": "0x",
          "blockHash": "0x0000000000000000000000000000000000000000000000000000000000000000",
          "blockNumber": "0x2789fbc",
          "blockTimestamp": "0x6a049e58",
          "transactionHash": "0x0b27ee071a2a9aaa83d07cc9bbe94e91544d95e43d9c1116d8ba54db9605978f",
          "transactionIndex": "0xa",
          "logIndex": "0xad",
          "removed": false
        }
      ],
      "logsBloom": "0x00000000000000000000000000000000000000000000000000000000800000000000000000000000000020080000000000000000000000000000000000000000000000000000000000000000000000000000000000000000000000000000000000000000000000000000000000000000000000000200000000000000000000000000000000000400000000000000000000000000000000000000000000000000000000004000000000000004000000000000000000000080000000000000000000000000000000000000000000000000000000000000000000000000000000000000000000000000000000000000000000000010000000000000000000000000",
      "type": "0x2",
      "transactionHash": "0x0b27ee071a2a9aaa83d07cc9bbe94e91544d95e43d9c1116d8ba54db9605978f",
      "transactionIndex": "0xa",
      "blockHash": "0x0000000000000000000000000000000000000000000000000000000000000000",
      "blockNumber": "0x2789fbc",
      "gasUsed": "0xa604",
      "effectiveGasPrice": "0x4dd1e0",
      "blobGasUsed": "0xae38",
      "from": "0xecf5e30f091d1db7c7b0ef26634a71d46dc9bb25",
      "to": "0x2a94de11521eaf190e451863befe0f178f04df32",
      "contractAddress": null,
      "daFootprintGasScalar": "0x1be",
      "l1BaseFeeScalar": "0x44d",
      "l1BlobBaseFee": "0x4",
      "l1BlobBaseFeeScalar": "0xa118b",
      "l1Fee": "0x181",
      "l1GasPrice": "0x45",
      "l1GasUsed": "0x640"
    },
    {
      "status": "0x1",
      "cumulativeGasUsed": "0x3cf337",
      "logs": [
        {
          "address": "0x2a94de11521eaf190e451863befe0f178f04df32",
          "topics": [
            "0x274ec28d31430170ad5dd350f8e7505ffab078c309300878c710383ae4cbed49",
            "0x0000000000000000000000001e458d57f9fe0cf50f82366c258b05a254d8fa6f"
          ],
          "data": "0x",
          "blockHash": "0x0000000000000000000000000000000000000000000000000000000000000000",
          "blockNumber": "0x2789fbd",
          "blockTimestamp": "0x6a049e5a",
          "transactionHash": "0x833a408a24b7d17b2847ca8a2d445d5634c9c9e1eb5762c0073017fe81220304",
          "transactionIndex": "0x7",
          "logIndex": "0xee",
          "removed": false
        }
      ],
      "logsBloom": "0x00000000000000000000000000080000000000000000000000000000800000000000000000000000000000080000000000000000000000000000000000000000000000000000000000000000000000000000000000000000000000000000000000000000000000000000000000000000000000000200000000000000000000000000000000000440000000000000000000000000000000000000000000000000000000000000000000000004000000000000000000000080000000000000000000000000000000000000000000000000000000000008000000000000000000000000000000000000000000000000000000000000000000000000000000000000",
      "type": "0x2",
      "transactionHash": "0x833a408a24b7d17b2847ca8a2d445d5634c9c9e1eb5762c0073017fe81220304",
      "transactionIndex": "0x7",
      "blockHash": "0x0000000000000000000000000000000000000000000000000000000000000000",
      "blockNumber": "0x2789fbd",
      "gasUsed": "0xa604",
      "effectiveGasPrice": "0x4dd1e0",
      "blobGasUsed": "0xae38",
      "from": "0xecf5e30f091d1db7c7b0ef26634a71d46dc9bb25",
      "to": "0x2a94de11521eaf190e451863befe0f178f04df32",
      "contractAddress": null,
      "daFootprintGasScalar": "0x1be",
      "l1BaseFeeScalar": "0x44d",
      "l1BlobBaseFee": "0x4",
      "l1BlobBaseFeeScalar": "0xa118b",
      "l1Fee": "0x181",
      "l1GasPrice": "0x45",
      "l1GasUsed": "0x640"
    },
    {
      "status": "0x1",
      "cumulativeGasUsed": "0x43d67d",
      "logs": [
        {
          "address": "0x9e14299e6faee1c1f352e2f9197d8a080306fe8d",
          "topics": [
            "0xbc7cd75a20ee27fd9adebab32041f755214dbc6bffa90cc0225b39da2e5c2d3b",
            "0x000000000000000000000000735680a32a0e5d9d23d7e8e8302f434e7f30428e"
          ],
          "data": "0x",
          "blockHash": "0x0000000000000000000000000000000000000000000000000000000000000000",
          "blockNumber": "0x2789fbe",
          "blockTimestamp": "0x6a049e5c",
          "transactionHash": "0xc8a99dfe3a4ab7beee2d9e93b5233279d488d0f3d85bcc4109725955f93971d6",
          "transactionIndex": "0xf",
          "logIndex": "0x77",
          "removed": false
        },
        {
          "address": "0x9e14299e6faee1c1f352e2f9197d8a080306fe8d",
          "topics": [
            "0x8be0079c531659141344cd1fd0a4f28419497f9722a3daafe3b4186f6b6457e0",
            "0x0000000000000000000000000000000000000000000000000000000000000000",
            "0x000000000000000000000000ecf5e30f091d1db7c7b0ef26634a71d46dc9bb25"
          ],
          "data": "0x",
          "blockHash": "0x0000000000000000000000000000000000000000000000000000000000000000",
          "blockNumber": "0x2789fbe",
          "blockTimestamp": "0x6a049e5c",
          "transactionHash": "0xc8a99dfe3a4ab7beee2d9e93b5233279d488d0f3d85bcc4109725955f93971d6",
          "transactionIndex": "0xf",
          "logIndex": "0x78",
          "removed": false
        },
        {
          "address": "0x9e14299e6faee1c1f352e2f9197d8a080306fe8d",
          "topics": [
            "0xc7f505b2f371ae2175ee4913f4499e1f2633a7b5936321eed1cdaeb6115181d2"
          ],
          "data": "0x0000000000000000000000000000000000000000000000000000000000000001",
          "blockHash": "0x0000000000000000000000000000000000000000000000000000000000000000",
          "blockNumber": "0x2789fbe",
          "blockTimestamp": "0x6a049e5c",
          "transactionHash": "0xc8a99dfe3a4ab7beee2d9e93b5233279d488d0f3d85bcc4109725955f93971d6",
          "transactionIndex": "0xf",
          "logIndex": "0x79",
          "removed": false
        }
      ],
      "logsBloom": "0x00000000000000000000000000000000400000000000000000800000000000000000000000000000000000000000000000000000000000000000200000000000400000000000000000000000000002000009000000000000000000100000000000000000020000000000000000000800000000000000000000000000000000400000000000000000000800000000000000800000000080000000100000000000000000000000000000000000000000000000000000000000000800000000000000000020000000000200000000000000000000000004000000000000000020000100000000000000000000000000000000000000000000000000000000000000",
      "type": "0x2",
      "transactionHash": "0xc8a99dfe3a4ab7beee2d9e93b5233279d488d0f3d85bcc4109725955f93971d6",
      "transactionIndex": "0xf",
      "blockHash": "0x0000000000000000000000000000000000000000000000000000000000000000",
      "blockNumber": "0x2789fbe",
      "gasUsed": "0x96267",
      "effectiveGasPrice": "0x4dd1e0",
      "blobGasUsed": "0x592da",
      "from": "0xecf5e30f091d1db7c7b0ef26634a71d46dc9bb25",
      "to": null,
      "contractAddress": "0x9e14299e6faee1c1f352e2f9197d8a080306fe8d",
      "daFootprintGasScalar": "0x1be",
      "l1BaseFeeScalar": "0x44d",
      "l1BlobBaseFee": "0x4",
      "l1BlobBaseFeeScalar": "0xa118b",
      "l1Fee": "0x181",
      "l1GasPrice": "0x45",
      "l1GasUsed": "0x3330"
    },
    {
      "status": "0x1",
      "cumulativeGasUsed": "0x453847",
      "logs": [
        {
          "address": "0x8b375617589dbc7a90049b0fe07f2fb4d5a19f08",
          "topics": [
            "0xbc7cd75a20ee27fd9adebab32041f755214dbc6bffa90cc0225b39da2e5c2d3b",
            "0x000000000000000000000000735680a32a0e5d9d23d7e8e8302f434e7f30428e"
          ],
          "data": "0x",
          "blockHash": "0xc0a7f42b422ac685a9404d755626b58a882b46699b1b180a26f9e66228342879",
          "blockNumber": "0x2789fbf",
          "blockTimestamp": "0x6a049e5e",
          "transactionHash": "0x17b047371a0a23f5cbc5b935fcdba3a31972d194bd0688e3d4d7614c25257420",
          "transactionIndex": "0x10",
          "logIndex": "0x7a",
          "removed": false
        },
        {
          "address": "0x8b375617589dbc7a90049b0fe07f2fb4d5a19f08",
          "topics": [
            "0x8be0079c531659141344cd1fd0a4f28419497f9722a3daafe3b4186f6b6457e0",
            "0x0000000000000000000000000000000000000000000000000000000000000000",
            "0x000000000000000000000000ecf5e30f091d1db7c7b0ef26634a71d46dc9bb25"
          ],
          "data": "0x",
          "blockHash": "0xc0a7f42b422ac685a9404d755626b58a882b46699b1b180a26f9e66228342879",
          "blockNumber": "0x2789fbf",
          "blockTimestamp": "0x6a049e5e",
          "transactionHash": "0x17b047371a0a23f5cbc5b935fcdba3a31972d194bd0688e3d4d7614c25257420",
          "transactionIndex": "0x10",
          "logIndex": "0x7b",
          "removed": false
        },
        {
          "address": "0x8b375617589dbc7a90049b0fe07f2fb4d5a19f08",
          "topics": [
            "0xc7f505b2f371ae2175ee4913f4499e1f2633a7b5936321eed1cdaeb6115181d2"
          ],
          "data": "0x0000000000000000000000000000000000000000000000000000000000000001",
          "blockHash": "0xc0a7f42b422ac685a9404d755626b58a882b46699b1b180a26f9e66228342879",
          "blockNumber": "0x2789fbf",
          "blockTimestamp": "0x6a049e5e",
          "transactionHash": "0x17b047371a0a23f5cbc5b935fcdba3a31972d194bd0688e3d4d7614c25257420",
          "transactionIndex": "0x10",
          "logIndex": "0x7c",
          "removed": false
        }
      ],
      "logsBloom": "0x00000000000000000000000000000000400000000100080000800000000000000000000000000000000000000000000000000000000000000000000000000000400000000000000000000000000002000009000000000000000000000000000000000000020000000000000000000800000000000000000000000000000000400000000000000000000800000000000000800000000080000000000000000000000000400000000000000000000000000000000000000000000800000000000000000020000000000200000000000000000000000004000000000000000020000100000000000000000000000000000000000000000000000000000000000000",
      "type": "0x2",
      "transactionHash": "0x17b047371a0a23f5cbc5b935fcdba3a31972d194bd0688e3d4d7614c25257420",
      "transactionIndex": "0x10",
      "blockHash": "0xc0a7f42b422ac685a9404d755626b58a882b46699b1b180a26f9e66228342879",
      "blockNumber": "0x2789fbf",
      "gasUsed": "0x96267",
      "effectiveGasPrice": "0x4dd1e0",
      "blobGasUsed": "0x592da",
      "from": "0xecf5e30f091d1db7c7b0ef26634a71d46dc9bb25",
      "to": null,
      "contractAddress": "0x8b375617589dbc7a90049b0fe07f2fb4d5a19f08",
      "daFootprintGasScalar": "0x1be",
      "l1BaseFeeScalar": "0x44d",
      "l1BlobBaseFee": "0x4",
      "l1BlobBaseFeeScalar": "0xa118b",
      "l1Fee": "0xc55",
      "l1GasPrice": "0x45",
      "l1GasUsed": "0x3330"
    },
    {
      "status": "0x1",
      "cumulativeGasUsed": "0x33ba8f",
      "logs": [
        {
          "address": "0xe8cf8a5711f08d5211d46a2835ecc9c9af1b91cd",
          "topics": [
            "0x8c5be1e5ebec7d5bd14f71427d1e84f3dd0314c0f7b2291e5b200ac8c7c3b925",
            "0x000000000000000000000000ecf5e30f091d1db7c7b0ef26634a71d46dc9bb25",
            "0x0000000000000000000000002a94de11521eaf190e451863befe0f178f04df32"
          ],
          "data": "0xffffffffffffffffffffffffffffffffffffffffffffffffffffffffffffffff",
          "blockHash": "0x0000000000000000000000000000000000000000000000000000000000000000",
          "blockNumber": "0x2789fc0",
          "blockTimestamp": "0x6a049e60",
          "transactionHash": "0x95a9afce7a324e205c73d80c79bb43b752b8a25d1baf34319c04e111b863764d",
          "transactionIndex": "0x9",
          "logIndex": "0x97",
          "removed": false
        }
      ],
      "logsBloom": "0x00000000000000000000000000000000000000000000000000000000000000000000000000000000000000000000000000000000000000000000000000200000400000000000000000100000000000000000000000000000000000000000000000000000000000000000000000000000000000000000000000000000000000000000000000000000000000000000000000800000000000000000000000000000020000000000000000000000000000000000000000000000000200000000000000000000000000000200000000000800000000000000000000000000000800000010000000000000000000100020000000000000000000000000000000000000",
      "type": "0x2",
      "transactionHash": "0x95a9afce7a324e205c73d80c79bb43b752b8a25d1baf34319c04e111b863764d",
      "transactionIndex": "0x9",
      "blockHash": "0x0000000000000000000000000000000000000000000000000000000000000000",
      "blockNumber": "0x2789fc0",
      "gasUsed": "0x672c",
      "effectiveGasPrice": "0x4dd1e0",
      "blobGasUsed": "0xae38",
      "from": "0xecf5e30f091d1db7c7b0ef26634a71d46dc9bb25",
      "to": "0xe8cf8a5711f08d5211d46a2835ecc9c9af1b91cd",
      "contractAddress": null,
      "daFootprintGasScalar": "0x1be",
      "l1BaseFeeScalar": "0x44d",
      "l1BlobBaseFee": "0x4",
      "l1BlobBaseFeeScalar": "0xa118b",
      "l1Fee": "0x247",
      "l1GasPrice": "0x45",
      "l1GasUsed": "0x640"
    },
    {
      "status": "0x1",
      "cumulativeGasUsed": "0x505efc",
      "logs": [
        {
          "address": "0xe8cf8a5711f08d5211d46a2835ecc9c9af1b91cd",
          "topics": [
            "0xddf252ad1be2c89b69c2b068fc378daa952ba7f163c4a11628f55a4df523b3ef",
            "0x000000000000000000000000ecf5e30f091d1db7c7b0ef26634a71d46dc9bb25",
            "0x0000000000000000000000002a94de11521eaf190e451863befe0f178f04df32"
          ],
          "data": "0x000000000000000000000000000000000000000000000000000000012a05f200",
          "blockHash": "0x3620550375c8e04258b774d0d323284a512abe3a8d625f881845d5dfd51813fb",
          "blockNumber": "0x2789fc1",
          "blockTimestamp": "0x6a049e62",
          "transactionHash": "0xa28cb926bde4fe1d576aede584904acef58044179621ecdc8877ce12327e9f03",
          "transactionIndex": "0x13",
          "logIndex": "0xe0",
          "removed": false
        },
        {
          "address": "0x2a94de11521eaf190e451863befe0f178f04df32",
          "topics": [
            "0xfcbcc085af918c303c797ac8b02a2f04d41a4756ade38c4232d74e33a1e1a9a1",
            "0x0000000000000000000000009e14299e6faee1c1f352e2f9197d8a080306fe8d",
            "0x0000000000000000000000009e14299e6faee1c1f352e2f9197d8a080306fe8d",
            "0x000000000000000000000000ecf5e30f091d1db7c7b0ef26634a71d46dc9bb25"
          ],
          "data": "0x2a9aa442064b635baec37a7a259282faa5563a653a8325378d5676c6f04bc9dd000000000000000000000000000000000000000000000000000000012a05f200",
          "blockHash": "0x3620550375c8e04258b774d0d323284a512abe3a8d625f881845d5dfd51813fb",
          "blockNumber": "0x2789fc1",
          "blockTimestamp": "0x6a049e62",
          "transactionHash": "0xa28cb926bde4fe1d576aede584904acef58044179621ecdc8877ce12327e9f03",
          "transactionIndex": "0x13",
          "logIndex": "0xe1",
          "removed": false
        }
      ],
      "logsBloom": "0x00000000000000001002000000000000000000000000000000000000800000000000000000000000000000000000000000000000000000000000000000000000400000000000000000100008000000000000000000000000000000000000000000000000000000000000000000000200000000000000000000000010000000000000000000000400000400000000000000800000000000000000000002000000000000002000000000000000000000000000000000000080000200000000000000000002000000000200000000000800000000000000000000000000000800000000000000000000000000100020000000000000000000000000000000000000",
      "type": "0x2",
      "transactionHash": "0xa28cb926bde4fe1d576aede584904acef58044179621ecdc8877ce12327e9f03",
      "transactionIndex": "0x13",
      "blockHash": "0x3620550375c8e04258b774d0d323284a512abe3a8d625f881845d5dfd51813fb",
      "blockNumber": "0x2789fc1",
      "gasUsed": "0x34368",
      "effectiveGasPrice": "0x4dd1e0",
      "blobGasUsed": "0xca18",
      "from": "0xecf5e30f091d1db7c7b0ef26634a71d46dc9bb25",
      "to": "0x2a94de11521eaf190e451863befe0f178f04df32",
      "contractAddress": null,
      "daFootprintGasScalar": "0x1be",
      "l1BaseFeeScalar": "0x44d",
      "l1BlobBaseFee": "0x4",
      "l1BlobBaseFeeScalar": "0xa118b",
      "l1Fee": "0x1c0",
      "l1GasPrice": "0x45",
      "l1GasUsed": "0x745"
    },
    {
      "status": "0x1",
      "cumulativeGasUsed": "0x2cd115",
      "logs": [
        {
          "address": "0xe8cf8a5711f08d5211d46a2835ecc9c9af1b91cd",
          "topics": [
            "0xddf252ad1be2c89b69c2b068fc378daa952ba7f163c4a11628f55a4df523b3ef",
            "0x000000000000000000000000ecf5e30f091d1db7c7b0ef26634a71d46dc9bb25",
            "0x0000000000000000000000002a94de11521eaf190e451863befe0f178f04df32"
          ],
          "data": "0x000000000000000000000000000000000000000000000000000000012a05f200",
          "blockHash": "0x0000000000000000000000000000000000000000000000000000000000000000",
          "blockNumber": "0x2789fc2",
          "blockTimestamp": "0x6a049e64",
          "transactionHash": "0xadf589b79ec797f9c06935c7f05b2c9cdcea727fd85b1df712b675e4de1c2e89",
          "transactionIndex": "0xe",
          "logIndex": "0x55",
          "removed": false
        },
        {
          "address": "0x2a94de11521eaf190e451863befe0f178f04df32",
          "topics": [
            "0xfcbcc085af918c303c797ac8b02a2f04d41a4756ade38c4232d74e33a1e1a9a1",
            "0x0000000000000000000000008b375617589dbc7a90049b0fe07f2fb4d5a19f08",
            "0x0000000000000000000000008b375617589dbc7a90049b0fe07f2fb4d5a19f08",
            "0x000000000000000000000000ecf5e30f091d1db7c7b0ef26634a71d46dc9bb25"
          ],
          "data": "0x18602f4f74172d545f5258541634e1a125c3a4e1227ee2a4cbee957d3490f1fb000000000000000000000000000000000000000000000000000000012a05f200",
          "blockHash": "0x0000000000000000000000000000000000000000000000000000000000000000",
          "blockNumber": "0x2789fc2",
          "blockTimestamp": "0x6a049e64",
          "transactionHash": "0xadf589b79ec797f9c06935c7f05b2c9cdcea727fd85b1df712b675e4de1c2e89",
          "transactionIndex": "0xe",
          "logIndex": "0x56",
          "removed": false
        }
      ],
      "logsBloom": "0x00000000000000000000000000000000000000000000000000000000800000000100000000000000000000000000000000000000000000000000000000000000400000000000000000100008000000000000000000000000000000000000400000000000000000000000000000000200000000000000000000000010000000000000000000000400000400000000000000800000000000000000080002000000000000000000000000000000000000000000000000000080000200000000000000000002000000000200000000000800000000000000000000000000000800000000000000000000000000100020000000000000000000000000000000000000",
      "type": "0x2",
      "transactionHash": "0xadf589b79ec797f9c06935c7f05b2c9cdcea727fd85b1df712b675e4de1c2e89",
      "transactionIndex": "0xe",
      "blockHash": "0x0000000000000000000000000000000000000000000000000000000000000000",
      "blockNumber": "0x2789fc2",
      "gasUsed": "0x330a8",
      "effectiveGasPrice": "0x4dd1e0",
      "blobGasUsed": "0xca18",
      "from": "0xecf5e30f091d1db7c7b0ef26634a71d46dc9bb25",
      "to": "0x2a94de11521eaf190e451863befe0f178f04df32",
      "contractAddress": null,
      "daFootprintGasScalar": "0x1be",
      "l1BaseFeeScalar": "0x44d",
      "l1BlobBaseFee": "0x4",
      "l1BlobBaseFeeScalar": "0xa118b",
      "l1Fee": "0x1c0",
      "l1GasPrice": "0x45",
      "l1GasUsed": "0x745"
    }
  ],
  "libraries": [],
  "pending": [],
  "returns": {},
  "timestamp": 1778687587383,
  "chain": 84532,
  "commit": "a046445"
}