{
  "transactions": [
    {
      "hash": "0x057ec2a8ccd8e01fb92845d1f060f1acce45180b456aac8b31181837406e0e76",
      "transactionType": "CREATE",
      "contractName": "YieldRotationV1Verifier",
      "contractAddress": "0x159fa2006c3d37a599a7d47b34f6a7db82e4c109",
      "function": null,
      "arguments": null,
      "transaction": {
        "from": "0xecf5e30f091d1db7c7b0ef26634a71d46dc9bb25",
        "gas": "0xe3af4",
        "value": "0x0",
        "input": "0x60808060405234601557610c00908161001a8239f35b5f80fdfe60806040526004361015610011575f80fd5b5f3560e01c63f143a75e14610024575f80fd5b3461010b576102a036600319011261010b5761003f3661010f565b3660c41161010b576100503661011c565b366102a41161010b576101049161040060405261006f6101043561012a565b61007b6101243561012a565b6100876101443561012a565b6100936101643561012a565b61009f6101843561012a565b6100ab6101a43561012a565b6100b76101c43561012a565b6100c36101e43561012a565b6100cf6102043561012a565b6100db6102243561012a565b6100e76102443561012a565b6100f36102643561012a565b6100ff6102843561012a565b610877565b5f5260205ff35b5f80fd5b9060049160441161010b57565b9060c4916101041161010b57565b7f30644e72e131a029b85045b68181585d2833e84879b9709143e1f593f0000001111561015357565b5f805260205ff35b604051917f294b087a01446dff0c67f03e6d67ca5b296521a11cbdc6767be411f335d5b09083527f22e8b02132cd6906f8869db6a2bf13810bfe8df46d23152cc5cfee19c904609260208401526040830190815260408360608160076107cf195a01fa1561015357815190526020810151606083015260409160809060066107cf195a01fa1561015357565b604051917f1508b4f2d327bee089bda18c35b3c27e6eb3cd04bbb47c604bd55356bbb4b02183527f1b52cee0de44f7d2d66c480f7d9e44be69c69f36d09629dfdfd5008eea8f6ea360208401526040830190815260408360608160076107cf195a01fa1561015357815190526020810151606083015260409160809060066107cf195a01fa1561015357565b604051917f2f1173ee33781786936489a6f64c9f831a5522d6ba0573ab40f5b7e28c028cd683527f151fb377a218a695a6ba44c40f8f1468739c2cd3666c13e9861b66b8cce238df60208401526040830190815260408360608160076107cf195a01fa1561015357815190526020810151606083015260409160809060066107cf195a01fa1561015357565b604051917f0f9e2a530e261acf3c0529329783c3c323e79b95ab823e742de7c15f4f0da3c583527f101bfde9de95980a126d9456d3838d1abfdb70d687cf4288d4bf722babf0d5b560208401526040830190815260408360608160076107cf195a01fa1561015357815190526020810151606083015260409160809060066107cf195a01fa1561015357565b604051917f0b936ae88c1300c751368550012063bce7f57d72afae49a179853c607975405883527f1204a14e2f005d5202b1257e1421404b93133008fa177f83bbf81ad3cdf5d08660208401526040830190815260408360608160076107cf195a01fa1561015357815190526020810151606083015260409160809060066107cf195a01fa1561015357565b604051917f153508138117375e35922de15b89aed235766957de0b8e9f8e687e5214a9156983527f0af1cf7f49098f221d02651a5341b9b29e1f64a7fee2308fe2cdc003342160c160208401526040830190815260408360608160076107cf195a01fa1561015357815190526020810151606083015260409160809060066107cf195a01fa1561015357565b604051917f1d437cfba592a3d74de8ee02a344a9d36d96b7643509a1b670a3fc3fd2fc6fef83527f197c29ebe83705af7cc7691e8c919231d22d366a24c10ff834927df5252076db60208401526040830190815260408360608160076107cf195a01fa1561015357815190526020810151606083015260409160809060066107cf195a01fa1561015357565b604051917f158dc04b03a1f15542a1c08364f9f2d6b685e436fa84878f5b600bb50630390983527f2474a56bc3aa6c6f859da43545eafa6d222cc6cdebdf4241e8c8034fca7a8b9460208401526040830190815260408360608160076107cf195a01fa1561015357815190526020810151606083015260409160809060066107cf195a01fa1561015357565b604051917f27ea395a5396343af508ccec0e0f5e0d9b5c0d43f766a9a27fbe16f9650108bf83527f2d41b7015a242f8612d610ae7e900f1e50c00a04e64003b87f41b2b473936a4a60208401526040830190815260408360608160076107cf195a01fa1561015357815190526020810151606083015260409160809060066107cf195a01fa1561015357565b604051917f2f6e754784372c93953a0c83d782117d5d725891ac8caa7ab914d2663e92e3b883527f23bab6ff96544d3c9063905a68b26a9d952a3fcd699e1fd7efa5aa8f6edd0aa360208401526040830190815260408360608160076107cf195a01fa1561015357815190526020810151606083015260409160809060066107cf195a01fa1561015357565b604051917f187454803ce63d7430533df91b4f997f99a017aab2b5c1f8770e754544f938f183527f0a38a0062e222c9e4f5d60663a86c9a4ffaf08daedf6da6dc56f9cdae7897a9760208401526040830190815260408360608160076107cf195a01fa1561015357815190526020810151606083015260409160809060066107cf195a01fa1561015357565b604051917f0318c501801ce1f140f2ff9f056c27f467cc8349815785cc3033db7caf9f714c83527f0450bb8a9ee9ba474c8f24a2e163e40fd95c712ff13b31efaa980967b5bc8a1460208401526040830190815260408360608160076107cf195a01fa1561015357815190526020810151606083015260409160809060066107cf195a01fa1561015357565b604051917f1dd2400bef9fc6c452b7182dda34aee060d06e2dcbdc0015fb50f1a7c3b167c083527f043e29ba61f9e3d91fad050338cf59070ed4f2c9dbdb40c3490a312289bdc00560208401526040830190815260408360608160076107cf195a01fa1561015357815190526020810151606083015260409160809060066107cf195a01fa1561015357565b907f30644e72e131a029b85045b68181585d97816a916871ca8d3c208c16d87cfd47602080937f2ec3a14e9bde0621687ed5b54bb1854a076932c3712fc2f4b31cd2c3c3ee3d4a6080527f172905d3a7fc179d0d91a2cc22ed7dd84a8959bdcb2ae8fa5a5a990867bbd4ea60a0526108f361010435608061015b565b6109016101243560806101e7565b61090f610144356080610273565b61091d6101643560806102ff565b61092b61018435608061038b565b6109396101a4356080610417565b6109476101c43560806104a3565b6109556101e435608061052f565b6109636102043560806105bb565b610971610224356080610647565b61097f6102443560806106d3565b61098d61026435608061075f565b61099b6102843560806107eb565b80356101005201358103066101205260443561014052606435610160526084356101805260a4356101a0527f2d4d9aa7e302d9df41749d5507949d05dbea33fbb16c643b22f599a2be6df2e26101c0527f14bedd503c37ceb061d8ec60209fe345ce89830a19230301f076caff004d19266101e0527f0967032fcbf776d1afc985f88877f182d38480a653f2decaa9794cbc3bf3060c610200527f0e187847ad4c798374d0d6732bf501847dd68bc0e071241e0213bc7fc13db7ab610220527f304cfbd1e08a704a99f5e847d93f8c3caafddec46b7a0d379da69a4d112346a7610240527f1739c1b1a457a8c7313123d24d2f9192f896b7c63eea05a9d57f06547ad0cec8610260526080516102805260a0516102a0527f198e9393920d483a7260bfb731fb5d25f1aa493335a9e71297e485b7aef312c26102c0527f1800deef121f1e76426a00665e5c4479674322d4f75edadd46debd5cd992f6ed6102e0527f090689d0585ff075ec9e99ad690c3395bc4b313370b38ef355acdadcd122975b610300527f12c85ea5db8c6deb4aab71808dcb408fe3d1e7690c43d37b4ce6cc0166fa7daa610320528035610340520135610360527f2c8f3e687f2c9a3db5bc2ec50982515f830e0f4e70ae0438b26f21a97c4426fd610380527f173c7ef799a16a0dd056f836048ddbcc699a38e2122a88e89a5c10476e6577296103a0527f09869055cc2cda5a8ebf05497733d4649b0a0be700a0647ed97950e3a85b2c386103c0527f1140c6551e951ccde5bb21a85618bd10e1d2fc5203c8442f8c6d54f36f0bc7526103e05260206101006103008160086107cf195a01fa61010051169056",
        "nonce": "0x9d36",
        "chainId": "0x940"
      },
      "additionalContracts": [],
      "isFixedGasLimit": false
    },
    {
      "hash": "0x471caa775c03e41620b1563e0e09bfcf09d6e9de36a83771528bde4233bf18b1",
      "transactionType": "CREATE",
      "contractName": "YieldRotationV1VerifierAdapter",
      "contractAddress": "0xb0fba2997206429712873ec65486f3119982608e",
      "function": null,
      "arguments": [
        "0x159fA2006C3d37A599a7d47b34F6a7dB82E4c109"
      ],
      "transaction": {
        "from": "0xecf5e30f091d1db7c7b0ef26634a71d46dc9bb25",
        "gas": "0x3e222",
        "value": "0x0",
        "input": "0x60a034606f57601f61031338819003918201601f19168301916001600160401b03831184841017607357808492602094604052833981010312606f57516001600160a01b03811690819003606f5760805260405161028b9081610088823960805181818161014201526102260152f35b5f80fd5b634e487b7160e01b5f52604160045260245ffdfe6080806040526004361015610012575f80fd5b5f3560e01c9081634adb772914610214575063c32e370e14610032575f80fd5b346101ba576101203660031901126101ba57366044116101ba573660c4116101ba5736610104116101ba576101043567ffffffffffffffff81116101ba57366023820112156101ba57806004013567ffffffffffffffff81116101ba573660248260051b840101116101ba57600d81036101fd576040516101a06100b68183610255565b3682375f5b600d8110156100f857828110156100e4578060019160051b6024818701013590840152016100bb565b634e487b7160e01b5f52603260045260245ffd5b50604080516378a1d3af60e11b8152919060048084013760445f8382015b600282106101e757505050604060c4808401375f61010483015b600d82106101d157836020816102a4817f00000000000000000000000000000000000000000000000000000000000000006001600160a01b03165afa80156101c6575f90610186575b6020906040519015158152f35b506020813d6020116101be575b816101a060209383610255565b810103126101ba575180151581036101ba57602090610179565b5f80fd5b3d9150610193565b6040513d5f823e3d90fd5b6020806001928551815201930191019091610130565b6040808281866001953701930191019091610116565b6349803a0d60e11b5f52600452600d60245260445ffd5b346101ba575f3660031901126101ba577f00000000000000000000000000000000000000000000000000000000000000006001600160a01b03168152602090f35b90601f8019910116810190811067ffffffffffffffff82111761027757604052565b634e487b7160e01b5f52604160045260245ffd000000000000000000000000159fa2006c3d37a599a7d47b34f6a7db82e4c109",
        "nonce": "0x9d37",
        "chainId": "0x940"
      },
      "additionalContracts": [],
      "isFixedGasLimit": false
    },
    {
      "hash": "0x2d28f51342adc9e5c806da84a985b36d10cddb3978a4c1e72d216a7900756435",
      "transactionType": "CALL",
      "contractName": null,
      "contractAddress": "0xd54c6b8c0ad19f815996d45f7c0a2419cb159017",
      "function": "registerVerifier(bytes32,address)",
      "arguments": [
        "0x2a9aa442064b635baec37a7a259282faa5563a653a8325378d5676c6f04bc9dd",
        "0x13424B7e1B03E9C820872dC76904bFb63758DBbe"
      ],
      "transaction": {
        "from": "0xecf5e30f091d1db7c7b0ef26634a71d46dc9bb25",
        "to": "0xd54c6b8c0ad19f815996d45f7c0a2419cb159017",
        "gas": "0x10518",
        "value": "0x0",
        "input": "0xd716ee422a9aa442064b635baec37a7a259282faa5563a653a8325378d5676c6f04bc9dd00000000000000000000000013424b7e1b03e9c820872dc76904bfb63758dbbe",
        "nonce": "0x9d38",
        "chainId": "0x940"
      },
      "additionalContracts": [],
      "isFixedGasLimit": false
    },
    {
      "hash": "0x6322789546d0bf53e96df3fb0d8d51f131b1f851961332a1daa36e89edac3a32",
      "transactionType": "CALL",
      "contractName": null,
      "contractAddress": "0xd54c6b8c0ad19f815996d45f7c0a2419cb159017",
      "function": "registerVerifier(bytes32,address)",
      "arguments": [
        "0x18602f4f74172d545f5258541634e1a125c3a4e1227ee2a4cbee957d3490f1fb",
        "0x5967AFC6770dA8130eE7fF56a429916650FeE497"
      ],
      "transaction": {
        "from": "0xecf5e30f091d1db7c7b0ef26634a71d46dc9bb25",
        "to": "0xd54c6b8c0ad19f815996d45f7c0a2419cb159017",
        "gas": "0x10518",
        "value": "0x0",
        "input": "0xd716ee4218602f4f74172d545f5258541634e1a125c3a4e1227ee2a4cbee957d3490f1fb0000000000000000000000005967afc6770da8130ee7ff56a429916650fee497",
        "nonce": "0x9d39",
        "chainId": "0x940"
      },
      "additionalContracts": [],
      "isFixedGasLimit": false
    },
    {
      "hash": "0x2f07208f62e4ed13e66a8373e01ee94e126eb8f605fe6ca4a54e99f15635ddb3",
      "transactionType": "CALL",
      "contractName": null,
      "contractAddress": "0xd54c6b8c0ad19f815996d45f7c0a2419cb159017",
      "function": "registerVerifier(bytes32,address)",
      "arguments": [
        "0x2e882135c6afc3bda02a9c8a7c6a351198d97599c804a2575a3d616073a87251",
        "0xB0FBa2997206429712873eC65486f3119982608E"
      ],
      "transaction": {
        "from": "0xecf5e30f091d1db7c7b0ef26634a71d46dc9bb25",
        "to": "0xd54c6b8c0ad19f815996d45f7c0a2419cb159017",
        "gas": "0x10518",
        "value": "0x0",
        "input": "0xd716ee422e882135c6afc3bda02a9c8a7c6a351198d97599c804a2575a3d616073a87251000000000000000000000000b0fba2997206429712873ec65486f3119982608e",
        "nonce": "0x9d3a",
        "chainId": "0x940"
      },
      "additionalContracts": [],
      "isFixedGasLimit": false
    }
  ],
  "receipts": [
    {
      "status": "0x1",
      "cumulativeGasUsed": "0xaf246",
      "logs": [],
      "logsBloom": "0x00000000000000000000000000000000000000000000000000000000000000000000000000000000000000000000000000000000000000000000000000000000000000000000000000000000000000000000000000000000000000000000000000000000000000000000000000000000000000000000000000000000000000000000000000000000000000000000000000000000000000000000000000000000000000000000000000000000000000000000000000000000000000000000000000000000000000000000000000000000000000000000000000000000000000000000000000000000000000000000000000000000000000000000000000000000",
      "type": "0x2",
      "transactionHash": "0x057ec2a8ccd8e01fb92845d1f060f1acce45180b456aac8b31181837406e0e76",
      "transactionIndex": "0x0",
      "blockHash": "0x02ae2f6d530a2708d78ac9d506397540b4bc8960ec651b916b2855aef3615282",
      "blockNumber": "0x1458d88",
      "gasUsed": "0xaf246",
      "effectiveGasPrice": "0xf4241",
      "from": "0xecf5e30f091d1db7c7b0ef26634a71d46dc9bb25",
      "to": null,
      "contractAddress": "0x159fa2006c3d37a599a7d47b34f6a7db82e4c109"
    },
    {
      "status": "0x1",
      "cumulativeGasUsed": "0x3f82e",
      "logs": [],
      "logsBloom": "0x00000000000000000000000000000000000000000000000000000000000000000000000000000000000000000000000000000000000000000000000000000000000000000000000000000000000000000000000000000000000000000000000000000000000000000000000000000000000000000000000000000000000000000000000000000000000000000000000000000000000000000000000000000000000000000000000000000000000000000000000000000000000000000000000000000000000000000000000000000000000000000000000000000000000000000000000000000000000000000000000000000000000000000000000000000000",
      "type": "0x2",
      "transactionHash": "0x471caa775c03e41620b1563e0e09bfcf09d6e9de36a83771528bde4233bf18b1",
      "transactionIndex": "0x1",
      "blockHash": "0xe7a3ae357dda33445deb0f3627d1fbe3126c24e0d19a730493921ff3824a1872",
      "blockNumber": "0x1458d89",
      "gasUsed": "0x2fcb8",
      "effectiveGasPrice": "0xf4241",
      "from": "0xecf5e30f091d1db7c7b0ef26634a71d46dc9bb25",
      "to": null,
      "contractAddress": "0xb0fba2997206429712873ec65486f3119982608e"
    },
    {
      "status": "0x1",
      "cumulativeGasUsed": "0x153db",
      "logs": [
        {
          "address": "0xd54c6b8c0ad19f815996d45f7c0a2419cb159017",
          "topics": [
            "0x844aebaef6b58c1ac9ca20d442e8daac6dcd22a339a70bbed6385ab64882c3b4",
            "0x2a9aa442064b635baec37a7a259282faa5563a653a8325378d5676c6f04bc9dd"
          ],
          "data": "0x00000000000000000000000013424b7e1b03e9c820872dc76904bfb63758dbbe",
          "blockHash": "0xaf218cd1aa4d9b44330f1a9c89287a0b523c6d193297dbad94b07bf9c18e895c",
          "blockNumber": "0x1458d8a",
          "transactionHash": "0x2d28f51342adc9e5c806da84a985b36d10cddb3978a4c1e72d216a7900756435",
          "transactionIndex": "0x1",
          "logIndex": "0x1",
          "removed": false
        }
      ],
      "logsBloom": "0x000000000000000000000000000000000000000000000000000000000000000000000000000000000000000000000000000000000000000000000000000000000000000000000000000000000000000000000000000000000000000000000000000000000020000000000000000000000000000000000000000000000000000000000000000000000800000000000000040000000c0000000000000000000000000000000000000100000000000000000000000000000000000040000000000000000000000010000000000000000000000000000000000000000000000000000000400000000000000000000000000000000000000000000000000000000000",
      "type": "0x2",
      "transactionHash": "0x2d28f51342adc9e5c806da84a985b36d10cddb3978a4c1e72d216a7900756435",
      "transactionIndex": "0x1",
      "blockHash": "0xaf218cd1aa4d9b44330f1a9c89287a0b523c6d193297dbad94b07bf9c18e895c",
      "blockNumber": "0x1458d8a",
      "gasUsed": "0xbd08",
      "effectiveGasPrice": "0xf4241",
      "from": "0xecf5e30f091d1db7c7b0ef26634a71d46dc9bb25",
      "to": "0xd54c6b8c0ad19f815996d45f7c0a2419cb159017",
      "contractAddress": null
    },
    {
      "status": "0x1",
      "cumulativeGasUsed": "0xbd08",
      "logs": [
        {
          "address": "0xd54c6b8c0ad19f815996d45f7c0a2419cb159017",
          "topics": [
            "0x844aebaef6b58c1ac9ca20d442e8daac6dcd22a339a70bbed6385ab64882c3b4",
            "0x18602f4f74172d545f5258541634e1a125c3a4e1227ee2a4cbee957d3490f1fb"
          ],
          "data": "0x0000000000000000000000005967afc6770da8130ee7ff56a429916650fee497",
          "blockHash": "0x6ea7a04fd28d6c2e03bb46dc235a4fb28fcda4b26cd6b3247d70e963ef29a8dd",
          "blockNumber": "0x1458d8b",
          "transactionHash": "0x6322789546d0bf53e96df3fb0d8d51f131b1f851961332a1daa36e89edac3a32",
          "transactionIndex": "0x0",
          "logIndex": "0x0",
          "removed": false
        }
      ],
      "logsBloom": "0x000000000000000000000000000000000000000000000000000000000000000000000000000000000000000000000000000000000000000000000000000000000000000000000000001000000000000000000000000000000000000000000000000000000020000000400000000000000000000000000000000000000000000000000000000000000800000000000000000000000c0000000000000000000000000000000000000100000000000000000000000000000000000040000000000000008000000000000000000000000000000000000000000000000000000000000000000000000000000000000000000000000000000000000000000000000000",
      "type": "0x2",
      "transactionHash": "0x6322789546d0bf53e96df3fb0d8d51f131b1f851961332a1daa36e89edac3a32",
      "transactionIndex": "0x0",
      "blockHash": "0x6ea7a04fd28d6c2e03bb46dc235a4fb28fcda4b26cd6b3247d70e963ef29a8dd",
      "blockNumber": "0x1458d8b",
      "gasUsed": "0xbd08",
      "effectiveGasPrice": "0xf4241",
      "from": "0xecf5e30f091d1db7c7b0ef26634a71d46dc9bb25",
      "to": "0xd54c6b8c0ad19f815996d45f7c0a2419cb159017",
      "contractAddress": null
    },
    {
      "status": "0x1",
      "cumulativeGasUsed": "0xbd08",
      "logs": [
        {
          "address": "0xd54c6b8c0ad19f815996d45f7c0a2419cb159017",
          "topics": [
            "0x844aebaef6b58c1ac9ca20d442e8daac6dcd22a339a70bbed6385ab64882c3b4",
            "0x2e882135c6afc3bda02a9c8a7c6a351198d97599c804a2575a3d616073a87251"
          ],
          "data": "0x000000000000000000000000b0fba2997206429712873ec65486f3119982608e",
          "blockHash": "0x7654f5a398555068dd18e7a2f62d743be1dc98442d694f5dc11b8f54ccb77279",
          "blockNumber": "0x1458d8c",
          "transactionHash": "0x2f07208f62e4ed13e66a8373e01ee94e126eb8f605fe6ca4a54e99f15635ddb3",
          "transactionIndex": "0x0",
          "logIndex": "0x0",
          "removed": false
        }
      ],
      "logsBloom": "0x000000000000000000000000000000000000000000000000000000000000000000000000000000000080000000000000000000000000000000000000000000000000000000000000000000000000000000000000000000000000000000000000000000000020000000000000000000000000000000000000000000000000000000000000000000000800080000000000000000000c0000000000000000000000000000000000000100000000000000000000000000000000000040000000000000000000000000000000000000100000000000000000000000000000000000000000000000000000000000000000000000000000000000000000000000000000",
      "type": "0x2",
      "transactionHash": "0x2f07208f62e4ed13e66a8373e01ee94e126eb8f605fe6ca4a54e99f15635ddb3",
      "transactionIndex": "0x0",
      "blockHash": "0x7654f5a398555068dd18e7a2f62d743be1dc98442d694f5dc11b8f54ccb77279",
      "blockNumber": "0x1458d8c",
      "gasUsed": "0xbd08",
      "effectiveGasPrice": "0xf4241",
      "from": "0xecf5e30f091d1db7c7b0ef26634a71d46dc9bb25",
      "to": "0xd54c6b8c0ad19f815996d45f7c0a2419cb159017",
      "contractAddress": null
    }
  ],
  "libraries": [],
  "pending": [],
  "returns": {
    "a": {
      "internal_type": "struct CompleteCutoverFinish.Out",
      "value": "(0x159fA2006C3d37A599a7d47b34F6a7dB82E4c109, 0xB0FBa2997206429712873eC65486f3119982608E)"
    }
  },
  "timestamp": 1778596767509,
  "chain": 2368,
  "commit": "2a447e3"
}